{
  "_format": "hh-sol-artifact-1",
  "contractName": "CollateralManager",
  "sourceName": "contracts/CollateralManager.sol",
  "abi": [
    {
      "inputs": [
        {
          "internalType": "address",
          "name": "_globeToken",
          "type": "address"
        }
      ],
      "stateMutability": "nonpayable",
      "type": "constructor"
    },
    {
      "inputs": [],
      "name": "AccessControlBadConfirmation",
      "type": "error"
    },
    {
      "inputs": [
        {
          "internalType": "address",
          "name": "account",
          "type": "address"
        },
        {
          "internalType": "bytes32",
          "name": "neededRole",
          "type": "bytes32"
        }
      ],
      "name": "AccessControlUnauthorizedAccount",
      "type": "error"
    },
    {
      "inputs": [],
      "name": "ReentrancyGuardReentrantCall",
      "type": "error"
    },
    {
      "anonymous": false,
      "inputs": [
        {
          "indexed": false,
          "internalType": "string",
          "name": "symbol",
          "type": "string"
        },
        {
          "indexed": false,
          "internalType": "enum CollateralManager.AssetClass",
          "name": "assetClass",
          "type": "uint8"
        },
        {
          "indexed": false,
          "internalType": "uint256",
          "name": "targetWeight",
          "type": "uint256"
        }
      ],
      "name": "AssetAdded",
      "type": "event"
    },
    {
      "anonymous": false,
      "inputs": [
        {
          "indexed": false,
          "internalType": "string",
          "name": "symbol",
          "type": "string"
        },
        {
          "indexed": false,
          "internalType": "uint256",
          "name": "newPrice",
          "type": "uint256"
        }
      ],
      "name": "AssetPriceUpdated",
      "type": "event"
    },
    {
      "anonymous": false,
      "inputs": [
        {
          "indexed": false,
          "internalType": "string",
          "name": "symbol",
          "type": "string"
        }
      ],
      "name": "AssetRemoved",
      "type": "event"
    },
    {
      "anonymous": false,
      "inputs": [
        {
          "indexed": false,
          "internalType": "string",
          "name": "symbol",
          "type": "string"
        },
        {
          "indexed": false,
          "internalType": "uint256",
          "name": "amount",
          "type": "uint256"
        },
        {
          "indexed": false,
          "internalType": "address",
          "name": "depositor",
          "type": "address"
        }
      ],
      "name": "CollateralDeposited",
      "type": "event"
    },
    {
      "anonymous": false,
      "inputs": [
        {
          "indexed": false,
          "internalType": "string",
          "name": "symbol",
          "type": "string"
        },
        {
          "indexed": false,
          "internalType": "uint256",
          "name": "amount",
          "type": "uint256"
        },
        {
          "indexed": false,
          "internalType": "address",
          "name": "recipient",
          "type": "address"
        }
      ],
      "name": "CollateralWithdrawn",
      "type": "event"
    },
    {
      "anonymous": false,
      "inputs": [
        {
          "indexed": false,
          "internalType": "uint256",
          "name": "timestamp",
          "type": "uint256"
        }
      ],
      "name": "RebalanceExecuted",
      "type": "event"
    },
    {
      "anonymous": false,
      "inputs": [
        {
          "indexed": false,
          "internalType": "string",
          "name": "symbol",
          "type": "string"
        },
        {
          "indexed": false,
          "internalType": "uint256",
          "name": "currentWeight",
          "type": "uint256"
        },
        {
          "indexed": false,
          "internalType": "uint256",
          "name": "targetWeight",
          "type": "uint256"
        }
      ],
      "name": "RebalanceNeeded",
      "type": "event"
    },
    {
      "anonymous": false,
      "inputs": [
        {
          "indexed": true,
          "internalType": "bytes32",
          "name": "role",
          "type": "bytes32"
        },
        {
          "indexed": true,
          "internalType": "bytes32",
          "name": "previousAdminRole",
          "type": "bytes32"
        },
        {
          "indexed": true,
          "internalType": "bytes32",
          "name": "newAdminRole",
          "type": "bytes32"
        }
      ],
      "name": "RoleAdminChanged",
      "type": "event"
    },
    {
      "anonymous": false,
      "inputs": [
        {
          "indexed": true,
          "internalType": "bytes32",
          "name": "role",
          "type": "bytes32"
        },
        {
          "indexed": true,
          "internalType": "address",
          "name": "account",
          "type": "address"
        },
        {
          "indexed": true,
          "internalType": "address",
          "name": "sender",
          "type": "address"
        }
      ],
      "name": "RoleGranted",
      "type": "event"
    },
    {
      "anonymous": false,
      "inputs": [
        {
          "indexed": true,
          "internalType": "bytes32",
          "name": "role",
          "type": "bytes32"
        },
        {
          "indexed": true,
          "internalType": "address",
          "name": "account",
          "type": "address"
        },
        {
          "indexed": true,
          "internalType": "address",
          "name": "sender",
          "type": "address"
        }
      ],
      "name": "RoleRevoked",
      "type": "event"
    },
    {
      "inputs": [],
      "name": "DEFAULT_ADMIN_ROLE",
      "outputs": [
        {
          "internalType": "bytes32",
          "name": "",
          "type": "bytes32"
        }
      ],
      "stateMutability": "view",
      "type": "function"
    },
    {
      "inputs": [],
      "name": "MANAGER_ROLE",
      "outputs": [
        {
          "internalType": "bytes32",
          "name": "",
          "type": "bytes32"
        }
      ],
      "stateMutability": "view",
      "type": "function"
    },
    {
      "inputs": [],
      "name": "ORACLE_ROLE",
      "outputs": [
        {
          "internalType": "bytes32",
          "name": "",
          "type": "bytes32"
        }
      ],
      "stateMutability": "view",
      "type": "function"
    },
    {
      "inputs": [],
      "name": "REBALANCER_ROLE",
      "outputs": [
        {
          "internalType": "bytes32",
          "name": "",
          "type": "bytes32"
        }
      ],
      "stateMutability": "view",
      "type": "function"
    },
    {
      "inputs": [],
      "name": "WEIGHT_PRECISION",
      "outputs": [
        {
          "internalType": "uint256",
          "name": "",
          "type": "uint256"
        }
      ],
      "stateMutability": "view",
      "type": "function"
    },
    {
      "inputs": [
        {
          "internalType": "string",
          "name": "symbol",
          "type": "string"
        },
        {
          "internalType": "enum CollateralManager.AssetClass",
          "name": "assetClass",
          "type": "uint8"
        },
        {
          "internalType": "address",
          "name": "tokenAddress",
          "type": "address"
        },
        {
          "internalType": "uint256",
          "name": "targetWeight",
          "type": "uint256"
        },
        {
          "internalType": "uint256",
          "name": "initialPrice",
          "type": "uint256"
        }
      ],
      "name": "addAsset",
      "outputs": [],
      "stateMutability": "nonpayable",
      "type": "function"
    },
    {
      "inputs": [
        {
          "internalType": "uint256",
          "name": "",
          "type": "uint256"
        }
      ],
      "name": "assetSymbols",
      "outputs": [
        {
          "internalType": "string",
          "name": "",
          "type": "string"
        }
      ],
      "stateMutability": "view",
      "type": "function"
    },
    {
      "inputs": [
        {
          "internalType": "string",
          "name": "",
          "type": "string"
        }
      ],
      "name": "collateralAssets",
      "outputs": [
        {
          "internalType": "string",
          "name": "symbol",
          "type": "string"
        },
        {
          "internalType": "enum CollateralManager.AssetClass",
          "name": "assetClass",
          "type": "uint8"
        },
        {
          "internalType": "address",
          "name": "tokenAddress",
          "type": "address"
        },
        {
          "internalType": "uint256",
          "name": "targetWeight",
          "type": "uint256"
        },
        {
          "internalType": "uint256",
          "name": "currentValue",
          "type": "uint256"
        },
        {
          "internalType": "uint256",
          "name": "price",
          "type": "uint256"
        },
        {
          "internalType": "uint256",
          "name": "lastUpdated",
          "type": "uint256"
        },
        {
          "internalType": "bool",
          "name": "isActive",
          "type": "bool"
        }
      ],
      "stateMutability": "view",
      "type": "function"
    },
    {
      "inputs": [
        {
          "internalType": "string",
          "name": "symbol",
          "type": "string"
        },
        {
          "internalType": "uint256",
          "name": "amount",
          "type": "uint256"
        }
      ],
      "name": "depositCollateral",
      "outputs": [],
      "stateMutability": "payable",
      "type": "function"
    },
    {
      "inputs": [],
      "name": "executeRebalance",
      "outputs": [],
      "stateMutability": "nonpayable",
      "type": "function"
    },
    {
      "inputs": [],
      "name": "getAssetCount",
      "outputs": [
        {
          "internalType": "uint256",
          "name": "",
          "type": "uint256"
        }
      ],
      "stateMutability": "view",
      "type": "function"
    },
    {
      "inputs": [
        {
          "internalType": "string",
          "name": "symbol",
          "type": "string"
        }
      ],
      "name": "getAssetCurrentWeight",
      "outputs": [
        {
          "internalType": "uint256",
          "name": "",
          "type": "uint256"
        }
      ],
      "stateMutability": "view",
      "type": "function"
    },
    {
      "inputs": [
        {
          "internalType": "bytes32",
          "name": "role",
          "type": "bytes32"
        }
      ],
      "name": "getRoleAdmin",
      "outputs": [
        {
          "internalType": "bytes32",
          "name": "",
          "type": "bytes32"
        }
      ],
      "stateMutability": "view",
      "type": "function"
    },
    {
      "inputs": [],
      "name": "getTotalCollateralValue",
      "outputs": [
        {
          "internalType": "uint256",
          "name": "",
          "type": "uint256"
        }
      ],
      "stateMutability": "view",
      "type": "function"
    },
    {
      "inputs": [],
      "name": "getTotalTargetWeight",
      "outputs": [
        {
          "internalType": "uint256",
          "name": "",
          "type": "uint256"
        }
      ],
      "stateMutability": "view",
      "type": "function"
    },
    {
      "inputs": [],
      "name": "globeToken",
      "outputs": [
        {
          "internalType": "contract GlobePayToken",
          "name": "",
          "type": "address"
        }
      ],
      "stateMutability": "view",
      "type": "function"
    },
    {
      "inputs": [
        {
          "internalType": "bytes32",
          "name": "role",
          "type": "bytes32"
        },
        {
          "internalType": "address",
          "name": "account",
          "type": "address"
        }
      ],
      "name": "grantRole",
      "outputs": [],
      "stateMutability": "nonpayable",
      "type": "function"
    },
    {
      "inputs": [
        {
          "internalType": "bytes32",
          "name": "role",
          "type": "bytes32"
        },
        {
          "internalType": "address",
          "name": "account",
          "type": "address"
        }
      ],
      "name": "hasRole",
      "outputs": [
        {
          "internalType": "bool",
          "name": "",
          "type": "bool"
        }
      ],
      "stateMutability": "view",
      "type": "function"
    },
    {
      "inputs": [],
      "name": "isRebalancingNeeded",
      "outputs": [
        {
          "internalType": "bool",
          "name": "",
          "type": "bool"
        }
      ],
      "stateMutability": "view",
      "type": "function"
    },
    {
      "inputs": [],
      "name": "rebalanceThreshold",
      "outputs": [
        {
          "internalType": "uint256",
          "name": "",
          "type": "uint256"
        }
      ],
      "stateMutability": "view",
      "type": "function"
    },
    {
      "inputs": [
        {
          "internalType": "bytes32",
          "name": "role",
          "type": "bytes32"
        },
        {
          "internalType": "address",
          "name": "callerConfirmation",
          "type": "address"
        }
      ],
      "name": "renounceRole",
      "outputs": [],
      "stateMutability": "nonpayable",
      "type": "function"
    },
    {
      "inputs": [
        {
          "internalType": "bytes32",
          "name": "role",
          "type": "bytes32"
        },
        {
          "internalType": "address",
          "name": "account",
          "type": "address"
        }
      ],
      "name": "revokeRole",
      "outputs": [],
      "stateMutability": "nonpayable",
      "type": "function"
    },
    {
      "inputs": [
        {
          "internalType": "bytes4",
          "name": "interfaceId",
          "type": "bytes4"
        }
      ],
      "name": "supportsInterface",
      "outputs": [
        {
          "internalType": "bool",
          "name": "",
          "type": "bool"
        }
      ],
      "stateMutability": "view",
      "type": "function"
    },
    {
      "inputs": [
        {
          "internalType": "string",
          "name": "symbol",
          "type": "string"
        },
        {
          "internalType": "uint256",
          "name": "newPrice",
          "type": "uint256"
        }
      ],
      "name": "updateAssetPrice",
      "outputs": [],
      "stateMutability": "nonpayable",
      "type": "function"
    },
    {
      "inputs": [
        {
          "internalType": "string",
          "name": "symbol",
          "type": "string"
        },
        {
          "internalType": "uint256",
          "name": "amount",
          "type": "uint256"
        },
        {
          "internalType": "address",
          "name": "recipient",
          "type": "address"
        }
      ],
      "name": "withdrawCollateral",
      "outputs": [],
      "stateMutability": "nonpayable",
      "type": "function"
    },
    {
      "stateMutability": "payable",
      "type": "receive"
    }
  ],
  "bytecode": "0x60806040526101f46005553480156200001757600080fd5b506040516200362b3803806200362b83398181016040528101906200003d91906200031a565b6001808190555080600260006101000a81548173ffffffffffffffffffffffffffffffffffffffff021916908373ffffffffffffffffffffffffffffffffffffffff1602179055506200009a6000801b336200013b60201b60201c565b50620000cd7f241ecf16d79d0f8dbfb92cbc07fe17840425976cf0667f022fe9877caa831b08336200013b60201b60201c565b50620001007f68e79a7bf1e0bc45d0a330c573bc367f9cf464fd326078812f301165fbda4ef1336200013b60201b60201c565b50620001337fccc64574297998b6c3edf6078cc5e01268465ff116954e3af02ff3a70a730f46336200013b60201b60201c565b50506200034c565b60006200014f83836200023e60201b60201c565b6200023357600160008085815260200190815260200160002060000160008473ffffffffffffffffffffffffffffffffffffffff1673ffffffffffffffffffffffffffffffffffffffff16815260200190815260200160002060006101000a81548160ff021916908315150217905550620001cf620002a860201b60201c565b73ffffffffffffffffffffffffffffffffffffffff168273ffffffffffffffffffffffffffffffffffffffff16847f2f8788117e7eff1d82e926ec794901d17c78024a50270940304540a733656f0d60405160405180910390a46001905062000238565b600090505b92915050565b600080600084815260200190815260200160002060000160008373ffffffffffffffffffffffffffffffffffffffff1673ffffffffffffffffffffffffffffffffffffffff16815260200190815260200160002060009054906101000a900460ff16905092915050565b600033905090565b600080fd5b600073ffffffffffffffffffffffffffffffffffffffff82169050919050565b6000620002e282620002b5565b9050919050565b620002f481620002d5565b81146200030057600080fd5b50565b6000815190506200031481620002e9565b92915050565b600060208284031215620003335762000332620002b0565b5b6000620003438482850162000303565b91505092915050565b6132cf806200035c6000396000f3fe60806040526004361061016a5760003560e01c8063490b48f8116100d1578063a217fddf1161008a578063ebca582511610064578063ebca582514610545578063ec87621c1461056e578063ed6493af14610599578063f679e2bb146105c457610171565b8063a217fddf146104d5578063c63e383514610500578063d547741f1461051c57610171565b8063490b48f8146103bc5780636c879198146103e75780637001f4bb1461042b57806391d14854146104565780639bb71aef14610493578063a0aead4d146104aa57610171565b806320ed870f1161012357806320ed870f14610288578063248a9ca3146102c557806325c8a5ff146103025780632f2ff15d1461033f57806336568abe146103685780633dfe9f6a1461039157610171565b806301ffc9a71461017657806306ef62c1146101b357806307e2cea5146101dc57806309ba1587146102075780631a830fce146102325780631ec747c91461025d57610171565b3661017157005b600080fd5b34801561018257600080fd5b5061019d60048036038101906101989190612030565b6105ed565b6040516101aa9190612078565b60405180910390f35b3480156101bf57600080fd5b506101da60048036038101906101d5919061226d565b610667565b005b3480156101e857600080fd5b506101f1610a92565b6040516101fe91906122f5565b60405180910390f35b34801561021357600080fd5b5061021c610ab6565b604051610229919061236f565b60405180910390f35b34801561023e57600080fd5b50610247610adc565b6040516102549190612078565b60405180910390f35b34801561026957600080fd5b50610272610cd0565b60405161027f9190612399565b60405180910390f35b34801561029457600080fd5b506102af60048036038101906102aa91906123b4565b610e12565b6040516102bc9190612399565b60405180910390f35b3480156102d157600080fd5b506102ec60048036038101906102e79190612429565b610e74565b6040516102f991906122f5565b60405180910390f35b34801561030e57600080fd5b5061032960048036038101906103249190612456565b610e93565b6040516103369190612502565b60405180910390f35b34801561034b57600080fd5b5061036660048036038101906103619190612524565b610f3f565b005b34801561037457600080fd5b5061038f600480360381019061038a9190612524565b610f61565b005b34801561039d57600080fd5b506103a6610fdc565b6040516103b39190612399565b60405180910390f35b3480156103c857600080fd5b506103d1610fe2565b6040516103de91906122f5565b60405180910390f35b3480156103f357600080fd5b5061040e600480360381019061040991906123b4565b611006565b6040516104229897969594939291906125ea565b60405180910390f35b34801561043757600080fd5b50610440611126565b60405161044d9190612399565b60405180910390f35b34801561046257600080fd5b5061047d60048036038101906104789190612524565b61112c565b60405161048a9190612078565b60405180910390f35b34801561049f57600080fd5b506104a8611196565b005b3480156104b657600080fd5b506104bf611241565b6040516104cc9190612399565b60405180910390f35b3480156104e157600080fd5b506104ea61124e565b6040516104f791906122f5565b60405180910390f35b61051a6004803603810190610515919061266f565b611255565b005b34801561052857600080fd5b50610543600480360381019061053e9190612524565b6116db565b005b34801561055157600080fd5b5061056c600480360381019061056791906126f0565b6116fd565b005b34801561057a57600080fd5b506105836119c1565b60405161059091906122f5565b60405180910390f35b3480156105a557600080fd5b506105ae6119e5565b6040516105bb9190612399565b60405180910390f35b3480156105d057600080fd5b506105eb60048036038101906105e6919061266f565b611b27565b005b60007f7965db0b000000000000000000000000000000000000000000000000000000007bffffffffffffffffffffffffffffffffffffffffffffffffffffffff1916827bffffffffffffffffffffffffffffffffffffffffffffffffffffffff19161480610660575061065f82611cbb565b5b9050919050565b7f241ecf16d79d0f8dbfb92cbc07fe17840425976cf0667f022fe9877caa831b0861069181611d25565b610699611d39565b6003846040516106a991906127c3565b908152602001604051809103902060060160009054906101000a900460ff16610707576040517f08c379a00000000000000000000000000000000000000000000000000000000081526004016106fe90612826565b60405180910390fd5b6000831161074a576040517f08c379a000000000000000000000000000000000000000000000000000000000815260040161074190612892565b60405180910390fd5b600073ffffffffffffffffffffffffffffffffffffffff168273ffffffffffffffffffffffffffffffffffffffff16036107b9576040517f08c379a00000000000000000000000000000000000000000000000000000000081526004016107b0906128fe565b60405180910390fd5b60006003856040516107cb91906127c3565b908152602001604051809103902060010160019054906101000a900473ffffffffffffffffffffffffffffffffffffffff16905060006305f5e10060038760405161081691906127c3565b90815260200160405180910390206004015486610833919061294d565b61083d91906129be565b90508060038760405161085091906127c3565b90815260200160405180910390206003015410156108a3576040517f08c379a000000000000000000000000000000000000000000000000000000000815260040161089a90612a3b565b60405180910390fd5b806003876040516108b491906127c3565b908152602001604051809103902060030160008282546108d49190612a5b565b92505081905550600073ffffffffffffffffffffffffffffffffffffffff168273ffffffffffffffffffffffffffffffffffffffff16146109995760008290508073ffffffffffffffffffffffffffffffffffffffff1663a9059cbb86886040518363ffffffff1660e01b815260040161094f929190612a8f565b6020604051808303816000875af115801561096e573d6000803e3d6000fd5b505050506040513d601f19601f820116820180604052508101906109929190612ae4565b5050610a47565b60008473ffffffffffffffffffffffffffffffffffffffff16866040516109bf90612b42565b60006040518083038185875af1925050503d80600081146109fc576040519150601f19603f3d011682016040523d82523d6000602084013e610a01565b606091505b5050905080610a45576040517f08c379a0000000000000000000000000000000000000000000000000000000008152600401610a3c90612ba3565b60405180910390fd5b505b7ff805b9d3da1542a6888251af09a1b853a33a61ae6be6aca482be108497e12c2d868686604051610a7a93929190612bc3565b60405180910390a15050610a8c611d7f565b50505050565b7f68e79a7bf1e0bc45d0a330c573bc367f9cf464fd326078812f301165fbda4ef181565b600260009054906101000a900473ffffffffffffffffffffffffffffffffffffffff1681565b600080610ae76119e5565b905060008103610afb576000915050610ccd565b60005b600480549050811015610cc657600060048281548110610b2157610b20612c01565b5b906000526020600020018054610b3690612c5f565b80601f0160208091040260200160405190810160405280929190818152602001828054610b6290612c5f565b8015610baf5780601f10610b8457610100808354040283529160200191610baf565b820191906000526020600020905b815481529060010190602001808311610b9257829003601f168201915b50505050509050600381604051610bc691906127c3565b908152602001604051809103902060060160009054906101000a900460ff16610bef5750610cb3565b6000600382604051610c0191906127c3565b9081526020016040518091039020600201549050600084612710600385604051610c2b91906127c3565b908152602001604051809103902060030154610c47919061294d565b610c5191906129be565b90508181118015610c6e57506005548282610c6c9190612a5b565b115b15610c8157600195505050505050610ccd565b8082118015610c9c57506005548183610c9a9190612a5b565b115b15610caf57600195505050505050610ccd565b5050505b8080610cbe90612c90565b915050610afe565b5060009150505b90565b6000806000905060005b600480549050811015610e0a57600060048281548110610cfd57610cfc612c01565b5b906000526020600020018054610d1290612c5f565b80601f0160208091040260200160405190810160405280929190818152602001828054610d3e90612c5f565b8015610d8b5780601f10610d6057610100808354040283529160200191610d8b565b820191906000526020600020905b815481529060010190602001808311610d6e57829003601f168201915b50505050509050600381604051610da291906127c3565b908152602001604051809103902060060160009054906101000a900460ff1615610df657600381604051610dd691906127c3565b90815260200160405180910390206002015483610df39190612cd8565b92505b508080610e0290612c90565b915050610cda565b508091505090565b600080610e1d6119e5565b905060008103610e31576000915050610e6f565b80612710600385604051610e4591906127c3565b908152602001604051809103902060030154610e61919061294d565b610e6b91906129be565b9150505b919050565b6000806000838152602001908152602001600020600101549050919050565b60048181548110610ea357600080fd5b906000526020600020016000915090508054610ebe90612c5f565b80601f0160208091040260200160405190810160405280929190818152602001828054610eea90612c5f565b8015610f375780601f10610f0c57610100808354040283529160200191610f37565b820191906000526020600020905b815481529060010190602001808311610f1a57829003601f168201915b505050505081565b610f4882610e74565b610f5181611d25565b610f5b8383611d88565b50505050565b610f69611e79565b73ffffffffffffffffffffffffffffffffffffffff168173ffffffffffffffffffffffffffffffffffffffff1614610fcd576040517f6697b23200000000000000000000000000000000000000000000000000000000815260040160405180910390fd5b610fd78282611e81565b505050565b60055481565b7fccc64574297998b6c3edf6078cc5e01268465ff116954e3af02ff3a70a730f4681565b60038180516020810182018051848252602083016020850120818352809550505050505060009150905080600001805461103f90612c5f565b80601f016020809104026020016040519081016040528092919081815260200182805461106b90612c5f565b80156110b85780601f1061108d576101008083540402835291602001916110b8565b820191906000526020600020905b81548152906001019060200180831161109b57829003601f168201915b5050505050908060010160009054906101000a900460ff16908060010160019054906101000a900473ffffffffffffffffffffffffffffffffffffffff16908060020154908060030154908060040154908060050154908060060160009054906101000a900460ff16905088565b61271081565b600080600084815260200190815260200160002060000160008373ffffffffffffffffffffffffffffffffffffffff1673ffffffffffffffffffffffffffffffffffffffff16815260200190815260200160002060009054906101000a900460ff16905092915050565b7fccc64574297998b6c3edf6078cc5e01268465ff116954e3af02ff3a70a730f466111c081611d25565b6111c8610adc565b611207576040517f08c379a00000000000000000000000000000000000000000000000000000000081526004016111fe90612d58565b60405180910390fd5b7f340a984992aa660042339165cf7d2b849c73974a791a427d92cf5d5d04293bd8426040516112369190612399565b60405180910390a150565b6000600480549050905090565b6000801b81565b61125d611d39565b60038260405161126d91906127c3565b908152602001604051809103902060060160009054906101000a900460ff166112cb576040517f08c379a00000000000000000000000000000000000000000000000000000000081526004016112c290612826565b60405180910390fd5b6000811161130e576040517f08c379a000000000000000000000000000000000000000000000000000000000815260040161130590612892565b60405180910390fd5b600060038360405161132091906127c3565b908152602001604051809103902060010160019054906101000a900473ffffffffffffffffffffffffffffffffffffffff169050600073ffffffffffffffffffffffffffffffffffffffff168173ffffffffffffffffffffffffffffffffffffffff16146115d757600081905060008173ffffffffffffffffffffffffffffffffffffffff166370a08231306040518263ffffffff1660e01b81526004016113c89190612d78565b602060405180830381865afa1580156113e5573d6000803e3d6000fd5b505050506040513d601f19601f820116820180604052508101906114099190612da8565b90508173ffffffffffffffffffffffffffffffffffffffff166323b872dd3330876040518463ffffffff1660e01b815260040161144893929190612dd5565b6020604051808303816000875af1158015611467573d6000803e3d6000fd5b505050506040513d601f19601f8201168201806040525081019061148b9190612ae4565b5060008273ffffffffffffffffffffffffffffffffffffffff166370a08231306040518263ffffffff1660e01b81526004016114c79190612d78565b602060405180830381865afa1580156114e4573d6000803e3d6000fd5b505050506040513d601f19601f820116820180604052508101906115089190612da8565b9050600082826115189190612a5b565b905060006305f5e10060038960405161153191906127c3565b9081526020016040518091039020600401548361154e919061294d565b61155891906129be565b90508060038960405161156b91906127c3565b9081526020016040518091039020600301600082825461158b9190612cd8565b925050819055507f4821df741e995e8b282d1d2e77cd8b0a5c239fc7e05fe285ccb3f603875615538883336040516115c593929190612bc3565b60405180910390a150505050506116ce565b813414611619576040517f08c379a000000000000000000000000000000000000000000000000000000000815260040161161090612e58565b60405180910390fd5b60006305f5e10060038560405161163091906127c3565b9081526020016040518091039020600401548461164d919061294d565b61165791906129be565b90508060038560405161166a91906127c3565b9081526020016040518091039020600301600082825461168a9190612cd8565b925050819055507f4821df741e995e8b282d1d2e77cd8b0a5c239fc7e05fe285ccb3f603875615538484336040516116c493929190612bc3565b60405180910390a1505b506116d7611d7f565b5050565b6116e482610e74565b6116ed81611d25565b6116f78383611e81565b50505050565b7f241ecf16d79d0f8dbfb92cbc07fe17840425976cf0667f022fe9877caa831b0861172781611d25565b60038660405161173791906127c3565b908152602001604051809103902060060160009054906101000a900460ff1615611796576040517f08c379a000000000000000000000000000000000000000000000000000000000815260040161178d90612ec4565b60405180910390fd5b612710836117a2610cd0565b6117ac9190612cd8565b11156117ed576040517f08c379a00000000000000000000000000000000000000000000000000000000081526004016117e490612f30565b60405180910390fd5b60405180610100016040528087815260200186600481111561181257611811612564565b5b81526020018573ffffffffffffffffffffffffffffffffffffffff168152602001848152602001600081526020018381526020014281526020016001151581525060038760405161186391906127c3565b9081526020016040518091039020600082015181600001908161188691906130f2565b5060208201518160010160006101000a81548160ff021916908360048111156118b2576118b1612564565b5b021790555060408201518160010160016101000a81548173ffffffffffffffffffffffffffffffffffffffff021916908373ffffffffffffffffffffffffffffffffffffffff160217905550606082015181600201556080820151816003015560a0820151816004015560c0820151816005015560e08201518160060160006101000a81548160ff02191690831515021790555090505060048690806001815401808255809150506001900390600052602060002001600090919091909150908161197d91906130f2565b507fa912984202ba38c823371aef0da745fd074ed40838244c6d84e1b11e682154b08686856040516119b1939291906131c4565b60405180910390a1505050505050565b7f241ecf16d79d0f8dbfb92cbc07fe17840425976cf0667f022fe9877caa831b0881565b6000806000905060005b600480549050811015611b1f57600060048281548110611a1257611a11612c01565b5b906000526020600020018054611a2790612c5f565b80601f0160208091040260200160405190810160405280929190818152602001828054611a5390612c5f565b8015611aa05780601f10611a7557610100808354040283529160200191611aa0565b820191906000526020600020905b815481529060010190602001808311611a8357829003601f168201915b50505050509050600381604051611ab791906127c3565b908152602001604051809103902060060160009054906101000a900460ff1615611b0b57600381604051611aeb91906127c3565b90815260200160405180910390206003015483611b089190612cd8565b92505b508080611b1790612c90565b9150506119ef565b508091505090565b7f68e79a7bf1e0bc45d0a330c573bc367f9cf464fd326078812f301165fbda4ef1611b5181611d25565b600383604051611b6191906127c3565b908152602001604051809103902060060160009054906101000a900460ff16611bbf576040517f08c379a0000000000000000000000000000000000000000000000000000000008152600401611bb690612826565b60405180910390fd5b81600384604051611bd091906127c3565b90815260200160405180910390206004018190555042600384604051611bf691906127c3565b9081526020016040518091039020600501819055507fcd18d0a33d5ef2303a43ab0a79721c5c93dff54e1012b93917eadd87cad59d0a8383604051611c3c929190613202565b60405180910390a1611c4c610adc565b15611cb6577f6c128d6143d86393d5e56bd0727deac2a86c80f99fb7f46a74abc2172f17233183611c7c85610e12565b600386604051611c8c91906127c3565b908152602001604051809103902060020154604051611cad93929190613232565b60405180910390a15b505050565b60007f01ffc9a7000000000000000000000000000000000000000000000000000000007bffffffffffffffffffffffffffffffffffffffffffffffffffffffff1916827bffffffffffffffffffffffffffffffffffffffffffffffffffffffff1916149050919050565b611d3681611d31611e79565b611f73565b50565b600260015403611d75576040517f3ee5aeb500000000000000000000000000000000000000000000000000000000815260040160405180910390fd5b6002600181905550565b60018081905550565b6000611d94838361112c565b611e6e57600160008085815260200190815260200160002060000160008473ffffffffffffffffffffffffffffffffffffffff1673ffffffffffffffffffffffffffffffffffffffff16815260200190815260200160002060006101000a81548160ff021916908315150217905550611e0b611e79565b73ffffffffffffffffffffffffffffffffffffffff168273ffffffffffffffffffffffffffffffffffffffff16847f2f8788117e7eff1d82e926ec794901d17c78024a50270940304540a733656f0d60405160405180910390a460019050611e73565b600090505b92915050565b600033905090565b6000611e8d838361112c565b15611f6857600080600085815260200190815260200160002060000160008473ffffffffffffffffffffffffffffffffffffffff1673ffffffffffffffffffffffffffffffffffffffff16815260200190815260200160002060006101000a81548160ff021916908315150217905550611f05611e79565b73ffffffffffffffffffffffffffffffffffffffff168273ffffffffffffffffffffffffffffffffffffffff16847ff6391f5c32d9c69d2a47ea670b442974b53935d1edc7fd64eb21e047a839171b60405160405180910390a460019050611f6d565b600090505b92915050565b611f7d828261112c565b611fc05780826040517fe2517d3f000000000000000000000000000000000000000000000000000000008152600401611fb7929190613270565b60405180910390fd5b5050565b6000604051905090565b600080fd5b600080fd5b60007fffffffff0000000000000000000000000000000000000000000000000000000082169050919050565b61200d81611fd8565b811461201857600080fd5b50565b60008135905061202a81612004565b92915050565b60006020828403121561204657612045611fce565b5b60006120548482850161201b565b91505092915050565b60008115159050919050565b6120728161205d565b82525050565b600060208201905061208d6000830184612069565b92915050565b600080fd5b600080fd5b6000601f19601f8301169050919050565b7f4e487b7100000000000000000000000000000000000000000000000000000000600052604160045260246000fd5b6120e68261209d565b810181811067ffffffffffffffff82111715612105576121046120ae565b5b80604052505050565b6000612118611fc4565b905061212482826120dd565b919050565b600067ffffffffffffffff821115612144576121436120ae565b5b61214d8261209d565b9050602081019050919050565b82818337600083830152505050565b600061217c61217784612129565b61210e565b90508281526020810184848401111561219857612197612098565b5b6121a384828561215a565b509392505050565b600082601f8301126121c0576121bf612093565b5b81356121d0848260208601612169565b91505092915050565b6000819050919050565b6121ec816121d9565b81146121f757600080fd5b50565b600081359050612209816121e3565b92915050565b600073ffffffffffffffffffffffffffffffffffffffff82169050919050565b600061223a8261220f565b9050919050565b61224a8161222f565b811461225557600080fd5b50565b60008135905061226781612241565b92915050565b60008060006060848603121561228657612285611fce565b5b600084013567ffffffffffffffff8111156122a4576122a3611fd3565b5b6122b0868287016121ab565b93505060206122c1868287016121fa565b92505060406122d286828701612258565b9150509250925092565b6000819050919050565b6122ef816122dc565b82525050565b600060208201905061230a60008301846122e6565b92915050565b6000819050919050565b600061233561233061232b8461220f565b612310565b61220f565b9050919050565b60006123478261231a565b9050919050565b60006123598261233c565b9050919050565b6123698161234e565b82525050565b60006020820190506123846000830184612360565b92915050565b612393816121d9565b82525050565b60006020820190506123ae600083018461238a565b92915050565b6000602082840312156123ca576123c9611fce565b5b600082013567ffffffffffffffff8111156123e8576123e7611fd3565b5b6123f4848285016121ab565b91505092915050565b612406816122dc565b811461241157600080fd5b50565b600081359050612423816123fd565b92915050565b60006020828403121561243f5761243e611fce565b5b600061244d84828501612414565b91505092915050565b60006020828403121561246c5761246b611fce565b5b600061247a848285016121fa565b91505092915050565b600081519050919050565b600082825260208201905092915050565b60005b838110156124bd5780820151818401526020810190506124a2565b60008484015250505050565b60006124d482612483565b6124de818561248e565b93506124ee81856020860161249f565b6124f78161209d565b840191505092915050565b6000602082019050818103600083015261251c81846124c9565b905092915050565b6000806040838503121561253b5761253a611fce565b5b600061254985828601612414565b925050602061255a85828601612258565b9150509250929050565b7f4e487b7100000000000000000000000000000000000000000000000000000000600052602160045260246000fd5b600581106125a4576125a3612564565b5b50565b60008190506125b582612593565b919050565b60006125c5826125a7565b9050919050565b6125d5816125ba565b82525050565b6125e48161222f565b82525050565b6000610100820190508181036000830152612605818b6124c9565b9050612614602083018a6125cc565b61262160408301896125db565b61262e606083018861238a565b61263b608083018761238a565b61264860a083018661238a565b61265560c083018561238a565b61266260e0830184612069565b9998505050505050505050565b6000806040838503121561268657612685611fce565b5b600083013567ffffffffffffffff8111156126a4576126a3611fd3565b5b6126b0858286016121ab565b92505060206126c1858286016121fa565b9150509250929050565b600581106126d857600080fd5b50565b6000813590506126ea816126cb565b92915050565b600080600080600060a0868803121561270c5761270b611fce565b5b600086013567ffffffffffffffff81111561272a57612729611fd3565b5b612736888289016121ab565b9550506020612747888289016126db565b945050604061275888828901612258565b9350506060612769888289016121fa565b925050608061277a888289016121fa565b9150509295509295909350565b600081905092915050565b600061279d82612483565b6127a78185612787565b93506127b781856020860161249f565b80840191505092915050565b60006127cf8284612792565b915081905092915050565b7f4173736574206e6f7420666f756e640000000000000000000000000000000000600082015250565b6000612810600f8361248e565b915061281b826127da565b602082019050919050565b6000602082019050818103600083015261283f81612803565b9050919050565b7f416d6f756e74206d75737420626520706f736974697665000000000000000000600082015250565b600061287c60178361248e565b915061288782612846565b602082019050919050565b600060208201905081810360008301526128ab8161286f565b9050919050565b7f496e76616c696420726563697069656e74000000000000000000000000000000600082015250565b60006128e860118361248e565b91506128f3826128b2565b602082019050919050565b60006020820190508181036000830152612917816128db565b9050919050565b7f4e487b7100000000000000000000000000000000000000000000000000000000600052601160045260246000fd5b6000612958826121d9565b9150612963836121d9565b9250828202612971816121d9565b915082820484148315176129885761298761291e565b5b5092915050565b7f4e487b7100000000000000000000000000000000000000000000000000000000600052601260045260246000fd5b60006129c9826121d9565b91506129d4836121d9565b9250826129e4576129e361298f565b5b828204905092915050565b7f496e73756666696369656e7420636f6c6c61746572616c000000000000000000600082015250565b6000612a2560178361248e565b9150612a30826129ef565b602082019050919050565b60006020820190508181036000830152612a5481612a18565b9050919050565b6000612a66826121d9565b9150612a71836121d9565b9250828203905081811115612a8957612a8861291e565b5b92915050565b6000604082019050612aa460008301856125db565b612ab1602083018461238a565b9392505050565b612ac18161205d565b8114612acc57600080fd5b50565b600081519050612ade81612ab8565b92915050565b600060208284031215612afa57612af9611fce565b5b6000612b0884828501612acf565b91505092915050565b600081905092915050565b50565b6000612b2c600083612b11565b9150612b3782612b1c565b600082019050919050565b6000612b4d82612b1f565b9150819050919050565b7f455448207472616e73666572206661696c656400000000000000000000000000600082015250565b6000612b8d60138361248e565b9150612b9882612b57565b602082019050919050565b60006020820190508181036000830152612bbc81612b80565b9050919050565b60006060820190508181036000830152612bdd81866124c9565b9050612bec602083018561238a565b612bf960408301846125db565b949350505050565b7f4e487b7100000000000000000000000000000000000000000000000000000000600052603260045260246000fd5b7f4e487b7100000000000000000000000000000000000000000000000000000000600052602260045260246000fd5b60006002820490506001821680612c7757607f821691505b602082108103612c8a57612c89612c30565b5b50919050565b6000612c9b826121d9565b91507fffffffffffffffffffffffffffffffffffffffffffffffffffffffffffffffff8203612ccd57612ccc61291e565b5b600182019050919050565b6000612ce3826121d9565b9150612cee836121d9565b9250828201905080821115612d0657612d0561291e565b5b92915050565b7f526562616c616e63696e67206e6f74206e656564656400000000000000000000600082015250565b6000612d4260168361248e565b9150612d4d82612d0c565b602082019050919050565b60006020820190508181036000830152612d7181612d35565b9050919050565b6000602082019050612d8d60008301846125db565b92915050565b600081519050612da2816121e3565b92915050565b600060208284031215612dbe57612dbd611fce565b5b6000612dcc84828501612d93565b91505092915050565b6000606082019050612dea60008301866125db565b612df760208301856125db565b612e04604083018461238a565b949350505050565b7f496e636f72726563742045544820616d6f756e74000000000000000000000000600082015250565b6000612e4260148361248e565b9150612e4d82612e0c565b602082019050919050565b60006020820190508181036000830152612e7181612e35565b9050919050565b7f417373657420616c726561647920657869737473000000000000000000000000600082015250565b6000612eae60148361248e565b9150612eb982612e78565b602082019050919050565b60006020820190508181036000830152612edd81612ea1565b9050919050565b7f546f74616c207765696768742065786365656473203130302500000000000000600082015250565b6000612f1a60198361248e565b9150612f2582612ee4565b602082019050919050565b60006020820190508181036000830152612f4981612f0d565b9050919050565b60008190508160005260206000209050919050565b60006020601f8301049050919050565b600082821b905092915050565b600060088302612fb27fffffffffffffffffffffffffffffffffffffffffffffffffffffffffffffffff82612f75565b612fbc8683612f75565b95508019841693508086168417925050509392505050565b6000612fef612fea612fe5846121d9565b612310565b6121d9565b9050919050565b6000819050919050565b61300983612fd4565b61301d61301582612ff6565b848454612f82565b825550505050565b600090565b613032613025565b61303d818484613000565b505050565b5b818110156130615761305660008261302a565b600181019050613043565b5050565b601f8211156130a65761307781612f50565b61308084612f65565b8101602085101561308f578190505b6130a361309b85612f65565b830182613042565b50505b505050565b600082821c905092915050565b60006130c9600019846008026130ab565b1980831691505092915050565b60006130e283836130b8565b9150826002028217905092915050565b6130fb82612483565b67ffffffffffffffff811115613114576131136120ae565b5b61311e8254612c5f565b613129828285613065565b600060209050601f83116001811461315c576000841561314a578287015190505b61315485826130d6565b8655506131bc565b601f19841661316a86612f50565b60005b828110156131925784890151825560018201915060208501945060208101905061316d565b868310156131af57848901516131ab601f8916826130b8565b8355505b6001600288020188555050505b505050505050565b600060608201905081810360008301526131de81866124c9565b90506131ed60208301856125cc565b6131fa604083018461238a565b949350505050565b6000604082019050818103600083015261321c81856124c9565b905061322b602083018461238a565b9392505050565b6000606082019050818103600083015261324c81866124c9565b905061325b602083018561238a565b613268604083018461238a565b949350505050565b600060408201905061328560008301856125db565b61329260208301846122e6565b939250505056fea2646970667358221220c09e7498a9b9a83419acc30af505055699245ca40d48eaaee6201cc87baeb9a664736f6c63430008140033",
  "linkReferences": {},
  "deployedLinkReferences": {}
}