{"contracts/CollateralManager.sol":{"CollateralManager":{"abi":[{"inputs":[{"internalType":"address","name":"_globeToken","type":"address"}],"stateMutability":"nonpayable","type":"constructor"},{"inputs":[],"name":"AccessControlBadConfirmation","type":"error"},{"inputs":[{"internalType":"address","name":"account","type":"address"},{"internalType":"bytes32","name":"neededRole","type":"bytes32"}],"name":"AccessControlUnauthorizedAccount","type":"error"},{"inputs":[],"name":"ReentrancyGuardReentrantCall","type":"error"},{"anonymous":false,"inputs":[{"indexed":false,"internalType":"string","name":"symbol","type":"string"},{"indexed":false,"internalType":"enum CollateralManager.AssetClass","name":"assetClass","type":"uint8"},{"indexed":false,"internalType":"uint256","name":"targetWeight","type":"uint256"}],"name":"AssetAdded","type":"event"},{"anonymous":false,"inputs":[{"indexed":false,"internalType":"string","name":"symbol","type":"string"},{"indexed":false,"internalType":"uint256","name":"newPrice","type":"uint256"}],"name":"AssetPriceUpdated","type":"event"},{"anonymous":false,"inputs":[{"indexed":false,"internalType":"string","name":"symbol","type":"string"}],"name":"AssetRemoved","type":"event"},{"anonymous":false,"inputs":[{"indexed":false,"internalType":"string","name":"symbol","type":"string"},{"indexed":false,"internalType":"uint256","name":"amount","type":"uint256"},{"indexed":false,"internalType":"address","name":"depositor","type":"address"}],"name":"CollateralDeposited","type":"event"},{"anonymous":false,"inputs":[{"indexed":false,"internalType":"string","name":"symbol","type":"string"},{"indexed":false,"internalType":"uint256","name":"amount","type":"uint256"},{"indexed":false,"internalType":"address","name":"recipient","type":"address"}],"name":"CollateralWithdrawn","type":"event"},{"anonymous":false,"inputs":[{"indexed":false,"internalType":"uint256","name":"timestamp","type":"uint256"}],"name":"RebalanceExecuted","type":"event"},{"anonymous":false,"inputs":[{"indexed":false,"internalType":"string","name":"symbol","type":"string"},{"indexed":false,"internalType":"uint256","name":"currentWeight","type":"uint256"},{"indexed":false,"internalType":"uint256","name":"targetWeight","type":"uint256"}],"name":"RebalanceNeeded","type":"event"},{"anonymous":false,"inputs":[{"indexed":true,"internalType":"bytes32","name":"role","type":"bytes32"},{"indexed":true,"internalType":"bytes32","name":"previousAdminRole","type":"bytes32"},{"indexed":true,"internalType":"bytes32","name":"newAdminRole","type":"bytes32"}],"name":"RoleAdminChanged","type":"event"},{"anonymous":false,"inputs":[{"indexed":true,"internalType":"bytes32","name":"role","type":"bytes32"},{"indexed":true,"internalType":"address","name":"account","type":"address"},{"indexed":true,"internalType":"address","name":"sender","type":"address"}],"name":"RoleGranted","type":"event"},{"anonymous":false,"inputs":[{"indexed":true,"internalType":"bytes32","name":"role","type":"bytes32"},{"indexed":true,"internalType":"address","name":"account","type":"address"},{"indexed":true,"internalType":"address","name":"sender","type":"address"}],"name":"RoleRevoked","type":"event"},{"inputs":[],"name":"DEFAULT_ADMIN_ROLE","outputs":[{"internalType":"bytes32","name":"","type":"bytes32"}],"stateMutability":"view","type":"function"},{"inputs":[],"name":"MANAGER_ROLE","outputs":[{"internalType":"bytes32","name":"","type":"bytes32"}],"stateMutability":"view","type":"function"},{"inputs":[],"name":"ORACLE_ROLE","outputs":[{"internalType":"bytes32","name":"","type":"bytes32"}],"stateMutability":"view","type":"function"},{"inputs":[],"name":"REBALANCER_ROLE","outputs":[{"internalType":"bytes32","name":"","type":"bytes32"}],"stateMutability":"view","type":"function"},{"inputs":[],"name":"WEIGHT_PRECISION","outputs":[{"internalType":"uint256","name":"","type":"uint256"}],"stateMutability":"view","type":"function"},{"inputs":[{"internalType":"string","name":"symbol","type":"string"},{"internalType":"enum CollateralManager.AssetClass","name":"assetClass","type":"uint8"},{"internalType":"address","name":"tokenAddress","type":"address"},{"internalType":"uint256","name":"targetWeight","type":"uint256"},{"internalType":"uint256","name":"initialPrice","type":"uint256"}],"name":"addAsset","outputs":[],"stateMutability":"nonpayable","type":"function"},{"inputs":[{"internalType":"uint256","name":"","type":"uint256"}],"name":"assetSymbols","outputs":[{"internalType":"string","name":"","type":"string"}],"stateMutability":"view","type":"function"},{"inputs":[{"internalType":"string","name":"","type":"string"}],"name":"collateralAssets","outputs":[{"internalType":"string","name":"symbol","type":"string"},{"internalType":"enum CollateralManager.AssetClass","name":"assetClass","type":"uint8"},{"internalType":"address","name":"tokenAddress","type":"address"},{"internalType":"uint256","name":"targetWeight","type":"uint256"},{"internalType":"uint256","name":"currentValue","type":"uint256"},{"internalType":"uint256","name":"price","type":"uint256"},{"internalType":"uint256","name":"lastUpdated","type":"uint256"},{"internalType":"bool","name":"isActive","type":"bool"}],"stateMutability":"view","type":"function"},{"inputs":[{"internalType":"string","name":"symbol","type":"string"},{"internalType":"uint256","name":"amount","type":"uint256"}],"name":"depositCollateral","outputs":[],"stateMutability":"payable","type":"function"},{"inputs":[],"name":"executeRebalance","outputs":[],"stateMutability":"nonpayable","type":"function"},{"inputs":[],"name":"getAssetCount","outputs":[{"internalType":"uint256","name":"","type":"uint256"}],"stateMutability":"view","type":"function"},{"inputs":[{"internalType":"string","name":"symbol","type":"string"}],"name":"getAssetCurrentWeight","outputs":[{"internalType":"uint256","name":"","type":"uint256"}],"stateMutability":"view","type":"function"},{"inputs":[{"internalType":"bytes32","name":"role","type":"bytes32"}],"name":"getRoleAdmin","outputs":[{"internalType":"bytes32","name":"","type":"bytes32"}],"stateMutability":"view","type":"function"},{"inputs":[],"name":"getTotalCollateralValue","outputs":[{"internalType":"uint256","name":"","type":"uint256"}],"stateMutability":"view","type":"function"},{"inputs":[],"name":"getTotalTargetWeight","outputs":[{"internalType":"uint256","name":"","type":"uint256"}],"stateMutability":"view","type":"function"},{"inputs":[],"name":"globeToken","outputs":[{"internalType":"contract GlobePayToken","name":"","type":"address"}],"stateMutability":"view","type":"function"},{"inputs":[{"internalType":"bytes32","name":"role","type":"bytes32"},{"internalType":"address","name":"account","type":"address"}],"name":"grantRole","outputs":[],"stateMutability":"nonpayable","type":"function"},{"inputs":[{"internalType":"bytes32","name":"role","type":"bytes32"},{"internalType":"address","name":"account","type":"address"}],"name":"hasRole","outputs":[{"internalType":"bool","name":"","type":"bool"}],"stateMutability":"view","type":"function"},{"inputs":[],"name":"isRebalancingNeeded","outputs":[{"internalType":"bool","name":"","type":"bool"}],"stateMutability":"view","type":"function"},{"inputs":[],"name":"rebalanceThreshold","outputs":[{"internalType":"uint256","name":"","type":"uint256"}],"stateMutability":"view","type":"function"},{"inputs":[{"internalType":"bytes32","name":"role","type":"bytes32"},{"internalType":"address","name":"callerConfirmation","type":"address"}],"name":"renounceRole","outputs":[],"stateMutability":"nonpayable","type":"function"},{"inputs":[{"internalType":"bytes32","name":"role","type":"bytes32"},{"internalType":"address","name":"account","type":"address"}],"name":"revokeRole","outputs":[],"stateMutability":"nonpayable","type":"function"},{"inputs":[{"internalType":"bytes4","name":"interfaceId","type":"bytes4"}],"name":"supportsInterface","outputs":[{"internalType":"bool","name":"","type":"bool"}],"stateMutability":"view","type":"function"},{"inputs":[{"internalType":"string","name":"symbol","type":"string"},{"internalType":"uint256","name":"newPrice","type":"uint256"}],"name":"updateAssetPrice","outputs":[],"stateMutability":"nonpayable","type":"function"},{"inputs":[{"internalType":"string","name":"symbol","type":"string"},{"internalType":"uint256","name":"amount","type":"uint256"},{"internalType":"address","name":"recipient","type":"address"}],"name":"withdrawCollateral","outputs":[],"stateMutability":"nonpayable","type":"function"},{"stateMutability":"payable","type":"receive"}],"evm":{"bytecode":{"linkReferences":{},"object":"60806040526101f46005553480156200001757600080fd5b506040516200362b3803806200362b83398181016040528101906200003d91906200031a565b6001808190555080600260006101000a81548173ffffffffffffffffffffffffffffffffffffffff021916908373ffffffffffffffffffffffffffffffffffffffff1602179055506200009a6000801b336200013b60201b60201c565b50620000cd7f241ecf16d79d0f8dbfb92cbc07fe17840425976cf0667f022fe9877caa831b08336200013b60201b60201c565b50620001007f68e79a7bf1e0bc45d0a330c573bc367f9cf464fd326078812f301165fbda4ef1336200013b60201b60201c565b50620001337fccc64574297998b6c3edf6078cc5e01268465ff116954e3af02ff3a70a730f46336200013b60201b60201c565b50506200034c565b60006200014f83836200023e60201b60201c565b6200023357600160008085815260200190815260200160002060000160008473ffffffffffffffffffffffffffffffffffffffff1673ffffffffffffffffffffffffffffffffffffffff16815260200190815260200160002060006101000a81548160ff021916908315150217905550620001cf620002a860201b60201c565b73ffffffffffffffffffffffffffffffffffffffff168273ffffffffffffffffffffffffffffffffffffffff16847f2f8788117e7eff1d82e926ec794901d17c78024a50270940304540a733656f0d60405160405180910390a46001905062000238565b600090505b92915050565b600080600084815260200190815260200160002060000160008373ffffffffffffffffffffffffffffffffffffffff1673ffffffffffffffffffffffffffffffffffffffff16815260200190815260200160002060009054906101000a900460ff16905092915050565b600033905090565b600080fd5b600073ffffffffffffffffffffffffffffffffffffffff82169050919050565b6000620002e282620002b5565b9050919050565b620002f481620002d5565b81146200030057600080fd5b50565b6000815190506200031481620002e9565b92915050565b600060208284031215620003335762000332620002b0565b5b6000620003438482850162000303565b91505092915050565b6132cf806200035c6000396000f3fe60806040526004361061016a5760003560e01c8063490b48f8116100d1578063a217fddf1161008a578063ebca582511610064578063ebca582514610545578063ec87621c1461056e578063ed6493af14610599578063f679e2bb146105c457610171565b8063a217fddf146104d5578063c63e383514610500578063d547741f1461051c57610171565b8063490b48f8146103bc5780636c879198146103e75780637001f4bb1461042b57806391d14854146104565780639bb71aef14610493578063a0aead4d146104aa57610171565b806320ed870f1161012357806320ed870f14610288578063248a9ca3146102c557806325c8a5ff146103025780632f2ff15d1461033f57806336568abe146103685780633dfe9f6a1461039157610171565b806301ffc9a71461017657806306ef62c1146101b357806307e2cea5146101dc57806309ba1587146102075780631a830fce146102325780631ec747c91461025d57610171565b3661017157005b600080fd5b34801561018257600080fd5b5061019d60048036038101906101989190612030565b6105ed565b6040516101aa9190612078565b60405180910390f35b3480156101bf57600080fd5b506101da60048036038101906101d5919061226d565b610667565b005b3480156101e857600080fd5b506101f1610a92565b6040516101fe91906122f5565b60405180910390f35b34801561021357600080fd5b5061021c610ab6565b604051610229919061236f565b60405180910390f35b34801561023e57600080fd5b50610247610adc565b6040516102549190612078565b60405180910390f35b34801561026957600080fd5b50610272610cd0565b60405161027f9190612399565b60405180910390f35b34801561029457600080fd5b506102af60048036038101906102aa91906123b4565b610e12565b6040516102bc9190612399565b60405180910390f35b3480156102d157600080fd5b506102ec60048036038101906102e79190612429565b610e74565b6040516102f991906122f5565b60405180910390f35b34801561030e57600080fd5b5061032960048036038101906103249190612456565b610e93565b6040516103369190612502565b60405180910390f35b34801561034b57600080fd5b5061036660048036038101906103619190612524565b610f3f565b005b34801561037457600080fd5b5061038f600480360381019061038a9190612524565b610f61565b005b34801561039d57600080fd5b506103a6610fdc565b6040516103b39190612399565b60405180910390f35b3480156103c857600080fd5b506103d1610fe2565b6040516103de91906122f5565b60405180910390f35b3480156103f357600080fd5b5061040e600480360381019061040991906123b4565b611006565b6040516104229897969594939291906125ea565b60405180910390f35b34801561043757600080fd5b50610440611126565b60405161044d9190612399565b60405180910390f35b34801561046257600080fd5b5061047d60048036038101906104789190612524565b61112c565b60405161048a9190612078565b60405180910390f35b34801561049f57600080fd5b506104a8611196565b005b3480156104b657600080fd5b506104bf611241565b6040516104cc9190612399565b60405180910390f35b3480156104e157600080fd5b506104ea61124e565b6040516104f791906122f5565b60405180910390f35b61051a6004803603810190610515919061266f565b611255565b005b34801561052857600080fd5b50610543600480360381019061053e9190612524565b6116db565b005b34801561055157600080fd5b5061056c600480360381019061056791906126f0565b6116fd565b005b34801561057a57600080fd5b506105836119c1565b60405161059091906122f5565b60405180910390f35b3480156105a557600080fd5b506105ae6119e5565b6040516105bb9190612399565b60405180910390f35b3480156105d057600080fd5b506105eb60048036038101906105e6919061266f565b611b27565b005b60007f7965db0b000000000000000000000000000000000000000000000000000000007bffffffffffffffffffffffffffffffffffffffffffffffffffffffff1916827bffffffffffffffffffffffffffffffffffffffffffffffffffffffff19161480610660575061065f82611cbb565b5b9050919050565b7f241ecf16d79d0f8dbfb92cbc07fe17840425976cf0667f022fe9877caa831b0861069181611d25565b610699611d39565b6003846040516106a991906127c3565b908152602001604051809103902060060160009054906101000a900460ff16610707576040517f08c379a00000000000000000000000000000000000000000000000000000000081526004016106fe90612826565b60405180910390fd5b6000831161074a576040517f08c379a000000000000000000000000000000000000000000000000000000000815260040161074190612892565b60405180910390fd5b600073ffffffffffffffffffffffffffffffffffffffff168273ffffffffffffffffffffffffffffffffffffffff16036107b9576040517f08c379a00000000000000000000000000000000000000000000000000000000081526004016107b0906128fe565b60405180910390fd5b60006003856040516107cb91906127c3565b908152602001604051809103902060010160019054906101000a900473ffffffffffffffffffffffffffffffffffffffff16905060006305f5e10060038760405161081691906127c3565b90815260200160405180910390206004015486610833919061294d565b61083d91906129be565b90508060038760405161085091906127c3565b90815260200160405180910390206003015410156108a3576040517f08c379a000000000000000000000000000000000000000000000000000000000815260040161089a90612a3b565b60405180910390fd5b806003876040516108b491906127c3565b908152602001604051809103902060030160008282546108d49190612a5b565b92505081905550600073ffffffffffffffffffffffffffffffffffffffff168273ffffffffffffffffffffffffffffffffffffffff16146109995760008290508073ffffffffffffffffffffffffffffffffffffffff1663a9059cbb86886040518363ffffffff1660e01b815260040161094f929190612a8f565b6020604051808303816000875af115801561096e573d6000803e3d6000fd5b505050506040513d601f19601f820116820180604052508101906109929190612ae4565b5050610a47565b60008473ffffffffffffffffffffffffffffffffffffffff16866040516109bf90612b42565b60006040518083038185875af1925050503d80600081146109fc576040519150601f19603f3d011682016040523d82523d6000602084013e610a01565b606091505b5050905080610a45576040517f08c379a0000000000000000000000000000000000000000000000000000000008152600401610a3c90612ba3565b60405180910390fd5b505b7ff805b9d3da1542a6888251af09a1b853a33a61ae6be6aca482be108497e12c2d868686604051610a7a93929190612bc3565b60405180910390a15050610a8c611d7f565b50505050565b7f68e79a7bf1e0bc45d0a330c573bc367f9cf464fd326078812f301165fbda4ef181565b600260009054906101000a900473ffffffffffffffffffffffffffffffffffffffff1681565b600080610ae76119e5565b905060008103610afb576000915050610ccd565b60005b600480549050811015610cc657600060048281548110610b2157610b20612c01565b5b906000526020600020018054610b3690612c5f565b80601f0160208091040260200160405190810160405280929190818152602001828054610b6290612c5f565b8015610baf5780601f10610b8457610100808354040283529160200191610baf565b820191906000526020600020905b815481529060010190602001808311610b9257829003601f168201915b50505050509050600381604051610bc691906127c3565b908152602001604051809103902060060160009054906101000a900460ff16610bef5750610cb3565b6000600382604051610c0191906127c3565b9081526020016040518091039020600201549050600084612710600385604051610c2b91906127c3565b908152602001604051809103902060030154610c47919061294d565b610c5191906129be565b90508181118015610c6e57506005548282610c6c9190612a5b565b115b15610c8157600195505050505050610ccd565b8082118015610c9c57506005548183610c9a9190612a5b565b115b15610caf57600195505050505050610ccd565b5050505b8080610cbe90612c90565b915050610afe565b5060009150505b90565b6000806000905060005b600480549050811015610e0a57600060048281548110610cfd57610cfc612c01565b5b906000526020600020018054610d1290612c5f565b80601f0160208091040260200160405190810160405280929190818152602001828054610d3e90612c5f565b8015610d8b5780601f10610d6057610100808354040283529160200191610d8b565b820191906000526020600020905b815481529060010190602001808311610d6e57829003601f168201915b50505050509050600381604051610da291906127c3565b908152602001604051809103902060060160009054906101000a900460ff1615610df657600381604051610dd691906127c3565b90815260200160405180910390206002015483610df39190612cd8565b92505b508080610e0290612c90565b915050610cda565b508091505090565b600080610e1d6119e5565b905060008103610e31576000915050610e6f565b80612710600385604051610e4591906127c3565b908152602001604051809103902060030154610e61919061294d565b610e6b91906129be565b9150505b919050565b6000806000838152602001908152602001600020600101549050919050565b60048181548110610ea357600080fd5b906000526020600020016000915090508054610ebe90612c5f565b80601f0160208091040260200160405190810160405280929190818152602001828054610eea90612c5f565b8015610f375780601f10610f0c57610100808354040283529160200191610f37565b820191906000526020600020905b815481529060010190602001808311610f1a57829003601f168201915b505050505081565b610f4882610e74565b610f5181611d25565b610f5b8383611d88565b50505050565b610f69611e79565b73ffffffffffffffffffffffffffffffffffffffff168173ffffffffffffffffffffffffffffffffffffffff1614610fcd576040517f6697b23200000000000000000000000000000000000000000000000000000000815260040160405180910390fd5b610fd78282611e81565b505050565b60055481565b7fccc64574297998b6c3edf6078cc5e01268465ff116954e3af02ff3a70a730f4681565b60038180516020810182018051848252602083016020850120818352809550505050505060009150905080600001805461103f90612c5f565b80601f016020809104026020016040519081016040528092919081815260200182805461106b90612c5f565b80156110b85780601f1061108d576101008083540402835291602001916110b8565b820191906000526020600020905b81548152906001019060200180831161109b57829003601f168201915b5050505050908060010160009054906101000a900460ff16908060010160019054906101000a900473ffffffffffffffffffffffffffffffffffffffff16908060020154908060030154908060040154908060050154908060060160009054906101000a900460ff16905088565b61271081565b600080600084815260200190815260200160002060000160008373ffffffffffffffffffffffffffffffffffffffff1673ffffffffffffffffffffffffffffffffffffffff16815260200190815260200160002060009054906101000a900460ff16905092915050565b7fccc64574297998b6c3edf6078cc5e01268465ff116954e3af02ff3a70a730f466111c081611d25565b6111c8610adc565b611207576040517f08c379a00000000000000000000000000000000000000000000000000000000081526004016111fe90612d58565b60405180910390fd5b7f340a984992aa660042339165cf7d2b849c73974a791a427d92cf5d5d04293bd8426040516112369190612399565b60405180910390a150565b6000600480549050905090565b6000801b81565b61125d611d39565b60038260405161126d91906127c3565b908152602001604051809103902060060160009054906101000a900460ff166112cb576040517f08c379a00000000000000000000000000000000000000000000000000000000081526004016112c290612826565b60405180910390fd5b6000811161130e576040517f08c379a000000000000000000000000000000000000000000000000000000000815260040161130590612892565b60405180910390fd5b600060038360405161132091906127c3565b908152602001604051809103902060010160019054906101000a900473ffffffffffffffffffffffffffffffffffffffff169050600073ffffffffffffffffffffffffffffffffffffffff168173ffffffffffffffffffffffffffffffffffffffff16146115d757600081905060008173ffffffffffffffffffffffffffffffffffffffff166370a08231306040518263ffffffff1660e01b81526004016113c89190612d78565b602060405180830381865afa1580156113e5573d6000803e3d6000fd5b505050506040513d601f19601f820116820180604052508101906114099190612da8565b90508173ffffffffffffffffffffffffffffffffffffffff166323b872dd3330876040518463ffffffff1660e01b815260040161144893929190612dd5565b6020604051808303816000875af1158015611467573d6000803e3d6000fd5b505050506040513d601f19601f8201168201806040525081019061148b9190612ae4565b5060008273ffffffffffffffffffffffffffffffffffffffff166370a08231306040518263ffffffff1660e01b81526004016114c79190612d78565b602060405180830381865afa1580156114e4573d6000803e3d6000fd5b505050506040513d601f19601f820116820180604052508101906115089190612da8565b9050600082826115189190612a5b565b905060006305f5e10060038960405161153191906127c3565b9081526020016040518091039020600401548361154e919061294d565b61155891906129be565b90508060038960405161156b91906127c3565b9081526020016040518091039020600301600082825461158b9190612cd8565b925050819055507f4821df741e995e8b282d1d2e77cd8b0a5c239fc7e05fe285ccb3f603875615538883336040516115c593929190612bc3565b60405180910390a150505050506116ce565b813414611619576040517f08c379a000000000000000000000000000000000000000000000000000000000815260040161161090612e58565b60405180910390fd5b60006305f5e10060038560405161163091906127c3565b9081526020016040518091039020600401548461164d919061294d565b61165791906129be565b90508060038560405161166a91906127c3565b9081526020016040518091039020600301600082825461168a9190612cd8565b925050819055507f4821df741e995e8b282d1d2e77cd8b0a5c239fc7e05fe285ccb3f603875615538484336040516116c493929190612bc3565b60405180910390a1505b506116d7611d7f565b5050565b6116e482610e74565b6116ed81611d25565b6116f78383611e81565b50505050565b7f241ecf16d79d0f8dbfb92cbc07fe17840425976cf0667f022fe9877caa831b0861172781611d25565b60038660405161173791906127c3565b908152602001604051809103902060060160009054906101000a900460ff1615611796576040517f08c379a000000000000000000000000000000000000000000000000000000000815260040161178d90612ec4565b60405180910390fd5b612710836117a2610cd0565b6117ac9190612cd8565b11156117ed576040517f08c379a00000000000000000000000000000000000000000000000000000000081526004016117e490612f30565b60405180910390fd5b60405180610100016040528087815260200186600481111561181257611811612564565b5b81526020018573ffffffffffffffffffffffffffffffffffffffff168152602001848152602001600081526020018381526020014281526020016001151581525060038760405161186391906127c3565b9081526020016040518091039020600082015181600001908161188691906130f2565b5060208201518160010160006101000a81548160ff021916908360048111156118b2576118b1612564565b5b021790555060408201518160010160016101000a81548173ffffffffffffffffffffffffffffffffffffffff021916908373ffffffffffffffffffffffffffffffffffffffff160217905550606082015181600201556080820151816003015560a0820151816004015560c0820151816005015560e08201518160060160006101000a81548160ff02191690831515021790555090505060048690806001815401808255809150506001900390600052602060002001600090919091909150908161197d91906130f2565b507fa912984202ba38c823371aef0da745fd074ed40838244c6d84e1b11e682154b08686856040516119b1939291906131c4565b60405180910390a1505050505050565b7f241ecf16d79d0f8dbfb92cbc07fe17840425976cf0667f022fe9877caa831b0881565b6000806000905060005b600480549050811015611b1f57600060048281548110611a1257611a11612c01565b5b906000526020600020018054611a2790612c5f565b80601f0160208091040260200160405190810160405280929190818152602001828054611a5390612c5f565b8015611aa05780601f10611a7557610100808354040283529160200191611aa0565b820191906000526020600020905b815481529060010190602001808311611a8357829003601f168201915b50505050509050600381604051611ab791906127c3565b908152602001604051809103902060060160009054906101000a900460ff1615611b0b57600381604051611aeb91906127c3565b90815260200160405180910390206003015483611b089190612cd8565b92505b508080611b1790612c90565b9150506119ef565b508091505090565b7f68e79a7bf1e0bc45d0a330c573bc367f9cf464fd326078812f301165fbda4ef1611b5181611d25565b600383604051611b6191906127c3565b908152602001604051809103902060060160009054906101000a900460ff16611bbf576040517f08c379a0000000000000000000000000000000000000000000000000000000008152600401611bb690612826565b60405180910390fd5b81600384604051611bd091906127c3565b90815260200160405180910390206004018190555042600384604051611bf691906127c3565b9081526020016040518091039020600501819055507fcd18d0a33d5ef2303a43ab0a79721c5c93dff54e1012b93917eadd87cad59d0a8383604051611c3c929190613202565b60405180910390a1611c4c610adc565b15611cb6577f6c128d6143d86393d5e56bd0727deac2a86c80f99fb7f46a74abc2172f17233183611c7c85610e12565b600386604051611c8c91906127c3565b908152602001604051809103902060020154604051611cad93929190613232565b60405180910390a15b505050565b60007f01ffc9a7000000000000000000000000000000000000000000000000000000007bffffffffffffffffffffffffffffffffffffffffffffffffffffffff1916827bffffffffffffffffffffffffffffffffffffffffffffffffffffffff1916149050919050565b611d3681611d31611e79565b611f73565b50565b600260015403611d75576040517f3ee5aeb500000000000000000000000000000000000000000000000000000000815260040160405180910390fd5b6002600181905550565b60018081905550565b6000611d94838361112c565b611e6e57600160008085815260200190815260200160002060000160008473ffffffffffffffffffffffffffffffffffffffff1673ffffffffffffffffffffffffffffffffffffffff16815260200190815260200160002060006101000a81548160ff021916908315150217905550611e0b611e79565b73ffffffffffffffffffffffffffffffffffffffff168273ffffffffffffffffffffffffffffffffffffffff16847f2f8788117e7eff1d82e926ec794901d17c78024a50270940304540a733656f0d60405160405180910390a460019050611e73565b600090505b92915050565b600033905090565b6000611e8d838361112c565b15611f6857600080600085815260200190815260200160002060000160008473ffffffffffffffffffffffffffffffffffffffff1673ffffffffffffffffffffffffffffffffffffffff16815260200190815260200160002060006101000a81548160ff021916908315150217905550611f05611e79565b73ffffffffffffffffffffffffffffffffffffffff168273ffffffffffffffffffffffffffffffffffffffff16847ff6391f5c32d9c69d2a47ea670b442974b53935d1edc7fd64eb21e047a839171b60405160405180910390a460019050611f6d565b600090505b92915050565b611f7d828261112c565b611fc05780826040517fe2517d3f000000000000000000000000000000000000000000000000000000008152600401611fb7929190613270565b60405180910390fd5b5050565b6000604051905090565b600080fd5b600080fd5b60007fffffffff0000000000000000000000000000000000000000000000000000000082169050919050565b61200d81611fd8565b811461201857600080fd5b50565b60008135905061202a81612004565b92915050565b60006020828403121561204657612045611fce565b5b60006120548482850161201b565b91505092915050565b60008115159050919050565b6120728161205d565b82525050565b600060208201905061208d6000830184612069565b92915050565b600080fd5b600080fd5b6000601f19601f8301169050919050565b7f4e487b7100000000000000000000000000000000000000000000000000000000600052604160045260246000fd5b6120e68261209d565b810181811067ffffffffffffffff82111715612105576121046120ae565b5b80604052505050565b6000612118611fc4565b905061212482826120dd565b919050565b600067ffffffffffffffff821115612144576121436120ae565b5b61214d8261209d565b9050602081019050919050565b82818337600083830152505050565b600061217c61217784612129565b61210e565b90508281526020810184848401111561219857612197612098565b5b6121a384828561215a565b509392505050565b600082601f8301126121c0576121bf612093565b5b81356121d0848260208601612169565b91505092915050565b6000819050919050565b6121ec816121d9565b81146121f757600080fd5b50565b600081359050612209816121e3565b92915050565b600073ffffffffffffffffffffffffffffffffffffffff82169050919050565b600061223a8261220f565b9050919050565b61224a8161222f565b811461225557600080fd5b50565b60008135905061226781612241565b92915050565b60008060006060848603121561228657612285611fce565b5b600084013567ffffffffffffffff8111156122a4576122a3611fd3565b5b6122b0868287016121ab565b93505060206122c1868287016121fa565b92505060406122d286828701612258565b9150509250925092565b6000819050919050565b6122ef816122dc565b82525050565b600060208201905061230a60008301846122e6565b92915050565b6000819050919050565b600061233561233061232b8461220f565b612310565b61220f565b9050919050565b60006123478261231a565b9050919050565b60006123598261233c565b9050919050565b6123698161234e565b82525050565b60006020820190506123846000830184612360565b92915050565b612393816121d9565b82525050565b60006020820190506123ae600083018461238a565b92915050565b6000602082840312156123ca576123c9611fce565b5b600082013567ffffffffffffffff8111156123e8576123e7611fd3565b5b6123f4848285016121ab565b91505092915050565b612406816122dc565b811461241157600080fd5b50565b600081359050612423816123fd565b92915050565b60006020828403121561243f5761243e611fce565b5b600061244d84828501612414565b91505092915050565b60006020828403121561246c5761246b611fce565b5b600061247a848285016121fa565b91505092915050565b600081519050919050565b600082825260208201905092915050565b60005b838110156124bd5780820151818401526020810190506124a2565b60008484015250505050565b60006124d482612483565b6124de818561248e565b93506124ee81856020860161249f565b6124f78161209d565b840191505092915050565b6000602082019050818103600083015261251c81846124c9565b905092915050565b6000806040838503121561253b5761253a611fce565b5b600061254985828601612414565b925050602061255a85828601612258565b9150509250929050565b7f4e487b7100000000000000000000000000000000000000000000000000000000600052602160045260246000fd5b600581106125a4576125a3612564565b5b50565b60008190506125b582612593565b919050565b60006125c5826125a7565b9050919050565b6125d5816125ba565b82525050565b6125e48161222f565b82525050565b6000610100820190508181036000830152612605818b6124c9565b9050612614602083018a6125cc565b61262160408301896125db565b61262e606083018861238a565b61263b608083018761238a565b61264860a083018661238a565b61265560c083018561238a565b61266260e0830184612069565b9998505050505050505050565b6000806040838503121561268657612685611fce565b5b600083013567ffffffffffffffff8111156126a4576126a3611fd3565b5b6126b0858286016121ab565b92505060206126c1858286016121fa565b9150509250929050565b600581106126d857600080fd5b50565b6000813590506126ea816126cb565b92915050565b600080600080600060a0868803121561270c5761270b611fce565b5b600086013567ffffffffffffffff81111561272a57612729611fd3565b5b612736888289016121ab565b9550506020612747888289016126db565b945050604061275888828901612258565b9350506060612769888289016121fa565b925050608061277a888289016121fa565b9150509295509295909350565b600081905092915050565b600061279d82612483565b6127a78185612787565b93506127b781856020860161249f565b80840191505092915050565b60006127cf8284612792565b915081905092915050565b7f4173736574206e6f7420666f756e640000000000000000000000000000000000600082015250565b6000612810600f8361248e565b915061281b826127da565b602082019050919050565b6000602082019050818103600083015261283f81612803565b9050919050565b7f416d6f756e74206d75737420626520706f736974697665000000000000000000600082015250565b600061287c60178361248e565b915061288782612846565b602082019050919050565b600060208201905081810360008301526128ab8161286f565b9050919050565b7f496e76616c696420726563697069656e74000000000000000000000000000000600082015250565b60006128e860118361248e565b91506128f3826128b2565b602082019050919050565b60006020820190508181036000830152612917816128db565b9050919050565b7f4e487b7100000000000000000000000000000000000000000000000000000000600052601160045260246000fd5b6000612958826121d9565b9150612963836121d9565b9250828202612971816121d9565b915082820484148315176129885761298761291e565b5b5092915050565b7f4e487b7100000000000000000000000000000000000000000000000000000000600052601260045260246000fd5b60006129c9826121d9565b91506129d4836121d9565b9250826129e4576129e361298f565b5b828204905092915050565b7f496e73756666696369656e7420636f6c6c61746572616c000000000000000000600082015250565b6000612a2560178361248e565b9150612a30826129ef565b602082019050919050565b60006020820190508181036000830152612a5481612a18565b9050919050565b6000612a66826121d9565b9150612a71836121d9565b9250828203905081811115612a8957612a8861291e565b5b92915050565b6000604082019050612aa460008301856125db565b612ab1602083018461238a565b9392505050565b612ac18161205d565b8114612acc57600080fd5b50565b600081519050612ade81612ab8565b92915050565b600060208284031215612afa57612af9611fce565b5b6000612b0884828501612acf565b91505092915050565b600081905092915050565b50565b6000612b2c600083612b11565b9150612b3782612b1c565b600082019050919050565b6000612b4d82612b1f565b9150819050919050565b7f455448207472616e73666572206661696c656400000000000000000000000000600082015250565b6000612b8d60138361248e565b9150612b9882612b57565b602082019050919050565b60006020820190508181036000830152612bbc81612b80565b9050919050565b60006060820190508181036000830152612bdd81866124c9565b9050612bec602083018561238a565b612bf960408301846125db565b949350505050565b7f4e487b7100000000000000000000000000000000000000000000000000000000600052603260045260246000fd5b7f4e487b7100000000000000000000000000000000000000000000000000000000600052602260045260246000fd5b60006002820490506001821680612c7757607f821691505b602082108103612c8a57612c89612c30565b5b50919050565b6000612c9b826121d9565b91507fffffffffffffffffffffffffffffffffffffffffffffffffffffffffffffffff8203612ccd57612ccc61291e565b5b600182019050919050565b6000612ce3826121d9565b9150612cee836121d9565b9250828201905080821115612d0657612d0561291e565b5b92915050565b7f526562616c616e63696e67206e6f74206e656564656400000000000000000000600082015250565b6000612d4260168361248e565b9150612d4d82612d0c565b602082019050919050565b60006020820190508181036000830152612d7181612d35565b9050919050565b6000602082019050612d8d60008301846125db565b92915050565b600081519050612da2816121e3565b92915050565b600060208284031215612dbe57612dbd611fce565b5b6000612dcc84828501612d93565b91505092915050565b6000606082019050612dea60008301866125db565b612df760208301856125db565b612e04604083018461238a565b949350505050565b7f496e636f72726563742045544820616d6f756e74000000000000000000000000600082015250565b6000612e4260148361248e565b9150612e4d82612e0c565b602082019050919050565b60006020820190508181036000830152612e7181612e35565b9050919050565b7f417373657420616c726561647920657869737473000000000000000000000000600082015250565b6000612eae60148361248e565b9150612eb982612e78565b602082019050919050565b60006020820190508181036000830152612edd81612ea1565b9050919050565b7f546f74616c207765696768742065786365656473203130302500000000000000600082015250565b6000612f1a60198361248e565b9150612f2582612ee4565b602082019050919050565b60006020820190508181036000830152612f4981612f0d565b9050919050565b60008190508160005260206000209050919050565b60006020601f8301049050919050565b600082821b905092915050565b600060088302612fb27fffffffffffffffffffffffffffffffffffffffffffffffffffffffffffffffff82612f75565b612fbc8683612f75565b95508019841693508086168417925050509392505050565b6000612fef612fea612fe5846121d9565b612310565b6121d9565b9050919050565b6000819050919050565b61300983612fd4565b61301d61301582612ff6565b848454612f82565b825550505050565b600090565b613032613025565b61303d818484613000565b505050565b5b818110156130615761305660008261302a565b600181019050613043565b5050565b601f8211156130a65761307781612f50565b61308084612f65565b8101602085101561308f578190505b6130a361309b85612f65565b830182613042565b50505b505050565b600082821c905092915050565b60006130c9600019846008026130ab565b1980831691505092915050565b60006130e283836130b8565b9150826002028217905092915050565b6130fb82612483565b67ffffffffffffffff811115613114576131136120ae565b5b61311e8254612c5f565b613129828285613065565b600060209050601f83116001811461315c576000841561314a578287015190505b61315485826130d6565b8655506131bc565b601f19841661316a86612f50565b60005b828110156131925784890151825560018201915060208501945060208101905061316d565b868310156131af57848901516131ab601f8916826130b8565b8355505b6001600288020188555050505b505050505050565b600060608201905081810360008301526131de81866124c9565b90506131ed60208301856125cc565b6131fa604083018461238a565b949350505050565b6000604082019050818103600083015261321c81856124c9565b905061322b602083018461238a565b9392505050565b6000606082019050818103600083015261324c81866124c9565b905061325b602083018561238a565b613268604083018461238a565b949350505050565b600060408201905061328560008301856125db565b61329260208301846122e6565b939250505056fea2646970667358221220c09e7498a9b9a83419acc30af505055699245ca40d48eaaee6201cc87baeb9a664736f6c63430008140033","opcodes":"PUSH1 0x80 PUSH1 0x40 MSTORE PUSH2 0x1F4 PUSH1 0x5 SSTORE CALLVALUE DUP1 ISZERO PUSH3 0x17 JUMPI PUSH1 0x0 DUP1 REVERT JUMPDEST POP PUSH1 0x40 MLOAD PUSH3 0x362B CODESIZE SUB DUP1 PUSH3 0x362B DUP4 CODECOPY DUP2 DUP2 ADD PUSH1 0x40 MSTORE DUP2 ADD SWAP1 PUSH3 0x3D SWAP2 SWAP1 PUSH3 0x31A JUMP JUMPDEST PUSH1 0x1 DUP1 DUP2 SWAP1 SSTORE POP DUP1 PUSH1 0x2 PUSH1 0x0 PUSH2 0x100 EXP DUP2 SLOAD DUP2 PUSH20 0xFFFFFFFFFFFFFFFFFFFFFFFFFFFFFFFFFFFFFFFF MUL NOT AND SWAP1 DUP4 PUSH20 0xFFFFFFFFFFFFFFFFFFFFFFFFFFFFFFFFFFFFFFFF AND MUL OR SWAP1 SSTORE POP PUSH3 0x9A PUSH1 0x0 DUP1 SHL CALLER PUSH3 0x13B PUSH1 0x20 SHL PUSH1 0x20 SHR JUMP JUMPDEST POP PUSH3 0xCD PUSH32 0x241ECF16D79D0F8DBFB92CBC07FE17840425976CF0667F022FE9877CAA831B08 CALLER PUSH3 0x13B PUSH1 0x20 SHL PUSH1 0x20 SHR JUMP JUMPDEST POP PUSH3 0x100 PUSH32 0x68E79A7BF1E0BC45D0A330C573BC367F9CF464FD326078812F301165FBDA4EF1 CALLER PUSH3 0x13B PUSH1 0x20 SHL PUSH1 0x20 SHR JUMP JUMPDEST POP PUSH3 0x133 PUSH32 0xCCC64574297998B6C3EDF6078CC5E01268465FF116954E3AF02FF3A70A730F46 CALLER PUSH3 0x13B PUSH1 0x20 SHL PUSH1 0x20 SHR JUMP JUMPDEST POP POP PUSH3 0x34C JUMP JUMPDEST PUSH1 0x0 PUSH3 0x14F DUP4 DUP4 PUSH3 0x23E PUSH1 0x20 SHL PUSH1 0x20 SHR JUMP JUMPDEST PUSH3 0x233 JUMPI PUSH1 0x1 PUSH1 0x0 DUP1 DUP6 DUP2 MSTORE PUSH1 0x20 ADD SWAP1 DUP2 MSTORE PUSH1 0x20 ADD PUSH1 0x0 KECCAK256 PUSH1 0x0 ADD PUSH1 0x0 DUP5 PUSH20 0xFFFFFFFFFFFFFFFFFFFFFFFFFFFFFFFFFFFFFFFF AND PUSH20 0xFFFFFFFFFFFFFFFFFFFFFFFFFFFFFFFFFFFFFFFF AND DUP2 MSTORE PUSH1 0x20 ADD SWAP1 DUP2 MSTORE PUSH1 0x20 ADD PUSH1 0x0 KECCAK256 PUSH1 0x0 PUSH2 0x100 EXP DUP2 SLOAD DUP2 PUSH1 0xFF MUL NOT AND SWAP1 DUP4 ISZERO ISZERO MUL OR SWAP1 SSTORE POP PUSH3 0x1CF PUSH3 0x2A8 PUSH1 0x20 SHL PUSH1 0x20 SHR JUMP JUMPDEST PUSH20 0xFFFFFFFFFFFFFFFFFFFFFFFFFFFFFFFFFFFFFFFF AND DUP3 PUSH20 0xFFFFFFFFFFFFFFFFFFFFFFFFFFFFFFFFFFFFFFFF AND DUP5 PUSH32 0x2F8788117E7EFF1D82E926EC794901D17C78024A50270940304540A733656F0D PUSH1 0x40 MLOAD PUSH1 0x40 MLOAD DUP1 SWAP2 SUB SWAP1 LOG4 PUSH1 0x1 SWAP1 POP PUSH3 0x238 JUMP JUMPDEST PUSH1 0x0 SWAP1 POP JUMPDEST SWAP3 SWAP2 POP POP JUMP JUMPDEST PUSH1 0x0 DUP1 PUSH1 0x0 DUP5 DUP2 MSTORE PUSH1 0x20 ADD SWAP1 DUP2 MSTORE PUSH1 0x20 ADD PUSH1 0x0 KECCAK256 PUSH1 0x0 ADD PUSH1 0x0 DUP4 PUSH20 0xFFFFFFFFFFFFFFFFFFFFFFFFFFFFFFFFFFFFFFFF AND PUSH20 0xFFFFFFFFFFFFFFFFFFFFFFFFFFFFFFFFFFFFFFFF AND DUP2 MSTORE PUSH1 0x20 ADD SWAP1 DUP2 MSTORE PUSH1 0x20 ADD PUSH1 0x0 KECCAK256 PUSH1 0x0 SWAP1 SLOAD SWAP1 PUSH2 0x100 EXP SWAP1 DIV PUSH1 0xFF AND SWAP1 POP SWAP3 SWAP2 POP POP JUMP JUMPDEST PUSH1 0x0 CALLER SWAP1 POP SWAP1 JUMP JUMPDEST PUSH1 0x0 DUP1 REVERT JUMPDEST PUSH1 0x0 PUSH20 0xFFFFFFFFFFFFFFFFFFFFFFFFFFFFFFFFFFFFFFFF DUP3 AND SWAP1 POP SWAP2 SWAP1 POP JUMP JUMPDEST PUSH1 0x0 PUSH3 0x2E2 DUP3 PUSH3 0x2B5 JUMP JUMPDEST SWAP1 POP SWAP2 SWAP1 POP JUMP JUMPDEST PUSH3 0x2F4 DUP2 PUSH3 0x2D5 JUMP JUMPDEST DUP2 EQ PUSH3 0x300 JUMPI PUSH1 0x0 DUP1 REVERT JUMPDEST POP JUMP JUMPDEST PUSH1 0x0 DUP2 MLOAD SWAP1 POP PUSH3 0x314 DUP2 PUSH3 0x2E9 JUMP JUMPDEST SWAP3 SWAP2 POP POP JUMP JUMPDEST PUSH1 0x0 PUSH1 0x20 DUP3 DUP5 SUB SLT ISZERO PUSH3 0x333 JUMPI PUSH3 0x332 PUSH3 0x2B0 JUMP JUMPDEST JUMPDEST PUSH1 0x0 PUSH3 0x343 DUP5 DUP3 DUP6 ADD PUSH3 0x303 JUMP JUMPDEST SWAP2 POP POP SWAP3 SWAP2 POP POP JUMP JUMPDEST PUSH2 0x32CF DUP1 PUSH3 0x35C PUSH1 0x0 CODECOPY PUSH1 0x0 RETURN INVALID PUSH1 0x80 PUSH1 0x40 MSTORE PUSH1 0x4 CALLDATASIZE LT PUSH2 0x16A JUMPI PUSH1 0x0 CALLDATALOAD PUSH1 0xE0 SHR DUP1 PUSH4 0x490B48F8 GT PUSH2 0xD1 JUMPI DUP1 PUSH4 0xA217FDDF GT PUSH2 0x8A JUMPI DUP1 PUSH4 0xEBCA5825 GT PUSH2 0x64 JUMPI DUP1 PUSH4 0xEBCA5825 EQ PUSH2 0x545 JUMPI DUP1 PUSH4 0xEC87621C EQ PUSH2 0x56E JUMPI DUP1 PUSH4 0xED6493AF EQ PUSH2 0x599 JUMPI DUP1 PUSH4 0xF679E2BB EQ PUSH2 0x5C4 JUMPI PUSH2 0x171 JUMP JUMPDEST DUP1 PUSH4 0xA217FDDF EQ PUSH2 0x4D5 JUMPI DUP1 PUSH4 0xC63E3835 EQ PUSH2 0x500 JUMPI DUP1 PUSH4 0xD547741F EQ PUSH2 0x51C JUMPI PUSH2 0x171 JUMP JUMPDEST DUP1 PUSH4 0x490B48F8 EQ PUSH2 0x3BC JUMPI DUP1 PUSH4 0x6C879198 EQ PUSH2 0x3E7 JUMPI DUP1 PUSH4 0x7001F4BB EQ PUSH2 0x42B JUMPI DUP1 PUSH4 0x91D14854 EQ PUSH2 0x456 JUMPI DUP1 PUSH4 0x9BB71AEF EQ PUSH2 0x493 JUMPI DUP1 PUSH4 0xA0AEAD4D EQ PUSH2 0x4AA JUMPI PUSH2 0x171 JUMP JUMPDEST DUP1 PUSH4 0x20ED870F GT PUSH2 0x123 JUMPI DUP1 PUSH4 0x20ED870F EQ PUSH2 0x288 JUMPI DUP1 PUSH4 0x248A9CA3 EQ PUSH2 0x2C5 JUMPI DUP1 PUSH4 0x25C8A5FF EQ PUSH2 0x302 JUMPI DUP1 PUSH4 0x2F2FF15D EQ PUSH2 0x33F JUMPI DUP1 PUSH4 0x36568ABE EQ PUSH2 0x368 JUMPI DUP1 PUSH4 0x3DFE9F6A EQ PUSH2 0x391 JUMPI PUSH2 0x171 JUMP JUMPDEST DUP1 PUSH4 0x1FFC9A7 EQ PUSH2 0x176 JUMPI DUP1 PUSH4 0x6EF62C1 EQ PUSH2 0x1B3 JUMPI DUP1 PUSH4 0x7E2CEA5 EQ PUSH2 0x1DC JUMPI DUP1 PUSH4 0x9BA1587 EQ PUSH2 0x207 JUMPI DUP1 PUSH4 0x1A830FCE EQ PUSH2 0x232 JUMPI DUP1 PUSH4 0x1EC747C9 EQ PUSH2 0x25D JUMPI PUSH2 0x171 JUMP JUMPDEST CALLDATASIZE PUSH2 0x171 JUMPI STOP JUMPDEST PUSH1 0x0 DUP1 REVERT JUMPDEST CALLVALUE DUP1 ISZERO PUSH2 0x182 JUMPI PUSH1 0x0 DUP1 REVERT JUMPDEST POP PUSH2 0x19D PUSH1 0x4 DUP1 CALLDATASIZE SUB DUP2 ADD SWAP1 PUSH2 0x198 SWAP2 SWAP1 PUSH2 0x2030 JUMP JUMPDEST PUSH2 0x5ED JUMP JUMPDEST PUSH1 0x40 MLOAD PUSH2 0x1AA SWAP2 SWAP1 PUSH2 0x2078 JUMP JUMPDEST PUSH1 0x40 MLOAD DUP1 SWAP2 SUB SWAP1 RETURN JUMPDEST CALLVALUE DUP1 ISZERO PUSH2 0x1BF JUMPI PUSH1 0x0 DUP1 REVERT JUMPDEST POP PUSH2 0x1DA PUSH1 0x4 DUP1 CALLDATASIZE SUB DUP2 ADD SWAP1 PUSH2 0x1D5 SWAP2 SWAP1 PUSH2 0x226D JUMP JUMPDEST PUSH2 0x667 JUMP JUMPDEST STOP JUMPDEST CALLVALUE DUP1 ISZERO PUSH2 0x1E8 JUMPI PUSH1 0x0 DUP1 REVERT JUMPDEST POP PUSH2 0x1F1 PUSH2 0xA92 JUMP JUMPDEST PUSH1 0x40 MLOAD PUSH2 0x1FE SWAP2 SWAP1 PUSH2 0x22F5 JUMP JUMPDEST PUSH1 0x40 MLOAD DUP1 SWAP2 SUB SWAP1 RETURN JUMPDEST CALLVALUE DUP1 ISZERO PUSH2 0x213 JUMPI PUSH1 0x0 DUP1 REVERT JUMPDEST POP PUSH2 0x21C PUSH2 0xAB6 JUMP JUMPDEST PUSH1 0x40 MLOAD PUSH2 0x229 SWAP2 SWAP1 PUSH2 0x236F JUMP JUMPDEST PUSH1 0x40 MLOAD DUP1 SWAP2 SUB SWAP1 RETURN JUMPDEST CALLVALUE DUP1 ISZERO PUSH2 0x23E JUMPI PUSH1 0x0 DUP1 REVERT JUMPDEST POP PUSH2 0x247 PUSH2 0xADC JUMP JUMPDEST PUSH1 0x40 MLOAD PUSH2 0x254 SWAP2 SWAP1 PUSH2 0x2078 JUMP JUMPDEST PUSH1 0x40 MLOAD DUP1 SWAP2 SUB SWAP1 RETURN JUMPDEST CALLVALUE DUP1 ISZERO PUSH2 0x269 JUMPI PUSH1 0x0 DUP1 REVERT JUMPDEST POP PUSH2 0x272 PUSH2 0xCD0 JUMP JUMPDEST PUSH1 0x40 MLOAD PUSH2 0x27F SWAP2 SWAP1 PUSH2 0x2399 JUMP JUMPDEST PUSH1 0x40 MLOAD DUP1 SWAP2 SUB SWAP1 RETURN JUMPDEST CALLVALUE DUP1 ISZERO PUSH2 0x294 JUMPI PUSH1 0x0 DUP1 REVERT JUMPDEST POP PUSH2 0x2AF PUSH1 0x4 DUP1 CALLDATASIZE SUB DUP2 ADD SWAP1 PUSH2 0x2AA SWAP2 SWAP1 PUSH2 0x23B4 JUMP JUMPDEST PUSH2 0xE12 JUMP JUMPDEST PUSH1 0x40 MLOAD PUSH2 0x2BC SWAP2 SWAP1 PUSH2 0x2399 JUMP JUMPDEST PUSH1 0x40 MLOAD DUP1 SWAP2 SUB SWAP1 RETURN JUMPDEST CALLVALUE DUP1 ISZERO PUSH2 0x2D1 JUMPI PUSH1 0x0 DUP1 REVERT JUMPDEST POP PUSH2 0x2EC PUSH1 0x4 DUP1 CALLDATASIZE SUB DUP2 ADD SWAP1 PUSH2 0x2E7 SWAP2 SWAP1 PUSH2 0x2429 JUMP JUMPDEST PUSH2 0xE74 JUMP JUMPDEST PUSH1 0x40 MLOAD PUSH2 0x2F9 SWAP2 SWAP1 PUSH2 0x22F5 JUMP JUMPDEST PUSH1 0x40 MLOAD DUP1 SWAP2 SUB SWAP1 RETURN JUMPDEST CALLVALUE DUP1 ISZERO PUSH2 0x30E JUMPI PUSH1 0x0 DUP1 REVERT JUMPDEST POP PUSH2 0x329 PUSH1 0x4 DUP1 CALLDATASIZE SUB DUP2 ADD SWAP1 PUSH2 0x324 SWAP2 SWAP1 PUSH2 0x2456 JUMP JUMPDEST PUSH2 0xE93 JUMP JUMPDEST PUSH1 0x40 MLOAD PUSH2 0x336 SWAP2 SWAP1 PUSH2 0x2502 JUMP JUMPDEST PUSH1 0x40 MLOAD DUP1 SWAP2 SUB SWAP1 RETURN JUMPDEST CALLVALUE DUP1 ISZERO PUSH2 0x34B JUMPI PUSH1 0x0 DUP1 REVERT JUMPDEST POP PUSH2 0x366 PUSH1 0x4 DUP1 CALLDATASIZE SUB DUP2 ADD SWAP1 PUSH2 0x361 SWAP2 SWAP1 PUSH2 0x2524 JUMP JUMPDEST PUSH2 0xF3F JUMP JUMPDEST STOP JUMPDEST CALLVALUE DUP1 ISZERO PUSH2 0x374 JUMPI PUSH1 0x0 DUP1 REVERT JUMPDEST POP PUSH2 0x38F PUSH1 0x4 DUP1 CALLDATASIZE SUB DUP2 ADD SWAP1 PUSH2 0x38A SWAP2 SWAP1 PUSH2 0x2524 JUMP JUMPDEST PUSH2 0xF61 JUMP JUMPDEST STOP JUMPDEST CALLVALUE DUP1 ISZERO PUSH2 0x39D JUMPI PUSH1 0x0 DUP1 REVERT JUMPDEST POP PUSH2 0x3A6 PUSH2 0xFDC JUMP JUMPDEST PUSH1 0x40 MLOAD PUSH2 0x3B3 SWAP2 SWAP1 PUSH2 0x2399 JUMP JUMPDEST PUSH1 0x40 MLOAD DUP1 SWAP2 SUB SWAP1 RETURN JUMPDEST CALLVALUE DUP1 ISZERO PUSH2 0x3C8 JUMPI PUSH1 0x0 DUP1 REVERT JUMPDEST POP PUSH2 0x3D1 PUSH2 0xFE2 JUMP JUMPDEST PUSH1 0x40 MLOAD PUSH2 0x3DE SWAP2 SWAP1 PUSH2 0x22F5 JUMP JUMPDEST PUSH1 0x40 MLOAD DUP1 SWAP2 SUB SWAP1 RETURN JUMPDEST CALLVALUE DUP1 ISZERO PUSH2 0x3F3 JUMPI PUSH1 0x0 DUP1 REVERT JUMPDEST POP PUSH2 0x40E PUSH1 0x4 DUP1 CALLDATASIZE SUB DUP2 ADD SWAP1 PUSH2 0x409 SWAP2 SWAP1 PUSH2 0x23B4 JUMP JUMPDEST PUSH2 0x1006 JUMP JUMPDEST PUSH1 0x40 MLOAD PUSH2 0x422 SWAP9 SWAP8 SWAP7 SWAP6 SWAP5 SWAP4 SWAP3 SWAP2 SWAP1 PUSH2 0x25EA JUMP JUMPDEST PUSH1 0x40 MLOAD DUP1 SWAP2 SUB SWAP1 RETURN JUMPDEST CALLVALUE DUP1 ISZERO PUSH2 0x437 JUMPI PUSH1 0x0 DUP1 REVERT JUMPDEST POP PUSH2 0x440 PUSH2 0x1126 JUMP JUMPDEST PUSH1 0x40 MLOAD PUSH2 0x44D SWAP2 SWAP1 PUSH2 0x2399 JUMP JUMPDEST PUSH1 0x40 MLOAD DUP1 SWAP2 SUB SWAP1 RETURN JUMPDEST CALLVALUE DUP1 ISZERO PUSH2 0x462 JUMPI PUSH1 0x0 DUP1 REVERT JUMPDEST POP PUSH2 0x47D PUSH1 0x4 DUP1 CALLDATASIZE SUB DUP2 ADD SWAP1 PUSH2 0x478 SWAP2 SWAP1 PUSH2 0x2524 JUMP JUMPDEST PUSH2 0x112C JUMP JUMPDEST PUSH1 0x40 MLOAD PUSH2 0x48A SWAP2 SWAP1 PUSH2 0x2078 JUMP JUMPDEST PUSH1 0x40 MLOAD DUP1 SWAP2 SUB SWAP1 RETURN JUMPDEST CALLVALUE DUP1 ISZERO PUSH2 0x49F JUMPI PUSH1 0x0 DUP1 REVERT JUMPDEST POP PUSH2 0x4A8 PUSH2 0x1196 JUMP JUMPDEST STOP JUMPDEST CALLVALUE DUP1 ISZERO PUSH2 0x4B6 JUMPI PUSH1 0x0 DUP1 REVERT JUMPDEST POP PUSH2 0x4BF PUSH2 0x1241 JUMP JUMPDEST PUSH1 0x40 MLOAD PUSH2 0x4CC SWAP2 SWAP1 PUSH2 0x2399 JUMP JUMPDEST PUSH1 0x40 MLOAD DUP1 SWAP2 SUB SWAP1 RETURN JUMPDEST CALLVALUE DUP1 ISZERO PUSH2 0x4E1 JUMPI PUSH1 0x0 DUP1 REVERT JUMPDEST POP PUSH2 0x4EA PUSH2 0x124E JUMP JUMPDEST PUSH1 0x40 MLOAD PUSH2 0x4F7 SWAP2 SWAP1 PUSH2 0x22F5 JUMP JUMPDEST PUSH1 0x40 MLOAD DUP1 SWAP2 SUB SWAP1 RETURN JUMPDEST PUSH2 0x51A PUSH1 0x4 DUP1 CALLDATASIZE SUB DUP2 ADD SWAP1 PUSH2 0x515 SWAP2 SWAP1 PUSH2 0x266F JUMP JUMPDEST PUSH2 0x1255 JUMP JUMPDEST STOP JUMPDEST CALLVALUE DUP1 ISZERO PUSH2 0x528 JUMPI PUSH1 0x0 DUP1 REVERT JUMPDEST POP PUSH2 0x543 PUSH1 0x4 DUP1 CALLDATASIZE SUB DUP2 ADD SWAP1 PUSH2 0x53E SWAP2 SWAP1 PUSH2 0x2524 JUMP JUMPDEST PUSH2 0x16DB JUMP JUMPDEST STOP JUMPDEST CALLVALUE DUP1 ISZERO PUSH2 0x551 JUMPI PUSH1 0x0 DUP1 REVERT JUMPDEST POP PUSH2 0x56C PUSH1 0x4 DUP1 CALLDATASIZE SUB DUP2 ADD SWAP1 PUSH2 0x567 SWAP2 SWAP1 PUSH2 0x26F0 JUMP JUMPDEST PUSH2 0x16FD JUMP JUMPDEST STOP JUMPDEST CALLVALUE DUP1 ISZERO PUSH2 0x57A JUMPI PUSH1 0x0 DUP1 REVERT JUMPDEST POP PUSH2 0x583 PUSH2 0x19C1 JUMP JUMPDEST PUSH1 0x40 MLOAD PUSH2 0x590 SWAP2 SWAP1 PUSH2 0x22F5 JUMP JUMPDEST PUSH1 0x40 MLOAD DUP1 SWAP2 SUB SWAP1 RETURN JUMPDEST CALLVALUE DUP1 ISZERO PUSH2 0x5A5 JUMPI PUSH1 0x0 DUP1 REVERT JUMPDEST POP PUSH2 0x5AE PUSH2 0x19E5 JUMP JUMPDEST PUSH1 0x40 MLOAD PUSH2 0x5BB SWAP2 SWAP1 PUSH2 0x2399 JUMP JUMPDEST PUSH1 0x40 MLOAD DUP1 SWAP2 SUB SWAP1 RETURN JUMPDEST CALLVALUE DUP1 ISZERO PUSH2 0x5D0 JUMPI PUSH1 0x0 DUP1 REVERT JUMPDEST POP PUSH2 0x5EB PUSH1 0x4 DUP1 CALLDATASIZE SUB DUP2 ADD SWAP1 PUSH2 0x5E6 SWAP2 SWAP1 PUSH2 0x266F JUMP JUMPDEST PUSH2 0x1B27 JUMP JUMPDEST STOP JUMPDEST PUSH1 0x0 PUSH32 0x7965DB0B00000000000000000000000000000000000000000000000000000000 PUSH28 0xFFFFFFFFFFFFFFFFFFFFFFFFFFFFFFFFFFFFFFFFFFFFFFFFFFFFFFFF NOT AND DUP3 PUSH28 0xFFFFFFFFFFFFFFFFFFFFFFFFFFFFFFFFFFFFFFFFFFFFFFFFFFFFFFFF NOT AND EQ DUP1 PUSH2 0x660 JUMPI POP PUSH2 0x65F DUP3 PUSH2 0x1CBB JUMP JUMPDEST JUMPDEST SWAP1 POP SWAP2 SWAP1 POP JUMP JUMPDEST PUSH32 0x241ECF16D79D0F8DBFB92CBC07FE17840425976CF0667F022FE9877CAA831B08 PUSH2 0x691 DUP2 PUSH2 0x1D25 JUMP JUMPDEST PUSH2 0x699 PUSH2 0x1D39 JUMP JUMPDEST PUSH1 0x3 DUP5 PUSH1 0x40 MLOAD PUSH2 0x6A9 SWAP2 SWAP1 PUSH2 0x27C3 JUMP JUMPDEST SWAP1 DUP2 MSTORE PUSH1 0x20 ADD PUSH1 0x40 MLOAD DUP1 SWAP2 SUB SWAP1 KECCAK256 PUSH1 0x6 ADD PUSH1 0x0 SWAP1 SLOAD SWAP1 PUSH2 0x100 EXP SWAP1 DIV PUSH1 0xFF AND PUSH2 0x707 JUMPI PUSH1 0x40 MLOAD PUSH32 0x8C379A000000000000000000000000000000000000000000000000000000000 DUP2 MSTORE PUSH1 0x4 ADD PUSH2 0x6FE SWAP1 PUSH2 0x2826 JUMP JUMPDEST PUSH1 0x40 MLOAD DUP1 SWAP2 SUB SWAP1 REVERT JUMPDEST PUSH1 0x0 DUP4 GT PUSH2 0x74A JUMPI PUSH1 0x40 MLOAD PUSH32 0x8C379A000000000000000000000000000000000000000000000000000000000 DUP2 MSTORE PUSH1 0x4 ADD PUSH2 0x741 SWAP1 PUSH2 0x2892 JUMP JUMPDEST PUSH1 0x40 MLOAD DUP1 SWAP2 SUB SWAP1 REVERT JUMPDEST PUSH1 0x0 PUSH20 0xFFFFFFFFFFFFFFFFFFFFFFFFFFFFFFFFFFFFFFFF AND DUP3 PUSH20 0xFFFFFFFFFFFFFFFFFFFFFFFFFFFFFFFFFFFFFFFF AND SUB PUSH2 0x7B9 JUMPI PUSH1 0x40 MLOAD PUSH32 0x8C379A000000000000000000000000000000000000000000000000000000000 DUP2 MSTORE PUSH1 0x4 ADD PUSH2 0x7B0 SWAP1 PUSH2 0x28FE JUMP JUMPDEST PUSH1 0x40 MLOAD DUP1 SWAP2 SUB SWAP1 REVERT JUMPDEST PUSH1 0x0 PUSH1 0x3 DUP6 PUSH1 0x40 MLOAD PUSH2 0x7CB SWAP2 SWAP1 PUSH2 0x27C3 JUMP JUMPDEST SWAP1 DUP2 MSTORE PUSH1 0x20 ADD PUSH1 0x40 MLOAD DUP1 SWAP2 SUB SWAP1 KECCAK256 PUSH1 0x1 ADD PUSH1 0x1 SWAP1 SLOAD SWAP1 PUSH2 0x100 EXP SWAP1 DIV PUSH20 0xFFFFFFFFFFFFFFFFFFFFFFFFFFFFFFFFFFFFFFFF AND SWAP1 POP PUSH1 0x0 PUSH4 0x5F5E100 PUSH1 0x3 DUP8 PUSH1 0x40 MLOAD PUSH2 0x816 SWAP2 SWAP1 PUSH2 0x27C3 JUMP JUMPDEST SWAP1 DUP2 MSTORE PUSH1 0x20 ADD PUSH1 0x40 MLOAD DUP1 SWAP2 SUB SWAP1 KECCAK256 PUSH1 0x4 ADD SLOAD DUP7 PUSH2 0x833 SWAP2 SWAP1 PUSH2 0x294D JUMP JUMPDEST PUSH2 0x83D SWAP2 SWAP1 PUSH2 0x29BE JUMP JUMPDEST SWAP1 POP DUP1 PUSH1 0x3 DUP8 PUSH1 0x40 MLOAD PUSH2 0x850 SWAP2 SWAP1 PUSH2 0x27C3 JUMP JUMPDEST SWAP1 DUP2 MSTORE PUSH1 0x20 ADD PUSH1 0x40 MLOAD DUP1 SWAP2 SUB SWAP1 KECCAK256 PUSH1 0x3 ADD SLOAD LT ISZERO PUSH2 0x8A3 JUMPI PUSH1 0x40 MLOAD PUSH32 0x8C379A000000000000000000000000000000000000000000000000000000000 DUP2 MSTORE PUSH1 0x4 ADD PUSH2 0x89A SWAP1 PUSH2 0x2A3B JUMP JUMPDEST PUSH1 0x40 MLOAD DUP1 SWAP2 SUB SWAP1 REVERT JUMPDEST DUP1 PUSH1 0x3 DUP8 PUSH1 0x40 MLOAD PUSH2 0x8B4 SWAP2 SWAP1 PUSH2 0x27C3 JUMP JUMPDEST SWAP1 DUP2 MSTORE PUSH1 0x20 ADD PUSH1 0x40 MLOAD DUP1 SWAP2 SUB SWAP1 KECCAK256 PUSH1 0x3 ADD PUSH1 0x0 DUP3 DUP3 SLOAD PUSH2 0x8D4 SWAP2 SWAP1 PUSH2 0x2A5B JUMP JUMPDEST SWAP3 POP POP DUP2 SWAP1 SSTORE POP PUSH1 0x0 PUSH20 0xFFFFFFFFFFFFFFFFFFFFFFFFFFFFFFFFFFFFFFFF AND DUP3 PUSH20 0xFFFFFFFFFFFFFFFFFFFFFFFFFFFFFFFFFFFFFFFF AND EQ PUSH2 0x999 JUMPI PUSH1 0x0 DUP3 SWAP1 POP DUP1 PUSH20 0xFFFFFFFFFFFFFFFFFFFFFFFFFFFFFFFFFFFFFFFF AND PUSH4 0xA9059CBB DUP7 DUP9 PUSH1 0x40 MLOAD DUP4 PUSH4 0xFFFFFFFF AND PUSH1 0xE0 SHL DUP2 MSTORE PUSH1 0x4 ADD PUSH2 0x94F SWAP3 SWAP2 SWAP1 PUSH2 0x2A8F JUMP JUMPDEST PUSH1 0x20 PUSH1 0x40 MLOAD DUP1 DUP4 SUB DUP2 PUSH1 0x0 DUP8 GAS CALL ISZERO DUP1 ISZERO PUSH2 0x96E JUMPI RETURNDATASIZE PUSH1 0x0 DUP1 RETURNDATACOPY RETURNDATASIZE PUSH1 0x0 REVERT JUMPDEST POP POP POP POP PUSH1 0x40 MLOAD RETURNDATASIZE PUSH1 0x1F NOT PUSH1 0x1F DUP3 ADD AND DUP3 ADD DUP1 PUSH1 0x40 MSTORE POP DUP2 ADD SWAP1 PUSH2 0x992 SWAP2 SWAP1 PUSH2 0x2AE4 JUMP JUMPDEST POP POP PUSH2 0xA47 JUMP JUMPDEST PUSH1 0x0 DUP5 PUSH20 0xFFFFFFFFFFFFFFFFFFFFFFFFFFFFFFFFFFFFFFFF AND DUP7 PUSH1 0x40 MLOAD PUSH2 0x9BF SWAP1 PUSH2 0x2B42 JUMP JUMPDEST PUSH1 0x0 PUSH1 0x40 MLOAD DUP1 DUP4 SUB DUP2 DUP6 DUP8 GAS CALL SWAP3 POP POP POP RETURNDATASIZE DUP1 PUSH1 0x0 DUP2 EQ PUSH2 0x9FC JUMPI PUSH1 0x40 MLOAD SWAP2 POP PUSH1 0x1F NOT PUSH1 0x3F RETURNDATASIZE ADD AND DUP3 ADD PUSH1 0x40 MSTORE RETURNDATASIZE DUP3 MSTORE RETURNDATASIZE PUSH1 0x0 PUSH1 0x20 DUP5 ADD RETURNDATACOPY PUSH2 0xA01 JUMP JUMPDEST PUSH1 0x60 SWAP2 POP JUMPDEST POP POP SWAP1 POP DUP1 PUSH2 0xA45 JUMPI PUSH1 0x40 MLOAD PUSH32 0x8C379A000000000000000000000000000000000000000000000000000000000 DUP2 MSTORE PUSH1 0x4 ADD PUSH2 0xA3C SWAP1 PUSH2 0x2BA3 JUMP JUMPDEST PUSH1 0x40 MLOAD DUP1 SWAP2 SUB SWAP1 REVERT JUMPDEST POP JUMPDEST PUSH32 0xF805B9D3DA1542A6888251AF09A1B853A33A61AE6BE6ACA482BE108497E12C2D DUP7 DUP7 DUP7 PUSH1 0x40 MLOAD PUSH2 0xA7A SWAP4 SWAP3 SWAP2 SWAP1 PUSH2 0x2BC3 JUMP JUMPDEST PUSH1 0x40 MLOAD DUP1 SWAP2 SUB SWAP1 LOG1 POP POP PUSH2 0xA8C PUSH2 0x1D7F JUMP JUMPDEST POP POP POP POP JUMP JUMPDEST PUSH32 0x68E79A7BF1E0BC45D0A330C573BC367F9CF464FD326078812F301165FBDA4EF1 DUP2 JUMP JUMPDEST PUSH1 0x2 PUSH1 0x0 SWAP1 SLOAD SWAP1 PUSH2 0x100 EXP SWAP1 DIV PUSH20 0xFFFFFFFFFFFFFFFFFFFFFFFFFFFFFFFFFFFFFFFF AND DUP2 JUMP JUMPDEST PUSH1 0x0 DUP1 PUSH2 0xAE7 PUSH2 0x19E5 JUMP JUMPDEST SWAP1 POP PUSH1 0x0 DUP2 SUB PUSH2 0xAFB JUMPI PUSH1 0x0 SWAP2 POP POP PUSH2 0xCCD JUMP JUMPDEST PUSH1 0x0 JUMPDEST PUSH1 0x4 DUP1 SLOAD SWAP1 POP DUP2 LT ISZERO PUSH2 0xCC6 JUMPI PUSH1 0x0 PUSH1 0x4 DUP3 DUP2 SLOAD DUP2 LT PUSH2 0xB21 JUMPI PUSH2 0xB20 PUSH2 0x2C01 JUMP JUMPDEST JUMPDEST SWAP1 PUSH1 0x0 MSTORE PUSH1 0x20 PUSH1 0x0 KECCAK256 ADD DUP1 SLOAD PUSH2 0xB36 SWAP1 PUSH2 0x2C5F JUMP JUMPDEST DUP1 PUSH1 0x1F ADD PUSH1 0x20 DUP1 SWAP2 DIV MUL PUSH1 0x20 ADD PUSH1 0x40 MLOAD SWAP1 DUP2 ADD PUSH1 0x40 MSTORE DUP1 SWAP3 SWAP2 SWAP1 DUP2 DUP2 MSTORE PUSH1 0x20 ADD DUP3 DUP1 SLOAD PUSH2 0xB62 SWAP1 PUSH2 0x2C5F JUMP JUMPDEST DUP1 ISZERO PUSH2 0xBAF JUMPI DUP1 PUSH1 0x1F LT PUSH2 0xB84 JUMPI PUSH2 0x100 DUP1 DUP4 SLOAD DIV MUL DUP4 MSTORE SWAP2 PUSH1 0x20 ADD SWAP2 PUSH2 0xBAF JUMP JUMPDEST DUP3 ADD SWAP2 SWAP1 PUSH1 0x0 MSTORE PUSH1 0x20 PUSH1 0x0 KECCAK256 SWAP1 JUMPDEST DUP2 SLOAD DUP2 MSTORE SWAP1 PUSH1 0x1 ADD SWAP1 PUSH1 0x20 ADD DUP1 DUP4 GT PUSH2 0xB92 JUMPI DUP3 SWAP1 SUB PUSH1 0x1F AND DUP3 ADD SWAP2 JUMPDEST POP POP POP POP POP SWAP1 POP PUSH1 0x3 DUP2 PUSH1 0x40 MLOAD PUSH2 0xBC6 SWAP2 SWAP1 PUSH2 0x27C3 JUMP JUMPDEST SWAP1 DUP2 MSTORE PUSH1 0x20 ADD PUSH1 0x40 MLOAD DUP1 SWAP2 SUB SWAP1 KECCAK256 PUSH1 0x6 ADD PUSH1 0x0 SWAP1 SLOAD SWAP1 PUSH2 0x100 EXP SWAP1 DIV PUSH1 0xFF AND PUSH2 0xBEF JUMPI POP PUSH2 0xCB3 JUMP JUMPDEST PUSH1 0x0 PUSH1 0x3 DUP3 PUSH1 0x40 MLOAD PUSH2 0xC01 SWAP2 SWAP1 PUSH2 0x27C3 JUMP JUMPDEST SWAP1 DUP2 MSTORE PUSH1 0x20 ADD PUSH1 0x40 MLOAD DUP1 SWAP2 SUB SWAP1 KECCAK256 PUSH1 0x2 ADD SLOAD SWAP1 POP PUSH1 0x0 DUP5 PUSH2 0x2710 PUSH1 0x3 DUP6 PUSH1 0x40 MLOAD PUSH2 0xC2B SWAP2 SWAP1 PUSH2 0x27C3 JUMP JUMPDEST SWAP1 DUP2 MSTORE PUSH1 0x20 ADD PUSH1 0x40 MLOAD DUP1 SWAP2 SUB SWAP1 KECCAK256 PUSH1 0x3 ADD SLOAD PUSH2 0xC47 SWAP2 SWAP1 PUSH2 0x294D JUMP JUMPDEST PUSH2 0xC51 SWAP2 SWAP1 PUSH2 0x29BE JUMP JUMPDEST SWAP1 POP DUP2 DUP2 GT DUP1 ISZERO PUSH2 0xC6E JUMPI POP PUSH1 0x5 SLOAD DUP3 DUP3 PUSH2 0xC6C SWAP2 SWAP1 PUSH2 0x2A5B JUMP JUMPDEST GT JUMPDEST ISZERO PUSH2 0xC81 JUMPI PUSH1 0x1 SWAP6 POP POP POP POP POP POP PUSH2 0xCCD JUMP JUMPDEST DUP1 DUP3 GT DUP1 ISZERO PUSH2 0xC9C JUMPI POP PUSH1 0x5 SLOAD DUP2 DUP4 PUSH2 0xC9A SWAP2 SWAP1 PUSH2 0x2A5B JUMP JUMPDEST GT JUMPDEST ISZERO PUSH2 0xCAF JUMPI PUSH1 0x1 SWAP6 POP POP POP POP POP POP PUSH2 0xCCD JUMP JUMPDEST POP POP POP JUMPDEST DUP1 DUP1 PUSH2 0xCBE SWAP1 PUSH2 0x2C90 JUMP JUMPDEST SWAP2 POP POP PUSH2 0xAFE JUMP JUMPDEST POP PUSH1 0x0 SWAP2 POP POP JUMPDEST SWAP1 JUMP JUMPDEST PUSH1 0x0 DUP1 PUSH1 0x0 SWAP1 POP PUSH1 0x0 JUMPDEST PUSH1 0x4 DUP1 SLOAD SWAP1 POP DUP2 LT ISZERO PUSH2 0xE0A JUMPI PUSH1 0x0 PUSH1 0x4 DUP3 DUP2 SLOAD DUP2 LT PUSH2 0xCFD JUMPI PUSH2 0xCFC PUSH2 0x2C01 JUMP JUMPDEST JUMPDEST SWAP1 PUSH1 0x0 MSTORE PUSH1 0x20 PUSH1 0x0 KECCAK256 ADD DUP1 SLOAD PUSH2 0xD12 SWAP1 PUSH2 0x2C5F JUMP JUMPDEST DUP1 PUSH1 0x1F ADD PUSH1 0x20 DUP1 SWAP2 DIV MUL PUSH1 0x20 ADD PUSH1 0x40 MLOAD SWAP1 DUP2 ADD PUSH1 0x40 MSTORE DUP1 SWAP3 SWAP2 SWAP1 DUP2 DUP2 MSTORE PUSH1 0x20 ADD DUP3 DUP1 SLOAD PUSH2 0xD3E SWAP1 PUSH2 0x2C5F JUMP JUMPDEST DUP1 ISZERO PUSH2 0xD8B JUMPI DUP1 PUSH1 0x1F LT PUSH2 0xD60 JUMPI PUSH2 0x100 DUP1 DUP4 SLOAD DIV MUL DUP4 MSTORE SWAP2 PUSH1 0x20 ADD SWAP2 PUSH2 0xD8B JUMP JUMPDEST DUP3 ADD SWAP2 SWAP1 PUSH1 0x0 MSTORE PUSH1 0x20 PUSH1 0x0 KECCAK256 SWAP1 JUMPDEST DUP2 SLOAD DUP2 MSTORE SWAP1 PUSH1 0x1 ADD SWAP1 PUSH1 0x20 ADD DUP1 DUP4 GT PUSH2 0xD6E JUMPI DUP3 SWAP1 SUB PUSH1 0x1F AND DUP3 ADD SWAP2 JUMPDEST POP POP POP POP POP SWAP1 POP PUSH1 0x3 DUP2 PUSH1 0x40 MLOAD PUSH2 0xDA2 SWAP2 SWAP1 PUSH2 0x27C3 JUMP JUMPDEST SWAP1 DUP2 MSTORE PUSH1 0x20 ADD PUSH1 0x40 MLOAD DUP1 SWAP2 SUB SWAP1 KECCAK256 PUSH1 0x6 ADD PUSH1 0x0 SWAP1 SLOAD SWAP1 PUSH2 0x100 EXP SWAP1 DIV PUSH1 0xFF AND ISZERO PUSH2 0xDF6 JUMPI PUSH1 0x3 DUP2 PUSH1 0x40 MLOAD PUSH2 0xDD6 SWAP2 SWAP1 PUSH2 0x27C3 JUMP JUMPDEST SWAP1 DUP2 MSTORE PUSH1 0x20 ADD PUSH1 0x40 MLOAD DUP1 SWAP2 SUB SWAP1 KECCAK256 PUSH1 0x2 ADD SLOAD DUP4 PUSH2 0xDF3 SWAP2 SWAP1 PUSH2 0x2CD8 JUMP JUMPDEST SWAP3 POP JUMPDEST POP DUP1 DUP1 PUSH2 0xE02 SWAP1 PUSH2 0x2C90 JUMP JUMPDEST SWAP2 POP POP PUSH2 0xCDA JUMP JUMPDEST POP DUP1 SWAP2 POP POP SWAP1 JUMP JUMPDEST PUSH1 0x0 DUP1 PUSH2 0xE1D PUSH2 0x19E5 JUMP JUMPDEST SWAP1 POP PUSH1 0x0 DUP2 SUB PUSH2 0xE31 JUMPI PUSH1 0x0 SWAP2 POP POP PUSH2 0xE6F JUMP JUMPDEST DUP1 PUSH2 0x2710 PUSH1 0x3 DUP6 PUSH1 0x40 MLOAD PUSH2 0xE45 SWAP2 SWAP1 PUSH2 0x27C3 JUMP JUMPDEST SWAP1 DUP2 MSTORE PUSH1 0x20 ADD PUSH1 0x40 MLOAD DUP1 SWAP2 SUB SWAP1 KECCAK256 PUSH1 0x3 ADD SLOAD PUSH2 0xE61 SWAP2 SWAP1 PUSH2 0x294D JUMP JUMPDEST PUSH2 0xE6B SWAP2 SWAP1 PUSH2 0x29BE JUMP JUMPDEST SWAP2 POP POP JUMPDEST SWAP2 SWAP1 POP JUMP JUMPDEST PUSH1 0x0 DUP1 PUSH1 0x0 DUP4 DUP2 MSTORE PUSH1 0x20 ADD SWAP1 DUP2 MSTORE PUSH1 0x20 ADD PUSH1 0x0 KECCAK256 PUSH1 0x1 ADD SLOAD SWAP1 POP SWAP2 SWAP1 POP JUMP JUMPDEST PUSH1 0x4 DUP2 DUP2 SLOAD DUP2 LT PUSH2 0xEA3 JUMPI PUSH1 0x0 DUP1 REVERT JUMPDEST SWAP1 PUSH1 0x0 MSTORE PUSH1 0x20 PUSH1 0x0 KECCAK256 ADD PUSH1 0x0 SWAP2 POP SWAP1 POP DUP1 SLOAD PUSH2 0xEBE SWAP1 PUSH2 0x2C5F JUMP JUMPDEST DUP1 PUSH1 0x1F ADD PUSH1 0x20 DUP1 SWAP2 DIV MUL PUSH1 0x20 ADD PUSH1 0x40 MLOAD SWAP1 DUP2 ADD PUSH1 0x40 MSTORE DUP1 SWAP3 SWAP2 SWAP1 DUP2 DUP2 MSTORE PUSH1 0x20 ADD DUP3 DUP1 SLOAD PUSH2 0xEEA SWAP1 PUSH2 0x2C5F JUMP JUMPDEST DUP1 ISZERO PUSH2 0xF37 JUMPI DUP1 PUSH1 0x1F LT PUSH2 0xF0C JUMPI PUSH2 0x100 DUP1 DUP4 SLOAD DIV MUL DUP4 MSTORE SWAP2 PUSH1 0x20 ADD SWAP2 PUSH2 0xF37 JUMP JUMPDEST DUP3 ADD SWAP2 SWAP1 PUSH1 0x0 MSTORE PUSH1 0x20 PUSH1 0x0 KECCAK256 SWAP1 JUMPDEST DUP2 SLOAD DUP2 MSTORE SWAP1 PUSH1 0x1 ADD SWAP1 PUSH1 0x20 ADD DUP1 DUP4 GT PUSH2 0xF1A JUMPI DUP3 SWAP1 SUB PUSH1 0x1F AND DUP3 ADD SWAP2 JUMPDEST POP POP POP POP POP DUP2 JUMP JUMPDEST PUSH2 0xF48 DUP3 PUSH2 0xE74 JUMP JUMPDEST PUSH2 0xF51 DUP2 PUSH2 0x1D25 JUMP JUMPDEST PUSH2 0xF5B DUP4 DUP4 PUSH2 0x1D88 JUMP JUMPDEST POP POP POP POP JUMP JUMPDEST PUSH2 0xF69 PUSH2 0x1E79 JUMP JUMPDEST PUSH20 0xFFFFFFFFFFFFFFFFFFFFFFFFFFFFFFFFFFFFFFFF AND DUP2 PUSH20 0xFFFFFFFFFFFFFFFFFFFFFFFFFFFFFFFFFFFFFFFF AND EQ PUSH2 0xFCD JUMPI PUSH1 0x40 MLOAD PUSH32 0x6697B23200000000000000000000000000000000000000000000000000000000 DUP2 MSTORE PUSH1 0x4 ADD PUSH1 0x40 MLOAD DUP1 SWAP2 SUB SWAP1 REVERT JUMPDEST PUSH2 0xFD7 DUP3 DUP3 PUSH2 0x1E81 JUMP JUMPDEST POP POP POP JUMP JUMPDEST PUSH1 0x5 SLOAD DUP2 JUMP JUMPDEST PUSH32 0xCCC64574297998B6C3EDF6078CC5E01268465FF116954E3AF02FF3A70A730F46 DUP2 JUMP JUMPDEST PUSH1 0x3 DUP2 DUP1 MLOAD PUSH1 0x20 DUP2 ADD DUP3 ADD DUP1 MLOAD DUP5 DUP3 MSTORE PUSH1 0x20 DUP4 ADD PUSH1 0x20 DUP6 ADD KECCAK256 DUP2 DUP4 MSTORE DUP1 SWAP6 POP POP POP POP POP POP PUSH1 0x0 SWAP2 POP SWAP1 POP DUP1 PUSH1 0x0 ADD DUP1 SLOAD PUSH2 0x103F SWAP1 PUSH2 0x2C5F JUMP JUMPDEST DUP1 PUSH1 0x1F ADD PUSH1 0x20 DUP1 SWAP2 DIV MUL PUSH1 0x20 ADD PUSH1 0x40 MLOAD SWAP1 DUP2 ADD PUSH1 0x40 MSTORE DUP1 SWAP3 SWAP2 SWAP1 DUP2 DUP2 MSTORE PUSH1 0x20 ADD DUP3 DUP1 SLOAD PUSH2 0x106B SWAP1 PUSH2 0x2C5F JUMP JUMPDEST DUP1 ISZERO PUSH2 0x10B8 JUMPI DUP1 PUSH1 0x1F LT PUSH2 0x108D JUMPI PUSH2 0x100 DUP1 DUP4 SLOAD DIV MUL DUP4 MSTORE SWAP2 PUSH1 0x20 ADD SWAP2 PUSH2 0x10B8 JUMP JUMPDEST DUP3 ADD SWAP2 SWAP1 PUSH1 0x0 MSTORE PUSH1 0x20 PUSH1 0x0 KECCAK256 SWAP1 JUMPDEST DUP2 SLOAD DUP2 MSTORE SWAP1 PUSH1 0x1 ADD SWAP1 PUSH1 0x20 ADD DUP1 DUP4 GT PUSH2 0x109B JUMPI DUP3 SWAP1 SUB PUSH1 0x1F AND DUP3 ADD SWAP2 JUMPDEST POP POP POP POP POP SWAP1 DUP1 PUSH1 0x1 ADD PUSH1 0x0 SWAP1 SLOAD SWAP1 PUSH2 0x100 EXP SWAP1 DIV PUSH1 0xFF AND SWAP1 DUP1 PUSH1 0x1 ADD PUSH1 0x1 SWAP1 SLOAD SWAP1 PUSH2 0x100 EXP SWAP1 DIV PUSH20 0xFFFFFFFFFFFFFFFFFFFFFFFFFFFFFFFFFFFFFFFF AND SWAP1 DUP1 PUSH1 0x2 ADD SLOAD SWAP1 DUP1 PUSH1 0x3 ADD SLOAD SWAP1 DUP1 PUSH1 0x4 ADD SLOAD SWAP1 DUP1 PUSH1 0x5 ADD SLOAD SWAP1 DUP1 PUSH1 0x6 ADD PUSH1 0x0 SWAP1 SLOAD SWAP1 PUSH2 0x100 EXP SWAP1 DIV PUSH1 0xFF AND SWAP1 POP DUP9 JUMP JUMPDEST PUSH2 0x2710 DUP2 JUMP JUMPDEST PUSH1 0x0 DUP1 PUSH1 0x0 DUP5 DUP2 MSTORE PUSH1 0x20 ADD SWAP1 DUP2 MSTORE PUSH1 0x20 ADD PUSH1 0x0 KECCAK256 PUSH1 0x0 ADD PUSH1 0x0 DUP4 PUSH20 0xFFFFFFFFFFFFFFFFFFFFFFFFFFFFFFFFFFFFFFFF AND PUSH20 0xFFFFFFFFFFFFFFFFFFFFFFFFFFFFFFFFFFFFFFFF AND DUP2 MSTORE PUSH1 0x20 ADD SWAP1 DUP2 MSTORE PUSH1 0x20 ADD PUSH1 0x0 KECCAK256 PUSH1 0x0 SWAP1 SLOAD SWAP1 PUSH2 0x100 EXP SWAP1 DIV PUSH1 0xFF AND SWAP1 POP SWAP3 SWAP2 POP POP JUMP JUMPDEST PUSH32 0xCCC64574297998B6C3EDF6078CC5E01268465FF116954E3AF02FF3A70A730F46 PUSH2 0x11C0 DUP2 PUSH2 0x1D25 JUMP JUMPDEST PUSH2 0x11C8 PUSH2 0xADC JUMP JUMPDEST PUSH2 0x1207 JUMPI PUSH1 0x40 MLOAD PUSH32 0x8C379A000000000000000000000000000000000000000000000000000000000 DUP2 MSTORE PUSH1 0x4 ADD PUSH2 0x11FE SWAP1 PUSH2 0x2D58 JUMP JUMPDEST PUSH1 0x40 MLOAD DUP1 SWAP2 SUB SWAP1 REVERT JUMPDEST PUSH32 0x340A984992AA660042339165CF7D2B849C73974A791A427D92CF5D5D04293BD8 TIMESTAMP PUSH1 0x40 MLOAD PUSH2 0x1236 SWAP2 SWAP1 PUSH2 0x2399 JUMP JUMPDEST PUSH1 0x40 MLOAD DUP1 SWAP2 SUB SWAP1 LOG1 POP JUMP JUMPDEST PUSH1 0x0 PUSH1 0x4 DUP1 SLOAD SWAP1 POP SWAP1 POP SWAP1 JUMP JUMPDEST PUSH1 0x0 DUP1 SHL DUP2 JUMP JUMPDEST PUSH2 0x125D PUSH2 0x1D39 JUMP JUMPDEST PUSH1 0x3 DUP3 PUSH1 0x40 MLOAD PUSH2 0x126D SWAP2 SWAP1 PUSH2 0x27C3 JUMP JUMPDEST SWAP1 DUP2 MSTORE PUSH1 0x20 ADD PUSH1 0x40 MLOAD DUP1 SWAP2 SUB SWAP1 KECCAK256 PUSH1 0x6 ADD PUSH1 0x0 SWAP1 SLOAD SWAP1 PUSH2 0x100 EXP SWAP1 DIV PUSH1 0xFF AND PUSH2 0x12CB JUMPI PUSH1 0x40 MLOAD PUSH32 0x8C379A000000000000000000000000000000000000000000000000000000000 DUP2 MSTORE PUSH1 0x4 ADD PUSH2 0x12C2 SWAP1 PUSH2 0x2826 JUMP JUMPDEST PUSH1 0x40 MLOAD DUP1 SWAP2 SUB SWAP1 REVERT JUMPDEST PUSH1 0x0 DUP2 GT PUSH2 0x130E JUMPI PUSH1 0x40 MLOAD PUSH32 0x8C379A000000000000000000000000000000000000000000000000000000000 DUP2 MSTORE PUSH1 0x4 ADD PUSH2 0x1305 SWAP1 PUSH2 0x2892 JUMP JUMPDEST PUSH1 0x40 MLOAD DUP1 SWAP2 SUB SWAP1 REVERT JUMPDEST PUSH1 0x0 PUSH1 0x3 DUP4 PUSH1 0x40 MLOAD PUSH2 0x1320 SWAP2 SWAP1 PUSH2 0x27C3 JUMP JUMPDEST SWAP1 DUP2 MSTORE PUSH1 0x20 ADD PUSH1 0x40 MLOAD DUP1 SWAP2 SUB SWAP1 KECCAK256 PUSH1 0x1 ADD PUSH1 0x1 SWAP1 SLOAD SWAP1 PUSH2 0x100 EXP SWAP1 DIV PUSH20 0xFFFFFFFFFFFFFFFFFFFFFFFFFFFFFFFFFFFFFFFF AND SWAP1 POP PUSH1 0x0 PUSH20 0xFFFFFFFFFFFFFFFFFFFFFFFFFFFFFFFFFFFFFFFF AND DUP2 PUSH20 0xFFFFFFFFFFFFFFFFFFFFFFFFFFFFFFFFFFFFFFFF AND EQ PUSH2 0x15D7 JUMPI PUSH1 0x0 DUP2 SWAP1 POP PUSH1 0x0 DUP2 PUSH20 0xFFFFFFFFFFFFFFFFFFFFFFFFFFFFFFFFFFFFFFFF AND PUSH4 0x70A08231 ADDRESS PUSH1 0x40 MLOAD DUP3 PUSH4 0xFFFFFFFF AND PUSH1 0xE0 SHL DUP2 MSTORE PUSH1 0x4 ADD PUSH2 0x13C8 SWAP2 SWAP1 PUSH2 0x2D78 JUMP JUMPDEST PUSH1 0x20 PUSH1 0x40 MLOAD DUP1 DUP4 SUB DUP2 DUP7 GAS STATICCALL ISZERO DUP1 ISZERO PUSH2 0x13E5 JUMPI RETURNDATASIZE PUSH1 0x0 DUP1 RETURNDATACOPY RETURNDATASIZE PUSH1 0x0 REVERT JUMPDEST POP POP POP POP PUSH1 0x40 MLOAD RETURNDATASIZE PUSH1 0x1F NOT PUSH1 0x1F DUP3 ADD AND DUP3 ADD DUP1 PUSH1 0x40 MSTORE POP DUP2 ADD SWAP1 PUSH2 0x1409 SWAP2 SWAP1 PUSH2 0x2DA8 JUMP JUMPDEST SWAP1 POP DUP2 PUSH20 0xFFFFFFFFFFFFFFFFFFFFFFFFFFFFFFFFFFFFFFFF AND PUSH4 0x23B872DD CALLER ADDRESS DUP8 PUSH1 0x40 MLOAD DUP5 PUSH4 0xFFFFFFFF AND PUSH1 0xE0 SHL DUP2 MSTORE PUSH1 0x4 ADD PUSH2 0x1448 SWAP4 SWAP3 SWAP2 SWAP1 PUSH2 0x2DD5 JUMP JUMPDEST PUSH1 0x20 PUSH1 0x40 MLOAD DUP1 DUP4 SUB DUP2 PUSH1 0x0 DUP8 GAS CALL ISZERO DUP1 ISZERO PUSH2 0x1467 JUMPI RETURNDATASIZE PUSH1 0x0 DUP1 RETURNDATACOPY RETURNDATASIZE PUSH1 0x0 REVERT JUMPDEST POP POP POP POP PUSH1 0x40 MLOAD RETURNDATASIZE PUSH1 0x1F NOT PUSH1 0x1F DUP3 ADD AND DUP3 ADD DUP1 PUSH1 0x40 MSTORE POP DUP2 ADD SWAP1 PUSH2 0x148B SWAP2 SWAP1 PUSH2 0x2AE4 JUMP JUMPDEST POP PUSH1 0x0 DUP3 PUSH20 0xFFFFFFFFFFFFFFFFFFFFFFFFFFFFFFFFFFFFFFFF AND PUSH4 0x70A08231 ADDRESS PUSH1 0x40 MLOAD DUP3 PUSH4 0xFFFFFFFF AND PUSH1 0xE0 SHL DUP2 MSTORE PUSH1 0x4 ADD PUSH2 0x14C7 SWAP2 SWAP1 PUSH2 0x2D78 JUMP JUMPDEST PUSH1 0x20 PUSH1 0x40 MLOAD DUP1 DUP4 SUB DUP2 DUP7 GAS STATICCALL ISZERO DUP1 ISZERO PUSH2 0x14E4 JUMPI RETURNDATASIZE PUSH1 0x0 DUP1 RETURNDATACOPY RETURNDATASIZE PUSH1 0x0 REVERT JUMPDEST POP POP POP POP PUSH1 0x40 MLOAD RETURNDATASIZE PUSH1 0x1F NOT PUSH1 0x1F DUP3 ADD AND DUP3 ADD DUP1 PUSH1 0x40 MSTORE POP DUP2 ADD SWAP1 PUSH2 0x1508 SWAP2 SWAP1 PUSH2 0x2DA8 JUMP JUMPDEST SWAP1 POP PUSH1 0x0 DUP3 DUP3 PUSH2 0x1518 SWAP2 SWAP1 PUSH2 0x2A5B JUMP JUMPDEST SWAP1 POP PUSH1 0x0 PUSH4 0x5F5E100 PUSH1 0x3 DUP10 PUSH1 0x40 MLOAD PUSH2 0x1531 SWAP2 SWAP1 PUSH2 0x27C3 JUMP JUMPDEST SWAP1 DUP2 MSTORE PUSH1 0x20 ADD PUSH1 0x40 MLOAD DUP1 SWAP2 SUB SWAP1 KECCAK256 PUSH1 0x4 ADD SLOAD DUP4 PUSH2 0x154E SWAP2 SWAP1 PUSH2 0x294D JUMP JUMPDEST PUSH2 0x1558 SWAP2 SWAP1 PUSH2 0x29BE JUMP JUMPDEST SWAP1 POP DUP1 PUSH1 0x3 DUP10 PUSH1 0x40 MLOAD PUSH2 0x156B SWAP2 SWAP1 PUSH2 0x27C3 JUMP JUMPDEST SWAP1 DUP2 MSTORE PUSH1 0x20 ADD PUSH1 0x40 MLOAD DUP1 SWAP2 SUB SWAP1 KECCAK256 PUSH1 0x3 ADD PUSH1 0x0 DUP3 DUP3 SLOAD PUSH2 0x158B SWAP2 SWAP1 PUSH2 0x2CD8 JUMP JUMPDEST SWAP3 POP POP DUP2 SWAP1 SSTORE POP PUSH32 0x4821DF741E995E8B282D1D2E77CD8B0A5C239FC7E05FE285CCB3F60387561553 DUP9 DUP4 CALLER PUSH1 0x40 MLOAD PUSH2 0x15C5 SWAP4 SWAP3 SWAP2 SWAP1 PUSH2 0x2BC3 JUMP JUMPDEST PUSH1 0x40 MLOAD DUP1 SWAP2 SUB SWAP1 LOG1 POP POP POP POP POP PUSH2 0x16CE JUMP JUMPDEST DUP2 CALLVALUE EQ PUSH2 0x1619 JUMPI PUSH1 0x40 MLOAD PUSH32 0x8C379A000000000000000000000000000000000000000000000000000000000 DUP2 MSTORE PUSH1 0x4 ADD PUSH2 0x1610 SWAP1 PUSH2 0x2E58 JUMP JUMPDEST PUSH1 0x40 MLOAD DUP1 SWAP2 SUB SWAP1 REVERT JUMPDEST PUSH1 0x0 PUSH4 0x5F5E100 PUSH1 0x3 DUP6 PUSH1 0x40 MLOAD PUSH2 0x1630 SWAP2 SWAP1 PUSH2 0x27C3 JUMP JUMPDEST SWAP1 DUP2 MSTORE PUSH1 0x20 ADD PUSH1 0x40 MLOAD DUP1 SWAP2 SUB SWAP1 KECCAK256 PUSH1 0x4 ADD SLOAD DUP5 PUSH2 0x164D SWAP2 SWAP1 PUSH2 0x294D JUMP JUMPDEST PUSH2 0x1657 SWAP2 SWAP1 PUSH2 0x29BE JUMP JUMPDEST SWAP1 POP DUP1 PUSH1 0x3 DUP6 PUSH1 0x40 MLOAD PUSH2 0x166A SWAP2 SWAP1 PUSH2 0x27C3 JUMP JUMPDEST SWAP1 DUP2 MSTORE PUSH1 0x20 ADD PUSH1 0x40 MLOAD DUP1 SWAP2 SUB SWAP1 KECCAK256 PUSH1 0x3 ADD PUSH1 0x0 DUP3 DUP3 SLOAD PUSH2 0x168A SWAP2 SWAP1 PUSH2 0x2CD8 JUMP JUMPDEST SWAP3 POP POP DUP2 SWAP1 SSTORE POP PUSH32 0x4821DF741E995E8B282D1D2E77CD8B0A5C239FC7E05FE285CCB3F60387561553 DUP5 DUP5 CALLER PUSH1 0x40 MLOAD PUSH2 0x16C4 SWAP4 SWAP3 SWAP2 SWAP1 PUSH2 0x2BC3 JUMP JUMPDEST PUSH1 0x40 MLOAD DUP1 SWAP2 SUB SWAP1 LOG1 POP JUMPDEST POP PUSH2 0x16D7 PUSH2 0x1D7F JUMP JUMPDEST POP POP JUMP JUMPDEST PUSH2 0x16E4 DUP3 PUSH2 0xE74 JUMP JUMPDEST PUSH2 0x16ED DUP2 PUSH2 0x1D25 JUMP JUMPDEST PUSH2 0x16F7 DUP4 DUP4 PUSH2 0x1E81 JUMP JUMPDEST POP POP POP POP JUMP JUMPDEST PUSH32 0x241ECF16D79D0F8DBFB92CBC07FE17840425976CF0667F022FE9877CAA831B08 PUSH2 0x1727 DUP2 PUSH2 0x1D25 JUMP JUMPDEST PUSH1 0x3 DUP7 PUSH1 0x40 MLOAD PUSH2 0x1737 SWAP2 SWAP1 PUSH2 0x27C3 JUMP JUMPDEST SWAP1 DUP2 MSTORE PUSH1 0x20 ADD PUSH1 0x40 MLOAD DUP1 SWAP2 SUB SWAP1 KECCAK256 PUSH1 0x6 ADD PUSH1 0x0 SWAP1 SLOAD SWAP1 PUSH2 0x100 EXP SWAP1 DIV PUSH1 0xFF AND ISZERO PUSH2 0x1796 JUMPI PUSH1 0x40 MLOAD PUSH32 0x8C379A000000000000000000000000000000000000000000000000000000000 DUP2 MSTORE PUSH1 0x4 ADD PUSH2 0x178D SWAP1 PUSH2 0x2EC4 JUMP JUMPDEST PUSH1 0x40 MLOAD DUP1 SWAP2 SUB SWAP1 REVERT JUMPDEST PUSH2 0x2710 DUP4 PUSH2 0x17A2 PUSH2 0xCD0 JUMP JUMPDEST PUSH2 0x17AC SWAP2 SWAP1 PUSH2 0x2CD8 JUMP JUMPDEST GT ISZERO PUSH2 0x17ED JUMPI PUSH1 0x40 MLOAD PUSH32 0x8C379A000000000000000000000000000000000000000000000000000000000 DUP2 MSTORE PUSH1 0x4 ADD PUSH2 0x17E4 SWAP1 PUSH2 0x2F30 JUMP JUMPDEST PUSH1 0x40 MLOAD DUP1 SWAP2 SUB SWAP1 REVERT JUMPDEST PUSH1 0x40 MLOAD DUP1 PUSH2 0x100 ADD PUSH1 0x40 MSTORE DUP1 DUP8 DUP2 MSTORE PUSH1 0x20 ADD DUP7 PUSH1 0x4 DUP2 GT ISZERO PUSH2 0x1812 JUMPI PUSH2 0x1811 PUSH2 0x2564 JUMP JUMPDEST JUMPDEST DUP2 MSTORE PUSH1 0x20 ADD DUP6 PUSH20 0xFFFFFFFFFFFFFFFFFFFFFFFFFFFFFFFFFFFFFFFF AND DUP2 MSTORE PUSH1 0x20 ADD DUP5 DUP2 MSTORE PUSH1 0x20 ADD PUSH1 0x0 DUP2 MSTORE PUSH1 0x20 ADD DUP4 DUP2 MSTORE PUSH1 0x20 ADD TIMESTAMP DUP2 MSTORE PUSH1 0x20 ADD PUSH1 0x1 ISZERO ISZERO DUP2 MSTORE POP PUSH1 0x3 DUP8 PUSH1 0x40 MLOAD PUSH2 0x1863 SWAP2 SWAP1 PUSH2 0x27C3 JUMP JUMPDEST SWAP1 DUP2 MSTORE PUSH1 0x20 ADD PUSH1 0x40 MLOAD DUP1 SWAP2 SUB SWAP1 KECCAK256 PUSH1 0x0 DUP3 ADD MLOAD DUP2 PUSH1 0x0 ADD SWAP1 DUP2 PUSH2 0x1886 SWAP2 SWAP1 PUSH2 0x30F2 JUMP JUMPDEST POP PUSH1 0x20 DUP3 ADD MLOAD DUP2 PUSH1 0x1 ADD PUSH1 0x0 PUSH2 0x100 EXP DUP2 SLOAD DUP2 PUSH1 0xFF MUL NOT AND SWAP1 DUP4 PUSH1 0x4 DUP2 GT ISZERO PUSH2 0x18B2 JUMPI PUSH2 0x18B1 PUSH2 0x2564 JUMP JUMPDEST JUMPDEST MUL OR SWAP1 SSTORE POP PUSH1 0x40 DUP3 ADD MLOAD DUP2 PUSH1 0x1 ADD PUSH1 0x1 PUSH2 0x100 EXP DUP2 SLOAD DUP2 PUSH20 0xFFFFFFFFFFFFFFFFFFFFFFFFFFFFFFFFFFFFFFFF MUL NOT AND SWAP1 DUP4 PUSH20 0xFFFFFFFFFFFFFFFFFFFFFFFFFFFFFFFFFFFFFFFF AND MUL OR SWAP1 SSTORE POP PUSH1 0x60 DUP3 ADD MLOAD DUP2 PUSH1 0x2 ADD SSTORE PUSH1 0x80 DUP3 ADD MLOAD DUP2 PUSH1 0x3 ADD SSTORE PUSH1 0xA0 DUP3 ADD MLOAD DUP2 PUSH1 0x4 ADD SSTORE PUSH1 0xC0 DUP3 ADD MLOAD DUP2 PUSH1 0x5 ADD SSTORE PUSH1 0xE0 DUP3 ADD MLOAD DUP2 PUSH1 0x6 ADD PUSH1 0x0 PUSH2 0x100 EXP DUP2 SLOAD DUP2 PUSH1 0xFF MUL NOT AND SWAP1 DUP4 ISZERO ISZERO MUL OR SWAP1 SSTORE POP SWAP1 POP POP PUSH1 0x4 DUP7 SWAP1 DUP1 PUSH1 0x1 DUP2 SLOAD ADD DUP1 DUP3 SSTORE DUP1 SWAP2 POP POP PUSH1 0x1 SWAP1 SUB SWAP1 PUSH1 0x0 MSTORE PUSH1 0x20 PUSH1 0x0 KECCAK256 ADD PUSH1 0x0 SWAP1 SWAP2 SWAP1 SWAP2 SWAP1 SWAP2 POP SWAP1 DUP2 PUSH2 0x197D SWAP2 SWAP1 PUSH2 0x30F2 JUMP JUMPDEST POP PUSH32 0xA912984202BA38C823371AEF0DA745FD074ED40838244C6D84E1B11E682154B0 DUP7 DUP7 DUP6 PUSH1 0x40 MLOAD PUSH2 0x19B1 SWAP4 SWAP3 SWAP2 SWAP1 PUSH2 0x31C4 JUMP JUMPDEST PUSH1 0x40 MLOAD DUP1 SWAP2 SUB SWAP1 LOG1 POP POP POP POP POP POP JUMP JUMPDEST PUSH32 0x241ECF16D79D0F8DBFB92CBC07FE17840425976CF0667F022FE9877CAA831B08 DUP2 JUMP JUMPDEST PUSH1 0x0 DUP1 PUSH1 0x0 SWAP1 POP PUSH1 0x0 JUMPDEST PUSH1 0x4 DUP1 SLOAD SWAP1 POP DUP2 LT ISZERO PUSH2 0x1B1F JUMPI PUSH1 0x0 PUSH1 0x4 DUP3 DUP2 SLOAD DUP2 LT PUSH2 0x1A12 JUMPI PUSH2 0x1A11 PUSH2 0x2C01 JUMP JUMPDEST JUMPDEST SWAP1 PUSH1 0x0 MSTORE PUSH1 0x20 PUSH1 0x0 KECCAK256 ADD DUP1 SLOAD PUSH2 0x1A27 SWAP1 PUSH2 0x2C5F JUMP JUMPDEST DUP1 PUSH1 0x1F ADD PUSH1 0x20 DUP1 SWAP2 DIV MUL PUSH1 0x20 ADD PUSH1 0x40 MLOAD SWAP1 DUP2 ADD PUSH1 0x40 MSTORE DUP1 SWAP3 SWAP2 SWAP1 DUP2 DUP2 MSTORE PUSH1 0x20 ADD DUP3 DUP1 SLOAD PUSH2 0x1A53 SWAP1 PUSH2 0x2C5F JUMP JUMPDEST DUP1 ISZERO PUSH2 0x1AA0 JUMPI DUP1 PUSH1 0x1F LT PUSH2 0x1A75 JUMPI PUSH2 0x100 DUP1 DUP4 SLOAD DIV MUL DUP4 MSTORE SWAP2 PUSH1 0x20 ADD SWAP2 PUSH2 0x1AA0 JUMP JUMPDEST DUP3 ADD SWAP2 SWAP1 PUSH1 0x0 MSTORE PUSH1 0x20 PUSH1 0x0 KECCAK256 SWAP1 JUMPDEST DUP2 SLOAD DUP2 MSTORE SWAP1 PUSH1 0x1 ADD SWAP1 PUSH1 0x20 ADD DUP1 DUP4 GT PUSH2 0x1A83 JUMPI DUP3 SWAP1 SUB PUSH1 0x1F AND DUP3 ADD SWAP2 JUMPDEST POP POP POP POP POP SWAP1 POP PUSH1 0x3 DUP2 PUSH1 0x40 MLOAD PUSH2 0x1AB7 SWAP2 SWAP1 PUSH2 0x27C3 JUMP JUMPDEST SWAP1 DUP2 MSTORE PUSH1 0x20 ADD PUSH1 0x40 MLOAD DUP1 SWAP2 SUB SWAP1 KECCAK256 PUSH1 0x6 ADD PUSH1 0x0 SWAP1 SLOAD SWAP1 PUSH2 0x100 EXP SWAP1 DIV PUSH1 0xFF AND ISZERO PUSH2 0x1B0B JUMPI PUSH1 0x3 DUP2 PUSH1 0x40 MLOAD PUSH2 0x1AEB SWAP2 SWAP1 PUSH2 0x27C3 JUMP JUMPDEST SWAP1 DUP2 MSTORE PUSH1 0x20 ADD PUSH1 0x40 MLOAD DUP1 SWAP2 SUB SWAP1 KECCAK256 PUSH1 0x3 ADD SLOAD DUP4 PUSH2 0x1B08 SWAP2 SWAP1 PUSH2 0x2CD8 JUMP JUMPDEST SWAP3 POP JUMPDEST POP DUP1 DUP1 PUSH2 0x1B17 SWAP1 PUSH2 0x2C90 JUMP JUMPDEST SWAP2 POP POP PUSH2 0x19EF JUMP JUMPDEST POP DUP1 SWAP2 POP POP SWAP1 JUMP JUMPDEST PUSH32 0x68E79A7BF1E0BC45D0A330C573BC367F9CF464FD326078812F301165FBDA4EF1 PUSH2 0x1B51 DUP2 PUSH2 0x1D25 JUMP JUMPDEST PUSH1 0x3 DUP4 PUSH1 0x40 MLOAD PUSH2 0x1B61 SWAP2 SWAP1 PUSH2 0x27C3 JUMP JUMPDEST SWAP1 DUP2 MSTORE PUSH1 0x20 ADD PUSH1 0x40 MLOAD DUP1 SWAP2 SUB SWAP1 KECCAK256 PUSH1 0x6 ADD PUSH1 0x0 SWAP1 SLOAD SWAP1 PUSH2 0x100 EXP SWAP1 DIV PUSH1 0xFF AND PUSH2 0x1BBF JUMPI PUSH1 0x40 MLOAD PUSH32 0x8C379A000000000000000000000000000000000000000000000000000000000 DUP2 MSTORE PUSH1 0x4 ADD PUSH2 0x1BB6 SWAP1 PUSH2 0x2826 JUMP JUMPDEST PUSH1 0x40 MLOAD DUP1 SWAP2 SUB SWAP1 REVERT JUMPDEST DUP2 PUSH1 0x3 DUP5 PUSH1 0x40 MLOAD PUSH2 0x1BD0 SWAP2 SWAP1 PUSH2 0x27C3 JUMP JUMPDEST SWAP1 DUP2 MSTORE PUSH1 0x20 ADD PUSH1 0x40 MLOAD DUP1 SWAP2 SUB SWAP1 KECCAK256 PUSH1 0x4 ADD DUP2 SWAP1 SSTORE POP TIMESTAMP PUSH1 0x3 DUP5 PUSH1 0x40 MLOAD PUSH2 0x1BF6 SWAP2 SWAP1 PUSH2 0x27C3 JUMP JUMPDEST SWAP1 DUP2 MSTORE PUSH1 0x20 ADD PUSH1 0x40 MLOAD DUP1 SWAP2 SUB SWAP1 KECCAK256 PUSH1 0x5 ADD DUP2 SWAP1 SSTORE POP PUSH32 0xCD18D0A33D5EF2303A43AB0A79721C5C93DFF54E1012B93917EADD87CAD59D0A DUP4 DUP4 PUSH1 0x40 MLOAD PUSH2 0x1C3C SWAP3 SWAP2 SWAP1 PUSH2 0x3202 JUMP JUMPDEST PUSH1 0x40 MLOAD DUP1 SWAP2 SUB SWAP1 LOG1 PUSH2 0x1C4C PUSH2 0xADC JUMP JUMPDEST ISZERO PUSH2 0x1CB6 JUMPI PUSH32 0x6C128D6143D86393D5E56BD0727DEAC2A86C80F99FB7F46A74ABC2172F172331 DUP4 PUSH2 0x1C7C DUP6 PUSH2 0xE12 JUMP JUMPDEST PUSH1 0x3 DUP7 PUSH1 0x40 MLOAD PUSH2 0x1C8C SWAP2 SWAP1 PUSH2 0x27C3 JUMP JUMPDEST SWAP1 DUP2 MSTORE PUSH1 0x20 ADD PUSH1 0x40 MLOAD DUP1 SWAP2 SUB SWAP1 KECCAK256 PUSH1 0x2 ADD SLOAD PUSH1 0x40 MLOAD PUSH2 0x1CAD SWAP4 SWAP3 SWAP2 SWAP1 PUSH2 0x3232 JUMP JUMPDEST PUSH1 0x40 MLOAD DUP1 SWAP2 SUB SWAP1 LOG1 JUMPDEST POP POP POP JUMP JUMPDEST PUSH1 0x0 PUSH32 0x1FFC9A700000000000000000000000000000000000000000000000000000000 PUSH28 0xFFFFFFFFFFFFFFFFFFFFFFFFFFFFFFFFFFFFFFFFFFFFFFFFFFFFFFFF NOT AND DUP3 PUSH28 0xFFFFFFFFFFFFFFFFFFFFFFFFFFFFFFFFFFFFFFFFFFFFFFFFFFFFFFFF NOT AND EQ SWAP1 POP SWAP2 SWAP1 POP JUMP JUMPDEST PUSH2 0x1D36 DUP2 PUSH2 0x1D31 PUSH2 0x1E79 JUMP JUMPDEST PUSH2 0x1F73 JUMP JUMPDEST POP JUMP JUMPDEST PUSH1 0x2 PUSH1 0x1 SLOAD SUB PUSH2 0x1D75 JUMPI PUSH1 0x40 MLOAD PUSH32 0x3EE5AEB500000000000000000000000000000000000000000000000000000000 DUP2 MSTORE PUSH1 0x4 ADD PUSH1 0x40 MLOAD DUP1 SWAP2 SUB SWAP1 REVERT JUMPDEST PUSH1 0x2 PUSH1 0x1 DUP2 SWAP1 SSTORE POP JUMP JUMPDEST PUSH1 0x1 DUP1 DUP2 SWAP1 SSTORE POP JUMP JUMPDEST PUSH1 0x0 PUSH2 0x1D94 DUP4 DUP4 PUSH2 0x112C JUMP JUMPDEST PUSH2 0x1E6E JUMPI PUSH1 0x1 PUSH1 0x0 DUP1 DUP6 DUP2 MSTORE PUSH1 0x20 ADD SWAP1 DUP2 MSTORE PUSH1 0x20 ADD PUSH1 0x0 KECCAK256 PUSH1 0x0 ADD PUSH1 0x0 DUP5 PUSH20 0xFFFFFFFFFFFFFFFFFFFFFFFFFFFFFFFFFFFFFFFF AND PUSH20 0xFFFFFFFFFFFFFFFFFFFFFFFFFFFFFFFFFFFFFFFF AND DUP2 MSTORE PUSH1 0x20 ADD SWAP1 DUP2 MSTORE PUSH1 0x20 ADD PUSH1 0x0 KECCAK256 PUSH1 0x0 PUSH2 0x100 EXP DUP2 SLOAD DUP2 PUSH1 0xFF MUL NOT AND SWAP1 DUP4 ISZERO ISZERO MUL OR SWAP1 SSTORE POP PUSH2 0x1E0B PUSH2 0x1E79 JUMP JUMPDEST PUSH20 0xFFFFFFFFFFFFFFFFFFFFFFFFFFFFFFFFFFFFFFFF AND DUP3 PUSH20 0xFFFFFFFFFFFFFFFFFFFFFFFFFFFFFFFFFFFFFFFF AND DUP5 PUSH32 0x2F8788117E7EFF1D82E926EC794901D17C78024A50270940304540A733656F0D PUSH1 0x40 MLOAD PUSH1 0x40 MLOAD DUP1 SWAP2 SUB SWAP1 LOG4 PUSH1 0x1 SWAP1 POP PUSH2 0x1E73 JUMP JUMPDEST PUSH1 0x0 SWAP1 POP JUMPDEST SWAP3 SWAP2 POP POP JUMP JUMPDEST PUSH1 0x0 CALLER SWAP1 POP SWAP1 JUMP JUMPDEST PUSH1 0x0 PUSH2 0x1E8D DUP4 DUP4 PUSH2 0x112C JUMP JUMPDEST ISZERO PUSH2 0x1F68 JUMPI PUSH1 0x0 DUP1 PUSH1 0x0 DUP6 DUP2 MSTORE PUSH1 0x20 ADD SWAP1 DUP2 MSTORE PUSH1 0x20 ADD PUSH1 0x0 KECCAK256 PUSH1 0x0 ADD PUSH1 0x0 DUP5 PUSH20 0xFFFFFFFFFFFFFFFFFFFFFFFFFFFFFFFFFFFFFFFF AND PUSH20 0xFFFFFFFFFFFFFFFFFFFFFFFFFFFFFFFFFFFFFFFF AND DUP2 MSTORE PUSH1 0x20 ADD SWAP1 DUP2 MSTORE PUSH1 0x20 ADD PUSH1 0x0 KECCAK256 PUSH1 0x0 PUSH2 0x100 EXP DUP2 SLOAD DUP2 PUSH1 0xFF MUL NOT AND SWAP1 DUP4 ISZERO ISZERO MUL OR SWAP1 SSTORE POP PUSH2 0x1F05 PUSH2 0x1E79 JUMP JUMPDEST PUSH20 0xFFFFFFFFFFFFFFFFFFFFFFFFFFFFFFFFFFFFFFFF AND DUP3 PUSH20 0xFFFFFFFFFFFFFFFFFFFFFFFFFFFFFFFFFFFFFFFF AND DUP5 PUSH32 0xF6391F5C32D9C69D2A47EA670B442974B53935D1EDC7FD64EB21E047A839171B PUSH1 0x40 MLOAD PUSH1 0x40 MLOAD DUP1 SWAP2 SUB SWAP1 LOG4 PUSH1 0x1 SWAP1 POP PUSH2 0x1F6D JUMP JUMPDEST PUSH1 0x0 SWAP1 POP JUMPDEST SWAP3 SWAP2 POP POP JUMP JUMPDEST PUSH2 0x1F7D DUP3 DUP3 PUSH2 0x112C JUMP JUMPDEST PUSH2 0x1FC0 JUMPI DUP1 DUP3 PUSH1 0x40 MLOAD PUSH32 0xE2517D3F00000000000000000000000000000000000000000000000000000000 DUP2 MSTORE PUSH1 0x4 ADD PUSH2 0x1FB7 SWAP3 SWAP2 SWAP1 PUSH2 0x3270 JUMP JUMPDEST PUSH1 0x40 MLOAD DUP1 SWAP2 SUB SWAP1 REVERT JUMPDEST POP POP JUMP JUMPDEST PUSH1 0x0 PUSH1 0x40 MLOAD SWAP1 POP SWAP1 JUMP JUMPDEST PUSH1 0x0 DUP1 REVERT JUMPDEST PUSH1 0x0 DUP1 REVERT JUMPDEST PUSH1 0x0 PUSH32 0xFFFFFFFF00000000000000000000000000000000000000000000000000000000 DUP3 AND SWAP1 POP SWAP2 SWAP1 POP JUMP JUMPDEST PUSH2 0x200D DUP2 PUSH2 0x1FD8 JUMP JUMPDEST DUP2 EQ PUSH2 0x2018 JUMPI PUSH1 0x0 DUP1 REVERT JUMPDEST POP JUMP JUMPDEST PUSH1 0x0 DUP2 CALLDATALOAD SWAP1 POP PUSH2 0x202A DUP2 PUSH2 0x2004 JUMP JUMPDEST SWAP3 SWAP2 POP POP JUMP JUMPDEST PUSH1 0x0 PUSH1 0x20 DUP3 DUP5 SUB SLT ISZERO PUSH2 0x2046 JUMPI PUSH2 0x2045 PUSH2 0x1FCE JUMP JUMPDEST JUMPDEST PUSH1 0x0 PUSH2 0x2054 DUP5 DUP3 DUP6 ADD PUSH2 0x201B JUMP JUMPDEST SWAP2 POP POP SWAP3 SWAP2 POP POP JUMP JUMPDEST PUSH1 0x0 DUP2 ISZERO ISZERO SWAP1 POP SWAP2 SWAP1 POP JUMP JUMPDEST PUSH2 0x2072 DUP2 PUSH2 0x205D JUMP JUMPDEST DUP3 MSTORE POP POP JUMP JUMPDEST PUSH1 0x0 PUSH1 0x20 DUP3 ADD SWAP1 POP PUSH2 0x208D PUSH1 0x0 DUP4 ADD DUP5 PUSH2 0x2069 JUMP JUMPDEST SWAP3 SWAP2 POP POP JUMP JUMPDEST PUSH1 0x0 DUP1 REVERT JUMPDEST PUSH1 0x0 DUP1 REVERT JUMPDEST PUSH1 0x0 PUSH1 0x1F NOT PUSH1 0x1F DUP4 ADD AND SWAP1 POP SWAP2 SWAP1 POP JUMP JUMPDEST PUSH32 0x4E487B7100000000000000000000000000000000000000000000000000000000 PUSH1 0x0 MSTORE PUSH1 0x41 PUSH1 0x4 MSTORE PUSH1 0x24 PUSH1 0x0 REVERT JUMPDEST PUSH2 0x20E6 DUP3 PUSH2 0x209D JUMP JUMPDEST DUP2 ADD DUP2 DUP2 LT PUSH8 0xFFFFFFFFFFFFFFFF DUP3 GT OR ISZERO PUSH2 0x2105 JUMPI PUSH2 0x2104 PUSH2 0x20AE JUMP JUMPDEST JUMPDEST DUP1 PUSH1 0x40 MSTORE POP POP POP JUMP JUMPDEST PUSH1 0x0 PUSH2 0x2118 PUSH2 0x1FC4 JUMP JUMPDEST SWAP1 POP PUSH2 0x2124 DUP3 DUP3 PUSH2 0x20DD JUMP JUMPDEST SWAP2 SWAP1 POP JUMP JUMPDEST PUSH1 0x0 PUSH8 0xFFFFFFFFFFFFFFFF DUP3 GT ISZERO PUSH2 0x2144 JUMPI PUSH2 0x2143 PUSH2 0x20AE JUMP JUMPDEST JUMPDEST PUSH2 0x214D DUP3 PUSH2 0x209D JUMP JUMPDEST SWAP1 POP PUSH1 0x20 DUP2 ADD SWAP1 POP SWAP2 SWAP1 POP JUMP JUMPDEST DUP3 DUP2 DUP4 CALLDATACOPY PUSH1 0x0 DUP4 DUP4 ADD MSTORE POP POP POP JUMP JUMPDEST PUSH1 0x0 PUSH2 0x217C PUSH2 0x2177 DUP5 PUSH2 0x2129 JUMP JUMPDEST PUSH2 0x210E JUMP JUMPDEST SWAP1 POP DUP3 DUP2 MSTORE PUSH1 0x20 DUP2 ADD DUP5 DUP5 DUP5 ADD GT ISZERO PUSH2 0x2198 JUMPI PUSH2 0x2197 PUSH2 0x2098 JUMP JUMPDEST JUMPDEST PUSH2 0x21A3 DUP5 DUP3 DUP6 PUSH2 0x215A JUMP JUMPDEST POP SWAP4 SWAP3 POP POP POP JUMP JUMPDEST PUSH1 0x0 DUP3 PUSH1 0x1F DUP4 ADD SLT PUSH2 0x21C0 JUMPI PUSH2 0x21BF PUSH2 0x2093 JUMP JUMPDEST JUMPDEST DUP2 CALLDATALOAD PUSH2 0x21D0 DUP5 DUP3 PUSH1 0x20 DUP7 ADD PUSH2 0x2169 JUMP JUMPDEST SWAP2 POP POP SWAP3 SWAP2 POP POP JUMP JUMPDEST PUSH1 0x0 DUP2 SWAP1 POP SWAP2 SWAP1 POP JUMP JUMPDEST PUSH2 0x21EC DUP2 PUSH2 0x21D9 JUMP JUMPDEST DUP2 EQ PUSH2 0x21F7 JUMPI PUSH1 0x0 DUP1 REVERT JUMPDEST POP JUMP JUMPDEST PUSH1 0x0 DUP2 CALLDATALOAD SWAP1 POP PUSH2 0x2209 DUP2 PUSH2 0x21E3 JUMP JUMPDEST SWAP3 SWAP2 POP POP JUMP JUMPDEST PUSH1 0x0 PUSH20 0xFFFFFFFFFFFFFFFFFFFFFFFFFFFFFFFFFFFFFFFF DUP3 AND SWAP1 POP SWAP2 SWAP1 POP JUMP JUMPDEST PUSH1 0x0 PUSH2 0x223A DUP3 PUSH2 0x220F JUMP JUMPDEST SWAP1 POP SWAP2 SWAP1 POP JUMP JUMPDEST PUSH2 0x224A DUP2 PUSH2 0x222F JUMP JUMPDEST DUP2 EQ PUSH2 0x2255 JUMPI PUSH1 0x0 DUP1 REVERT JUMPDEST POP JUMP JUMPDEST PUSH1 0x0 DUP2 CALLDATALOAD SWAP1 POP PUSH2 0x2267 DUP2 PUSH2 0x2241 JUMP JUMPDEST SWAP3 SWAP2 POP POP JUMP JUMPDEST PUSH1 0x0 DUP1 PUSH1 0x0 PUSH1 0x60 DUP5 DUP7 SUB SLT ISZERO PUSH2 0x2286 JUMPI PUSH2 0x2285 PUSH2 0x1FCE JUMP JUMPDEST JUMPDEST PUSH1 0x0 DUP5 ADD CALLDATALOAD PUSH8 0xFFFFFFFFFFFFFFFF DUP2 GT ISZERO PUSH2 0x22A4 JUMPI PUSH2 0x22A3 PUSH2 0x1FD3 JUMP JUMPDEST JUMPDEST PUSH2 0x22B0 DUP7 DUP3 DUP8 ADD PUSH2 0x21AB JUMP JUMPDEST SWAP4 POP POP PUSH1 0x20 PUSH2 0x22C1 DUP7 DUP3 DUP8 ADD PUSH2 0x21FA JUMP JUMPDEST SWAP3 POP POP PUSH1 0x40 PUSH2 0x22D2 DUP7 DUP3 DUP8 ADD PUSH2 0x2258 JUMP JUMPDEST SWAP2 POP POP SWAP3 POP SWAP3 POP SWAP3 JUMP JUMPDEST PUSH1 0x0 DUP2 SWAP1 POP SWAP2 SWAP1 POP JUMP JUMPDEST PUSH2 0x22EF DUP2 PUSH2 0x22DC JUMP JUMPDEST DUP3 MSTORE POP POP JUMP JUMPDEST PUSH1 0x0 PUSH1 0x20 DUP3 ADD SWAP1 POP PUSH2 0x230A PUSH1 0x0 DUP4 ADD DUP5 PUSH2 0x22E6 JUMP JUMPDEST SWAP3 SWAP2 POP POP JUMP JUMPDEST PUSH1 0x0 DUP2 SWAP1 POP SWAP2 SWAP1 POP JUMP JUMPDEST PUSH1 0x0 PUSH2 0x2335 PUSH2 0x2330 PUSH2 0x232B DUP5 PUSH2 0x220F JUMP JUMPDEST PUSH2 0x2310 JUMP JUMPDEST PUSH2 0x220F JUMP JUMPDEST SWAP1 POP SWAP2 SWAP1 POP JUMP JUMPDEST PUSH1 0x0 PUSH2 0x2347 DUP3 PUSH2 0x231A JUMP JUMPDEST SWAP1 POP SWAP2 SWAP1 POP JUMP JUMPDEST PUSH1 0x0 PUSH2 0x2359 DUP3 PUSH2 0x233C JUMP JUMPDEST SWAP1 POP SWAP2 SWAP1 POP JUMP JUMPDEST PUSH2 0x2369 DUP2 PUSH2 0x234E JUMP JUMPDEST DUP3 MSTORE POP POP JUMP JUMPDEST PUSH1 0x0 PUSH1 0x20 DUP3 ADD SWAP1 POP PUSH2 0x2384 PUSH1 0x0 DUP4 ADD DUP5 PUSH2 0x2360 JUMP JUMPDEST SWAP3 SWAP2 POP POP JUMP JUMPDEST PUSH2 0x2393 DUP2 PUSH2 0x21D9 JUMP JUMPDEST DUP3 MSTORE POP POP JUMP JUMPDEST PUSH1 0x0 PUSH1 0x20 DUP3 ADD SWAP1 POP PUSH2 0x23AE PUSH1 0x0 DUP4 ADD DUP5 PUSH2 0x238A JUMP JUMPDEST SWAP3 SWAP2 POP POP JUMP JUMPDEST PUSH1 0x0 PUSH1 0x20 DUP3 DUP5 SUB SLT ISZERO PUSH2 0x23CA JUMPI PUSH2 0x23C9 PUSH2 0x1FCE JUMP JUMPDEST JUMPDEST PUSH1 0x0 DUP3 ADD CALLDATALOAD PUSH8 0xFFFFFFFFFFFFFFFF DUP2 GT ISZERO PUSH2 0x23E8 JUMPI PUSH2 0x23E7 PUSH2 0x1FD3 JUMP JUMPDEST JUMPDEST PUSH2 0x23F4 DUP5 DUP3 DUP6 ADD PUSH2 0x21AB JUMP JUMPDEST SWAP2 POP POP SWAP3 SWAP2 POP POP JUMP JUMPDEST PUSH2 0x2406 DUP2 PUSH2 0x22DC JUMP JUMPDEST DUP2 EQ PUSH2 0x2411 JUMPI PUSH1 0x0 DUP1 REVERT JUMPDEST POP JUMP JUMPDEST PUSH1 0x0 DUP2 CALLDATALOAD SWAP1 POP PUSH2 0x2423 DUP2 PUSH2 0x23FD JUMP JUMPDEST SWAP3 SWAP2 POP POP JUMP JUMPDEST PUSH1 0x0 PUSH1 0x20 DUP3 DUP5 SUB SLT ISZERO PUSH2 0x243F JUMPI PUSH2 0x243E PUSH2 0x1FCE JUMP JUMPDEST JUMPDEST PUSH1 0x0 PUSH2 0x244D DUP5 DUP3 DUP6 ADD PUSH2 0x2414 JUMP JUMPDEST SWAP2 POP POP SWAP3 SWAP2 POP POP JUMP JUMPDEST PUSH1 0x0 PUSH1 0x20 DUP3 DUP5 SUB SLT ISZERO PUSH2 0x246C JUMPI PUSH2 0x246B PUSH2 0x1FCE JUMP JUMPDEST JUMPDEST PUSH1 0x0 PUSH2 0x247A DUP5 DUP3 DUP6 ADD PUSH2 0x21FA JUMP JUMPDEST SWAP2 POP POP SWAP3 SWAP2 POP POP JUMP JUMPDEST PUSH1 0x0 DUP2 MLOAD SWAP1 POP SWAP2 SWAP1 POP JUMP JUMPDEST PUSH1 0x0 DUP3 DUP3 MSTORE PUSH1 0x20 DUP3 ADD SWAP1 POP SWAP3 SWAP2 POP POP JUMP JUMPDEST PUSH1 0x0 JUMPDEST DUP4 DUP2 LT ISZERO PUSH2 0x24BD JUMPI DUP1 DUP3 ADD MLOAD DUP2 DUP5 ADD MSTORE PUSH1 0x20 DUP2 ADD SWAP1 POP PUSH2 0x24A2 JUMP JUMPDEST PUSH1 0x0 DUP5 DUP5 ADD MSTORE POP POP POP POP JUMP JUMPDEST PUSH1 0x0 PUSH2 0x24D4 DUP3 PUSH2 0x2483 JUMP JUMPDEST PUSH2 0x24DE DUP2 DUP6 PUSH2 0x248E JUMP JUMPDEST SWAP4 POP PUSH2 0x24EE DUP2 DUP6 PUSH1 0x20 DUP7 ADD PUSH2 0x249F JUMP JUMPDEST PUSH2 0x24F7 DUP2 PUSH2 0x209D JUMP JUMPDEST DUP5 ADD SWAP2 POP POP SWAP3 SWAP2 POP POP JUMP JUMPDEST PUSH1 0x0 PUSH1 0x20 DUP3 ADD SWAP1 POP DUP2 DUP2 SUB PUSH1 0x0 DUP4 ADD MSTORE PUSH2 0x251C DUP2 DUP5 PUSH2 0x24C9 JUMP JUMPDEST SWAP1 POP SWAP3 SWAP2 POP POP JUMP JUMPDEST PUSH1 0x0 DUP1 PUSH1 0x40 DUP4 DUP6 SUB SLT ISZERO PUSH2 0x253B JUMPI PUSH2 0x253A PUSH2 0x1FCE JUMP JUMPDEST JUMPDEST PUSH1 0x0 PUSH2 0x2549 DUP6 DUP3 DUP7 ADD PUSH2 0x2414 JUMP JUMPDEST SWAP3 POP POP PUSH1 0x20 PUSH2 0x255A DUP6 DUP3 DUP7 ADD PUSH2 0x2258 JUMP JUMPDEST SWAP2 POP POP SWAP3 POP SWAP3 SWAP1 POP JUMP JUMPDEST PUSH32 0x4E487B7100000000000000000000000000000000000000000000000000000000 PUSH1 0x0 MSTORE PUSH1 0x21 PUSH1 0x4 MSTORE PUSH1 0x24 PUSH1 0x0 REVERT JUMPDEST PUSH1 0x5 DUP2 LT PUSH2 0x25A4 JUMPI PUSH2 0x25A3 PUSH2 0x2564 JUMP JUMPDEST JUMPDEST POP JUMP JUMPDEST PUSH1 0x0 DUP2 SWAP1 POP PUSH2 0x25B5 DUP3 PUSH2 0x2593 JUMP JUMPDEST SWAP2 SWAP1 POP JUMP JUMPDEST PUSH1 0x0 PUSH2 0x25C5 DUP3 PUSH2 0x25A7 JUMP JUMPDEST SWAP1 POP SWAP2 SWAP1 POP JUMP JUMPDEST PUSH2 0x25D5 DUP2 PUSH2 0x25BA JUMP JUMPDEST DUP3 MSTORE POP POP JUMP JUMPDEST PUSH2 0x25E4 DUP2 PUSH2 0x222F JUMP JUMPDEST DUP3 MSTORE POP POP JUMP JUMPDEST PUSH1 0x0 PUSH2 0x100 DUP3 ADD SWAP1 POP DUP2 DUP2 SUB PUSH1 0x0 DUP4 ADD MSTORE PUSH2 0x2605 DUP2 DUP12 PUSH2 0x24C9 JUMP JUMPDEST SWAP1 POP PUSH2 0x2614 PUSH1 0x20 DUP4 ADD DUP11 PUSH2 0x25CC JUMP JUMPDEST PUSH2 0x2621 PUSH1 0x40 DUP4 ADD DUP10 PUSH2 0x25DB JUMP JUMPDEST PUSH2 0x262E PUSH1 0x60 DUP4 ADD DUP9 PUSH2 0x238A JUMP JUMPDEST PUSH2 0x263B PUSH1 0x80 DUP4 ADD DUP8 PUSH2 0x238A JUMP JUMPDEST PUSH2 0x2648 PUSH1 0xA0 DUP4 ADD DUP7 PUSH2 0x238A JUMP JUMPDEST PUSH2 0x2655 PUSH1 0xC0 DUP4 ADD DUP6 PUSH2 0x238A JUMP JUMPDEST PUSH2 0x2662 PUSH1 0xE0 DUP4 ADD DUP5 PUSH2 0x2069 JUMP JUMPDEST SWAP10 SWAP9 POP POP POP POP POP POP POP POP POP JUMP JUMPDEST PUSH1 0x0 DUP1 PUSH1 0x40 DUP4 DUP6 SUB SLT ISZERO PUSH2 0x2686 JUMPI PUSH2 0x2685 PUSH2 0x1FCE JUMP JUMPDEST JUMPDEST PUSH1 0x0 DUP4 ADD CALLDATALOAD PUSH8 0xFFFFFFFFFFFFFFFF DUP2 GT ISZERO PUSH2 0x26A4 JUMPI PUSH2 0x26A3 PUSH2 0x1FD3 JUMP JUMPDEST JUMPDEST PUSH2 0x26B0 DUP6 DUP3 DUP7 ADD PUSH2 0x21AB JUMP JUMPDEST SWAP3 POP POP PUSH1 0x20 PUSH2 0x26C1 DUP6 DUP3 DUP7 ADD PUSH2 0x21FA JUMP JUMPDEST SWAP2 POP POP SWAP3 POP SWAP3 SWAP1 POP JUMP JUMPDEST PUSH1 0x5 DUP2 LT PUSH2 0x26D8 JUMPI PUSH1 0x0 DUP1 REVERT JUMPDEST POP JUMP JUMPDEST PUSH1 0x0 DUP2 CALLDATALOAD SWAP1 POP PUSH2 0x26EA DUP2 PUSH2 0x26CB JUMP JUMPDEST SWAP3 SWAP2 POP POP JUMP JUMPDEST PUSH1 0x0 DUP1 PUSH1 0x0 DUP1 PUSH1 0x0 PUSH1 0xA0 DUP7 DUP9 SUB SLT ISZERO PUSH2 0x270C JUMPI PUSH2 0x270B PUSH2 0x1FCE JUMP JUMPDEST JUMPDEST PUSH1 0x0 DUP7 ADD CALLDATALOAD PUSH8 0xFFFFFFFFFFFFFFFF DUP2 GT ISZERO PUSH2 0x272A JUMPI PUSH2 0x2729 PUSH2 0x1FD3 JUMP JUMPDEST JUMPDEST PUSH2 0x2736 DUP9 DUP3 DUP10 ADD PUSH2 0x21AB JUMP JUMPDEST SWAP6 POP POP PUSH1 0x20 PUSH2 0x2747 DUP9 DUP3 DUP10 ADD PUSH2 0x26DB JUMP JUMPDEST SWAP5 POP POP PUSH1 0x40 PUSH2 0x2758 DUP9 DUP3 DUP10 ADD PUSH2 0x2258 JUMP JUMPDEST SWAP4 POP POP PUSH1 0x60 PUSH2 0x2769 DUP9 DUP3 DUP10 ADD PUSH2 0x21FA JUMP JUMPDEST SWAP3 POP POP PUSH1 0x80 PUSH2 0x277A DUP9 DUP3 DUP10 ADD PUSH2 0x21FA JUMP JUMPDEST SWAP2 POP POP SWAP3 SWAP6 POP SWAP3 SWAP6 SWAP1 SWAP4 POP JUMP JUMPDEST PUSH1 0x0 DUP2 SWAP1 POP SWAP3 SWAP2 POP POP JUMP JUMPDEST PUSH1 0x0 PUSH2 0x279D DUP3 PUSH2 0x2483 JUMP JUMPDEST PUSH2 0x27A7 DUP2 DUP6 PUSH2 0x2787 JUMP JUMPDEST SWAP4 POP PUSH2 0x27B7 DUP2 DUP6 PUSH1 0x20 DUP7 ADD PUSH2 0x249F JUMP JUMPDEST DUP1 DUP5 ADD SWAP2 POP POP SWAP3 SWAP2 POP POP JUMP JUMPDEST PUSH1 0x0 PUSH2 0x27CF DUP3 DUP5 PUSH2 0x2792 JUMP JUMPDEST SWAP2 POP DUP2 SWAP1 POP SWAP3 SWAP2 POP POP JUMP JUMPDEST PUSH32 0x4173736574206E6F7420666F756E640000000000000000000000000000000000 PUSH1 0x0 DUP3 ADD MSTORE POP JUMP JUMPDEST PUSH1 0x0 PUSH2 0x2810 PUSH1 0xF DUP4 PUSH2 0x248E JUMP JUMPDEST SWAP2 POP PUSH2 0x281B DUP3 PUSH2 0x27DA JUMP JUMPDEST PUSH1 0x20 DUP3 ADD SWAP1 POP SWAP2 SWAP1 POP JUMP JUMPDEST PUSH1 0x0 PUSH1 0x20 DUP3 ADD SWAP1 POP DUP2 DUP2 SUB PUSH1 0x0 DUP4 ADD MSTORE PUSH2 0x283F DUP2 PUSH2 0x2803 JUMP JUMPDEST SWAP1 POP SWAP2 SWAP1 POP JUMP JUMPDEST PUSH32 0x416D6F756E74206D75737420626520706F736974697665000000000000000000 PUSH1 0x0 DUP3 ADD MSTORE POP JUMP JUMPDEST PUSH1 0x0 PUSH2 0x287C PUSH1 0x17 DUP4 PUSH2 0x248E JUMP JUMPDEST SWAP2 POP PUSH2 0x2887 DUP3 PUSH2 0x2846 JUMP JUMPDEST PUSH1 0x20 DUP3 ADD SWAP1 POP SWAP2 SWAP1 POP JUMP JUMPDEST PUSH1 0x0 PUSH1 0x20 DUP3 ADD SWAP1 POP DUP2 DUP2 SUB PUSH1 0x0 DUP4 ADD MSTORE PUSH2 0x28AB DUP2 PUSH2 0x286F JUMP JUMPDEST SWAP1 POP SWAP2 SWAP1 POP JUMP JUMPDEST PUSH32 0x496E76616C696420726563697069656E74000000000000000000000000000000 PUSH1 0x0 DUP3 ADD MSTORE POP JUMP JUMPDEST PUSH1 0x0 PUSH2 0x28E8 PUSH1 0x11 DUP4 PUSH2 0x248E JUMP JUMPDEST SWAP2 POP PUSH2 0x28F3 DUP3 PUSH2 0x28B2 JUMP JUMPDEST PUSH1 0x20 DUP3 ADD SWAP1 POP SWAP2 SWAP1 POP JUMP JUMPDEST PUSH1 0x0 PUSH1 0x20 DUP3 ADD SWAP1 POP DUP2 DUP2 SUB PUSH1 0x0 DUP4 ADD MSTORE PUSH2 0x2917 DUP2 PUSH2 0x28DB JUMP JUMPDEST SWAP1 POP SWAP2 SWAP1 POP JUMP JUMPDEST PUSH32 0x4E487B7100000000000000000000000000000000000000000000000000000000 PUSH1 0x0 MSTORE PUSH1 0x11 PUSH1 0x4 MSTORE PUSH1 0x24 PUSH1 0x0 REVERT JUMPDEST PUSH1 0x0 PUSH2 0x2958 DUP3 PUSH2 0x21D9 JUMP JUMPDEST SWAP2 POP PUSH2 0x2963 DUP4 PUSH2 0x21D9 JUMP JUMPDEST SWAP3 POP DUP3 DUP3 MUL PUSH2 0x2971 DUP2 PUSH2 0x21D9 JUMP JUMPDEST SWAP2 POP DUP3 DUP3 DIV DUP5 EQ DUP4 ISZERO OR PUSH2 0x2988 JUMPI PUSH2 0x2987 PUSH2 0x291E JUMP JUMPDEST JUMPDEST POP SWAP3 SWAP2 POP POP JUMP JUMPDEST PUSH32 0x4E487B7100000000000000000000000000000000000000000000000000000000 PUSH1 0x0 MSTORE PUSH1 0x12 PUSH1 0x4 MSTORE PUSH1 0x24 PUSH1 0x0 REVERT JUMPDEST PUSH1 0x0 PUSH2 0x29C9 DUP3 PUSH2 0x21D9 JUMP JUMPDEST SWAP2 POP PUSH2 0x29D4 DUP4 PUSH2 0x21D9 JUMP JUMPDEST SWAP3 POP DUP3 PUSH2 0x29E4 JUMPI PUSH2 0x29E3 PUSH2 0x298F JUMP JUMPDEST JUMPDEST DUP3 DUP3 DIV SWAP1 POP SWAP3 SWAP2 POP POP JUMP JUMPDEST PUSH32 0x496E73756666696369656E7420636F6C6C61746572616C000000000000000000 PUSH1 0x0 DUP3 ADD MSTORE POP JUMP JUMPDEST PUSH1 0x0 PUSH2 0x2A25 PUSH1 0x17 DUP4 PUSH2 0x248E JUMP JUMPDEST SWAP2 POP PUSH2 0x2A30 DUP3 PUSH2 0x29EF JUMP JUMPDEST PUSH1 0x20 DUP3 ADD SWAP1 POP SWAP2 SWAP1 POP JUMP JUMPDEST PUSH1 0x0 PUSH1 0x20 DUP3 ADD SWAP1 POP DUP2 DUP2 SUB PUSH1 0x0 DUP4 ADD MSTORE PUSH2 0x2A54 DUP2 PUSH2 0x2A18 JUMP JUMPDEST SWAP1 POP SWAP2 SWAP1 POP JUMP JUMPDEST PUSH1 0x0 PUSH2 0x2A66 DUP3 PUSH2 0x21D9 JUMP JUMPDEST SWAP2 POP PUSH2 0x2A71 DUP4 PUSH2 0x21D9 JUMP JUMPDEST SWAP3 POP DUP3 DUP3 SUB SWAP1 POP DUP2 DUP2 GT ISZERO PUSH2 0x2A89 JUMPI PUSH2 0x2A88 PUSH2 0x291E JUMP JUMPDEST JUMPDEST SWAP3 SWAP2 POP POP JUMP JUMPDEST PUSH1 0x0 PUSH1 0x40 DUP3 ADD SWAP1 POP PUSH2 0x2AA4 PUSH1 0x0 DUP4 ADD DUP6 PUSH2 0x25DB JUMP JUMPDEST PUSH2 0x2AB1 PUSH1 0x20 DUP4 ADD DUP5 PUSH2 0x238A JUMP JUMPDEST SWAP4 SWAP3 POP POP POP JUMP JUMPDEST PUSH2 0x2AC1 DUP2 PUSH2 0x205D JUMP JUMPDEST DUP2 EQ PUSH2 0x2ACC JUMPI PUSH1 0x0 DUP1 REVERT JUMPDEST POP JUMP JUMPDEST PUSH1 0x0 DUP2 MLOAD SWAP1 POP PUSH2 0x2ADE DUP2 PUSH2 0x2AB8 JUMP JUMPDEST SWAP3 SWAP2 POP POP JUMP JUMPDEST PUSH1 0x0 PUSH1 0x20 DUP3 DUP5 SUB SLT ISZERO PUSH2 0x2AFA JUMPI PUSH2 0x2AF9 PUSH2 0x1FCE JUMP JUMPDEST JUMPDEST PUSH1 0x0 PUSH2 0x2B08 DUP5 DUP3 DUP6 ADD PUSH2 0x2ACF JUMP JUMPDEST SWAP2 POP POP SWAP3 SWAP2 POP POP JUMP JUMPDEST PUSH1 0x0 DUP2 SWAP1 POP SWAP3 SWAP2 POP POP JUMP JUMPDEST POP JUMP JUMPDEST PUSH1 0x0 PUSH2 0x2B2C PUSH1 0x0 DUP4 PUSH2 0x2B11 JUMP JUMPDEST SWAP2 POP PUSH2 0x2B37 DUP3 PUSH2 0x2B1C JUMP JUMPDEST PUSH1 0x0 DUP3 ADD SWAP1 POP SWAP2 SWAP1 POP JUMP JUMPDEST PUSH1 0x0 PUSH2 0x2B4D DUP3 PUSH2 0x2B1F JUMP JUMPDEST SWAP2 POP DUP2 SWAP1 POP SWAP2 SWAP1 POP JUMP JUMPDEST PUSH32 0x455448207472616E73666572206661696C656400000000000000000000000000 PUSH1 0x0 DUP3 ADD MSTORE POP JUMP JUMPDEST PUSH1 0x0 PUSH2 0x2B8D PUSH1 0x13 DUP4 PUSH2 0x248E JUMP JUMPDEST SWAP2 POP PUSH2 0x2B98 DUP3 PUSH2 0x2B57 JUMP JUMPDEST PUSH1 0x20 DUP3 ADD SWAP1 POP SWAP2 SWAP1 POP JUMP JUMPDEST PUSH1 0x0 PUSH1 0x20 DUP3 ADD SWAP1 POP DUP2 DUP2 SUB PUSH1 0x0 DUP4 ADD MSTORE PUSH2 0x2BBC DUP2 PUSH2 0x2B80 JUMP JUMPDEST SWAP1 POP SWAP2 SWAP1 POP JUMP JUMPDEST PUSH1 0x0 PUSH1 0x60 DUP3 ADD SWAP1 POP DUP2 DUP2 SUB PUSH1 0x0 DUP4 ADD MSTORE PUSH2 0x2BDD DUP2 DUP7 PUSH2 0x24C9 JUMP JUMPDEST SWAP1 POP PUSH2 0x2BEC PUSH1 0x20 DUP4 ADD DUP6 PUSH2 0x238A JUMP JUMPDEST PUSH2 0x2BF9 PUSH1 0x40 DUP4 ADD DUP5 PUSH2 0x25DB JUMP JUMPDEST SWAP5 SWAP4 POP POP POP POP JUMP JUMPDEST PUSH32 0x4E487B7100000000000000000000000000000000000000000000000000000000 PUSH1 0x0 MSTORE PUSH1 0x32 PUSH1 0x4 MSTORE PUSH1 0x24 PUSH1 0x0 REVERT JUMPDEST PUSH32 0x4E487B7100000000000000000000000000000000000000000000000000000000 PUSH1 0x0 MSTORE PUSH1 0x22 PUSH1 0x4 MSTORE PUSH1 0x24 PUSH1 0x0 REVERT JUMPDEST PUSH1 0x0 PUSH1 0x2 DUP3 DIV SWAP1 POP PUSH1 0x1 DUP3 AND DUP1 PUSH2 0x2C77 JUMPI PUSH1 0x7F DUP3 AND SWAP2 POP JUMPDEST PUSH1 0x20 DUP3 LT DUP2 SUB PUSH2 0x2C8A JUMPI PUSH2 0x2C89 PUSH2 0x2C30 JUMP JUMPDEST JUMPDEST POP SWAP2 SWAP1 POP JUMP JUMPDEST PUSH1 0x0 PUSH2 0x2C9B DUP3 PUSH2 0x21D9 JUMP JUMPDEST SWAP2 POP PUSH32 0xFFFFFFFFFFFFFFFFFFFFFFFFFFFFFFFFFFFFFFFFFFFFFFFFFFFFFFFFFFFFFFFF DUP3 SUB PUSH2 0x2CCD JUMPI PUSH2 0x2CCC PUSH2 0x291E JUMP JUMPDEST JUMPDEST PUSH1 0x1 DUP3 ADD SWAP1 POP SWAP2 SWAP1 POP JUMP JUMPDEST PUSH1 0x0 PUSH2 0x2CE3 DUP3 PUSH2 0x21D9 JUMP JUMPDEST SWAP2 POP PUSH2 0x2CEE DUP4 PUSH2 0x21D9 JUMP JUMPDEST SWAP3 POP DUP3 DUP3 ADD SWAP1 POP DUP1 DUP3 GT ISZERO PUSH2 0x2D06 JUMPI PUSH2 0x2D05 PUSH2 0x291E JUMP JUMPDEST JUMPDEST SWAP3 SWAP2 POP POP JUMP JUMPDEST PUSH32 0x526562616C616E63696E67206E6F74206E656564656400000000000000000000 PUSH1 0x0 DUP3 ADD MSTORE POP JUMP JUMPDEST PUSH1 0x0 PUSH2 0x2D42 PUSH1 0x16 DUP4 PUSH2 0x248E JUMP JUMPDEST SWAP2 POP PUSH2 0x2D4D DUP3 PUSH2 0x2D0C JUMP JUMPDEST PUSH1 0x20 DUP3 ADD SWAP1 POP SWAP2 SWAP1 POP JUMP JUMPDEST PUSH1 0x0 PUSH1 0x20 DUP3 ADD SWAP1 POP DUP2 DUP2 SUB PUSH1 0x0 DUP4 ADD MSTORE PUSH2 0x2D71 DUP2 PUSH2 0x2D35 JUMP JUMPDEST SWAP1 POP SWAP2 SWAP1 POP JUMP JUMPDEST PUSH1 0x0 PUSH1 0x20 DUP3 ADD SWAP1 POP PUSH2 0x2D8D PUSH1 0x0 DUP4 ADD DUP5 PUSH2 0x25DB JUMP JUMPDEST SWAP3 SWAP2 POP POP JUMP JUMPDEST PUSH1 0x0 DUP2 MLOAD SWAP1 POP PUSH2 0x2DA2 DUP2 PUSH2 0x21E3 JUMP JUMPDEST SWAP3 SWAP2 POP POP JUMP JUMPDEST PUSH1 0x0 PUSH1 0x20 DUP3 DUP5 SUB SLT ISZERO PUSH2 0x2DBE JUMPI PUSH2 0x2DBD PUSH2 0x1FCE JUMP JUMPDEST JUMPDEST PUSH1 0x0 PUSH2 0x2DCC DUP5 DUP3 DUP6 ADD PUSH2 0x2D93 JUMP JUMPDEST SWAP2 POP POP SWAP3 SWAP2 POP POP JUMP JUMPDEST PUSH1 0x0 PUSH1 0x60 DUP3 ADD SWAP1 POP PUSH2 0x2DEA PUSH1 0x0 DUP4 ADD DUP7 PUSH2 0x25DB JUMP JUMPDEST PUSH2 0x2DF7 PUSH1 0x20 DUP4 ADD DUP6 PUSH2 0x25DB JUMP JUMPDEST PUSH2 0x2E04 PUSH1 0x40 DUP4 ADD DUP5 PUSH2 0x238A JUMP JUMPDEST SWAP5 SWAP4 POP POP POP POP JUMP JUMPDEST PUSH32 0x496E636F72726563742045544820616D6F756E74000000000000000000000000 PUSH1 0x0 DUP3 ADD MSTORE POP JUMP JUMPDEST PUSH1 0x0 PUSH2 0x2E42 PUSH1 0x14 DUP4 PUSH2 0x248E JUMP JUMPDEST SWAP2 POP PUSH2 0x2E4D DUP3 PUSH2 0x2E0C JUMP JUMPDEST PUSH1 0x20 DUP3 ADD SWAP1 POP SWAP2 SWAP1 POP JUMP JUMPDEST PUSH1 0x0 PUSH1 0x20 DUP3 ADD SWAP1 POP DUP2 DUP2 SUB PUSH1 0x0 DUP4 ADD MSTORE PUSH2 0x2E71 DUP2 PUSH2 0x2E35 JUMP JUMPDEST SWAP1 POP SWAP2 SWAP1 POP JUMP JUMPDEST PUSH32 0x417373657420616C726561647920657869737473000000000000000000000000 PUSH1 0x0 DUP3 ADD MSTORE POP JUMP JUMPDEST PUSH1 0x0 PUSH2 0x2EAE PUSH1 0x14 DUP4 PUSH2 0x248E JUMP JUMPDEST SWAP2 POP PUSH2 0x2EB9 DUP3 PUSH2 0x2E78 JUMP JUMPDEST PUSH1 0x20 DUP3 ADD SWAP1 POP SWAP2 SWAP1 POP JUMP JUMPDEST PUSH1 0x0 PUSH1 0x20 DUP3 ADD SWAP1 POP DUP2 DUP2 SUB PUSH1 0x0 DUP4 ADD MSTORE PUSH2 0x2EDD DUP2 PUSH2 0x2EA1 JUMP JUMPDEST SWAP1 POP SWAP2 SWAP1 POP JUMP JUMPDEST PUSH32 0x546F74616C207765696768742065786365656473203130302500000000000000 PUSH1 0x0 DUP3 ADD MSTORE POP JUMP JUMPDEST PUSH1 0x0 PUSH2 0x2F1A PUSH1 0x19 DUP4 PUSH2 0x248E JUMP JUMPDEST SWAP2 POP PUSH2 0x2F25 DUP3 PUSH2 0x2EE4 JUMP JUMPDEST PUSH1 0x20 DUP3 ADD SWAP1 POP SWAP2 SWAP1 POP JUMP JUMPDEST PUSH1 0x0 PUSH1 0x20 DUP3 ADD SWAP1 POP DUP2 DUP2 SUB PUSH1 0x0 DUP4 ADD MSTORE PUSH2 0x2F49 DUP2 PUSH2 0x2F0D JUMP JUMPDEST SWAP1 POP SWAP2 SWAP1 POP JUMP JUMPDEST PUSH1 0x0 DUP2 SWAP1 POP DUP2 PUSH1 0x0 MSTORE PUSH1 0x20 PUSH1 0x0 KECCAK256 SWAP1 POP SWAP2 SWAP1 POP JUMP JUMPDEST PUSH1 0x0 PUSH1 0x20 PUSH1 0x1F DUP4 ADD DIV SWAP1 POP SWAP2 SWAP1 POP JUMP JUMPDEST PUSH1 0x0 DUP3 DUP3 SHL SWAP1 POP SWAP3 SWAP2 POP POP JUMP JUMPDEST PUSH1 0x0 PUSH1 0x8 DUP4 MUL PUSH2 0x2FB2 PUSH32 0xFFFFFFFFFFFFFFFFFFFFFFFFFFFFFFFFFFFFFFFFFFFFFFFFFFFFFFFFFFFFFFFF DUP3 PUSH2 0x2F75 JUMP JUMPDEST PUSH2 0x2FBC DUP7 DUP4 PUSH2 0x2F75 JUMP JUMPDEST SWAP6 POP DUP1 NOT DUP5 AND SWAP4 POP DUP1 DUP7 AND DUP5 OR SWAP3 POP POP POP SWAP4 SWAP3 POP POP POP JUMP JUMPDEST PUSH1 0x0 PUSH2 0x2FEF PUSH2 0x2FEA PUSH2 0x2FE5 DUP5 PUSH2 0x21D9 JUMP JUMPDEST PUSH2 0x2310 JUMP JUMPDEST PUSH2 0x21D9 JUMP JUMPDEST SWAP1 POP SWAP2 SWAP1 POP JUMP JUMPDEST PUSH1 0x0 DUP2 SWAP1 POP SWAP2 SWAP1 POP JUMP JUMPDEST PUSH2 0x3009 DUP4 PUSH2 0x2FD4 JUMP JUMPDEST PUSH2 0x301D PUSH2 0x3015 DUP3 PUSH2 0x2FF6 JUMP JUMPDEST DUP5 DUP5 SLOAD PUSH2 0x2F82 JUMP JUMPDEST DUP3 SSTORE POP POP POP POP JUMP JUMPDEST PUSH1 0x0 SWAP1 JUMP JUMPDEST PUSH2 0x3032 PUSH2 0x3025 JUMP JUMPDEST PUSH2 0x303D DUP2 DUP5 DUP5 PUSH2 0x3000 JUMP JUMPDEST POP POP POP JUMP JUMPDEST JUMPDEST DUP2 DUP2 LT ISZERO PUSH2 0x3061 JUMPI PUSH2 0x3056 PUSH1 0x0 DUP3 PUSH2 0x302A JUMP JUMPDEST PUSH1 0x1 DUP2 ADD SWAP1 POP PUSH2 0x3043 JUMP JUMPDEST POP POP JUMP JUMPDEST PUSH1 0x1F DUP3 GT ISZERO PUSH2 0x30A6 JUMPI PUSH2 0x3077 DUP2 PUSH2 0x2F50 JUMP JUMPDEST PUSH2 0x3080 DUP5 PUSH2 0x2F65 JUMP JUMPDEST DUP2 ADD PUSH1 0x20 DUP6 LT ISZERO PUSH2 0x308F JUMPI DUP2 SWAP1 POP JUMPDEST PUSH2 0x30A3 PUSH2 0x309B DUP6 PUSH2 0x2F65 JUMP JUMPDEST DUP4 ADD DUP3 PUSH2 0x3042 JUMP JUMPDEST POP POP JUMPDEST POP POP POP JUMP JUMPDEST PUSH1 0x0 DUP3 DUP3 SHR SWAP1 POP SWAP3 SWAP2 POP POP JUMP JUMPDEST PUSH1 0x0 PUSH2 0x30C9 PUSH1 0x0 NOT DUP5 PUSH1 0x8 MUL PUSH2 0x30AB JUMP JUMPDEST NOT DUP1 DUP4 AND SWAP2 POP POP SWAP3 SWAP2 POP POP JUMP JUMPDEST PUSH1 0x0 PUSH2 0x30E2 DUP4 DUP4 PUSH2 0x30B8 JUMP JUMPDEST SWAP2 POP DUP3 PUSH1 0x2 MUL DUP3 OR SWAP1 POP SWAP3 SWAP2 POP POP JUMP JUMPDEST PUSH2 0x30FB DUP3 PUSH2 0x2483 JUMP JUMPDEST PUSH8 0xFFFFFFFFFFFFFFFF DUP2 GT ISZERO PUSH2 0x3114 JUMPI PUSH2 0x3113 PUSH2 0x20AE JUMP JUMPDEST JUMPDEST PUSH2 0x311E DUP3 SLOAD PUSH2 0x2C5F JUMP JUMPDEST PUSH2 0x3129 DUP3 DUP3 DUP6 PUSH2 0x3065 JUMP JUMPDEST PUSH1 0x0 PUSH1 0x20 SWAP1 POP PUSH1 0x1F DUP4 GT PUSH1 0x1 DUP2 EQ PUSH2 0x315C JUMPI PUSH1 0x0 DUP5 ISZERO PUSH2 0x314A JUMPI DUP3 DUP8 ADD MLOAD SWAP1 POP JUMPDEST PUSH2 0x3154 DUP6 DUP3 PUSH2 0x30D6 JUMP JUMPDEST DUP7 SSTORE POP PUSH2 0x31BC JUMP JUMPDEST PUSH1 0x1F NOT DUP5 AND PUSH2 0x316A DUP7 PUSH2 0x2F50 JUMP JUMPDEST PUSH1 0x0 JUMPDEST DUP3 DUP2 LT ISZERO PUSH2 0x3192 JUMPI DUP5 DUP10 ADD MLOAD DUP3 SSTORE PUSH1 0x1 DUP3 ADD SWAP2 POP PUSH1 0x20 DUP6 ADD SWAP5 POP PUSH1 0x20 DUP2 ADD SWAP1 POP PUSH2 0x316D JUMP JUMPDEST DUP7 DUP4 LT ISZERO PUSH2 0x31AF JUMPI DUP5 DUP10 ADD MLOAD PUSH2 0x31AB PUSH1 0x1F DUP10 AND DUP3 PUSH2 0x30B8 JUMP JUMPDEST DUP4 SSTORE POP JUMPDEST PUSH1 0x1 PUSH1 0x2 DUP9 MUL ADD DUP9 SSTORE POP POP POP JUMPDEST POP POP POP POP POP POP JUMP JUMPDEST PUSH1 0x0 PUSH1 0x60 DUP3 ADD SWAP1 POP DUP2 DUP2 SUB PUSH1 0x0 DUP4 ADD MSTORE PUSH2 0x31DE DUP2 DUP7 PUSH2 0x24C9 JUMP JUMPDEST SWAP1 POP PUSH2 0x31ED PUSH1 0x20 DUP4 ADD DUP6 PUSH2 0x25CC JUMP JUMPDEST PUSH2 0x31FA PUSH1 0x40 DUP4 ADD DUP5 PUSH2 0x238A JUMP JUMPDEST SWAP5 SWAP4 POP POP POP POP JUMP JUMPDEST PUSH1 0x0 PUSH1 0x40 DUP3 ADD SWAP1 POP DUP2 DUP2 SUB PUSH1 0x0 DUP4 ADD MSTORE PUSH2 0x321C DUP2 DUP6 PUSH2 0x24C9 JUMP JUMPDEST SWAP1 POP PUSH2 0x322B PUSH1 0x20 DUP4 ADD DUP5 PUSH2 0x238A JUMP JUMPDEST SWAP4 SWAP3 POP POP POP JUMP JUMPDEST PUSH1 0x0 PUSH1 0x60 DUP3 ADD SWAP1 POP DUP2 DUP2 SUB PUSH1 0x0 DUP4 ADD MSTORE PUSH2 0x324C DUP2 DUP7 PUSH2 0x24C9 JUMP JUMPDEST SWAP1 POP PUSH2 0x325B PUSH1 0x20 DUP4 ADD DUP6 PUSH2 0x238A JUMP JUMPDEST PUSH2 0x3268 PUSH1 0x40 DUP4 ADD DUP5 PUSH2 0x238A JUMP JUMPDEST SWAP5 SWAP4 POP POP POP POP JUMP JUMPDEST PUSH1 0x0 PUSH1 0x40 DUP3 ADD SWAP1 POP PUSH2 0x3285 PUSH1 0x0 DUP4 ADD DUP6 PUSH2 0x25DB JUMP JUMPDEST PUSH2 0x3292 PUSH1 0x20 DUP4 ADD DUP5 PUSH2 0x22E6 JUMP JUMPDEST SWAP4 SWAP3 POP POP POP JUMP INVALID LOG2 PUSH5 0x6970667358 0x22 SLT KECCAK256 0xC0 SWAP15 PUSH21 0x98A9B9A83419ACC30AF505055699245CA40D48EAAE 0xE6 KECCAK256 SHR 0xC8 PUSH28 0xAEB9A664736F6C634300081400330000000000000000000000000000 "},"methodIdentifiers":{"DEFAULT_ADMIN_ROLE()":"a217fddf","MANAGER_ROLE()":"ec87621c","ORACLE_ROLE()":"07e2cea5","REBALANCER_ROLE()":"490b48f8","WEIGHT_PRECISION()":"7001f4bb","addAsset(string,uint8,address,uint256,uint256)":"ebca5825","assetSymbols(uint256)":"25c8a5ff","collateralAssets(string)":"6c879198","depositCollateral(string,uint256)":"c63e3835","executeRebalance()":"9bb71aef","getAssetCount()":"a0aead4d","getAssetCurrentWeight(string)":"20ed870f","getRoleAdmin(bytes32)":"248a9ca3","getTotalCollateralValue()":"ed6493af","getTotalTargetWeight()":"1ec747c9","globeToken()":"09ba1587","grantRole(bytes32,address)":"2f2ff15d","hasRole(bytes32,address)":"91d14854","isRebalancingNeeded()":"1a830fce","rebalanceThreshold()":"3dfe9f6a","renounceRole(bytes32,address)":"36568abe","revokeRole(bytes32,address)":"d547741f","supportsInterface(bytes4)":"01ffc9a7","updateAssetPrice(string,uint256)":"f679e2bb","withdrawCollateral(string,uint256,address)":"06ef62c1"}}}}}