{"contracts/GlobePayToken.sol":{"GlobePayToken":{"abi":[{"inputs":[],"stateMutability":"nonpayable","type":"constructor"},{"inputs":[],"name":"AccessControlBadConfirmation","type":"error"},{"inputs":[{"internalType":"address","name":"account","type":"address"},{"internalType":"bytes32","name":"neededRole","type":"bytes32"}],"name":"AccessControlUnauthorizedAccount","type":"error"},{"inputs":[{"internalType":"address","name":"spender","type":"address"},{"internalType":"uint256","name":"allowance","type":"uint256"},{"internalType":"uint256","name":"needed","type":"uint256"}],"name":"ERC20InsufficientAllowance","type":"error"},{"inputs":[{"internalType":"address","name":"sender","type":"address"},{"internalType":"uint256","name":"balance","type":"uint256"},{"internalType":"uint256","name":"needed","type":"uint256"}],"name":"ERC20InsufficientBalance","type":"error"},{"inputs":[{"internalType":"address","name":"approver","type":"address"}],"name":"ERC20InvalidApprover","type":"error"},{"inputs":[{"internalType":"address","name":"receiver","type":"address"}],"name":"ERC20InvalidReceiver","type":"error"},{"inputs":[{"internalType":"address","name":"sender","type":"address"}],"name":"ERC20InvalidSender","type":"error"},{"inputs":[{"internalType":"address","name":"spender","type":"address"}],"name":"ERC20InvalidSpender","type":"error"},{"inputs":[],"name":"EnforcedPause","type":"error"},{"inputs":[],"name":"ExpectedPause","type":"error"},{"anonymous":false,"inputs":[{"indexed":true,"internalType":"address","name":"owner","type":"address"},{"indexed":true,"internalType":"address","name":"spender","type":"address"},{"indexed":false,"internalType":"uint256","name":"value","type":"uint256"}],"name":"Approval","type":"event"},{"anonymous":false,"inputs":[{"indexed":true,"internalType":"string","name":"assetKey","type":"string"},{"indexed":false,"internalType":"uint256","name":"amount","type":"uint256"}],"name":"CollateralAdded","type":"event"},{"anonymous":false,"inputs":[{"indexed":true,"internalType":"string","name":"assetKey","type":"string"},{"indexed":false,"internalType":"uint256","name":"amount","type":"uint256"}],"name":"CollateralRemoved","type":"event"},{"anonymous":false,"inputs":[{"indexed":true,"internalType":"string","name":"assetKey","type":"string"},{"indexed":false,"internalType":"uint256","name":"newWeight","type":"uint256"}],"name":"CollateralWeightUpdated","type":"event"},{"anonymous":false,"inputs":[{"indexed":true,"internalType":"bytes32","name":"transactionHash","type":"bytes32"},{"indexed":true,"internalType":"address","name":"from","type":"address"},{"indexed":true,"internalType":"address","name":"to","type":"address"},{"indexed":false,"internalType":"uint256","name":"amount","type":"uint256"}],"name":"OfflineTransactionProcessed","type":"event"},{"anonymous":false,"inputs":[{"indexed":true,"internalType":"bytes32","name":"transactionHash","type":"bytes32"},{"indexed":false,"internalType":"string","name":"reason","type":"string"}],"name":"OfflineTransactionRejected","type":"event"},{"anonymous":false,"inputs":[{"indexed":false,"internalType":"address","name":"account","type":"address"}],"name":"Paused","type":"event"},{"anonymous":false,"inputs":[{"indexed":true,"internalType":"bytes32","name":"role","type":"bytes32"},{"indexed":true,"internalType":"bytes32","name":"previousAdminRole","type":"bytes32"},{"indexed":true,"internalType":"bytes32","name":"newAdminRole","type":"bytes32"}],"name":"RoleAdminChanged","type":"event"},{"anonymous":false,"inputs":[{"indexed":true,"internalType":"bytes32","name":"role","type":"bytes32"},{"indexed":true,"internalType":"address","name":"account","type":"address"},{"indexed":true,"internalType":"address","name":"sender","type":"address"}],"name":"RoleGranted","type":"event"},{"anonymous":false,"inputs":[{"indexed":true,"internalType":"bytes32","name":"role","type":"bytes32"},{"indexed":true,"internalType":"address","name":"account","type":"address"},{"indexed":true,"internalType":"address","name":"sender","type":"address"}],"name":"RoleRevoked","type":"event"},{"anonymous":false,"inputs":[{"indexed":true,"internalType":"address","name":"from","type":"address"},{"indexed":true,"internalType":"address","name":"to","type":"address"},{"indexed":false,"internalType":"uint256","name":"value","type":"uint256"}],"name":"Transfer","type":"event"},{"anonymous":false,"inputs":[{"indexed":false,"internalType":"address","name":"account","type":"address"}],"name":"Unpaused","type":"event"},{"inputs":[],"name":"COLLATERAL_MANAGER_ROLE","outputs":[{"internalType":"bytes32","name":"","type":"bytes32"}],"stateMutability":"view","type":"function"},{"inputs":[],"name":"DEFAULT_ADMIN_ROLE","outputs":[{"internalType":"bytes32","name":"","type":"bytes32"}],"stateMutability":"view","type":"function"},{"inputs":[],"name":"MINTER_ROLE","outputs":[{"internalType":"bytes32","name":"","type":"bytes32"}],"stateMutability":"view","type":"function"},{"inputs":[],"name":"OFFLINE_VALIDATOR_ROLE","outputs":[{"internalType":"bytes32","name":"","type":"bytes32"}],"stateMutability":"view","type":"function"},{"inputs":[],"name":"PAUSER_ROLE","outputs":[{"internalType":"bytes32","name":"","type":"bytes32"}],"stateMutability":"view","type":"function"},{"inputs":[{"internalType":"string","name":"assetKey","type":"string"},{"internalType":"address","name":"tokenAddress","type":"address"},{"internalType":"uint256","name":"weight","type":"uint256"}],"name":"addCollateralAsset","outputs":[],"stateMutability":"nonpayable","type":"function"},{"inputs":[{"internalType":"address","name":"owner","type":"address"},{"internalType":"address","name":"spender","type":"address"}],"name":"allowance","outputs":[{"internalType":"uint256","name":"","type":"uint256"}],"stateMutability":"view","type":"function"},{"inputs":[{"internalType":"address","name":"spender","type":"address"},{"internalType":"uint256","name":"value","type":"uint256"}],"name":"approve","outputs":[{"internalType":"bool","name":"","type":"bool"}],"stateMutability":"nonpayable","type":"function"},{"inputs":[{"internalType":"uint256","name":"","type":"uint256"}],"name":"assetKeys","outputs":[{"internalType":"string","name":"","type":"string"}],"stateMutability":"view","type":"function"},{"inputs":[{"internalType":"address","name":"account","type":"address"}],"name":"balanceOf","outputs":[{"internalType":"uint256","name":"","type":"uint256"}],"stateMutability":"view","type":"function"},{"inputs":[{"internalType":"uint256","name":"value","type":"uint256"}],"name":"burn","outputs":[],"stateMutability":"nonpayable","type":"function"},{"inputs":[{"internalType":"address","name":"account","type":"address"},{"internalType":"uint256","name":"value","type":"uint256"}],"name":"burnFrom","outputs":[],"stateMutability":"nonpayable","type":"function"},{"inputs":[{"internalType":"string","name":"","type":"string"}],"name":"collateralBasket","outputs":[{"internalType":"address","name":"tokenAddress","type":"address"},{"internalType":"uint256","name":"weight","type":"uint256"},{"internalType":"uint256","name":"totalAmount","type":"uint256"},{"internalType":"bool","name":"isActive","type":"bool"}],"stateMutability":"view","type":"function"},{"inputs":[],"name":"decimals","outputs":[{"internalType":"uint8","name":"","type":"uint8"}],"stateMutability":"view","type":"function"},{"inputs":[{"internalType":"bytes32","name":"","type":"bytes32"}],"name":"executedOfflineTransactions","outputs":[{"internalType":"bool","name":"","type":"bool"}],"stateMutability":"view","type":"function"},{"inputs":[],"name":"getCollateralAssetsCount","outputs":[{"internalType":"uint256","name":"","type":"uint256"}],"stateMutability":"view","type":"function"},{"inputs":[{"internalType":"address","name":"user","type":"address"}],"name":"getNextNonce","outputs":[{"internalType":"uint256","name":"","type":"uint256"}],"stateMutability":"view","type":"function"},{"inputs":[{"internalType":"bytes32","name":"role","type":"bytes32"}],"name":"getRoleAdmin","outputs":[{"internalType":"bytes32","name":"","type":"bytes32"}],"stateMutability":"view","type":"function"},{"inputs":[{"internalType":"bytes32","name":"role","type":"bytes32"},{"internalType":"address","name":"account","type":"address"}],"name":"grantRole","outputs":[],"stateMutability":"nonpayable","type":"function"},{"inputs":[{"internalType":"bytes32","name":"role","type":"bytes32"},{"internalType":"address","name":"account","type":"address"}],"name":"hasRole","outputs":[{"internalType":"bool","name":"","type":"bool"}],"stateMutability":"view","type":"function"},{"inputs":[{"internalType":"address","name":"to","type":"address"},{"internalType":"uint256","name":"amount","type":"uint256"}],"name":"mint","outputs":[],"stateMutability":"nonpayable","type":"function"},{"inputs":[],"name":"name","outputs":[{"internalType":"string","name":"","type":"string"}],"stateMutability":"view","type":"function"},{"inputs":[],"name":"pause","outputs":[],"stateMutability":"nonpayable","type":"function"},{"inputs":[],"name":"paused","outputs":[{"internalType":"bool","name":"","type":"bool"}],"stateMutability":"view","type":"function"},{"inputs":[{"components":[{"internalType":"bytes32","name":"txHash","type":"bytes32"},{"internalType":"address","name":"from","type":"address"},{"internalType":"address","name":"to","type":"address"},{"internalType":"uint256","name":"amount","type":"uint256"},{"internalType":"uint256","name":"nonce","type":"uint256"},{"internalType":"uint256","name":"timestamp","type":"uint256"},{"internalType":"bytes","name":"signature","type":"bytes"}],"internalType":"struct GlobePayToken.OfflineTx","name":"txData","type":"tuple"}],"name":"processOfflineTransaction","outputs":[],"stateMutability":"nonpayable","type":"function"},{"inputs":[{"internalType":"bytes32","name":"role","type":"bytes32"},{"internalType":"address","name":"callerConfirmation","type":"address"}],"name":"renounceRole","outputs":[],"stateMutability":"nonpayable","type":"function"},{"inputs":[{"internalType":"bytes32","name":"role","type":"bytes32"},{"internalType":"address","name":"account","type":"address"}],"name":"revokeRole","outputs":[],"stateMutability":"nonpayable","type":"function"},{"inputs":[{"internalType":"bytes4","name":"interfaceId","type":"bytes4"}],"name":"supportsInterface","outputs":[{"internalType":"bool","name":"","type":"bool"}],"stateMutability":"view","type":"function"},{"inputs":[],"name":"symbol","outputs":[{"internalType":"string","name":"","type":"string"}],"stateMutability":"view","type":"function"},{"inputs":[],"name":"totalSupply","outputs":[{"internalType":"uint256","name":"","type":"uint256"}],"stateMutability":"view","type":"function"},{"inputs":[],"name":"totalWeight","outputs":[{"internalType":"uint256","name":"","type":"uint256"}],"stateMutability":"view","type":"function"},{"inputs":[{"internalType":"address","name":"to","type":"address"},{"internalType":"uint256","name":"value","type":"uint256"}],"name":"transfer","outputs":[{"internalType":"bool","name":"","type":"bool"}],"stateMutability":"nonpayable","type":"function"},{"inputs":[{"internalType":"address","name":"from","type":"address"},{"internalType":"address","name":"to","type":"address"},{"internalType":"uint256","name":"value","type":"uint256"}],"name":"transferFrom","outputs":[{"internalType":"bool","name":"","type":"bool"}],"stateMutability":"nonpayable","type":"function"},{"inputs":[],"name":"unpause","outputs":[],"stateMutability":"nonpayable","type":"function"},{"inputs":[{"internalType":"string","name":"assetKey","type":"string"},{"internalType":"uint256","name":"newWeight","type":"uint256"}],"name":"updateCollateralWeight","outputs":[],"stateMutability":"nonpayable","type":"function"},{"inputs":[{"internalType":"address","name":"","type":"address"}],"name":"userNonces","outputs":[{"internalType":"uint256","name":"","type":"uint256"}],"stateMutability":"view","type":"function"}],"evm":{"bytecode":{"linkReferences":{},"object":"60806040523480156200001157600080fd5b506040518060400160405280601381526020017f476c6f626550617920537461626c65636f696e000000000000000000000000008152506040518060400160405280600581526020017f474c4f424500000000000000000000000000000000000000000000000000000081525081600390816200008f91906200057d565b508060049081620000a191906200057d565b505050620000b96000801b336200018c60201b60201c565b50620000ec7f9f2df0fed2c77648de5860a4cc508cd0818c85b8b8a1ab4ceeef8d981c8956a6336200018c60201b60201c565b506200011f7f65d7a28e3265b37a6474929f336521b332c1681b933f6cb9f3376673440d862a336200018c60201b60201c565b50620001527f85e8f2d6819d6b24108062d87ea08f54651bcb8960d98062d3faf96e7873b8b9336200018c60201b60201c565b50620001857f744cf4b8e8f90c89e1ac1360e9492bc7e8cb1d144d5768b7136ea592faa60a6b336200018c60201b60201c565b5062000664565b6000620001a083836200029060201b60201c565b620002855760016005600085815260200190815260200160002060000160008473ffffffffffffffffffffffffffffffffffffffff1673ffffffffffffffffffffffffffffffffffffffff16815260200190815260200160002060006101000a81548160ff02191690831515021790555062000221620002fb60201b60201c565b73ffffffffffffffffffffffffffffffffffffffff168273ffffffffffffffffffffffffffffffffffffffff16847f2f8788117e7eff1d82e926ec794901d17c78024a50270940304540a733656f0d60405160405180910390a4600190506200028a565b600090505b92915050565b60006005600084815260200190815260200160002060000160008373ffffffffffffffffffffffffffffffffffffffff1673ffffffffffffffffffffffffffffffffffffffff16815260200190815260200160002060009054906101000a900460ff16905092915050565b600033905090565b600081519050919050565b7f4e487b7100000000000000000000000000000000000000000000000000000000600052604160045260246000fd5b7f4e487b7100000000000000000000000000000000000000000000000000000000600052602260045260246000fd5b600060028204905060018216806200038557607f821691505b6020821081036200039b576200039a6200033d565b5b50919050565b60008190508160005260206000209050919050565b60006020601f8301049050919050565b600082821b905092915050565b600060088302620004057fffffffffffffffffffffffffffffffffffffffffffffffffffffffffffffffff82620003c6565b620004118683620003c6565b95508019841693508086168417925050509392505050565b6000819050919050565b6000819050919050565b60006200045e62000458620004528462000429565b62000433565b62000429565b9050919050565b6000819050919050565b6200047a836200043d565b62000492620004898262000465565b848454620003d3565b825550505050565b600090565b620004a96200049a565b620004b68184846200046f565b505050565b5b81811015620004de57620004d26000826200049f565b600181019050620004bc565b5050565b601f8211156200052d57620004f781620003a1565b6200050284620003b6565b8101602085101562000512578190505b6200052a6200052185620003b6565b830182620004bb565b50505b505050565b600082821c905092915050565b6000620005526000198460080262000532565b1980831691505092915050565b60006200056d83836200053f565b9150826002028217905092915050565b620005888262000303565b67ffffffffffffffff811115620005a457620005a36200030e565b5b620005b082546200036c565b620005bd828285620004e2565b600060209050601f831160018114620005f55760008415620005e0578287015190505b620005ec85826200055f565b8655506200065c565b601f1984166200060586620003a1565b60005b828110156200062f5784890151825560018201915060208501945060208101905062000608565b868310156200064f57848901516200064b601f8916826200053f565b8355505b6001600288020188555050505b505050505050565b6131b180620006746000396000f3fe608060405234801561001057600080fd5b506004361061021c5760003560e01c8063671a34b011610125578063a217fddf116100ad578063d547741f1161007c578063d547741f14610653578063d67ddd171461066f578063dd62ed3e1461068b578063e479d559146106bb578063e63ab1e9146106ee5761021c565b8063a217fddf146105cb578063a9059cbb146105e9578063d1dd20da14610619578063d5391393146106355761021c565b806390193b7c116100f457806390193b7c146104ff57806391d148541461052f57806395d89b411461055f57806396c82e571461057d57806399bb60851461059b5761021c565b8063671a34b01461048b57806370a08231146104a957806379cc6790146104d95780638456cb59146104f55761021c565b80632f2ff15d116101a85780633f4ba83a116101775780633f4ba83a146103fb5780633fb1fae11461040557806340c10f191461043557806342966c68146104515780635c975abb1461046d5761021c565b80632f2ff15d146103755780632f7801f414610391578063313ce567146103c157806336568abe146103df5761021c565b806318a11e71116101ef57806318a11e71146102bd5780631e5a7bd2146102d957806323b872dd146102f7578063248a9ca3146103275780632e718ab7146103575761021c565b806301ffc9a71461022157806306fdde0314610251578063095ea7b31461026f57806318160ddd1461029f575b600080fd5b61023b600480360381019061023691906120a9565b61070c565b60405161024891906120f1565b60405180910390f35b610259610786565b604051610266919061219c565b60405180910390f35b61028960048036038101906102849190612252565b610818565b60405161029691906120f1565b60405180910390f35b6102a761083b565b6040516102b491906122a1565b60405180910390f35b6102d760048036038101906102d29190612501565b610845565b005b6102e1610b05565b6040516102ee91906122a1565b60405180910390f35b610311600480360381019061030c919061254a565b610b12565b60405161031e91906120f1565b60405180910390f35b610341600480360381019061033c919061259d565b610b41565b60405161034e91906125d9565b60405180910390f35b61035f610b61565b60405161036c91906125d9565b60405180910390f35b61038f600480360381019061038a91906125f4565b610b85565b005b6103ab60048036038101906103a69190612634565b610ba7565b6040516103b891906122a1565b60405180910390f35b6103c9610bbf565b6040516103d6919061267d565b60405180910390f35b6103f960048036038101906103f491906125f4565b610bc8565b005b610403610c43565b005b61041f600480360381019061041a9190612698565b610c78565b60405161042c919061219c565b60405180910390f35b61044f600480360381019061044a9190612252565b610d24565b005b61046b60048036038101906104669190612698565b610d5d565b005b610475610d71565b60405161048291906120f1565b60405180910390f35b610493610d88565b6040516104a091906125d9565b60405180910390f35b6104c360048036038101906104be9190612634565b610dac565b6040516104d091906122a1565b60405180910390f35b6104f360048036038101906104ee9190612252565b610df4565b005b6104fd610e14565b005b61051960048036038101906105149190612634565b610e49565b60405161052691906122a1565b60405180910390f35b610549600480360381019061054491906125f4565b610e92565b60405161055691906120f1565b60405180910390f35b610567610efd565b604051610574919061219c565b60405180910390f35b610585610f8f565b60405161059291906122a1565b60405180910390f35b6105b560048036038101906105b0919061259d565b610f95565b6040516105c291906120f1565b60405180910390f35b6105d3610fb5565b6040516105e091906125d9565b60405180910390f35b61060360048036038101906105fe9190612252565b610fbc565b60405161061091906120f1565b60405180910390f35b610633600480360381019061062e9190612766565b610fdf565b005b61063d611242565b60405161064a91906125d9565b60405180910390f35b61066d600480360381019061066891906125f4565b611266565b005b610689600480360381019061068491906127d5565b611288565b005b6106a560048036038101906106a09190612831565b611429565b6040516106b291906122a1565b60405180910390f35b6106d560048036038101906106d09190612871565b6114b0565b6040516106e594939291906128c9565b60405180910390f35b6106f6611523565b60405161070391906125d9565b60405180910390f35b60007f7965db0b000000000000000000000000000000000000000000000000000000007bffffffffffffffffffffffffffffffffffffffffffffffffffffffff1916827bffffffffffffffffffffffffffffffffffffffffffffffffffffffff1916148061077f575061077e82611547565b5b9050919050565b6060600380546107959061293d565b80601f01602080910402602001604051908101604052809291908181526020018280546107c19061293d565b801561080e5780601f106107e35761010080835404028352916020019161080e565b820191906000526020600020905b8154815290600101906020018083116107f157829003601f168201915b5050505050905090565b6000806108236115b1565b90506108308185856115b9565b600191505092915050565b6000600254905090565b7f744cf4b8e8f90c89e1ac1360e9492bc7e8cb1d144d5768b7136ea592faa60a6b61086f816115cb565b600a60008360000151815260200190815260200160002060009054906101000a900460ff16156108d4576040517f08c379a00000000000000000000000000000000000000000000000000000000081526004016108cb906129ba565b60405180910390fd5b600082602001518360400151846060015185608001518660a00151604051602001610903959493929190612a43565b60405160208183030381529060405280519060200120905082600001518114610961576040517f08c379a000000000000000000000000000000000000000000000000000000000815260040161095890612aee565b60405180910390fd5b600b6000846020015173ffffffffffffffffffffffffffffffffffffffff1673ffffffffffffffffffffffffffffffffffffffff168152602001908152602001600020548360800151146109ea576040517f08c379a00000000000000000000000000000000000000000000000000000000081526004016109e190612b5a565b60405180910390fd5b610a018360200151846040015185606001516115df565b6001600a60008560000151815260200190815260200160002060006101000a81548160ff021916908315150217905550600b6000846020015173ffffffffffffffffffffffffffffffffffffffff1673ffffffffffffffffffffffffffffffffffffffff1681526020019081526020016000206000815480929190610a8590612ba9565b9190505550826040015173ffffffffffffffffffffffffffffffffffffffff16836020015173ffffffffffffffffffffffffffffffffffffffff1684600001517f2aa084801729d4b2beccbbdfa2266a93494c878a7fee69ffbcb37efd9f5abd928660600151604051610af891906122a1565b60405180910390a4505050565b6000600880549050905090565b600080610b1d6115b1565b9050610b2a8582856116d3565b610b358585856115df565b60019150509392505050565b600060056000838152602001908152602001600020600101549050919050565b7f85e8f2d6819d6b24108062d87ea08f54651bcb8960d98062d3faf96e7873b8b981565b610b8e82610b41565b610b97816115cb565b610ba18383611768565b50505050565b600b6020528060005260406000206000915090505481565b60006012905090565b610bd06115b1565b73ffffffffffffffffffffffffffffffffffffffff168173ffffffffffffffffffffffffffffffffffffffff1614610c34576040517f6697b23200000000000000000000000000000000000000000000000000000000815260040160405180910390fd5b610c3e828261185a565b505050565b7f65d7a28e3265b37a6474929f336521b332c1681b933f6cb9f3376673440d862a610c6d816115cb565b610c7561194d565b50565b60088181548110610c8857600080fd5b906000526020600020016000915090508054610ca39061293d565b80601f0160208091040260200160405190810160405280929190818152602001828054610ccf9061293d565b8015610d1c5780601f10610cf157610100808354040283529160200191610d1c565b820191906000526020600020905b815481529060010190602001808311610cff57829003601f168201915b505050505081565b7f9f2df0fed2c77648de5860a4cc508cd0818c85b8b8a1ab4ceeef8d981c8956a6610d4e816115cb565b610d5883836119b0565b505050565b610d6e610d686115b1565b82611a32565b50565b6000600660009054906101000a900460ff16905090565b7f744cf4b8e8f90c89e1ac1360e9492bc7e8cb1d144d5768b7136ea592faa60a6b81565b60008060008373ffffffffffffffffffffffffffffffffffffffff1673ffffffffffffffffffffffffffffffffffffffff168152602001908152602001600020549050919050565b610e0682610e006115b1565b836116d3565b610e108282611a32565b5050565b7f65d7a28e3265b37a6474929f336521b332c1681b933f6cb9f3376673440d862a610e3e816115cb565b610e46611ab4565b50565b6000600b60008373ffffffffffffffffffffffffffffffffffffffff1673ffffffffffffffffffffffffffffffffffffffff168152602001908152602001600020549050919050565b60006005600084815260200190815260200160002060000160008373ffffffffffffffffffffffffffffffffffffffff1673ffffffffffffffffffffffffffffffffffffffff16815260200190815260200160002060009054906101000a900460ff16905092915050565b606060048054610f0c9061293d565b80601f0160208091040260200160405190810160405280929190818152602001828054610f389061293d565b8015610f855780601f10610f5a57610100808354040283529160200191610f85565b820191906000526020600020905b815481529060010190602001808311610f6857829003601f168201915b5050505050905090565b60095481565b600a6020528060005260406000206000915054906101000a900460ff1681565b6000801b81565b600080610fc76115b1565b9050610fd48185856115df565b600191505092915050565b7f85e8f2d6819d6b24108062d87ea08f54651bcb8960d98062d3faf96e7873b8b9611009816115cb565b6007846040516110199190612c2d565b908152602001604051809103902060030160009054906101000a900460ff1615611078576040517f08c379a000000000000000000000000000000000000000000000000000000000815260040161106f90612c90565b60405180910390fd5b612710826009546110899190612cb0565b11156110ca576040517f08c379a00000000000000000000000000000000000000000000000000000000081526004016110c190612d30565b60405180910390fd5b60405180608001604052808473ffffffffffffffffffffffffffffffffffffffff16815260200183815260200160008152602001600115158152506007856040516111159190612c2d565b908152602001604051809103902060008201518160000160006101000a81548173ffffffffffffffffffffffffffffffffffffffff021916908373ffffffffffffffffffffffffffffffffffffffff160217905550602082015181600101556040820151816002015560608201518160030160006101000a81548160ff0219169083151502179055509050506008849080600181540180825580915050600190039060005260206000200160009091909190915090816111d59190612efc565b5081600960008282546111e89190612cb0565b92505081905550836040516111fd9190612c2d565b60405180910390207fc1315c83e7c2cde551296ae9f722a14e90b00c3ca21fb7a939d52350c021b3ba8360405161123491906122a1565b60405180910390a250505050565b7f9f2df0fed2c77648de5860a4cc508cd0818c85b8b8a1ab4ceeef8d981c8956a681565b61126f82610b41565b611278816115cb565b611282838361185a565b50505050565b7f85e8f2d6819d6b24108062d87ea08f54651bcb8960d98062d3faf96e7873b8b96112b2816115cb565b6007836040516112c29190612c2d565b908152602001604051809103902060030160009054906101000a900460ff16611320576040517f08c379a00000000000000000000000000000000000000000000000000000000081526004016113179061301a565b60405180910390fd5b60006007846040516113329190612c2d565b908152602001604051809103902060010154905060008382600954611357919061303a565b6113619190612cb0565b90506127108111156113a8576040517f08c379a000000000000000000000000000000000000000000000000000000000815260040161139f90612d30565b60405180910390fd5b836007866040516113b99190612c2d565b90815260200160405180910390206001018190555080600981905550846040516113e39190612c2d565b60405180910390207fc1315c83e7c2cde551296ae9f722a14e90b00c3ca21fb7a939d52350c021b3ba8560405161141a91906122a1565b60405180910390a25050505050565b6000600160008473ffffffffffffffffffffffffffffffffffffffff1673ffffffffffffffffffffffffffffffffffffffff16815260200190815260200160002060008373ffffffffffffffffffffffffffffffffffffffff1673ffffffffffffffffffffffffffffffffffffffff16815260200190815260200160002054905092915050565b6007818051602081018201805184825260208301602085012081835280955050505050506000915090508060000160009054906101000a900473ffffffffffffffffffffffffffffffffffffffff16908060010154908060020154908060030160009054906101000a900460ff16905084565b7f65d7a28e3265b37a6474929f336521b332c1681b933f6cb9f3376673440d862a81565b60007f01ffc9a7000000000000000000000000000000000000000000000000000000007bffffffffffffffffffffffffffffffffffffffffffffffffffffffff1916827bffffffffffffffffffffffffffffffffffffffffffffffffffffffff1916149050919050565b600033905090565b6115c68383836001611b17565b505050565b6115dc816115d76115b1565b611cee565b50565b600073ffffffffffffffffffffffffffffffffffffffff168373ffffffffffffffffffffffffffffffffffffffff16036116515760006040517f96c6fd1e000000000000000000000000000000000000000000000000000000008152600401611648919061306e565b60405180910390fd5b600073ffffffffffffffffffffffffffffffffffffffff168273ffffffffffffffffffffffffffffffffffffffff16036116c35760006040517fec442f050000000000000000000000000000000000000000000000000000000081526004016116ba919061306e565b60405180910390fd5b6116ce838383611d3f565b505050565b60006116df8484611429565b90507fffffffffffffffffffffffffffffffffffffffffffffffffffffffffffffffff8110156117625781811015611752578281836040517ffb8f41b200000000000000000000000000000000000000000000000000000000815260040161174993929190613089565b60405180910390fd5b61176184848484036000611b17565b5b50505050565b60006117748383610e92565b61184f5760016005600085815260200190815260200160002060000160008473ffffffffffffffffffffffffffffffffffffffff1673ffffffffffffffffffffffffffffffffffffffff16815260200190815260200160002060006101000a81548160ff0219169083151502179055506117ec6115b1565b73ffffffffffffffffffffffffffffffffffffffff168273ffffffffffffffffffffffffffffffffffffffff16847f2f8788117e7eff1d82e926ec794901d17c78024a50270940304540a733656f0d60405160405180910390a460019050611854565b600090505b92915050565b60006118668383610e92565b156119425760006005600085815260200190815260200160002060000160008473ffffffffffffffffffffffffffffffffffffffff1673ffffffffffffffffffffffffffffffffffffffff16815260200190815260200160002060006101000a81548160ff0219169083151502179055506118df6115b1565b73ffffffffffffffffffffffffffffffffffffffff168273ffffffffffffffffffffffffffffffffffffffff16847ff6391f5c32d9c69d2a47ea670b442974b53935d1edc7fd64eb21e047a839171b60405160405180910390a460019050611947565b600090505b92915050565b611955611d97565b6000600660006101000a81548160ff0219169083151502179055507f5db9ee0a495bf2e6ff9c91a7834c1ba4fdd244a5e8aa4e537bd38aeae4b073aa6119996115b1565b6040516119a6919061306e565b60405180910390a1565b600073ffffffffffffffffffffffffffffffffffffffff168273ffffffffffffffffffffffffffffffffffffffff1603611a225760006040517fec442f05000000000000000000000000000000000000000000000000000000008152600401611a19919061306e565b60405180910390fd5b611a2e60008383611d3f565b5050565b600073ffffffffffffffffffffffffffffffffffffffff168273ffffffffffffffffffffffffffffffffffffffff1603611aa45760006040517f96c6fd1e000000000000000000000000000000000000000000000000000000008152600401611a9b919061306e565b60405180910390fd5b611ab082600083611d3f565b5050565b611abc611dd7565b6001600660006101000a81548160ff0219169083151502179055507f62e78cea01bee320cd4e420270b5ea74000d11b0c9f74754ebdbfc544b05a258611b006115b1565b604051611b0d919061306e565b60405180910390a1565b600073ffffffffffffffffffffffffffffffffffffffff168473ffffffffffffffffffffffffffffffffffffffff1603611b895760006040517fe602df05000000000000000000000000000000000000000000000000000000008152600401611b80919061306e565b60405180910390fd5b600073ffffffffffffffffffffffffffffffffffffffff168373ffffffffffffffffffffffffffffffffffffffff1603611bfb5760006040517f94280d62000000000000000000000000000000000000000000000000000000008152600401611bf2919061306e565b60405180910390fd5b81600160008673ffffffffffffffffffffffffffffffffffffffff1673ffffffffffffffffffffffffffffffffffffffff16815260200190815260200160002060008573ffffffffffffffffffffffffffffffffffffffff1673ffffffffffffffffffffffffffffffffffffffff168152602001908152602001600020819055508015611ce8578273ffffffffffffffffffffffffffffffffffffffff168473ffffffffffffffffffffffffffffffffffffffff167f8c5be1e5ebec7d5bd14f71427d1e84f3dd0314c0f7b2291e5b200ac8c7c3b92584604051611cdf91906122a1565b60405180910390a35b50505050565b611cf88282610e92565b611d3b5780826040517fe2517d3f000000000000000000000000000000000000000000000000000000008152600401611d329291906130c0565b60405180910390fd5b5050565b611d47610d71565b15611d87576040517f08c379a0000000000000000000000000000000000000000000000000000000008152600401611d7e9061315b565b60405180910390fd5b611d92838383611e18565b505050565b611d9f610d71565b611dd5576040517f8dfc202b00000000000000000000000000000000000000000000000000000000815260040160405180910390fd5b565b611ddf610d71565b15611e16576040517fd93c066500000000000000000000000000000000000000000000000000000000815260040160405180910390fd5b565b600073ffffffffffffffffffffffffffffffffffffffff168373ffffffffffffffffffffffffffffffffffffffff1603611e6a578060026000828254611e5e9190612cb0565b92505081905550611f3d565b60008060008573ffffffffffffffffffffffffffffffffffffffff1673ffffffffffffffffffffffffffffffffffffffff16815260200190815260200160002054905081811015611ef6578381836040517fe450d38c000000000000000000000000000000000000000000000000000000008152600401611eed93929190613089565b60405180910390fd5b8181036000808673ffffffffffffffffffffffffffffffffffffffff1673ffffffffffffffffffffffffffffffffffffffff16815260200190815260200160002081905550505b600073ffffffffffffffffffffffffffffffffffffffff168273ffffffffffffffffffffffffffffffffffffffff1603611f865780600260008282540392505081905550611fd3565b806000808473ffffffffffffffffffffffffffffffffffffffff1673ffffffffffffffffffffffffffffffffffffffff168152602001908152602001600020600082825401925050819055505b8173ffffffffffffffffffffffffffffffffffffffff168373ffffffffffffffffffffffffffffffffffffffff167fddf252ad1be2c89b69c2b068fc378daa952ba7f163c4a11628f55a4df523b3ef8360405161203091906122a1565b60405180910390a3505050565b6000604051905090565b600080fd5b600080fd5b60007fffffffff0000000000000000000000000000000000000000000000000000000082169050919050565b61208681612051565b811461209157600080fd5b50565b6000813590506120a38161207d565b92915050565b6000602082840312156120bf576120be612047565b5b60006120cd84828501612094565b91505092915050565b60008115159050919050565b6120eb816120d6565b82525050565b600060208201905061210660008301846120e2565b92915050565b600081519050919050565b600082825260208201905092915050565b60005b8381101561214657808201518184015260208101905061212b565b60008484015250505050565b6000601f19601f8301169050919050565b600061216e8261210c565b6121788185612117565b9350612188818560208601612128565b61219181612152565b840191505092915050565b600060208201905081810360008301526121b68184612163565b905092915050565b600073ffffffffffffffffffffffffffffffffffffffff82169050919050565b60006121e9826121be565b9050919050565b6121f9816121de565b811461220457600080fd5b50565b600081359050612216816121f0565b92915050565b6000819050919050565b61222f8161221c565b811461223a57600080fd5b50565b60008135905061224c81612226565b92915050565b6000806040838503121561226957612268612047565b5b600061227785828601612207565b92505060206122888582860161223d565b9150509250929050565b61229b8161221c565b82525050565b60006020820190506122b66000830184612292565b92915050565b600080fd5b7f4e487b7100000000000000000000000000000000000000000000000000000000600052604160045260246000fd5b6122f982612152565b810181811067ffffffffffffffff82111715612318576123176122c1565b5b80604052505050565b600061232b61203d565b905061233782826122f0565b919050565b600080fd5b6000819050919050565b61235481612341565b811461235f57600080fd5b50565b6000813590506123718161234b565b92915050565b600080fd5b600080fd5b600067ffffffffffffffff82111561239c5761239b6122c1565b5b6123a582612152565b9050602081019050919050565b82818337600083830152505050565b60006123d46123cf84612381565b612321565b9050828152602081018484840111156123f0576123ef61237c565b5b6123fb8482856123b2565b509392505050565b600082601f83011261241857612417612377565b5b81356124288482602086016123c1565b91505092915050565b600060e08284031215612447576124466122bc565b5b61245160e0612321565b9050600061246184828501612362565b600083015250602061247584828501612207565b602083015250604061248984828501612207565b604083015250606061249d8482850161223d565b60608301525060806124b18482850161223d565b60808301525060a06124c58482850161223d565b60a08301525060c082013567ffffffffffffffff8111156124e9576124e861233c565b5b6124f584828501612403565b60c08301525092915050565b60006020828403121561251757612516612047565b5b600082013567ffffffffffffffff8111156125355761253461204c565b5b61254184828501612431565b91505092915050565b60008060006060848603121561256357612562612047565b5b600061257186828701612207565b935050602061258286828701612207565b92505060406125938682870161223d565b9150509250925092565b6000602082840312156125b3576125b2612047565b5b60006125c184828501612362565b91505092915050565b6125d381612341565b82525050565b60006020820190506125ee60008301846125ca565b92915050565b6000806040838503121561260b5761260a612047565b5b600061261985828601612362565b925050602061262a85828601612207565b9150509250929050565b60006020828403121561264a57612649612047565b5b600061265884828501612207565b91505092915050565b600060ff82169050919050565b61267781612661565b82525050565b6000602082019050612692600083018461266e565b92915050565b6000602082840312156126ae576126ad612047565b5b60006126bc8482850161223d565b91505092915050565b600067ffffffffffffffff8211156126e0576126df6122c1565b5b6126e982612152565b9050602081019050919050565b6000612709612704846126c5565b612321565b9050828152602081018484840111156127255761272461237c565b5b6127308482856123b2565b509392505050565b600082601f83011261274d5761274c612377565b5b813561275d8482602086016126f6565b91505092915050565b60008060006060848603121561277f5761277e612047565b5b600084013567ffffffffffffffff81111561279d5761279c61204c565b5b6127a986828701612738565b93505060206127ba86828701612207565b92505060406127cb8682870161223d565b9150509250925092565b600080604083850312156127ec576127eb612047565b5b600083013567ffffffffffffffff81111561280a5761280961204c565b5b61281685828601612738565b92505060206128278582860161223d565b9150509250929050565b6000806040838503121561284857612847612047565b5b600061285685828601612207565b925050602061286785828601612207565b9150509250929050565b60006020828403121561288757612886612047565b5b600082013567ffffffffffffffff8111156128a5576128a461204c565b5b6128b184828501612738565b91505092915050565b6128c3816121de565b82525050565b60006080820190506128de60008301876128ba565b6128eb6020830186612292565b6128f86040830185612292565b61290560608301846120e2565b95945050505050565b7f4e487b7100000000000000000000000000000000000000000000000000000000600052602260045260246000fd5b6000600282049050600182168061295557607f821691505b6020821081036129685761296761290e565b5b50919050565b7f5472616e73616374696f6e20616c72656164792070726f636573736564000000600082015250565b60006129a4601d83612117565b91506129af8261296e565b602082019050919050565b600060208201905081810360008301526129d381612997565b9050919050565b60008160601b9050919050565b60006129f2826129da565b9050919050565b6000612a04826129e7565b9050919050565b612a1c612a17826121de565b6129f9565b82525050565b6000819050919050565b612a3d612a388261221c565b612a22565b82525050565b6000612a4f8288612a0b565b601482019150612a5f8287612a0b565b601482019150612a6f8286612a2c565b602082019150612a7f8285612a2c565b602082019150612a8f8284612a2c565b6020820191508190509695505050505050565b7f496e76616c6964207472616e73616374696f6e20686173680000000000000000600082015250565b6000612ad8601883612117565b9150612ae382612aa2565b602082019050919050565b60006020820190508181036000830152612b0781612acb565b9050919050565b7f496e76616c6964206e6f6e636500000000000000000000000000000000000000600082015250565b6000612b44600d83612117565b9150612b4f82612b0e565b602082019050919050565b60006020820190508181036000830152612b7381612b37565b9050919050565b7f4e487b7100000000000000000000000000000000000000000000000000000000600052601160045260246000fd5b6000612bb48261221c565b91507fffffffffffffffffffffffffffffffffffffffffffffffffffffffffffffffff8203612be657612be5612b7a565b5b600182019050919050565b600081905092915050565b6000612c078261210c565b612c118185612bf1565b9350612c21818560208601612128565b80840191505092915050565b6000612c398284612bfc565b915081905092915050565b7f417373657420616c726561647920657869737473000000000000000000000000600082015250565b6000612c7a601483612117565b9150612c8582612c44565b602082019050919050565b60006020820190508181036000830152612ca981612c6d565b9050919050565b6000612cbb8261221c565b9150612cc68361221c565b9250828201905080821115612cde57612cdd612b7a565b5b92915050565b7f546f74616c207765696768742065786365656473203130302500000000000000600082015250565b6000612d1a601983612117565b9150612d2582612ce4565b602082019050919050565b60006020820190508181036000830152612d4981612d0d565b9050919050565b60008190508160005260206000209050919050565b60006020601f8301049050919050565b600082821b905092915050565b600060088302612db27fffffffffffffffffffffffffffffffffffffffffffffffffffffffffffffffff82612d75565b612dbc8683612d75565b95508019841693508086168417925050509392505050565b6000819050919050565b6000612df9612df4612def8461221c565b612dd4565b61221c565b9050919050565b6000819050919050565b612e1383612dde565b612e27612e1f82612e00565b848454612d82565b825550505050565b600090565b612e3c612e2f565b612e47818484612e0a565b505050565b5b81811015612e6b57612e60600082612e34565b600181019050612e4d565b5050565b601f821115612eb057612e8181612d50565b612e8a84612d65565b81016020851015612e99578190505b612ead612ea585612d65565b830182612e4c565b50505b505050565b600082821c905092915050565b6000612ed360001984600802612eb5565b1980831691505092915050565b6000612eec8383612ec2565b9150826002028217905092915050565b612f058261210c565b67ffffffffffffffff811115612f1e57612f1d6122c1565b5b612f28825461293d565b612f33828285612e6f565b600060209050601f831160018114612f665760008415612f54578287015190505b612f5e8582612ee0565b865550612fc6565b601f198416612f7486612d50565b60005b82811015612f9c57848901518255600182019150602085019450602081019050612f77565b86831015612fb95784890151612fb5601f891682612ec2565b8355505b6001600288020188555050505b505050505050565b7f417373657420646f6573206e6f74206578697374000000000000000000000000600082015250565b6000613004601483612117565b915061300f82612fce565b602082019050919050565b6000602082019050818103600083015261303381612ff7565b9050919050565b60006130458261221c565b91506130508361221c565b925082820390508181111561306857613067612b7a565b5b92915050565b600060208201905061308360008301846128ba565b92915050565b600060608201905061309e60008301866128ba565b6130ab6020830185612292565b6130b86040830184612292565b949350505050565b60006040820190506130d560008301856128ba565b6130e260208301846125ca565b9392505050565b7f45524332305061757361626c653a20746f6b656e207472616e7366657220776860008201527f696c652070617573656400000000000000000000000000000000000000000000602082015250565b6000613145602a83612117565b9150613150826130e9565b604082019050919050565b6000602082019050818103600083015261317481613138565b905091905056fea264697066735822122000e839329cf8bdc52fd75c7a5a5805bbea796f61c9f4d18f8aea888f465e7afb64736f6c63430008140033","opcodes":"PUSH1 0x80 PUSH1 0x40 MSTORE CALLVALUE DUP1 ISZERO PUSH3 0x11 JUMPI PUSH1 0x0 DUP1 REVERT JUMPDEST POP PUSH1 0x40 MLOAD DUP1 PUSH1 0x40 ADD PUSH1 0x40 MSTORE DUP1 PUSH1 0x13 DUP2 MSTORE PUSH1 0x20 ADD PUSH32 0x476C6F626550617920537461626C65636F696E00000000000000000000000000 DUP2 MSTORE POP PUSH1 0x40 MLOAD DUP1 PUSH1 0x40 ADD PUSH1 0x40 MSTORE DUP1 PUSH1 0x5 DUP2 MSTORE PUSH1 0x20 ADD PUSH32 0x474C4F4245000000000000000000000000000000000000000000000000000000 DUP2 MSTORE POP DUP2 PUSH1 0x3 SWAP1 DUP2 PUSH3 0x8F SWAP2 SWAP1 PUSH3 0x57D JUMP JUMPDEST POP DUP1 PUSH1 0x4 SWAP1 DUP2 PUSH3 0xA1 SWAP2 SWAP1 PUSH3 0x57D JUMP JUMPDEST POP POP POP PUSH3 0xB9 PUSH1 0x0 DUP1 SHL CALLER PUSH3 0x18C PUSH1 0x20 SHL PUSH1 0x20 SHR JUMP JUMPDEST POP PUSH3 0xEC PUSH32 0x9F2DF0FED2C77648DE5860A4CC508CD0818C85B8B8A1AB4CEEEF8D981C8956A6 CALLER PUSH3 0x18C PUSH1 0x20 SHL PUSH1 0x20 SHR JUMP JUMPDEST POP PUSH3 0x11F PUSH32 0x65D7A28E3265B37A6474929F336521B332C1681B933F6CB9F3376673440D862A CALLER PUSH3 0x18C PUSH1 0x20 SHL PUSH1 0x20 SHR JUMP JUMPDEST POP PUSH3 0x152 PUSH32 0x85E8F2D6819D6B24108062D87EA08F54651BCB8960D98062D3FAF96E7873B8B9 CALLER PUSH3 0x18C PUSH1 0x20 SHL PUSH1 0x20 SHR JUMP JUMPDEST POP PUSH3 0x185 PUSH32 0x744CF4B8E8F90C89E1AC1360E9492BC7E8CB1D144D5768B7136EA592FAA60A6B CALLER PUSH3 0x18C PUSH1 0x20 SHL PUSH1 0x20 SHR JUMP JUMPDEST POP PUSH3 0x664 JUMP JUMPDEST PUSH1 0x0 PUSH3 0x1A0 DUP4 DUP4 PUSH3 0x290 PUSH1 0x20 SHL PUSH1 0x20 SHR JUMP JUMPDEST PUSH3 0x285 JUMPI PUSH1 0x1 PUSH1 0x5 PUSH1 0x0 DUP6 DUP2 MSTORE PUSH1 0x20 ADD SWAP1 DUP2 MSTORE PUSH1 0x20 ADD PUSH1 0x0 KECCAK256 PUSH1 0x0 ADD PUSH1 0x0 DUP5 PUSH20 0xFFFFFFFFFFFFFFFFFFFFFFFFFFFFFFFFFFFFFFFF AND PUSH20 0xFFFFFFFFFFFFFFFFFFFFFFFFFFFFFFFFFFFFFFFF AND DUP2 MSTORE PUSH1 0x20 ADD SWAP1 DUP2 MSTORE PUSH1 0x20 ADD PUSH1 0x0 KECCAK256 PUSH1 0x0 PUSH2 0x100 EXP DUP2 SLOAD DUP2 PUSH1 0xFF MUL NOT AND SWAP1 DUP4 ISZERO ISZERO MUL OR SWAP1 SSTORE POP PUSH3 0x221 PUSH3 0x2FB PUSH1 0x20 SHL PUSH1 0x20 SHR JUMP JUMPDEST PUSH20 0xFFFFFFFFFFFFFFFFFFFFFFFFFFFFFFFFFFFFFFFF AND DUP3 PUSH20 0xFFFFFFFFFFFFFFFFFFFFFFFFFFFFFFFFFFFFFFFF AND DUP5 PUSH32 0x2F8788117E7EFF1D82E926EC794901D17C78024A50270940304540A733656F0D PUSH1 0x40 MLOAD PUSH1 0x40 MLOAD DUP1 SWAP2 SUB SWAP1 LOG4 PUSH1 0x1 SWAP1 POP PUSH3 0x28A JUMP JUMPDEST PUSH1 0x0 SWAP1 POP JUMPDEST SWAP3 SWAP2 POP POP JUMP JUMPDEST PUSH1 0x0 PUSH1 0x5 PUSH1 0x0 DUP5 DUP2 MSTORE PUSH1 0x20 ADD SWAP1 DUP2 MSTORE PUSH1 0x20 ADD PUSH1 0x0 KECCAK256 PUSH1 0x0 ADD PUSH1 0x0 DUP4 PUSH20 0xFFFFFFFFFFFFFFFFFFFFFFFFFFFFFFFFFFFFFFFF AND PUSH20 0xFFFFFFFFFFFFFFFFFFFFFFFFFFFFFFFFFFFFFFFF AND DUP2 MSTORE PUSH1 0x20 ADD SWAP1 DUP2 MSTORE PUSH1 0x20 ADD PUSH1 0x0 KECCAK256 PUSH1 0x0 SWAP1 SLOAD SWAP1 PUSH2 0x100 EXP SWAP1 DIV PUSH1 0xFF AND SWAP1 POP SWAP3 SWAP2 POP POP JUMP JUMPDEST PUSH1 0x0 CALLER SWAP1 POP SWAP1 JUMP JUMPDEST PUSH1 0x0 DUP2 MLOAD SWAP1 POP SWAP2 SWAP1 POP JUMP JUMPDEST PUSH32 0x4E487B7100000000000000000000000000000000000000000000000000000000 PUSH1 0x0 MSTORE PUSH1 0x41 PUSH1 0x4 MSTORE PUSH1 0x24 PUSH1 0x0 REVERT JUMPDEST PUSH32 0x4E487B7100000000000000000000000000000000000000000000000000000000 PUSH1 0x0 MSTORE PUSH1 0x22 PUSH1 0x4 MSTORE PUSH1 0x24 PUSH1 0x0 REVERT JUMPDEST PUSH1 0x0 PUSH1 0x2 DUP3 DIV SWAP1 POP PUSH1 0x1 DUP3 AND DUP1 PUSH3 0x385 JUMPI PUSH1 0x7F DUP3 AND SWAP2 POP JUMPDEST PUSH1 0x20 DUP3 LT DUP2 SUB PUSH3 0x39B JUMPI PUSH3 0x39A PUSH3 0x33D JUMP JUMPDEST JUMPDEST POP SWAP2 SWAP1 POP JUMP JUMPDEST PUSH1 0x0 DUP2 SWAP1 POP DUP2 PUSH1 0x0 MSTORE PUSH1 0x20 PUSH1 0x0 KECCAK256 SWAP1 POP SWAP2 SWAP1 POP JUMP JUMPDEST PUSH1 0x0 PUSH1 0x20 PUSH1 0x1F DUP4 ADD DIV SWAP1 POP SWAP2 SWAP1 POP JUMP JUMPDEST PUSH1 0x0 DUP3 DUP3 SHL SWAP1 POP SWAP3 SWAP2 POP POP JUMP JUMPDEST PUSH1 0x0 PUSH1 0x8 DUP4 MUL PUSH3 0x405 PUSH32 0xFFFFFFFFFFFFFFFFFFFFFFFFFFFFFFFFFFFFFFFFFFFFFFFFFFFFFFFFFFFFFFFF DUP3 PUSH3 0x3C6 JUMP JUMPDEST PUSH3 0x411 DUP7 DUP4 PUSH3 0x3C6 JUMP JUMPDEST SWAP6 POP DUP1 NOT DUP5 AND SWAP4 POP DUP1 DUP7 AND DUP5 OR SWAP3 POP POP POP SWAP4 SWAP3 POP POP POP JUMP JUMPDEST PUSH1 0x0 DUP2 SWAP1 POP SWAP2 SWAP1 POP JUMP JUMPDEST PUSH1 0x0 DUP2 SWAP1 POP SWAP2 SWAP1 POP JUMP JUMPDEST PUSH1 0x0 PUSH3 0x45E PUSH3 0x458 PUSH3 0x452 DUP5 PUSH3 0x429 JUMP JUMPDEST PUSH3 0x433 JUMP JUMPDEST PUSH3 0x429 JUMP JUMPDEST SWAP1 POP SWAP2 SWAP1 POP JUMP JUMPDEST PUSH1 0x0 DUP2 SWAP1 POP SWAP2 SWAP1 POP JUMP JUMPDEST PUSH3 0x47A DUP4 PUSH3 0x43D JUMP JUMPDEST PUSH3 0x492 PUSH3 0x489 DUP3 PUSH3 0x465 JUMP JUMPDEST DUP5 DUP5 SLOAD PUSH3 0x3D3 JUMP JUMPDEST DUP3 SSTORE POP POP POP POP JUMP JUMPDEST PUSH1 0x0 SWAP1 JUMP JUMPDEST PUSH3 0x4A9 PUSH3 0x49A JUMP JUMPDEST PUSH3 0x4B6 DUP2 DUP5 DUP5 PUSH3 0x46F JUMP JUMPDEST POP POP POP JUMP JUMPDEST JUMPDEST DUP2 DUP2 LT ISZERO PUSH3 0x4DE JUMPI PUSH3 0x4D2 PUSH1 0x0 DUP3 PUSH3 0x49F JUMP JUMPDEST PUSH1 0x1 DUP2 ADD SWAP1 POP PUSH3 0x4BC JUMP JUMPDEST POP POP JUMP JUMPDEST PUSH1 0x1F DUP3 GT ISZERO PUSH3 0x52D JUMPI PUSH3 0x4F7 DUP2 PUSH3 0x3A1 JUMP JUMPDEST PUSH3 0x502 DUP5 PUSH3 0x3B6 JUMP JUMPDEST DUP2 ADD PUSH1 0x20 DUP6 LT ISZERO PUSH3 0x512 JUMPI DUP2 SWAP1 POP JUMPDEST PUSH3 0x52A PUSH3 0x521 DUP6 PUSH3 0x3B6 JUMP JUMPDEST DUP4 ADD DUP3 PUSH3 0x4BB JUMP JUMPDEST POP POP JUMPDEST POP POP POP JUMP JUMPDEST PUSH1 0x0 DUP3 DUP3 SHR SWAP1 POP SWAP3 SWAP2 POP POP JUMP JUMPDEST PUSH1 0x0 PUSH3 0x552 PUSH1 0x0 NOT DUP5 PUSH1 0x8 MUL PUSH3 0x532 JUMP JUMPDEST NOT DUP1 DUP4 AND SWAP2 POP POP SWAP3 SWAP2 POP POP JUMP JUMPDEST PUSH1 0x0 PUSH3 0x56D DUP4 DUP4 PUSH3 0x53F JUMP JUMPDEST SWAP2 POP DUP3 PUSH1 0x2 MUL DUP3 OR SWAP1 POP SWAP3 SWAP2 POP POP JUMP JUMPDEST PUSH3 0x588 DUP3 PUSH3 0x303 JUMP JUMPDEST PUSH8 0xFFFFFFFFFFFFFFFF DUP2 GT ISZERO PUSH3 0x5A4 JUMPI PUSH3 0x5A3 PUSH3 0x30E JUMP JUMPDEST JUMPDEST PUSH3 0x5B0 DUP3 SLOAD PUSH3 0x36C JUMP JUMPDEST PUSH3 0x5BD DUP3 DUP3 DUP6 PUSH3 0x4E2 JUMP JUMPDEST PUSH1 0x0 PUSH1 0x20 SWAP1 POP PUSH1 0x1F DUP4 GT PUSH1 0x1 DUP2 EQ PUSH3 0x5F5 JUMPI PUSH1 0x0 DUP5 ISZERO PUSH3 0x5E0 JUMPI DUP3 DUP8 ADD MLOAD SWAP1 POP JUMPDEST PUSH3 0x5EC DUP6 DUP3 PUSH3 0x55F JUMP JUMPDEST DUP7 SSTORE POP PUSH3 0x65C JUMP JUMPDEST PUSH1 0x1F NOT DUP5 AND PUSH3 0x605 DUP7 PUSH3 0x3A1 JUMP JUMPDEST PUSH1 0x0 JUMPDEST DUP3 DUP2 LT ISZERO PUSH3 0x62F JUMPI DUP5 DUP10 ADD MLOAD DUP3 SSTORE PUSH1 0x1 DUP3 ADD SWAP2 POP PUSH1 0x20 DUP6 ADD SWAP5 POP PUSH1 0x20 DUP2 ADD SWAP1 POP PUSH3 0x608 JUMP JUMPDEST DUP7 DUP4 LT ISZERO PUSH3 0x64F JUMPI DUP5 DUP10 ADD MLOAD PUSH3 0x64B PUSH1 0x1F DUP10 AND DUP3 PUSH3 0x53F JUMP JUMPDEST DUP4 SSTORE POP JUMPDEST PUSH1 0x1 PUSH1 0x2 DUP9 MUL ADD DUP9 SSTORE POP POP POP JUMPDEST POP POP POP POP POP POP JUMP JUMPDEST PUSH2 0x31B1 DUP1 PUSH3 0x674 PUSH1 0x0 CODECOPY PUSH1 0x0 RETURN INVALID PUSH1 0x80 PUSH1 0x40 MSTORE CALLVALUE DUP1 ISZERO PUSH2 0x10 JUMPI PUSH1 0x0 DUP1 REVERT JUMPDEST POP PUSH1 0x4 CALLDATASIZE LT PUSH2 0x21C JUMPI PUSH1 0x0 CALLDATALOAD PUSH1 0xE0 SHR DUP1 PUSH4 0x671A34B0 GT PUSH2 0x125 JUMPI DUP1 PUSH4 0xA217FDDF GT PUSH2 0xAD JUMPI DUP1 PUSH4 0xD547741F GT PUSH2 0x7C JUMPI DUP1 PUSH4 0xD547741F EQ PUSH2 0x653 JUMPI DUP1 PUSH4 0xD67DDD17 EQ PUSH2 0x66F JUMPI DUP1 PUSH4 0xDD62ED3E EQ PUSH2 0x68B JUMPI DUP1 PUSH4 0xE479D559 EQ PUSH2 0x6BB JUMPI DUP1 PUSH4 0xE63AB1E9 EQ PUSH2 0x6EE JUMPI PUSH2 0x21C JUMP JUMPDEST DUP1 PUSH4 0xA217FDDF EQ PUSH2 0x5CB JUMPI DUP1 PUSH4 0xA9059CBB EQ PUSH2 0x5E9 JUMPI DUP1 PUSH4 0xD1DD20DA EQ PUSH2 0x619 JUMPI DUP1 PUSH4 0xD5391393 EQ PUSH2 0x635 JUMPI PUSH2 0x21C JUMP JUMPDEST DUP1 PUSH4 0x90193B7C GT PUSH2 0xF4 JUMPI DUP1 PUSH4 0x90193B7C EQ PUSH2 0x4FF JUMPI DUP1 PUSH4 0x91D14854 EQ PUSH2 0x52F JUMPI DUP1 PUSH4 0x95D89B41 EQ PUSH2 0x55F JUMPI DUP1 PUSH4 0x96C82E57 EQ PUSH2 0x57D JUMPI DUP1 PUSH4 0x99BB6085 EQ PUSH2 0x59B JUMPI PUSH2 0x21C JUMP JUMPDEST DUP1 PUSH4 0x671A34B0 EQ PUSH2 0x48B JUMPI DUP1 PUSH4 0x70A08231 EQ PUSH2 0x4A9 JUMPI DUP1 PUSH4 0x79CC6790 EQ PUSH2 0x4D9 JUMPI DUP1 PUSH4 0x8456CB59 EQ PUSH2 0x4F5 JUMPI PUSH2 0x21C JUMP JUMPDEST DUP1 PUSH4 0x2F2FF15D GT PUSH2 0x1A8 JUMPI DUP1 PUSH4 0x3F4BA83A GT PUSH2 0x177 JUMPI DUP1 PUSH4 0x3F4BA83A EQ PUSH2 0x3FB JUMPI DUP1 PUSH4 0x3FB1FAE1 EQ PUSH2 0x405 JUMPI DUP1 PUSH4 0x40C10F19 EQ PUSH2 0x435 JUMPI DUP1 PUSH4 0x42966C68 EQ PUSH2 0x451 JUMPI DUP1 PUSH4 0x5C975ABB EQ PUSH2 0x46D JUMPI PUSH2 0x21C JUMP JUMPDEST DUP1 PUSH4 0x2F2FF15D EQ PUSH2 0x375 JUMPI DUP1 PUSH4 0x2F7801F4 EQ PUSH2 0x391 JUMPI DUP1 PUSH4 0x313CE567 EQ PUSH2 0x3C1 JUMPI DUP1 PUSH4 0x36568ABE EQ PUSH2 0x3DF JUMPI PUSH2 0x21C JUMP JUMPDEST DUP1 PUSH4 0x18A11E71 GT PUSH2 0x1EF JUMPI DUP1 PUSH4 0x18A11E71 EQ PUSH2 0x2BD JUMPI DUP1 PUSH4 0x1E5A7BD2 EQ PUSH2 0x2D9 JUMPI DUP1 PUSH4 0x23B872DD EQ PUSH2 0x2F7 JUMPI DUP1 PUSH4 0x248A9CA3 EQ PUSH2 0x327 JUMPI DUP1 PUSH4 0x2E718AB7 EQ PUSH2 0x357 JUMPI PUSH2 0x21C JUMP JUMPDEST DUP1 PUSH4 0x1FFC9A7 EQ PUSH2 0x221 JUMPI DUP1 PUSH4 0x6FDDE03 EQ PUSH2 0x251 JUMPI DUP1 PUSH4 0x95EA7B3 EQ PUSH2 0x26F JUMPI DUP1 PUSH4 0x18160DDD EQ PUSH2 0x29F JUMPI JUMPDEST PUSH1 0x0 DUP1 REVERT JUMPDEST PUSH2 0x23B PUSH1 0x4 DUP1 CALLDATASIZE SUB DUP2 ADD SWAP1 PUSH2 0x236 SWAP2 SWAP1 PUSH2 0x20A9 JUMP JUMPDEST PUSH2 0x70C JUMP JUMPDEST PUSH1 0x40 MLOAD PUSH2 0x248 SWAP2 SWAP1 PUSH2 0x20F1 JUMP JUMPDEST PUSH1 0x40 MLOAD DUP1 SWAP2 SUB SWAP1 RETURN JUMPDEST PUSH2 0x259 PUSH2 0x786 JUMP JUMPDEST PUSH1 0x40 MLOAD PUSH2 0x266 SWAP2 SWAP1 PUSH2 0x219C JUMP JUMPDEST PUSH1 0x40 MLOAD DUP1 SWAP2 SUB SWAP1 RETURN JUMPDEST PUSH2 0x289 PUSH1 0x4 DUP1 CALLDATASIZE SUB DUP2 ADD SWAP1 PUSH2 0x284 SWAP2 SWAP1 PUSH2 0x2252 JUMP JUMPDEST PUSH2 0x818 JUMP JUMPDEST PUSH1 0x40 MLOAD PUSH2 0x296 SWAP2 SWAP1 PUSH2 0x20F1 JUMP JUMPDEST PUSH1 0x40 MLOAD DUP1 SWAP2 SUB SWAP1 RETURN JUMPDEST PUSH2 0x2A7 PUSH2 0x83B JUMP JUMPDEST PUSH1 0x40 MLOAD PUSH2 0x2B4 SWAP2 SWAP1 PUSH2 0x22A1 JUMP JUMPDEST PUSH1 0x40 MLOAD DUP1 SWAP2 SUB SWAP1 RETURN JUMPDEST PUSH2 0x2D7 PUSH1 0x4 DUP1 CALLDATASIZE SUB DUP2 ADD SWAP1 PUSH2 0x2D2 SWAP2 SWAP1 PUSH2 0x2501 JUMP JUMPDEST PUSH2 0x845 JUMP JUMPDEST STOP JUMPDEST PUSH2 0x2E1 PUSH2 0xB05 JUMP JUMPDEST PUSH1 0x40 MLOAD PUSH2 0x2EE SWAP2 SWAP1 PUSH2 0x22A1 JUMP JUMPDEST PUSH1 0x40 MLOAD DUP1 SWAP2 SUB SWAP1 RETURN JUMPDEST PUSH2 0x311 PUSH1 0x4 DUP1 CALLDATASIZE SUB DUP2 ADD SWAP1 PUSH2 0x30C SWAP2 SWAP1 PUSH2 0x254A JUMP JUMPDEST PUSH2 0xB12 JUMP JUMPDEST PUSH1 0x40 MLOAD PUSH2 0x31E SWAP2 SWAP1 PUSH2 0x20F1 JUMP JUMPDEST PUSH1 0x40 MLOAD DUP1 SWAP2 SUB SWAP1 RETURN JUMPDEST PUSH2 0x341 PUSH1 0x4 DUP1 CALLDATASIZE SUB DUP2 ADD SWAP1 PUSH2 0x33C SWAP2 SWAP1 PUSH2 0x259D JUMP JUMPDEST PUSH2 0xB41 JUMP JUMPDEST PUSH1 0x40 MLOAD PUSH2 0x34E SWAP2 SWAP1 PUSH2 0x25D9 JUMP JUMPDEST PUSH1 0x40 MLOAD DUP1 SWAP2 SUB SWAP1 RETURN JUMPDEST PUSH2 0x35F PUSH2 0xB61 JUMP JUMPDEST PUSH1 0x40 MLOAD PUSH2 0x36C SWAP2 SWAP1 PUSH2 0x25D9 JUMP JUMPDEST PUSH1 0x40 MLOAD DUP1 SWAP2 SUB SWAP1 RETURN JUMPDEST PUSH2 0x38F PUSH1 0x4 DUP1 CALLDATASIZE SUB DUP2 ADD SWAP1 PUSH2 0x38A SWAP2 SWAP1 PUSH2 0x25F4 JUMP JUMPDEST PUSH2 0xB85 JUMP JUMPDEST STOP JUMPDEST PUSH2 0x3AB PUSH1 0x4 DUP1 CALLDATASIZE SUB DUP2 ADD SWAP1 PUSH2 0x3A6 SWAP2 SWAP1 PUSH2 0x2634 JUMP JUMPDEST PUSH2 0xBA7 JUMP JUMPDEST PUSH1 0x40 MLOAD PUSH2 0x3B8 SWAP2 SWAP1 PUSH2 0x22A1 JUMP JUMPDEST PUSH1 0x40 MLOAD DUP1 SWAP2 SUB SWAP1 RETURN JUMPDEST PUSH2 0x3C9 PUSH2 0xBBF JUMP JUMPDEST PUSH1 0x40 MLOAD PUSH2 0x3D6 SWAP2 SWAP1 PUSH2 0x267D JUMP JUMPDEST PUSH1 0x40 MLOAD DUP1 SWAP2 SUB SWAP1 RETURN JUMPDEST PUSH2 0x3F9 PUSH1 0x4 DUP1 CALLDATASIZE SUB DUP2 ADD SWAP1 PUSH2 0x3F4 SWAP2 SWAP1 PUSH2 0x25F4 JUMP JUMPDEST PUSH2 0xBC8 JUMP JUMPDEST STOP JUMPDEST PUSH2 0x403 PUSH2 0xC43 JUMP JUMPDEST STOP JUMPDEST PUSH2 0x41F PUSH1 0x4 DUP1 CALLDATASIZE SUB DUP2 ADD SWAP1 PUSH2 0x41A SWAP2 SWAP1 PUSH2 0x2698 JUMP JUMPDEST PUSH2 0xC78 JUMP JUMPDEST PUSH1 0x40 MLOAD PUSH2 0x42C SWAP2 SWAP1 PUSH2 0x219C JUMP JUMPDEST PUSH1 0x40 MLOAD DUP1 SWAP2 SUB SWAP1 RETURN JUMPDEST PUSH2 0x44F PUSH1 0x4 DUP1 CALLDATASIZE SUB DUP2 ADD SWAP1 PUSH2 0x44A SWAP2 SWAP1 PUSH2 0x2252 JUMP JUMPDEST PUSH2 0xD24 JUMP JUMPDEST STOP JUMPDEST PUSH2 0x46B PUSH1 0x4 DUP1 CALLDATASIZE SUB DUP2 ADD SWAP1 PUSH2 0x466 SWAP2 SWAP1 PUSH2 0x2698 JUMP JUMPDEST PUSH2 0xD5D JUMP JUMPDEST STOP JUMPDEST PUSH2 0x475 PUSH2 0xD71 JUMP JUMPDEST PUSH1 0x40 MLOAD PUSH2 0x482 SWAP2 SWAP1 PUSH2 0x20F1 JUMP JUMPDEST PUSH1 0x40 MLOAD DUP1 SWAP2 SUB SWAP1 RETURN JUMPDEST PUSH2 0x493 PUSH2 0xD88 JUMP JUMPDEST PUSH1 0x40 MLOAD PUSH2 0x4A0 SWAP2 SWAP1 PUSH2 0x25D9 JUMP JUMPDEST PUSH1 0x40 MLOAD DUP1 SWAP2 SUB SWAP1 RETURN JUMPDEST PUSH2 0x4C3 PUSH1 0x4 DUP1 CALLDATASIZE SUB DUP2 ADD SWAP1 PUSH2 0x4BE SWAP2 SWAP1 PUSH2 0x2634 JUMP JUMPDEST PUSH2 0xDAC JUMP JUMPDEST PUSH1 0x40 MLOAD PUSH2 0x4D0 SWAP2 SWAP1 PUSH2 0x22A1 JUMP JUMPDEST PUSH1 0x40 MLOAD DUP1 SWAP2 SUB SWAP1 RETURN JUMPDEST PUSH2 0x4F3 PUSH1 0x4 DUP1 CALLDATASIZE SUB DUP2 ADD SWAP1 PUSH2 0x4EE SWAP2 SWAP1 PUSH2 0x2252 JUMP JUMPDEST PUSH2 0xDF4 JUMP JUMPDEST STOP JUMPDEST PUSH2 0x4FD PUSH2 0xE14 JUMP JUMPDEST STOP JUMPDEST PUSH2 0x519 PUSH1 0x4 DUP1 CALLDATASIZE SUB DUP2 ADD SWAP1 PUSH2 0x514 SWAP2 SWAP1 PUSH2 0x2634 JUMP JUMPDEST PUSH2 0xE49 JUMP JUMPDEST PUSH1 0x40 MLOAD PUSH2 0x526 SWAP2 SWAP1 PUSH2 0x22A1 JUMP JUMPDEST PUSH1 0x40 MLOAD DUP1 SWAP2 SUB SWAP1 RETURN JUMPDEST PUSH2 0x549 PUSH1 0x4 DUP1 CALLDATASIZE SUB DUP2 ADD SWAP1 PUSH2 0x544 SWAP2 SWAP1 PUSH2 0x25F4 JUMP JUMPDEST PUSH2 0xE92 JUMP JUMPDEST PUSH1 0x40 MLOAD PUSH2 0x556 SWAP2 SWAP1 PUSH2 0x20F1 JUMP JUMPDEST PUSH1 0x40 MLOAD DUP1 SWAP2 SUB SWAP1 RETURN JUMPDEST PUSH2 0x567 PUSH2 0xEFD JUMP JUMPDEST PUSH1 0x40 MLOAD PUSH2 0x574 SWAP2 SWAP1 PUSH2 0x219C JUMP JUMPDEST PUSH1 0x40 MLOAD DUP1 SWAP2 SUB SWAP1 RETURN JUMPDEST PUSH2 0x585 PUSH2 0xF8F JUMP JUMPDEST PUSH1 0x40 MLOAD PUSH2 0x592 SWAP2 SWAP1 PUSH2 0x22A1 JUMP JUMPDEST PUSH1 0x40 MLOAD DUP1 SWAP2 SUB SWAP1 RETURN JUMPDEST PUSH2 0x5B5 PUSH1 0x4 DUP1 CALLDATASIZE SUB DUP2 ADD SWAP1 PUSH2 0x5B0 SWAP2 SWAP1 PUSH2 0x259D JUMP JUMPDEST PUSH2 0xF95 JUMP JUMPDEST PUSH1 0x40 MLOAD PUSH2 0x5C2 SWAP2 SWAP1 PUSH2 0x20F1 JUMP JUMPDEST PUSH1 0x40 MLOAD DUP1 SWAP2 SUB SWAP1 RETURN JUMPDEST PUSH2 0x5D3 PUSH2 0xFB5 JUMP JUMPDEST PUSH1 0x40 MLOAD PUSH2 0x5E0 SWAP2 SWAP1 PUSH2 0x25D9 JUMP JUMPDEST PUSH1 0x40 MLOAD DUP1 SWAP2 SUB SWAP1 RETURN JUMPDEST PUSH2 0x603 PUSH1 0x4 DUP1 CALLDATASIZE SUB DUP2 ADD SWAP1 PUSH2 0x5FE SWAP2 SWAP1 PUSH2 0x2252 JUMP JUMPDEST PUSH2 0xFBC JUMP JUMPDEST PUSH1 0x40 MLOAD PUSH2 0x610 SWAP2 SWAP1 PUSH2 0x20F1 JUMP JUMPDEST PUSH1 0x40 MLOAD DUP1 SWAP2 SUB SWAP1 RETURN JUMPDEST PUSH2 0x633 PUSH1 0x4 DUP1 CALLDATASIZE SUB DUP2 ADD SWAP1 PUSH2 0x62E SWAP2 SWAP1 PUSH2 0x2766 JUMP JUMPDEST PUSH2 0xFDF JUMP JUMPDEST STOP JUMPDEST PUSH2 0x63D PUSH2 0x1242 JUMP JUMPDEST PUSH1 0x40 MLOAD PUSH2 0x64A SWAP2 SWAP1 PUSH2 0x25D9 JUMP JUMPDEST PUSH1 0x40 MLOAD DUP1 SWAP2 SUB SWAP1 RETURN JUMPDEST PUSH2 0x66D PUSH1 0x4 DUP1 CALLDATASIZE SUB DUP2 ADD SWAP1 PUSH2 0x668 SWAP2 SWAP1 PUSH2 0x25F4 JUMP JUMPDEST PUSH2 0x1266 JUMP JUMPDEST STOP JUMPDEST PUSH2 0x689 PUSH1 0x4 DUP1 CALLDATASIZE SUB DUP2 ADD SWAP1 PUSH2 0x684 SWAP2 SWAP1 PUSH2 0x27D5 JUMP JUMPDEST PUSH2 0x1288 JUMP JUMPDEST STOP JUMPDEST PUSH2 0x6A5 PUSH1 0x4 DUP1 CALLDATASIZE SUB DUP2 ADD SWAP1 PUSH2 0x6A0 SWAP2 SWAP1 PUSH2 0x2831 JUMP JUMPDEST PUSH2 0x1429 JUMP JUMPDEST PUSH1 0x40 MLOAD PUSH2 0x6B2 SWAP2 SWAP1 PUSH2 0x22A1 JUMP JUMPDEST PUSH1 0x40 MLOAD DUP1 SWAP2 SUB SWAP1 RETURN JUMPDEST PUSH2 0x6D5 PUSH1 0x4 DUP1 CALLDATASIZE SUB DUP2 ADD SWAP1 PUSH2 0x6D0 SWAP2 SWAP1 PUSH2 0x2871 JUMP JUMPDEST PUSH2 0x14B0 JUMP JUMPDEST PUSH1 0x40 MLOAD PUSH2 0x6E5 SWAP5 SWAP4 SWAP3 SWAP2 SWAP1 PUSH2 0x28C9 JUMP JUMPDEST PUSH1 0x40 MLOAD DUP1 SWAP2 SUB SWAP1 RETURN JUMPDEST PUSH2 0x6F6 PUSH2 0x1523 JUMP JUMPDEST PUSH1 0x40 MLOAD PUSH2 0x703 SWAP2 SWAP1 PUSH2 0x25D9 JUMP JUMPDEST PUSH1 0x40 MLOAD DUP1 SWAP2 SUB SWAP1 RETURN JUMPDEST PUSH1 0x0 PUSH32 0x7965DB0B00000000000000000000000000000000000000000000000000000000 PUSH28 0xFFFFFFFFFFFFFFFFFFFFFFFFFFFFFFFFFFFFFFFFFFFFFFFFFFFFFFFF NOT AND DUP3 PUSH28 0xFFFFFFFFFFFFFFFFFFFFFFFFFFFFFFFFFFFFFFFFFFFFFFFFFFFFFFFF NOT AND EQ DUP1 PUSH2 0x77F JUMPI POP PUSH2 0x77E DUP3 PUSH2 0x1547 JUMP JUMPDEST JUMPDEST SWAP1 POP SWAP2 SWAP1 POP JUMP JUMPDEST PUSH1 0x60 PUSH1 0x3 DUP1 SLOAD PUSH2 0x795 SWAP1 PUSH2 0x293D JUMP JUMPDEST DUP1 PUSH1 0x1F ADD PUSH1 0x20 DUP1 SWAP2 DIV MUL PUSH1 0x20 ADD PUSH1 0x40 MLOAD SWAP1 DUP2 ADD PUSH1 0x40 MSTORE DUP1 SWAP3 SWAP2 SWAP1 DUP2 DUP2 MSTORE PUSH1 0x20 ADD DUP3 DUP1 SLOAD PUSH2 0x7C1 SWAP1 PUSH2 0x293D JUMP JUMPDEST DUP1 ISZERO PUSH2 0x80E JUMPI DUP1 PUSH1 0x1F LT PUSH2 0x7E3 JUMPI PUSH2 0x100 DUP1 DUP4 SLOAD DIV MUL DUP4 MSTORE SWAP2 PUSH1 0x20 ADD SWAP2 PUSH2 0x80E JUMP JUMPDEST DUP3 ADD SWAP2 SWAP1 PUSH1 0x0 MSTORE PUSH1 0x20 PUSH1 0x0 KECCAK256 SWAP1 JUMPDEST DUP2 SLOAD DUP2 MSTORE SWAP1 PUSH1 0x1 ADD SWAP1 PUSH1 0x20 ADD DUP1 DUP4 GT PUSH2 0x7F1 JUMPI DUP3 SWAP1 SUB PUSH1 0x1F AND DUP3 ADD SWAP2 JUMPDEST POP POP POP POP POP SWAP1 POP SWAP1 JUMP JUMPDEST PUSH1 0x0 DUP1 PUSH2 0x823 PUSH2 0x15B1 JUMP JUMPDEST SWAP1 POP PUSH2 0x830 DUP2 DUP6 DUP6 PUSH2 0x15B9 JUMP JUMPDEST PUSH1 0x1 SWAP2 POP POP SWAP3 SWAP2 POP POP JUMP JUMPDEST PUSH1 0x0 PUSH1 0x2 SLOAD SWAP1 POP SWAP1 JUMP JUMPDEST PUSH32 0x744CF4B8E8F90C89E1AC1360E9492BC7E8CB1D144D5768B7136EA592FAA60A6B PUSH2 0x86F DUP2 PUSH2 0x15CB JUMP JUMPDEST PUSH1 0xA PUSH1 0x0 DUP4 PUSH1 0x0 ADD MLOAD DUP2 MSTORE PUSH1 0x20 ADD SWAP1 DUP2 MSTORE PUSH1 0x20 ADD PUSH1 0x0 KECCAK256 PUSH1 0x0 SWAP1 SLOAD SWAP1 PUSH2 0x100 EXP SWAP1 DIV PUSH1 0xFF AND ISZERO PUSH2 0x8D4 JUMPI PUSH1 0x40 MLOAD PUSH32 0x8C379A000000000000000000000000000000000000000000000000000000000 DUP2 MSTORE PUSH1 0x4 ADD PUSH2 0x8CB SWAP1 PUSH2 0x29BA JUMP JUMPDEST PUSH1 0x40 MLOAD DUP1 SWAP2 SUB SWAP1 REVERT JUMPDEST PUSH1 0x0 DUP3 PUSH1 0x20 ADD MLOAD DUP4 PUSH1 0x40 ADD MLOAD DUP5 PUSH1 0x60 ADD MLOAD DUP6 PUSH1 0x80 ADD MLOAD DUP7 PUSH1 0xA0 ADD MLOAD PUSH1 0x40 MLOAD PUSH1 0x20 ADD PUSH2 0x903 SWAP6 SWAP5 SWAP4 SWAP3 SWAP2 SWAP1 PUSH2 0x2A43 JUMP JUMPDEST PUSH1 0x40 MLOAD PUSH1 0x20 DUP2 DUP4 SUB SUB DUP2 MSTORE SWAP1 PUSH1 0x40 MSTORE DUP1 MLOAD SWAP1 PUSH1 0x20 ADD KECCAK256 SWAP1 POP DUP3 PUSH1 0x0 ADD MLOAD DUP2 EQ PUSH2 0x961 JUMPI PUSH1 0x40 MLOAD PUSH32 0x8C379A000000000000000000000000000000000000000000000000000000000 DUP2 MSTORE PUSH1 0x4 ADD PUSH2 0x958 SWAP1 PUSH2 0x2AEE JUMP JUMPDEST PUSH1 0x40 MLOAD DUP1 SWAP2 SUB SWAP1 REVERT JUMPDEST PUSH1 0xB PUSH1 0x0 DUP5 PUSH1 0x20 ADD MLOAD PUSH20 0xFFFFFFFFFFFFFFFFFFFFFFFFFFFFFFFFFFFFFFFF AND PUSH20 0xFFFFFFFFFFFFFFFFFFFFFFFFFFFFFFFFFFFFFFFF AND DUP2 MSTORE PUSH1 0x20 ADD SWAP1 DUP2 MSTORE PUSH1 0x20 ADD PUSH1 0x0 KECCAK256 SLOAD DUP4 PUSH1 0x80 ADD MLOAD EQ PUSH2 0x9EA JUMPI PUSH1 0x40 MLOAD PUSH32 0x8C379A000000000000000000000000000000000000000000000000000000000 DUP2 MSTORE PUSH1 0x4 ADD PUSH2 0x9E1 SWAP1 PUSH2 0x2B5A JUMP JUMPDEST PUSH1 0x40 MLOAD DUP1 SWAP2 SUB SWAP1 REVERT JUMPDEST PUSH2 0xA01 DUP4 PUSH1 0x20 ADD MLOAD DUP5 PUSH1 0x40 ADD MLOAD DUP6 PUSH1 0x60 ADD MLOAD PUSH2 0x15DF JUMP JUMPDEST PUSH1 0x1 PUSH1 0xA PUSH1 0x0 DUP6 PUSH1 0x0 ADD MLOAD DUP2 MSTORE PUSH1 0x20 ADD SWAP1 DUP2 MSTORE PUSH1 0x20 ADD PUSH1 0x0 KECCAK256 PUSH1 0x0 PUSH2 0x100 EXP DUP2 SLOAD DUP2 PUSH1 0xFF MUL NOT AND SWAP1 DUP4 ISZERO ISZERO MUL OR SWAP1 SSTORE POP PUSH1 0xB PUSH1 0x0 DUP5 PUSH1 0x20 ADD MLOAD PUSH20 0xFFFFFFFFFFFFFFFFFFFFFFFFFFFFFFFFFFFFFFFF AND PUSH20 0xFFFFFFFFFFFFFFFFFFFFFFFFFFFFFFFFFFFFFFFF AND DUP2 MSTORE PUSH1 0x20 ADD SWAP1 DUP2 MSTORE PUSH1 0x20 ADD PUSH1 0x0 KECCAK256 PUSH1 0x0 DUP2 SLOAD DUP1 SWAP3 SWAP2 SWAP1 PUSH2 0xA85 SWAP1 PUSH2 0x2BA9 JUMP JUMPDEST SWAP2 SWAP1 POP SSTORE POP DUP3 PUSH1 0x40 ADD MLOAD PUSH20 0xFFFFFFFFFFFFFFFFFFFFFFFFFFFFFFFFFFFFFFFF AND DUP4 PUSH1 0x20 ADD MLOAD PUSH20 0xFFFFFFFFFFFFFFFFFFFFFFFFFFFFFFFFFFFFFFFF AND DUP5 PUSH1 0x0 ADD MLOAD PUSH32 0x2AA084801729D4B2BECCBBDFA2266A93494C878A7FEE69FFBCB37EFD9F5ABD92 DUP7 PUSH1 0x60 ADD MLOAD PUSH1 0x40 MLOAD PUSH2 0xAF8 SWAP2 SWAP1 PUSH2 0x22A1 JUMP JUMPDEST PUSH1 0x40 MLOAD DUP1 SWAP2 SUB SWAP1 LOG4 POP POP POP JUMP JUMPDEST PUSH1 0x0 PUSH1 0x8 DUP1 SLOAD SWAP1 POP SWAP1 POP SWAP1 JUMP JUMPDEST PUSH1 0x0 DUP1 PUSH2 0xB1D PUSH2 0x15B1 JUMP JUMPDEST SWAP1 POP PUSH2 0xB2A DUP6 DUP3 DUP6 PUSH2 0x16D3 JUMP JUMPDEST PUSH2 0xB35 DUP6 DUP6 DUP6 PUSH2 0x15DF JUMP JUMPDEST PUSH1 0x1 SWAP2 POP POP SWAP4 SWAP3 POP POP POP JUMP JUMPDEST PUSH1 0x0 PUSH1 0x5 PUSH1 0x0 DUP4 DUP2 MSTORE PUSH1 0x20 ADD SWAP1 DUP2 MSTORE PUSH1 0x20 ADD PUSH1 0x0 KECCAK256 PUSH1 0x1 ADD SLOAD SWAP1 POP SWAP2 SWAP1 POP JUMP JUMPDEST PUSH32 0x85E8F2D6819D6B24108062D87EA08F54651BCB8960D98062D3FAF96E7873B8B9 DUP2 JUMP JUMPDEST PUSH2 0xB8E DUP3 PUSH2 0xB41 JUMP JUMPDEST PUSH2 0xB97 DUP2 PUSH2 0x15CB JUMP JUMPDEST PUSH2 0xBA1 DUP4 DUP4 PUSH2 0x1768 JUMP JUMPDEST POP POP POP POP JUMP JUMPDEST PUSH1 0xB PUSH1 0x20 MSTORE DUP1 PUSH1 0x0 MSTORE PUSH1 0x40 PUSH1 0x0 KECCAK256 PUSH1 0x0 SWAP2 POP SWAP1 POP SLOAD DUP2 JUMP JUMPDEST PUSH1 0x0 PUSH1 0x12 SWAP1 POP SWAP1 JUMP JUMPDEST PUSH2 0xBD0 PUSH2 0x15B1 JUMP JUMPDEST PUSH20 0xFFFFFFFFFFFFFFFFFFFFFFFFFFFFFFFFFFFFFFFF AND DUP2 PUSH20 0xFFFFFFFFFFFFFFFFFFFFFFFFFFFFFFFFFFFFFFFF AND EQ PUSH2 0xC34 JUMPI PUSH1 0x40 MLOAD PUSH32 0x6697B23200000000000000000000000000000000000000000000000000000000 DUP2 MSTORE PUSH1 0x4 ADD PUSH1 0x40 MLOAD DUP1 SWAP2 SUB SWAP1 REVERT JUMPDEST PUSH2 0xC3E DUP3 DUP3 PUSH2 0x185A JUMP JUMPDEST POP POP POP JUMP JUMPDEST PUSH32 0x65D7A28E3265B37A6474929F336521B332C1681B933F6CB9F3376673440D862A PUSH2 0xC6D DUP2 PUSH2 0x15CB JUMP JUMPDEST PUSH2 0xC75 PUSH2 0x194D JUMP JUMPDEST POP JUMP JUMPDEST PUSH1 0x8 DUP2 DUP2 SLOAD DUP2 LT PUSH2 0xC88 JUMPI PUSH1 0x0 DUP1 REVERT JUMPDEST SWAP1 PUSH1 0x0 MSTORE PUSH1 0x20 PUSH1 0x0 KECCAK256 ADD PUSH1 0x0 SWAP2 POP SWAP1 POP DUP1 SLOAD PUSH2 0xCA3 SWAP1 PUSH2 0x293D JUMP JUMPDEST DUP1 PUSH1 0x1F ADD PUSH1 0x20 DUP1 SWAP2 DIV MUL PUSH1 0x20 ADD PUSH1 0x40 MLOAD SWAP1 DUP2 ADD PUSH1 0x40 MSTORE DUP1 SWAP3 SWAP2 SWAP1 DUP2 DUP2 MSTORE PUSH1 0x20 ADD DUP3 DUP1 SLOAD PUSH2 0xCCF SWAP1 PUSH2 0x293D JUMP JUMPDEST DUP1 ISZERO PUSH2 0xD1C JUMPI DUP1 PUSH1 0x1F LT PUSH2 0xCF1 JUMPI PUSH2 0x100 DUP1 DUP4 SLOAD DIV MUL DUP4 MSTORE SWAP2 PUSH1 0x20 ADD SWAP2 PUSH2 0xD1C JUMP JUMPDEST DUP3 ADD SWAP2 SWAP1 PUSH1 0x0 MSTORE PUSH1 0x20 PUSH1 0x0 KECCAK256 SWAP1 JUMPDEST DUP2 SLOAD DUP2 MSTORE SWAP1 PUSH1 0x1 ADD SWAP1 PUSH1 0x20 ADD DUP1 DUP4 GT PUSH2 0xCFF JUMPI DUP3 SWAP1 SUB PUSH1 0x1F AND DUP3 ADD SWAP2 JUMPDEST POP POP POP POP POP DUP2 JUMP JUMPDEST PUSH32 0x9F2DF0FED2C77648DE5860A4CC508CD0818C85B8B8A1AB4CEEEF8D981C8956A6 PUSH2 0xD4E DUP2 PUSH2 0x15CB JUMP JUMPDEST PUSH2 0xD58 DUP4 DUP4 PUSH2 0x19B0 JUMP JUMPDEST POP POP POP JUMP JUMPDEST PUSH2 0xD6E PUSH2 0xD68 PUSH2 0x15B1 JUMP JUMPDEST DUP3 PUSH2 0x1A32 JUMP JUMPDEST POP JUMP JUMPDEST PUSH1 0x0 PUSH1 0x6 PUSH1 0x0 SWAP1 SLOAD SWAP1 PUSH2 0x100 EXP SWAP1 DIV PUSH1 0xFF AND SWAP1 POP SWAP1 JUMP JUMPDEST PUSH32 0x744CF4B8E8F90C89E1AC1360E9492BC7E8CB1D144D5768B7136EA592FAA60A6B DUP2 JUMP JUMPDEST PUSH1 0x0 DUP1 PUSH1 0x0 DUP4 PUSH20 0xFFFFFFFFFFFFFFFFFFFFFFFFFFFFFFFFFFFFFFFF AND PUSH20 0xFFFFFFFFFFFFFFFFFFFFFFFFFFFFFFFFFFFFFFFF AND DUP2 MSTORE PUSH1 0x20 ADD SWAP1 DUP2 MSTORE PUSH1 0x20 ADD PUSH1 0x0 KECCAK256 SLOAD SWAP1 POP SWAP2 SWAP1 POP JUMP JUMPDEST PUSH2 0xE06 DUP3 PUSH2 0xE00 PUSH2 0x15B1 JUMP JUMPDEST DUP4 PUSH2 0x16D3 JUMP JUMPDEST PUSH2 0xE10 DUP3 DUP3 PUSH2 0x1A32 JUMP JUMPDEST POP POP JUMP JUMPDEST PUSH32 0x65D7A28E3265B37A6474929F336521B332C1681B933F6CB9F3376673440D862A PUSH2 0xE3E DUP2 PUSH2 0x15CB JUMP JUMPDEST PUSH2 0xE46 PUSH2 0x1AB4 JUMP JUMPDEST POP JUMP JUMPDEST PUSH1 0x0 PUSH1 0xB PUSH1 0x0 DUP4 PUSH20 0xFFFFFFFFFFFFFFFFFFFFFFFFFFFFFFFFFFFFFFFF AND PUSH20 0xFFFFFFFFFFFFFFFFFFFFFFFFFFFFFFFFFFFFFFFF AND DUP2 MSTORE PUSH1 0x20 ADD SWAP1 DUP2 MSTORE PUSH1 0x20 ADD PUSH1 0x0 KECCAK256 SLOAD SWAP1 POP SWAP2 SWAP1 POP JUMP JUMPDEST PUSH1 0x0 PUSH1 0x5 PUSH1 0x0 DUP5 DUP2 MSTORE PUSH1 0x20 ADD SWAP1 DUP2 MSTORE PUSH1 0x20 ADD PUSH1 0x0 KECCAK256 PUSH1 0x0 ADD PUSH1 0x0 DUP4 PUSH20 0xFFFFFFFFFFFFFFFFFFFFFFFFFFFFFFFFFFFFFFFF AND PUSH20 0xFFFFFFFFFFFFFFFFFFFFFFFFFFFFFFFFFFFFFFFF AND DUP2 MSTORE PUSH1 0x20 ADD SWAP1 DUP2 MSTORE PUSH1 0x20 ADD PUSH1 0x0 KECCAK256 PUSH1 0x0 SWAP1 SLOAD SWAP1 PUSH2 0x100 EXP SWAP1 DIV PUSH1 0xFF AND SWAP1 POP SWAP3 SWAP2 POP POP JUMP JUMPDEST PUSH1 0x60 PUSH1 0x4 DUP1 SLOAD PUSH2 0xF0C SWAP1 PUSH2 0x293D JUMP JUMPDEST DUP1 PUSH1 0x1F ADD PUSH1 0x20 DUP1 SWAP2 DIV MUL PUSH1 0x20 ADD PUSH1 0x40 MLOAD SWAP1 DUP2 ADD PUSH1 0x40 MSTORE DUP1 SWAP3 SWAP2 SWAP1 DUP2 DUP2 MSTORE PUSH1 0x20 ADD DUP3 DUP1 SLOAD PUSH2 0xF38 SWAP1 PUSH2 0x293D JUMP JUMPDEST DUP1 ISZERO PUSH2 0xF85 JUMPI DUP1 PUSH1 0x1F LT PUSH2 0xF5A JUMPI PUSH2 0x100 DUP1 DUP4 SLOAD DIV MUL DUP4 MSTORE SWAP2 PUSH1 0x20 ADD SWAP2 PUSH2 0xF85 JUMP JUMPDEST DUP3 ADD SWAP2 SWAP1 PUSH1 0x0 MSTORE PUSH1 0x20 PUSH1 0x0 KECCAK256 SWAP1 JUMPDEST DUP2 SLOAD DUP2 MSTORE SWAP1 PUSH1 0x1 ADD SWAP1 PUSH1 0x20 ADD DUP1 DUP4 GT PUSH2 0xF68 JUMPI DUP3 SWAP1 SUB PUSH1 0x1F AND DUP3 ADD SWAP2 JUMPDEST POP POP POP POP POP SWAP1 POP SWAP1 JUMP JUMPDEST PUSH1 0x9 SLOAD DUP2 JUMP JUMPDEST PUSH1 0xA PUSH1 0x20 MSTORE DUP1 PUSH1 0x0 MSTORE PUSH1 0x40 PUSH1 0x0 KECCAK256 PUSH1 0x0 SWAP2 POP SLOAD SWAP1 PUSH2 0x100 EXP SWAP1 DIV PUSH1 0xFF AND DUP2 JUMP JUMPDEST PUSH1 0x0 DUP1 SHL DUP2 JUMP JUMPDEST PUSH1 0x0 DUP1 PUSH2 0xFC7 PUSH2 0x15B1 JUMP JUMPDEST SWAP1 POP PUSH2 0xFD4 DUP2 DUP6 DUP6 PUSH2 0x15DF JUMP JUMPDEST PUSH1 0x1 SWAP2 POP POP SWAP3 SWAP2 POP POP JUMP JUMPDEST PUSH32 0x85E8F2D6819D6B24108062D87EA08F54651BCB8960D98062D3FAF96E7873B8B9 PUSH2 0x1009 DUP2 PUSH2 0x15CB JUMP JUMPDEST PUSH1 0x7 DUP5 PUSH1 0x40 MLOAD PUSH2 0x1019 SWAP2 SWAP1 PUSH2 0x2C2D JUMP JUMPDEST SWAP1 DUP2 MSTORE PUSH1 0x20 ADD PUSH1 0x40 MLOAD DUP1 SWAP2 SUB SWAP1 KECCAK256 PUSH1 0x3 ADD PUSH1 0x0 SWAP1 SLOAD SWAP1 PUSH2 0x100 EXP SWAP1 DIV PUSH1 0xFF AND ISZERO PUSH2 0x1078 JUMPI PUSH1 0x40 MLOAD PUSH32 0x8C379A000000000000000000000000000000000000000000000000000000000 DUP2 MSTORE PUSH1 0x4 ADD PUSH2 0x106F SWAP1 PUSH2 0x2C90 JUMP JUMPDEST PUSH1 0x40 MLOAD DUP1 SWAP2 SUB SWAP1 REVERT JUMPDEST PUSH2 0x2710 DUP3 PUSH1 0x9 SLOAD PUSH2 0x1089 SWAP2 SWAP1 PUSH2 0x2CB0 JUMP JUMPDEST GT ISZERO PUSH2 0x10CA JUMPI PUSH1 0x40 MLOAD PUSH32 0x8C379A000000000000000000000000000000000000000000000000000000000 DUP2 MSTORE PUSH1 0x4 ADD PUSH2 0x10C1 SWAP1 PUSH2 0x2D30 JUMP JUMPDEST PUSH1 0x40 MLOAD DUP1 SWAP2 SUB SWAP1 REVERT JUMPDEST PUSH1 0x40 MLOAD DUP1 PUSH1 0x80 ADD PUSH1 0x40 MSTORE DUP1 DUP5 PUSH20 0xFFFFFFFFFFFFFFFFFFFFFFFFFFFFFFFFFFFFFFFF AND DUP2 MSTORE PUSH1 0x20 ADD DUP4 DUP2 MSTORE PUSH1 0x20 ADD PUSH1 0x0 DUP2 MSTORE PUSH1 0x20 ADD PUSH1 0x1 ISZERO ISZERO DUP2 MSTORE POP PUSH1 0x7 DUP6 PUSH1 0x40 MLOAD PUSH2 0x1115 SWAP2 SWAP1 PUSH2 0x2C2D JUMP JUMPDEST SWAP1 DUP2 MSTORE PUSH1 0x20 ADD PUSH1 0x40 MLOAD DUP1 SWAP2 SUB SWAP1 KECCAK256 PUSH1 0x0 DUP3 ADD MLOAD DUP2 PUSH1 0x0 ADD PUSH1 0x0 PUSH2 0x100 EXP DUP2 SLOAD DUP2 PUSH20 0xFFFFFFFFFFFFFFFFFFFFFFFFFFFFFFFFFFFFFFFF MUL NOT AND SWAP1 DUP4 PUSH20 0xFFFFFFFFFFFFFFFFFFFFFFFFFFFFFFFFFFFFFFFF AND MUL OR SWAP1 SSTORE POP PUSH1 0x20 DUP3 ADD MLOAD DUP2 PUSH1 0x1 ADD SSTORE PUSH1 0x40 DUP3 ADD MLOAD DUP2 PUSH1 0x2 ADD SSTORE PUSH1 0x60 DUP3 ADD MLOAD DUP2 PUSH1 0x3 ADD PUSH1 0x0 PUSH2 0x100 EXP DUP2 SLOAD DUP2 PUSH1 0xFF MUL NOT AND SWAP1 DUP4 ISZERO ISZERO MUL OR SWAP1 SSTORE POP SWAP1 POP POP PUSH1 0x8 DUP5 SWAP1 DUP1 PUSH1 0x1 DUP2 SLOAD ADD DUP1 DUP3 SSTORE DUP1 SWAP2 POP POP PUSH1 0x1 SWAP1 SUB SWAP1 PUSH1 0x0 MSTORE PUSH1 0x20 PUSH1 0x0 KECCAK256 ADD PUSH1 0x0 SWAP1 SWAP2 SWAP1 SWAP2 SWAP1 SWAP2 POP SWAP1 DUP2 PUSH2 0x11D5 SWAP2 SWAP1 PUSH2 0x2EFC JUMP JUMPDEST POP DUP2 PUSH1 0x9 PUSH1 0x0 DUP3 DUP3 SLOAD PUSH2 0x11E8 SWAP2 SWAP1 PUSH2 0x2CB0 JUMP JUMPDEST SWAP3 POP POP DUP2 SWAP1 SSTORE POP DUP4 PUSH1 0x40 MLOAD PUSH2 0x11FD SWAP2 SWAP1 PUSH2 0x2C2D JUMP JUMPDEST PUSH1 0x40 MLOAD DUP1 SWAP2 SUB SWAP1 KECCAK256 PUSH32 0xC1315C83E7C2CDE551296AE9F722A14E90B00C3CA21FB7A939D52350C021B3BA DUP4 PUSH1 0x40 MLOAD PUSH2 0x1234 SWAP2 SWAP1 PUSH2 0x22A1 JUMP JUMPDEST PUSH1 0x40 MLOAD DUP1 SWAP2 SUB SWAP1 LOG2 POP POP POP POP JUMP JUMPDEST PUSH32 0x9F2DF0FED2C77648DE5860A4CC508CD0818C85B8B8A1AB4CEEEF8D981C8956A6 DUP2 JUMP JUMPDEST PUSH2 0x126F DUP3 PUSH2 0xB41 JUMP JUMPDEST PUSH2 0x1278 DUP2 PUSH2 0x15CB JUMP JUMPDEST PUSH2 0x1282 DUP4 DUP4 PUSH2 0x185A JUMP JUMPDEST POP POP POP POP JUMP JUMPDEST PUSH32 0x85E8F2D6819D6B24108062D87EA08F54651BCB8960D98062D3FAF96E7873B8B9 PUSH2 0x12B2 DUP2 PUSH2 0x15CB JUMP JUMPDEST PUSH1 0x7 DUP4 PUSH1 0x40 MLOAD PUSH2 0x12C2 SWAP2 SWAP1 PUSH2 0x2C2D JUMP JUMPDEST SWAP1 DUP2 MSTORE PUSH1 0x20 ADD PUSH1 0x40 MLOAD DUP1 SWAP2 SUB SWAP1 KECCAK256 PUSH1 0x3 ADD PUSH1 0x0 SWAP1 SLOAD SWAP1 PUSH2 0x100 EXP SWAP1 DIV PUSH1 0xFF AND PUSH2 0x1320 JUMPI PUSH1 0x40 MLOAD PUSH32 0x8C379A000000000000000000000000000000000000000000000000000000000 DUP2 MSTORE PUSH1 0x4 ADD PUSH2 0x1317 SWAP1 PUSH2 0x301A JUMP JUMPDEST PUSH1 0x40 MLOAD DUP1 SWAP2 SUB SWAP1 REVERT JUMPDEST PUSH1 0x0 PUSH1 0x7 DUP5 PUSH1 0x40 MLOAD PUSH2 0x1332 SWAP2 SWAP1 PUSH2 0x2C2D JUMP JUMPDEST SWAP1 DUP2 MSTORE PUSH1 0x20 ADD PUSH1 0x40 MLOAD DUP1 SWAP2 SUB SWAP1 KECCAK256 PUSH1 0x1 ADD SLOAD SWAP1 POP PUSH1 0x0 DUP4 DUP3 PUSH1 0x9 SLOAD PUSH2 0x1357 SWAP2 SWAP1 PUSH2 0x303A JUMP JUMPDEST PUSH2 0x1361 SWAP2 SWAP1 PUSH2 0x2CB0 JUMP JUMPDEST SWAP1 POP PUSH2 0x2710 DUP2 GT ISZERO PUSH2 0x13A8 JUMPI PUSH1 0x40 MLOAD PUSH32 0x8C379A000000000000000000000000000000000000000000000000000000000 DUP2 MSTORE PUSH1 0x4 ADD PUSH2 0x139F SWAP1 PUSH2 0x2D30 JUMP JUMPDEST PUSH1 0x40 MLOAD DUP1 SWAP2 SUB SWAP1 REVERT JUMPDEST DUP4 PUSH1 0x7 DUP7 PUSH1 0x40 MLOAD PUSH2 0x13B9 SWAP2 SWAP1 PUSH2 0x2C2D JUMP JUMPDEST SWAP1 DUP2 MSTORE PUSH1 0x20 ADD PUSH1 0x40 MLOAD DUP1 SWAP2 SUB SWAP1 KECCAK256 PUSH1 0x1 ADD DUP2 SWAP1 SSTORE POP DUP1 PUSH1 0x9 DUP2 SWAP1 SSTORE POP DUP5 PUSH1 0x40 MLOAD PUSH2 0x13E3 SWAP2 SWAP1 PUSH2 0x2C2D JUMP JUMPDEST PUSH1 0x40 MLOAD DUP1 SWAP2 SUB SWAP1 KECCAK256 PUSH32 0xC1315C83E7C2CDE551296AE9F722A14E90B00C3CA21FB7A939D52350C021B3BA DUP6 PUSH1 0x40 MLOAD PUSH2 0x141A SWAP2 SWAP1 PUSH2 0x22A1 JUMP JUMPDEST PUSH1 0x40 MLOAD DUP1 SWAP2 SUB SWAP1 LOG2 POP POP POP POP POP JUMP JUMPDEST PUSH1 0x0 PUSH1 0x1 PUSH1 0x0 DUP5 PUSH20 0xFFFFFFFFFFFFFFFFFFFFFFFFFFFFFFFFFFFFFFFF AND PUSH20 0xFFFFFFFFFFFFFFFFFFFFFFFFFFFFFFFFFFFFFFFF AND DUP2 MSTORE PUSH1 0x20 ADD SWAP1 DUP2 MSTORE PUSH1 0x20 ADD PUSH1 0x0 KECCAK256 PUSH1 0x0 DUP4 PUSH20 0xFFFFFFFFFFFFFFFFFFFFFFFFFFFFFFFFFFFFFFFF AND PUSH20 0xFFFFFFFFFFFFFFFFFFFFFFFFFFFFFFFFFFFFFFFF AND DUP2 MSTORE PUSH1 0x20 ADD SWAP1 DUP2 MSTORE PUSH1 0x20 ADD PUSH1 0x0 KECCAK256 SLOAD SWAP1 POP SWAP3 SWAP2 POP POP JUMP JUMPDEST PUSH1 0x7 DUP2 DUP1 MLOAD PUSH1 0x20 DUP2 ADD DUP3 ADD DUP1 MLOAD DUP5 DUP3 MSTORE PUSH1 0x20 DUP4 ADD PUSH1 0x20 DUP6 ADD KECCAK256 DUP2 DUP4 MSTORE DUP1 SWAP6 POP POP POP POP POP POP PUSH1 0x0 SWAP2 POP SWAP1 POP DUP1 PUSH1 0x0 ADD PUSH1 0x0 SWAP1 SLOAD SWAP1 PUSH2 0x100 EXP SWAP1 DIV PUSH20 0xFFFFFFFFFFFFFFFFFFFFFFFFFFFFFFFFFFFFFFFF AND SWAP1 DUP1 PUSH1 0x1 ADD SLOAD SWAP1 DUP1 PUSH1 0x2 ADD SLOAD SWAP1 DUP1 PUSH1 0x3 ADD PUSH1 0x0 SWAP1 SLOAD SWAP1 PUSH2 0x100 EXP SWAP1 DIV PUSH1 0xFF AND SWAP1 POP DUP5 JUMP JUMPDEST PUSH32 0x65D7A28E3265B37A6474929F336521B332C1681B933F6CB9F3376673440D862A DUP2 JUMP JUMPDEST PUSH1 0x0 PUSH32 0x1FFC9A700000000000000000000000000000000000000000000000000000000 PUSH28 0xFFFFFFFFFFFFFFFFFFFFFFFFFFFFFFFFFFFFFFFFFFFFFFFFFFFFFFFF NOT AND DUP3 PUSH28 0xFFFFFFFFFFFFFFFFFFFFFFFFFFFFFFFFFFFFFFFFFFFFFFFFFFFFFFFF NOT AND EQ SWAP1 POP SWAP2 SWAP1 POP JUMP JUMPDEST PUSH1 0x0 CALLER SWAP1 POP SWAP1 JUMP JUMPDEST PUSH2 0x15C6 DUP4 DUP4 DUP4 PUSH1 0x1 PUSH2 0x1B17 JUMP JUMPDEST POP POP POP JUMP JUMPDEST PUSH2 0x15DC DUP2 PUSH2 0x15D7 PUSH2 0x15B1 JUMP JUMPDEST PUSH2 0x1CEE JUMP JUMPDEST POP JUMP JUMPDEST PUSH1 0x0 PUSH20 0xFFFFFFFFFFFFFFFFFFFFFFFFFFFFFFFFFFFFFFFF AND DUP4 PUSH20 0xFFFFFFFFFFFFFFFFFFFFFFFFFFFFFFFFFFFFFFFF AND SUB PUSH2 0x1651 JUMPI PUSH1 0x0 PUSH1 0x40 MLOAD PUSH32 0x96C6FD1E00000000000000000000000000000000000000000000000000000000 DUP2 MSTORE PUSH1 0x4 ADD PUSH2 0x1648 SWAP2 SWAP1 PUSH2 0x306E JUMP JUMPDEST PUSH1 0x40 MLOAD DUP1 SWAP2 SUB SWAP1 REVERT JUMPDEST PUSH1 0x0 PUSH20 0xFFFFFFFFFFFFFFFFFFFFFFFFFFFFFFFFFFFFFFFF AND DUP3 PUSH20 0xFFFFFFFFFFFFFFFFFFFFFFFFFFFFFFFFFFFFFFFF AND SUB PUSH2 0x16C3 JUMPI PUSH1 0x0 PUSH1 0x40 MLOAD PUSH32 0xEC442F0500000000000000000000000000000000000000000000000000000000 DUP2 MSTORE PUSH1 0x4 ADD PUSH2 0x16BA SWAP2 SWAP1 PUSH2 0x306E JUMP JUMPDEST PUSH1 0x40 MLOAD DUP1 SWAP2 SUB SWAP1 REVERT JUMPDEST PUSH2 0x16CE DUP4 DUP4 DUP4 PUSH2 0x1D3F JUMP JUMPDEST POP POP POP JUMP JUMPDEST PUSH1 0x0 PUSH2 0x16DF DUP5 DUP5 PUSH2 0x1429 JUMP JUMPDEST SWAP1 POP PUSH32 0xFFFFFFFFFFFFFFFFFFFFFFFFFFFFFFFFFFFFFFFFFFFFFFFFFFFFFFFFFFFFFFFF DUP2 LT ISZERO PUSH2 0x1762 JUMPI DUP2 DUP2 LT ISZERO PUSH2 0x1752 JUMPI DUP3 DUP2 DUP4 PUSH1 0x40 MLOAD PUSH32 0xFB8F41B200000000000000000000000000000000000000000000000000000000 DUP2 MSTORE PUSH1 0x4 ADD PUSH2 0x1749 SWAP4 SWAP3 SWAP2 SWAP1 PUSH2 0x3089 JUMP JUMPDEST PUSH1 0x40 MLOAD DUP1 SWAP2 SUB SWAP1 REVERT JUMPDEST PUSH2 0x1761 DUP5 DUP5 DUP5 DUP5 SUB PUSH1 0x0 PUSH2 0x1B17 JUMP JUMPDEST JUMPDEST POP POP POP POP JUMP JUMPDEST PUSH1 0x0 PUSH2 0x1774 DUP4 DUP4 PUSH2 0xE92 JUMP JUMPDEST PUSH2 0x184F JUMPI PUSH1 0x1 PUSH1 0x5 PUSH1 0x0 DUP6 DUP2 MSTORE PUSH1 0x20 ADD SWAP1 DUP2 MSTORE PUSH1 0x20 ADD PUSH1 0x0 KECCAK256 PUSH1 0x0 ADD PUSH1 0x0 DUP5 PUSH20 0xFFFFFFFFFFFFFFFFFFFFFFFFFFFFFFFFFFFFFFFF AND PUSH20 0xFFFFFFFFFFFFFFFFFFFFFFFFFFFFFFFFFFFFFFFF AND DUP2 MSTORE PUSH1 0x20 ADD SWAP1 DUP2 MSTORE PUSH1 0x20 ADD PUSH1 0x0 KECCAK256 PUSH1 0x0 PUSH2 0x100 EXP DUP2 SLOAD DUP2 PUSH1 0xFF MUL NOT AND SWAP1 DUP4 ISZERO ISZERO MUL OR SWAP1 SSTORE POP PUSH2 0x17EC PUSH2 0x15B1 JUMP JUMPDEST PUSH20 0xFFFFFFFFFFFFFFFFFFFFFFFFFFFFFFFFFFFFFFFF AND DUP3 PUSH20 0xFFFFFFFFFFFFFFFFFFFFFFFFFFFFFFFFFFFFFFFF AND DUP5 PUSH32 0x2F8788117E7EFF1D82E926EC794901D17C78024A50270940304540A733656F0D PUSH1 0x40 MLOAD PUSH1 0x40 MLOAD DUP1 SWAP2 SUB SWAP1 LOG4 PUSH1 0x1 SWAP1 POP PUSH2 0x1854 JUMP JUMPDEST PUSH1 0x0 SWAP1 POP JUMPDEST SWAP3 SWAP2 POP POP JUMP JUMPDEST PUSH1 0x0 PUSH2 0x1866 DUP4 DUP4 PUSH2 0xE92 JUMP JUMPDEST ISZERO PUSH2 0x1942 JUMPI PUSH1 0x0 PUSH1 0x5 PUSH1 0x0 DUP6 DUP2 MSTORE PUSH1 0x20 ADD SWAP1 DUP2 MSTORE PUSH1 0x20 ADD PUSH1 0x0 KECCAK256 PUSH1 0x0 ADD PUSH1 0x0 DUP5 PUSH20 0xFFFFFFFFFFFFFFFFFFFFFFFFFFFFFFFFFFFFFFFF AND PUSH20 0xFFFFFFFFFFFFFFFFFFFFFFFFFFFFFFFFFFFFFFFF AND DUP2 MSTORE PUSH1 0x20 ADD SWAP1 DUP2 MSTORE PUSH1 0x20 ADD PUSH1 0x0 KECCAK256 PUSH1 0x0 PUSH2 0x100 EXP DUP2 SLOAD DUP2 PUSH1 0xFF MUL NOT AND SWAP1 DUP4 ISZERO ISZERO MUL OR SWAP1 SSTORE POP PUSH2 0x18DF PUSH2 0x15B1 JUMP JUMPDEST PUSH20 0xFFFFFFFFFFFFFFFFFFFFFFFFFFFFFFFFFFFFFFFF AND DUP3 PUSH20 0xFFFFFFFFFFFFFFFFFFFFFFFFFFFFFFFFFFFFFFFF AND DUP5 PUSH32 0xF6391F5C32D9C69D2A47EA670B442974B53935D1EDC7FD64EB21E047A839171B PUSH1 0x40 MLOAD PUSH1 0x40 MLOAD DUP1 SWAP2 SUB SWAP1 LOG4 PUSH1 0x1 SWAP1 POP PUSH2 0x1947 JUMP JUMPDEST PUSH1 0x0 SWAP1 POP JUMPDEST SWAP3 SWAP2 POP POP JUMP JUMPDEST PUSH2 0x1955 PUSH2 0x1D97 JUMP JUMPDEST PUSH1 0x0 PUSH1 0x6 PUSH1 0x0 PUSH2 0x100 EXP DUP2 SLOAD DUP2 PUSH1 0xFF MUL NOT AND SWAP1 DUP4 ISZERO ISZERO MUL OR SWAP1 SSTORE POP PUSH32 0x5DB9EE0A495BF2E6FF9C91A7834C1BA4FDD244A5E8AA4E537BD38AEAE4B073AA PUSH2 0x1999 PUSH2 0x15B1 JUMP JUMPDEST PUSH1 0x40 MLOAD PUSH2 0x19A6 SWAP2 SWAP1 PUSH2 0x306E JUMP JUMPDEST PUSH1 0x40 MLOAD DUP1 SWAP2 SUB SWAP1 LOG1 JUMP JUMPDEST PUSH1 0x0 PUSH20 0xFFFFFFFFFFFFFFFFFFFFFFFFFFFFFFFFFFFFFFFF AND DUP3 PUSH20 0xFFFFFFFFFFFFFFFFFFFFFFFFFFFFFFFFFFFFFFFF AND SUB PUSH2 0x1A22 JUMPI PUSH1 0x0 PUSH1 0x40 MLOAD PUSH32 0xEC442F0500000000000000000000000000000000000000000000000000000000 DUP2 MSTORE PUSH1 0x4 ADD PUSH2 0x1A19 SWAP2 SWAP1 PUSH2 0x306E JUMP JUMPDEST PUSH1 0x40 MLOAD DUP1 SWAP2 SUB SWAP1 REVERT JUMPDEST PUSH2 0x1A2E PUSH1 0x0 DUP4 DUP4 PUSH2 0x1D3F JUMP JUMPDEST POP POP JUMP JUMPDEST PUSH1 0x0 PUSH20 0xFFFFFFFFFFFFFFFFFFFFFFFFFFFFFFFFFFFFFFFF AND DUP3 PUSH20 0xFFFFFFFFFFFFFFFFFFFFFFFFFFFFFFFFFFFFFFFF AND SUB PUSH2 0x1AA4 JUMPI PUSH1 0x0 PUSH1 0x40 MLOAD PUSH32 0x96C6FD1E00000000000000000000000000000000000000000000000000000000 DUP2 MSTORE PUSH1 0x4 ADD PUSH2 0x1A9B SWAP2 SWAP1 PUSH2 0x306E JUMP JUMPDEST PUSH1 0x40 MLOAD DUP1 SWAP2 SUB SWAP1 REVERT JUMPDEST PUSH2 0x1AB0 DUP3 PUSH1 0x0 DUP4 PUSH2 0x1D3F JUMP JUMPDEST POP POP JUMP JUMPDEST PUSH2 0x1ABC PUSH2 0x1DD7 JUMP JUMPDEST PUSH1 0x1 PUSH1 0x6 PUSH1 0x0 PUSH2 0x100 EXP DUP2 SLOAD DUP2 PUSH1 0xFF MUL NOT AND SWAP1 DUP4 ISZERO ISZERO MUL OR SWAP1 SSTORE POP PUSH32 0x62E78CEA01BEE320CD4E420270B5EA74000D11B0C9F74754EBDBFC544B05A258 PUSH2 0x1B00 PUSH2 0x15B1 JUMP JUMPDEST PUSH1 0x40 MLOAD PUSH2 0x1B0D SWAP2 SWAP1 PUSH2 0x306E JUMP JUMPDEST PUSH1 0x40 MLOAD DUP1 SWAP2 SUB SWAP1 LOG1 JUMP JUMPDEST PUSH1 0x0 PUSH20 0xFFFFFFFFFFFFFFFFFFFFFFFFFFFFFFFFFFFFFFFF AND DUP5 PUSH20 0xFFFFFFFFFFFFFFFFFFFFFFFFFFFFFFFFFFFFFFFF AND SUB PUSH2 0x1B89 JUMPI PUSH1 0x0 PUSH1 0x40 MLOAD PUSH32 0xE602DF0500000000000000000000000000000000000000000000000000000000 DUP2 MSTORE PUSH1 0x4 ADD PUSH2 0x1B80 SWAP2 SWAP1 PUSH2 0x306E JUMP JUMPDEST PUSH1 0x40 MLOAD DUP1 SWAP2 SUB SWAP1 REVERT JUMPDEST PUSH1 0x0 PUSH20 0xFFFFFFFFFFFFFFFFFFFFFFFFFFFFFFFFFFFFFFFF AND DUP4 PUSH20 0xFFFFFFFFFFFFFFFFFFFFFFFFFFFFFFFFFFFFFFFF AND SUB PUSH2 0x1BFB JUMPI PUSH1 0x0 PUSH1 0x40 MLOAD PUSH32 0x94280D6200000000000000000000000000000000000000000000000000000000 DUP2 MSTORE PUSH1 0x4 ADD PUSH2 0x1BF2 SWAP2 SWAP1 PUSH2 0x306E JUMP JUMPDEST PUSH1 0x40 MLOAD DUP1 SWAP2 SUB SWAP1 REVERT JUMPDEST DUP2 PUSH1 0x1 PUSH1 0x0 DUP7 PUSH20 0xFFFFFFFFFFFFFFFFFFFFFFFFFFFFFFFFFFFFFFFF AND PUSH20 0xFFFFFFFFFFFFFFFFFFFFFFFFFFFFFFFFFFFFFFFF AND DUP2 MSTORE PUSH1 0x20 ADD SWAP1 DUP2 MSTORE PUSH1 0x20 ADD PUSH1 0x0 KECCAK256 PUSH1 0x0 DUP6 PUSH20 0xFFFFFFFFFFFFFFFFFFFFFFFFFFFFFFFFFFFFFFFF AND PUSH20 0xFFFFFFFFFFFFFFFFFFFFFFFFFFFFFFFFFFFFFFFF AND DUP2 MSTORE PUSH1 0x20 ADD SWAP1 DUP2 MSTORE PUSH1 0x20 ADD PUSH1 0x0 KECCAK256 DUP2 SWAP1 SSTORE POP DUP1 ISZERO PUSH2 0x1CE8 JUMPI DUP3 PUSH20 0xFFFFFFFFFFFFFFFFFFFFFFFFFFFFFFFFFFFFFFFF AND DUP5 PUSH20 0xFFFFFFFFFFFFFFFFFFFFFFFFFFFFFFFFFFFFFFFF AND PUSH32 0x8C5BE1E5EBEC7D5BD14F71427D1E84F3DD0314C0F7B2291E5B200AC8C7C3B925 DUP5 PUSH1 0x40 MLOAD PUSH2 0x1CDF SWAP2 SWAP1 PUSH2 0x22A1 JUMP JUMPDEST PUSH1 0x40 MLOAD DUP1 SWAP2 SUB SWAP1 LOG3 JUMPDEST POP POP POP POP JUMP JUMPDEST PUSH2 0x1CF8 DUP3 DUP3 PUSH2 0xE92 JUMP JUMPDEST PUSH2 0x1D3B JUMPI DUP1 DUP3 PUSH1 0x40 MLOAD PUSH32 0xE2517D3F00000000000000000000000000000000000000000000000000000000 DUP2 MSTORE PUSH1 0x4 ADD PUSH2 0x1D32 SWAP3 SWAP2 SWAP1 PUSH2 0x30C0 JUMP JUMPDEST PUSH1 0x40 MLOAD DUP1 SWAP2 SUB SWAP1 REVERT JUMPDEST POP POP JUMP JUMPDEST PUSH2 0x1D47 PUSH2 0xD71 JUMP JUMPDEST ISZERO PUSH2 0x1D87 JUMPI PUSH1 0x40 MLOAD PUSH32 0x8C379A000000000000000000000000000000000000000000000000000000000 DUP2 MSTORE PUSH1 0x4 ADD PUSH2 0x1D7E SWAP1 PUSH2 0x315B JUMP JUMPDEST PUSH1 0x40 MLOAD DUP1 SWAP2 SUB SWAP1 REVERT JUMPDEST PUSH2 0x1D92 DUP4 DUP4 DUP4 PUSH2 0x1E18 JUMP JUMPDEST POP POP POP JUMP JUMPDEST PUSH2 0x1D9F PUSH2 0xD71 JUMP JUMPDEST PUSH2 0x1DD5 JUMPI PUSH1 0x40 MLOAD PUSH32 0x8DFC202B00000000000000000000000000000000000000000000000000000000 DUP2 MSTORE PUSH1 0x4 ADD PUSH1 0x40 MLOAD DUP1 SWAP2 SUB SWAP1 REVERT JUMPDEST JUMP JUMPDEST PUSH2 0x1DDF PUSH2 0xD71 JUMP JUMPDEST ISZERO PUSH2 0x1E16 JUMPI PUSH1 0x40 MLOAD PUSH32 0xD93C066500000000000000000000000000000000000000000000000000000000 DUP2 MSTORE PUSH1 0x4 ADD PUSH1 0x40 MLOAD DUP1 SWAP2 SUB SWAP1 REVERT JUMPDEST JUMP JUMPDEST PUSH1 0x0 PUSH20 0xFFFFFFFFFFFFFFFFFFFFFFFFFFFFFFFFFFFFFFFF AND DUP4 PUSH20 0xFFFFFFFFFFFFFFFFFFFFFFFFFFFFFFFFFFFFFFFF AND SUB PUSH2 0x1E6A JUMPI DUP1 PUSH1 0x2 PUSH1 0x0 DUP3 DUP3 SLOAD PUSH2 0x1E5E SWAP2 SWAP1 PUSH2 0x2CB0 JUMP JUMPDEST SWAP3 POP POP DUP2 SWAP1 SSTORE POP PUSH2 0x1F3D JUMP JUMPDEST PUSH1 0x0 DUP1 PUSH1 0x0 DUP6 PUSH20 0xFFFFFFFFFFFFFFFFFFFFFFFFFFFFFFFFFFFFFFFF AND PUSH20 0xFFFFFFFFFFFFFFFFFFFFFFFFFFFFFFFFFFFFFFFF AND DUP2 MSTORE PUSH1 0x20 ADD SWAP1 DUP2 MSTORE PUSH1 0x20 ADD PUSH1 0x0 KECCAK256 SLOAD SWAP1 POP DUP2 DUP2 LT ISZERO PUSH2 0x1EF6 JUMPI DUP4 DUP2 DUP4 PUSH1 0x40 MLOAD PUSH32 0xE450D38C00000000000000000000000000000000000000000000000000000000 DUP2 MSTORE PUSH1 0x4 ADD PUSH2 0x1EED SWAP4 SWAP3 SWAP2 SWAP1 PUSH2 0x3089 JUMP JUMPDEST PUSH1 0x40 MLOAD DUP1 SWAP2 SUB SWAP1 REVERT JUMPDEST DUP2 DUP2 SUB PUSH1 0x0 DUP1 DUP7 PUSH20 0xFFFFFFFFFFFFFFFFFFFFFFFFFFFFFFFFFFFFFFFF AND PUSH20 0xFFFFFFFFFFFFFFFFFFFFFFFFFFFFFFFFFFFFFFFF AND DUP2 MSTORE PUSH1 0x20 ADD SWAP1 DUP2 MSTORE PUSH1 0x20 ADD PUSH1 0x0 KECCAK256 DUP2 SWAP1 SSTORE POP POP JUMPDEST PUSH1 0x0 PUSH20 0xFFFFFFFFFFFFFFFFFFFFFFFFFFFFFFFFFFFFFFFF AND DUP3 PUSH20 0xFFFFFFFFFFFFFFFFFFFFFFFFFFFFFFFFFFFFFFFF AND SUB PUSH2 0x1F86 JUMPI DUP1 PUSH1 0x2 PUSH1 0x0 DUP3 DUP3 SLOAD SUB SWAP3 POP POP DUP2 SWAP1 SSTORE POP PUSH2 0x1FD3 JUMP JUMPDEST DUP1 PUSH1 0x0 DUP1 DUP5 PUSH20 0xFFFFFFFFFFFFFFFFFFFFFFFFFFFFFFFFFFFFFFFF AND PUSH20 0xFFFFFFFFFFFFFFFFFFFFFFFFFFFFFFFFFFFFFFFF AND DUP2 MSTORE PUSH1 0x20 ADD SWAP1 DUP2 MSTORE PUSH1 0x20 ADD PUSH1 0x0 KECCAK256 PUSH1 0x0 DUP3 DUP3 SLOAD ADD SWAP3 POP POP DUP2 SWAP1 SSTORE POP JUMPDEST DUP2 PUSH20 0xFFFFFFFFFFFFFFFFFFFFFFFFFFFFFFFFFFFFFFFF AND DUP4 PUSH20 0xFFFFFFFFFFFFFFFFFFFFFFFFFFFFFFFFFFFFFFFF AND PUSH32 0xDDF252AD1BE2C89B69C2B068FC378DAA952BA7F163C4A11628F55A4DF523B3EF DUP4 PUSH1 0x40 MLOAD PUSH2 0x2030 SWAP2 SWAP1 PUSH2 0x22A1 JUMP JUMPDEST PUSH1 0x40 MLOAD DUP1 SWAP2 SUB SWAP1 LOG3 POP POP POP JUMP JUMPDEST PUSH1 0x0 PUSH1 0x40 MLOAD SWAP1 POP SWAP1 JUMP JUMPDEST PUSH1 0x0 DUP1 REVERT JUMPDEST PUSH1 0x0 DUP1 REVERT JUMPDEST PUSH1 0x0 PUSH32 0xFFFFFFFF00000000000000000000000000000000000000000000000000000000 DUP3 AND SWAP1 POP SWAP2 SWAP1 POP JUMP JUMPDEST PUSH2 0x2086 DUP2 PUSH2 0x2051 JUMP JUMPDEST DUP2 EQ PUSH2 0x2091 JUMPI PUSH1 0x0 DUP1 REVERT JUMPDEST POP JUMP JUMPDEST PUSH1 0x0 DUP2 CALLDATALOAD SWAP1 POP PUSH2 0x20A3 DUP2 PUSH2 0x207D JUMP JUMPDEST SWAP3 SWAP2 POP POP JUMP JUMPDEST PUSH1 0x0 PUSH1 0x20 DUP3 DUP5 SUB SLT ISZERO PUSH2 0x20BF JUMPI PUSH2 0x20BE PUSH2 0x2047 JUMP JUMPDEST JUMPDEST PUSH1 0x0 PUSH2 0x20CD DUP5 DUP3 DUP6 ADD PUSH2 0x2094 JUMP JUMPDEST SWAP2 POP POP SWAP3 SWAP2 POP POP JUMP JUMPDEST PUSH1 0x0 DUP2 ISZERO ISZERO SWAP1 POP SWAP2 SWAP1 POP JUMP JUMPDEST PUSH2 0x20EB DUP2 PUSH2 0x20D6 JUMP JUMPDEST DUP3 MSTORE POP POP JUMP JUMPDEST PUSH1 0x0 PUSH1 0x20 DUP3 ADD SWAP1 POP PUSH2 0x2106 PUSH1 0x0 DUP4 ADD DUP5 PUSH2 0x20E2 JUMP JUMPDEST SWAP3 SWAP2 POP POP JUMP JUMPDEST PUSH1 0x0 DUP2 MLOAD SWAP1 POP SWAP2 SWAP1 POP JUMP JUMPDEST PUSH1 0x0 DUP3 DUP3 MSTORE PUSH1 0x20 DUP3 ADD SWAP1 POP SWAP3 SWAP2 POP POP JUMP JUMPDEST PUSH1 0x0 JUMPDEST DUP4 DUP2 LT ISZERO PUSH2 0x2146 JUMPI DUP1 DUP3 ADD MLOAD DUP2 DUP5 ADD MSTORE PUSH1 0x20 DUP2 ADD SWAP1 POP PUSH2 0x212B JUMP JUMPDEST PUSH1 0x0 DUP5 DUP5 ADD MSTORE POP POP POP POP JUMP JUMPDEST PUSH1 0x0 PUSH1 0x1F NOT PUSH1 0x1F DUP4 ADD AND SWAP1 POP SWAP2 SWAP1 POP JUMP JUMPDEST PUSH1 0x0 PUSH2 0x216E DUP3 PUSH2 0x210C JUMP JUMPDEST PUSH2 0x2178 DUP2 DUP6 PUSH2 0x2117 JUMP JUMPDEST SWAP4 POP PUSH2 0x2188 DUP2 DUP6 PUSH1 0x20 DUP7 ADD PUSH2 0x2128 JUMP JUMPDEST PUSH2 0x2191 DUP2 PUSH2 0x2152 JUMP JUMPDEST DUP5 ADD SWAP2 POP POP SWAP3 SWAP2 POP POP JUMP JUMPDEST PUSH1 0x0 PUSH1 0x20 DUP3 ADD SWAP1 POP DUP2 DUP2 SUB PUSH1 0x0 DUP4 ADD MSTORE PUSH2 0x21B6 DUP2 DUP5 PUSH2 0x2163 JUMP JUMPDEST SWAP1 POP SWAP3 SWAP2 POP POP JUMP JUMPDEST PUSH1 0x0 PUSH20 0xFFFFFFFFFFFFFFFFFFFFFFFFFFFFFFFFFFFFFFFF DUP3 AND SWAP1 POP SWAP2 SWAP1 POP JUMP JUMPDEST PUSH1 0x0 PUSH2 0x21E9 DUP3 PUSH2 0x21BE JUMP JUMPDEST SWAP1 POP SWAP2 SWAP1 POP JUMP JUMPDEST PUSH2 0x21F9 DUP2 PUSH2 0x21DE JUMP JUMPDEST DUP2 EQ PUSH2 0x2204 JUMPI PUSH1 0x0 DUP1 REVERT JUMPDEST POP JUMP JUMPDEST PUSH1 0x0 DUP2 CALLDATALOAD SWAP1 POP PUSH2 0x2216 DUP2 PUSH2 0x21F0 JUMP JUMPDEST SWAP3 SWAP2 POP POP JUMP JUMPDEST PUSH1 0x0 DUP2 SWAP1 POP SWAP2 SWAP1 POP JUMP JUMPDEST PUSH2 0x222F DUP2 PUSH2 0x221C JUMP JUMPDEST DUP2 EQ PUSH2 0x223A JUMPI PUSH1 0x0 DUP1 REVERT JUMPDEST POP JUMP JUMPDEST PUSH1 0x0 DUP2 CALLDATALOAD SWAP1 POP PUSH2 0x224C DUP2 PUSH2 0x2226 JUMP JUMPDEST SWAP3 SWAP2 POP POP JUMP JUMPDEST PUSH1 0x0 DUP1 PUSH1 0x40 DUP4 DUP6 SUB SLT ISZERO PUSH2 0x2269 JUMPI PUSH2 0x2268 PUSH2 0x2047 JUMP JUMPDEST JUMPDEST PUSH1 0x0 PUSH2 0x2277 DUP6 DUP3 DUP7 ADD PUSH2 0x2207 JUMP JUMPDEST SWAP3 POP POP PUSH1 0x20 PUSH2 0x2288 DUP6 DUP3 DUP7 ADD PUSH2 0x223D JUMP JUMPDEST SWAP2 POP POP SWAP3 POP SWAP3 SWAP1 POP JUMP JUMPDEST PUSH2 0x229B DUP2 PUSH2 0x221C JUMP JUMPDEST DUP3 MSTORE POP POP JUMP JUMPDEST PUSH1 0x0 PUSH1 0x20 DUP3 ADD SWAP1 POP PUSH2 0x22B6 PUSH1 0x0 DUP4 ADD DUP5 PUSH2 0x2292 JUMP JUMPDEST SWAP3 SWAP2 POP POP JUMP JUMPDEST PUSH1 0x0 DUP1 REVERT JUMPDEST PUSH32 0x4E487B7100000000000000000000000000000000000000000000000000000000 PUSH1 0x0 MSTORE PUSH1 0x41 PUSH1 0x4 MSTORE PUSH1 0x24 PUSH1 0x0 REVERT JUMPDEST PUSH2 0x22F9 DUP3 PUSH2 0x2152 JUMP JUMPDEST DUP2 ADD DUP2 DUP2 LT PUSH8 0xFFFFFFFFFFFFFFFF DUP3 GT OR ISZERO PUSH2 0x2318 JUMPI PUSH2 0x2317 PUSH2 0x22C1 JUMP JUMPDEST JUMPDEST DUP1 PUSH1 0x40 MSTORE POP POP POP JUMP JUMPDEST PUSH1 0x0 PUSH2 0x232B PUSH2 0x203D JUMP JUMPDEST SWAP1 POP PUSH2 0x2337 DUP3 DUP3 PUSH2 0x22F0 JUMP JUMPDEST SWAP2 SWAP1 POP JUMP JUMPDEST PUSH1 0x0 DUP1 REVERT JUMPDEST PUSH1 0x0 DUP2 SWAP1 POP SWAP2 SWAP1 POP JUMP JUMPDEST PUSH2 0x2354 DUP2 PUSH2 0x2341 JUMP JUMPDEST DUP2 EQ PUSH2 0x235F JUMPI PUSH1 0x0 DUP1 REVERT JUMPDEST POP JUMP JUMPDEST PUSH1 0x0 DUP2 CALLDATALOAD SWAP1 POP PUSH2 0x2371 DUP2 PUSH2 0x234B JUMP JUMPDEST SWAP3 SWAP2 POP POP JUMP JUMPDEST PUSH1 0x0 DUP1 REVERT JUMPDEST PUSH1 0x0 DUP1 REVERT JUMPDEST PUSH1 0x0 PUSH8 0xFFFFFFFFFFFFFFFF DUP3 GT ISZERO PUSH2 0x239C JUMPI PUSH2 0x239B PUSH2 0x22C1 JUMP JUMPDEST JUMPDEST PUSH2 0x23A5 DUP3 PUSH2 0x2152 JUMP JUMPDEST SWAP1 POP PUSH1 0x20 DUP2 ADD SWAP1 POP SWAP2 SWAP1 POP JUMP JUMPDEST DUP3 DUP2 DUP4 CALLDATACOPY PUSH1 0x0 DUP4 DUP4 ADD MSTORE POP POP POP JUMP JUMPDEST PUSH1 0x0 PUSH2 0x23D4 PUSH2 0x23CF DUP5 PUSH2 0x2381 JUMP JUMPDEST PUSH2 0x2321 JUMP JUMPDEST SWAP1 POP DUP3 DUP2 MSTORE PUSH1 0x20 DUP2 ADD DUP5 DUP5 DUP5 ADD GT ISZERO PUSH2 0x23F0 JUMPI PUSH2 0x23EF PUSH2 0x237C JUMP JUMPDEST JUMPDEST PUSH2 0x23FB DUP5 DUP3 DUP6 PUSH2 0x23B2 JUMP JUMPDEST POP SWAP4 SWAP3 POP POP POP JUMP JUMPDEST PUSH1 0x0 DUP3 PUSH1 0x1F DUP4 ADD SLT PUSH2 0x2418 JUMPI PUSH2 0x2417 PUSH2 0x2377 JUMP JUMPDEST JUMPDEST DUP2 CALLDATALOAD PUSH2 0x2428 DUP5 DUP3 PUSH1 0x20 DUP7 ADD PUSH2 0x23C1 JUMP JUMPDEST SWAP2 POP POP SWAP3 SWAP2 POP POP JUMP JUMPDEST PUSH1 0x0 PUSH1 0xE0 DUP3 DUP5 SUB SLT ISZERO PUSH2 0x2447 JUMPI PUSH2 0x2446 PUSH2 0x22BC JUMP JUMPDEST JUMPDEST PUSH2 0x2451 PUSH1 0xE0 PUSH2 0x2321 JUMP JUMPDEST SWAP1 POP PUSH1 0x0 PUSH2 0x2461 DUP5 DUP3 DUP6 ADD PUSH2 0x2362 JUMP JUMPDEST PUSH1 0x0 DUP4 ADD MSTORE POP PUSH1 0x20 PUSH2 0x2475 DUP5 DUP3 DUP6 ADD PUSH2 0x2207 JUMP JUMPDEST PUSH1 0x20 DUP4 ADD MSTORE POP PUSH1 0x40 PUSH2 0x2489 DUP5 DUP3 DUP6 ADD PUSH2 0x2207 JUMP JUMPDEST PUSH1 0x40 DUP4 ADD MSTORE POP PUSH1 0x60 PUSH2 0x249D DUP5 DUP3 DUP6 ADD PUSH2 0x223D JUMP JUMPDEST PUSH1 0x60 DUP4 ADD MSTORE POP PUSH1 0x80 PUSH2 0x24B1 DUP5 DUP3 DUP6 ADD PUSH2 0x223D JUMP JUMPDEST PUSH1 0x80 DUP4 ADD MSTORE POP PUSH1 0xA0 PUSH2 0x24C5 DUP5 DUP3 DUP6 ADD PUSH2 0x223D JUMP JUMPDEST PUSH1 0xA0 DUP4 ADD MSTORE POP PUSH1 0xC0 DUP3 ADD CALLDATALOAD PUSH8 0xFFFFFFFFFFFFFFFF DUP2 GT ISZERO PUSH2 0x24E9 JUMPI PUSH2 0x24E8 PUSH2 0x233C JUMP JUMPDEST JUMPDEST PUSH2 0x24F5 DUP5 DUP3 DUP6 ADD PUSH2 0x2403 JUMP JUMPDEST PUSH1 0xC0 DUP4 ADD MSTORE POP SWAP3 SWAP2 POP POP JUMP JUMPDEST PUSH1 0x0 PUSH1 0x20 DUP3 DUP5 SUB SLT ISZERO PUSH2 0x2517 JUMPI PUSH2 0x2516 PUSH2 0x2047 JUMP JUMPDEST JUMPDEST PUSH1 0x0 DUP3 ADD CALLDATALOAD PUSH8 0xFFFFFFFFFFFFFFFF DUP2 GT ISZERO PUSH2 0x2535 JUMPI PUSH2 0x2534 PUSH2 0x204C JUMP JUMPDEST JUMPDEST PUSH2 0x2541 DUP5 DUP3 DUP6 ADD PUSH2 0x2431 JUMP JUMPDEST SWAP2 POP POP SWAP3 SWAP2 POP POP JUMP JUMPDEST PUSH1 0x0 DUP1 PUSH1 0x0 PUSH1 0x60 DUP5 DUP7 SUB SLT ISZERO PUSH2 0x2563 JUMPI PUSH2 0x2562 PUSH2 0x2047 JUMP JUMPDEST JUMPDEST PUSH1 0x0 PUSH2 0x2571 DUP7 DUP3 DUP8 ADD PUSH2 0x2207 JUMP JUMPDEST SWAP4 POP POP PUSH1 0x20 PUSH2 0x2582 DUP7 DUP3 DUP8 ADD PUSH2 0x2207 JUMP JUMPDEST SWAP3 POP POP PUSH1 0x40 PUSH2 0x2593 DUP7 DUP3 DUP8 ADD PUSH2 0x223D JUMP JUMPDEST SWAP2 POP POP SWAP3 POP SWAP3 POP SWAP3 JUMP JUMPDEST PUSH1 0x0 PUSH1 0x20 DUP3 DUP5 SUB SLT ISZERO PUSH2 0x25B3 JUMPI PUSH2 0x25B2 PUSH2 0x2047 JUMP JUMPDEST JUMPDEST PUSH1 0x0 PUSH2 0x25C1 DUP5 DUP3 DUP6 ADD PUSH2 0x2362 JUMP JUMPDEST SWAP2 POP POP SWAP3 SWAP2 POP POP JUMP JUMPDEST PUSH2 0x25D3 DUP2 PUSH2 0x2341 JUMP JUMPDEST DUP3 MSTORE POP POP JUMP JUMPDEST PUSH1 0x0 PUSH1 0x20 DUP3 ADD SWAP1 POP PUSH2 0x25EE PUSH1 0x0 DUP4 ADD DUP5 PUSH2 0x25CA JUMP JUMPDEST SWAP3 SWAP2 POP POP JUMP JUMPDEST PUSH1 0x0 DUP1 PUSH1 0x40 DUP4 DUP6 SUB SLT ISZERO PUSH2 0x260B JUMPI PUSH2 0x260A PUSH2 0x2047 JUMP JUMPDEST JUMPDEST PUSH1 0x0 PUSH2 0x2619 DUP6 DUP3 DUP7 ADD PUSH2 0x2362 JUMP JUMPDEST SWAP3 POP POP PUSH1 0x20 PUSH2 0x262A DUP6 DUP3 DUP7 ADD PUSH2 0x2207 JUMP JUMPDEST SWAP2 POP POP SWAP3 POP SWAP3 SWAP1 POP JUMP JUMPDEST PUSH1 0x0 PUSH1 0x20 DUP3 DUP5 SUB SLT ISZERO PUSH2 0x264A JUMPI PUSH2 0x2649 PUSH2 0x2047 JUMP JUMPDEST JUMPDEST PUSH1 0x0 PUSH2 0x2658 DUP5 DUP3 DUP6 ADD PUSH2 0x2207 JUMP JUMPDEST SWAP2 POP POP SWAP3 SWAP2 POP POP JUMP JUMPDEST PUSH1 0x0 PUSH1 0xFF DUP3 AND SWAP1 POP SWAP2 SWAP1 POP JUMP JUMPDEST PUSH2 0x2677 DUP2 PUSH2 0x2661 JUMP JUMPDEST DUP3 MSTORE POP POP JUMP JUMPDEST PUSH1 0x0 PUSH1 0x20 DUP3 ADD SWAP1 POP PUSH2 0x2692 PUSH1 0x0 DUP4 ADD DUP5 PUSH2 0x266E JUMP JUMPDEST SWAP3 SWAP2 POP POP JUMP JUMPDEST PUSH1 0x0 PUSH1 0x20 DUP3 DUP5 SUB SLT ISZERO PUSH2 0x26AE JUMPI PUSH2 0x26AD PUSH2 0x2047 JUMP JUMPDEST JUMPDEST PUSH1 0x0 PUSH2 0x26BC DUP5 DUP3 DUP6 ADD PUSH2 0x223D JUMP JUMPDEST SWAP2 POP POP SWAP3 SWAP2 POP POP JUMP JUMPDEST PUSH1 0x0 PUSH8 0xFFFFFFFFFFFFFFFF DUP3 GT ISZERO PUSH2 0x26E0 JUMPI PUSH2 0x26DF PUSH2 0x22C1 JUMP JUMPDEST JUMPDEST PUSH2 0x26E9 DUP3 PUSH2 0x2152 JUMP JUMPDEST SWAP1 POP PUSH1 0x20 DUP2 ADD SWAP1 POP SWAP2 SWAP1 POP JUMP JUMPDEST PUSH1 0x0 PUSH2 0x2709 PUSH2 0x2704 DUP5 PUSH2 0x26C5 JUMP JUMPDEST PUSH2 0x2321 JUMP JUMPDEST SWAP1 POP DUP3 DUP2 MSTORE PUSH1 0x20 DUP2 ADD DUP5 DUP5 DUP5 ADD GT ISZERO PUSH2 0x2725 JUMPI PUSH2 0x2724 PUSH2 0x237C JUMP JUMPDEST JUMPDEST PUSH2 0x2730 DUP5 DUP3 DUP6 PUSH2 0x23B2 JUMP JUMPDEST POP SWAP4 SWAP3 POP POP POP JUMP JUMPDEST PUSH1 0x0 DUP3 PUSH1 0x1F DUP4 ADD SLT PUSH2 0x274D JUMPI PUSH2 0x274C PUSH2 0x2377 JUMP JUMPDEST JUMPDEST DUP2 CALLDATALOAD PUSH2 0x275D DUP5 DUP3 PUSH1 0x20 DUP7 ADD PUSH2 0x26F6 JUMP JUMPDEST SWAP2 POP POP SWAP3 SWAP2 POP POP JUMP JUMPDEST PUSH1 0x0 DUP1 PUSH1 0x0 PUSH1 0x60 DUP5 DUP7 SUB SLT ISZERO PUSH2 0x277F JUMPI PUSH2 0x277E PUSH2 0x2047 JUMP JUMPDEST JUMPDEST PUSH1 0x0 DUP5 ADD CALLDATALOAD PUSH8 0xFFFFFFFFFFFFFFFF DUP2 GT ISZERO PUSH2 0x279D JUMPI PUSH2 0x279C PUSH2 0x204C JUMP JUMPDEST JUMPDEST PUSH2 0x27A9 DUP7 DUP3 DUP8 ADD PUSH2 0x2738 JUMP JUMPDEST SWAP4 POP POP PUSH1 0x20 PUSH2 0x27BA DUP7 DUP3 DUP8 ADD PUSH2 0x2207 JUMP JUMPDEST SWAP3 POP POP PUSH1 0x40 PUSH2 0x27CB DUP7 DUP3 DUP8 ADD PUSH2 0x223D JUMP JUMPDEST SWAP2 POP POP SWAP3 POP SWAP3 POP SWAP3 JUMP JUMPDEST PUSH1 0x0 DUP1 PUSH1 0x40 DUP4 DUP6 SUB SLT ISZERO PUSH2 0x27EC JUMPI PUSH2 0x27EB PUSH2 0x2047 JUMP JUMPDEST JUMPDEST PUSH1 0x0 DUP4 ADD CALLDATALOAD PUSH8 0xFFFFFFFFFFFFFFFF DUP2 GT ISZERO PUSH2 0x280A JUMPI PUSH2 0x2809 PUSH2 0x204C JUMP JUMPDEST JUMPDEST PUSH2 0x2816 DUP6 DUP3 DUP7 ADD PUSH2 0x2738 JUMP JUMPDEST SWAP3 POP POP PUSH1 0x20 PUSH2 0x2827 DUP6 DUP3 DUP7 ADD PUSH2 0x223D JUMP JUMPDEST SWAP2 POP POP SWAP3 POP SWAP3 SWAP1 POP JUMP JUMPDEST PUSH1 0x0 DUP1 PUSH1 0x40 DUP4 DUP6 SUB SLT ISZERO PUSH2 0x2848 JUMPI PUSH2 0x2847 PUSH2 0x2047 JUMP JUMPDEST JUMPDEST PUSH1 0x0 PUSH2 0x2856 DUP6 DUP3 DUP7 ADD PUSH2 0x2207 JUMP JUMPDEST SWAP3 POP POP PUSH1 0x20 PUSH2 0x2867 DUP6 DUP3 DUP7 ADD PUSH2 0x2207 JUMP JUMPDEST SWAP2 POP POP SWAP3 POP SWAP3 SWAP1 POP JUMP JUMPDEST PUSH1 0x0 PUSH1 0x20 DUP3 DUP5 SUB SLT ISZERO PUSH2 0x2887 JUMPI PUSH2 0x2886 PUSH2 0x2047 JUMP JUMPDEST JUMPDEST PUSH1 0x0 DUP3 ADD CALLDATALOAD PUSH8 0xFFFFFFFFFFFFFFFF DUP2 GT ISZERO PUSH2 0x28A5 JUMPI PUSH2 0x28A4 PUSH2 0x204C JUMP JUMPDEST JUMPDEST PUSH2 0x28B1 DUP5 DUP3 DUP6 ADD PUSH2 0x2738 JUMP JUMPDEST SWAP2 POP POP SWAP3 SWAP2 POP POP JUMP JUMPDEST PUSH2 0x28C3 DUP2 PUSH2 0x21DE JUMP JUMPDEST DUP3 MSTORE POP POP JUMP JUMPDEST PUSH1 0x0 PUSH1 0x80 DUP3 ADD SWAP1 POP PUSH2 0x28DE PUSH1 0x0 DUP4 ADD DUP8 PUSH2 0x28BA JUMP JUMPDEST PUSH2 0x28EB PUSH1 0x20 DUP4 ADD DUP7 PUSH2 0x2292 JUMP JUMPDEST PUSH2 0x28F8 PUSH1 0x40 DUP4 ADD DUP6 PUSH2 0x2292 JUMP JUMPDEST PUSH2 0x2905 PUSH1 0x60 DUP4 ADD DUP5 PUSH2 0x20E2 JUMP JUMPDEST SWAP6 SWAP5 POP POP POP POP POP JUMP JUMPDEST PUSH32 0x4E487B7100000000000000000000000000000000000000000000000000000000 PUSH1 0x0 MSTORE PUSH1 0x22 PUSH1 0x4 MSTORE PUSH1 0x24 PUSH1 0x0 REVERT JUMPDEST PUSH1 0x0 PUSH1 0x2 DUP3 DIV SWAP1 POP PUSH1 0x1 DUP3 AND DUP1 PUSH2 0x2955 JUMPI PUSH1 0x7F DUP3 AND SWAP2 POP JUMPDEST PUSH1 0x20 DUP3 LT DUP2 SUB PUSH2 0x2968 JUMPI PUSH2 0x2967 PUSH2 0x290E JUMP JUMPDEST JUMPDEST POP SWAP2 SWAP1 POP JUMP JUMPDEST PUSH32 0x5472616E73616374696F6E20616C72656164792070726F636573736564000000 PUSH1 0x0 DUP3 ADD MSTORE POP JUMP JUMPDEST PUSH1 0x0 PUSH2 0x29A4 PUSH1 0x1D DUP4 PUSH2 0x2117 JUMP JUMPDEST SWAP2 POP PUSH2 0x29AF DUP3 PUSH2 0x296E JUMP JUMPDEST PUSH1 0x20 DUP3 ADD SWAP1 POP SWAP2 SWAP1 POP JUMP JUMPDEST PUSH1 0x0 PUSH1 0x20 DUP3 ADD SWAP1 POP DUP2 DUP2 SUB PUSH1 0x0 DUP4 ADD MSTORE PUSH2 0x29D3 DUP2 PUSH2 0x2997 JUMP JUMPDEST SWAP1 POP SWAP2 SWAP1 POP JUMP JUMPDEST PUSH1 0x0 DUP2 PUSH1 0x60 SHL SWAP1 POP SWAP2 SWAP1 POP JUMP JUMPDEST PUSH1 0x0 PUSH2 0x29F2 DUP3 PUSH2 0x29DA JUMP JUMPDEST SWAP1 POP SWAP2 SWAP1 POP JUMP JUMPDEST PUSH1 0x0 PUSH2 0x2A04 DUP3 PUSH2 0x29E7 JUMP JUMPDEST SWAP1 POP SWAP2 SWAP1 POP JUMP JUMPDEST PUSH2 0x2A1C PUSH2 0x2A17 DUP3 PUSH2 0x21DE JUMP JUMPDEST PUSH2 0x29F9 JUMP JUMPDEST DUP3 MSTORE POP POP JUMP JUMPDEST PUSH1 0x0 DUP2 SWAP1 POP SWAP2 SWAP1 POP JUMP JUMPDEST PUSH2 0x2A3D PUSH2 0x2A38 DUP3 PUSH2 0x221C JUMP JUMPDEST PUSH2 0x2A22 JUMP JUMPDEST DUP3 MSTORE POP POP JUMP JUMPDEST PUSH1 0x0 PUSH2 0x2A4F DUP3 DUP9 PUSH2 0x2A0B JUMP JUMPDEST PUSH1 0x14 DUP3 ADD SWAP2 POP PUSH2 0x2A5F DUP3 DUP8 PUSH2 0x2A0B JUMP JUMPDEST PUSH1 0x14 DUP3 ADD SWAP2 POP PUSH2 0x2A6F DUP3 DUP7 PUSH2 0x2A2C JUMP JUMPDEST PUSH1 0x20 DUP3 ADD SWAP2 POP PUSH2 0x2A7F DUP3 DUP6 PUSH2 0x2A2C JUMP JUMPDEST PUSH1 0x20 DUP3 ADD SWAP2 POP PUSH2 0x2A8F DUP3 DUP5 PUSH2 0x2A2C JUMP JUMPDEST PUSH1 0x20 DUP3 ADD SWAP2 POP DUP2 SWAP1 POP SWAP7 SWAP6 POP POP POP POP POP POP JUMP JUMPDEST PUSH32 0x496E76616C6964207472616E73616374696F6E20686173680000000000000000 PUSH1 0x0 DUP3 ADD MSTORE POP JUMP JUMPDEST PUSH1 0x0 PUSH2 0x2AD8 PUSH1 0x18 DUP4 PUSH2 0x2117 JUMP JUMPDEST SWAP2 POP PUSH2 0x2AE3 DUP3 PUSH2 0x2AA2 JUMP JUMPDEST PUSH1 0x20 DUP3 ADD SWAP1 POP SWAP2 SWAP1 POP JUMP JUMPDEST PUSH1 0x0 PUSH1 0x20 DUP3 ADD SWAP1 POP DUP2 DUP2 SUB PUSH1 0x0 DUP4 ADD MSTORE PUSH2 0x2B07 DUP2 PUSH2 0x2ACB JUMP JUMPDEST SWAP1 POP SWAP2 SWAP1 POP JUMP JUMPDEST PUSH32 0x496E76616C6964206E6F6E636500000000000000000000000000000000000000 PUSH1 0x0 DUP3 ADD MSTORE POP JUMP JUMPDEST PUSH1 0x0 PUSH2 0x2B44 PUSH1 0xD DUP4 PUSH2 0x2117 JUMP JUMPDEST SWAP2 POP PUSH2 0x2B4F DUP3 PUSH2 0x2B0E JUMP JUMPDEST PUSH1 0x20 DUP3 ADD SWAP1 POP SWAP2 SWAP1 POP JUMP JUMPDEST PUSH1 0x0 PUSH1 0x20 DUP3 ADD SWAP1 POP DUP2 DUP2 SUB PUSH1 0x0 DUP4 ADD MSTORE PUSH2 0x2B73 DUP2 PUSH2 0x2B37 JUMP JUMPDEST SWAP1 POP SWAP2 SWAP1 POP JUMP JUMPDEST PUSH32 0x4E487B7100000000000000000000000000000000000000000000000000000000 PUSH1 0x0 MSTORE PUSH1 0x11 PUSH1 0x4 MSTORE PUSH1 0x24 PUSH1 0x0 REVERT JUMPDEST PUSH1 0x0 PUSH2 0x2BB4 DUP3 PUSH2 0x221C JUMP JUMPDEST SWAP2 POP PUSH32 0xFFFFFFFFFFFFFFFFFFFFFFFFFFFFFFFFFFFFFFFFFFFFFFFFFFFFFFFFFFFFFFFF DUP3 SUB PUSH2 0x2BE6 JUMPI PUSH2 0x2BE5 PUSH2 0x2B7A JUMP JUMPDEST JUMPDEST PUSH1 0x1 DUP3 ADD SWAP1 POP SWAP2 SWAP1 POP JUMP JUMPDEST PUSH1 0x0 DUP2 SWAP1 POP SWAP3 SWAP2 POP POP JUMP JUMPDEST PUSH1 0x0 PUSH2 0x2C07 DUP3 PUSH2 0x210C JUMP JUMPDEST PUSH2 0x2C11 DUP2 DUP6 PUSH2 0x2BF1 JUMP JUMPDEST SWAP4 POP PUSH2 0x2C21 DUP2 DUP6 PUSH1 0x20 DUP7 ADD PUSH2 0x2128 JUMP JUMPDEST DUP1 DUP5 ADD SWAP2 POP POP SWAP3 SWAP2 POP POP JUMP JUMPDEST PUSH1 0x0 PUSH2 0x2C39 DUP3 DUP5 PUSH2 0x2BFC JUMP JUMPDEST SWAP2 POP DUP2 SWAP1 POP SWAP3 SWAP2 POP POP JUMP JUMPDEST PUSH32 0x417373657420616C726561647920657869737473000000000000000000000000 PUSH1 0x0 DUP3 ADD MSTORE POP JUMP JUMPDEST PUSH1 0x0 PUSH2 0x2C7A PUSH1 0x14 DUP4 PUSH2 0x2117 JUMP JUMPDEST SWAP2 POP PUSH2 0x2C85 DUP3 PUSH2 0x2C44 JUMP JUMPDEST PUSH1 0x20 DUP3 ADD SWAP1 POP SWAP2 SWAP1 POP JUMP JUMPDEST PUSH1 0x0 PUSH1 0x20 DUP3 ADD SWAP1 POP DUP2 DUP2 SUB PUSH1 0x0 DUP4 ADD MSTORE PUSH2 0x2CA9 DUP2 PUSH2 0x2C6D JUMP JUMPDEST SWAP1 POP SWAP2 SWAP1 POP JUMP JUMPDEST PUSH1 0x0 PUSH2 0x2CBB DUP3 PUSH2 0x221C JUMP JUMPDEST SWAP2 POP PUSH2 0x2CC6 DUP4 PUSH2 0x221C JUMP JUMPDEST SWAP3 POP DUP3 DUP3 ADD SWAP1 POP DUP1 DUP3 GT ISZERO PUSH2 0x2CDE JUMPI PUSH2 0x2CDD PUSH2 0x2B7A JUMP JUMPDEST JUMPDEST SWAP3 SWAP2 POP POP JUMP JUMPDEST PUSH32 0x546F74616C207765696768742065786365656473203130302500000000000000 PUSH1 0x0 DUP3 ADD MSTORE POP JUMP JUMPDEST PUSH1 0x0 PUSH2 0x2D1A PUSH1 0x19 DUP4 PUSH2 0x2117 JUMP JUMPDEST SWAP2 POP PUSH2 0x2D25 DUP3 PUSH2 0x2CE4 JUMP JUMPDEST PUSH1 0x20 DUP3 ADD SWAP1 POP SWAP2 SWAP1 POP JUMP JUMPDEST PUSH1 0x0 PUSH1 0x20 DUP3 ADD SWAP1 POP DUP2 DUP2 SUB PUSH1 0x0 DUP4 ADD MSTORE PUSH2 0x2D49 DUP2 PUSH2 0x2D0D JUMP JUMPDEST SWAP1 POP SWAP2 SWAP1 POP JUMP JUMPDEST PUSH1 0x0 DUP2 SWAP1 POP DUP2 PUSH1 0x0 MSTORE PUSH1 0x20 PUSH1 0x0 KECCAK256 SWAP1 POP SWAP2 SWAP1 POP JUMP JUMPDEST PUSH1 0x0 PUSH1 0x20 PUSH1 0x1F DUP4 ADD DIV SWAP1 POP SWAP2 SWAP1 POP JUMP JUMPDEST PUSH1 0x0 DUP3 DUP3 SHL SWAP1 POP SWAP3 SWAP2 POP POP JUMP JUMPDEST PUSH1 0x0 PUSH1 0x8 DUP4 MUL PUSH2 0x2DB2 PUSH32 0xFFFFFFFFFFFFFFFFFFFFFFFFFFFFFFFFFFFFFFFFFFFFFFFFFFFFFFFFFFFFFFFF DUP3 PUSH2 0x2D75 JUMP JUMPDEST PUSH2 0x2DBC DUP7 DUP4 PUSH2 0x2D75 JUMP JUMPDEST SWAP6 POP DUP1 NOT DUP5 AND SWAP4 POP DUP1 DUP7 AND DUP5 OR SWAP3 POP POP POP SWAP4 SWAP3 POP POP POP JUMP JUMPDEST PUSH1 0x0 DUP2 SWAP1 POP SWAP2 SWAP1 POP JUMP JUMPDEST PUSH1 0x0 PUSH2 0x2DF9 PUSH2 0x2DF4 PUSH2 0x2DEF DUP5 PUSH2 0x221C JUMP JUMPDEST PUSH2 0x2DD4 JUMP JUMPDEST PUSH2 0x221C JUMP JUMPDEST SWAP1 POP SWAP2 SWAP1 POP JUMP JUMPDEST PUSH1 0x0 DUP2 SWAP1 POP SWAP2 SWAP1 POP JUMP JUMPDEST PUSH2 0x2E13 DUP4 PUSH2 0x2DDE JUMP JUMPDEST PUSH2 0x2E27 PUSH2 0x2E1F DUP3 PUSH2 0x2E00 JUMP JUMPDEST DUP5 DUP5 SLOAD PUSH2 0x2D82 JUMP JUMPDEST DUP3 SSTORE POP POP POP POP JUMP JUMPDEST PUSH1 0x0 SWAP1 JUMP JUMPDEST PUSH2 0x2E3C PUSH2 0x2E2F JUMP JUMPDEST PUSH2 0x2E47 DUP2 DUP5 DUP5 PUSH2 0x2E0A JUMP JUMPDEST POP POP POP JUMP JUMPDEST JUMPDEST DUP2 DUP2 LT ISZERO PUSH2 0x2E6B JUMPI PUSH2 0x2E60 PUSH1 0x0 DUP3 PUSH2 0x2E34 JUMP JUMPDEST PUSH1 0x1 DUP2 ADD SWAP1 POP PUSH2 0x2E4D JUMP JUMPDEST POP POP JUMP JUMPDEST PUSH1 0x1F DUP3 GT ISZERO PUSH2 0x2EB0 JUMPI PUSH2 0x2E81 DUP2 PUSH2 0x2D50 JUMP JUMPDEST PUSH2 0x2E8A DUP5 PUSH2 0x2D65 JUMP JUMPDEST DUP2 ADD PUSH1 0x20 DUP6 LT ISZERO PUSH2 0x2E99 JUMPI DUP2 SWAP1 POP JUMPDEST PUSH2 0x2EAD PUSH2 0x2EA5 DUP6 PUSH2 0x2D65 JUMP JUMPDEST DUP4 ADD DUP3 PUSH2 0x2E4C JUMP JUMPDEST POP POP JUMPDEST POP POP POP JUMP JUMPDEST PUSH1 0x0 DUP3 DUP3 SHR SWAP1 POP SWAP3 SWAP2 POP POP JUMP JUMPDEST PUSH1 0x0 PUSH2 0x2ED3 PUSH1 0x0 NOT DUP5 PUSH1 0x8 MUL PUSH2 0x2EB5 JUMP JUMPDEST NOT DUP1 DUP4 AND SWAP2 POP POP SWAP3 SWAP2 POP POP JUMP JUMPDEST PUSH1 0x0 PUSH2 0x2EEC DUP4 DUP4 PUSH2 0x2EC2 JUMP JUMPDEST SWAP2 POP DUP3 PUSH1 0x2 MUL DUP3 OR SWAP1 POP SWAP3 SWAP2 POP POP JUMP JUMPDEST PUSH2 0x2F05 DUP3 PUSH2 0x210C JUMP JUMPDEST PUSH8 0xFFFFFFFFFFFFFFFF DUP2 GT ISZERO PUSH2 0x2F1E JUMPI PUSH2 0x2F1D PUSH2 0x22C1 JUMP JUMPDEST JUMPDEST PUSH2 0x2F28 DUP3 SLOAD PUSH2 0x293D JUMP JUMPDEST PUSH2 0x2F33 DUP3 DUP3 DUP6 PUSH2 0x2E6F JUMP JUMPDEST PUSH1 0x0 PUSH1 0x20 SWAP1 POP PUSH1 0x1F DUP4 GT PUSH1 0x1 DUP2 EQ PUSH2 0x2F66 JUMPI PUSH1 0x0 DUP5 ISZERO PUSH2 0x2F54 JUMPI DUP3 DUP8 ADD MLOAD SWAP1 POP JUMPDEST PUSH2 0x2F5E DUP6 DUP3 PUSH2 0x2EE0 JUMP JUMPDEST DUP7 SSTORE POP PUSH2 0x2FC6 JUMP JUMPDEST PUSH1 0x1F NOT DUP5 AND PUSH2 0x2F74 DUP7 PUSH2 0x2D50 JUMP JUMPDEST PUSH1 0x0 JUMPDEST DUP3 DUP2 LT ISZERO PUSH2 0x2F9C JUMPI DUP5 DUP10 ADD MLOAD DUP3 SSTORE PUSH1 0x1 DUP3 ADD SWAP2 POP PUSH1 0x20 DUP6 ADD SWAP5 POP PUSH1 0x20 DUP2 ADD SWAP1 POP PUSH2 0x2F77 JUMP JUMPDEST DUP7 DUP4 LT ISZERO PUSH2 0x2FB9 JUMPI DUP5 DUP10 ADD MLOAD PUSH2 0x2FB5 PUSH1 0x1F DUP10 AND DUP3 PUSH2 0x2EC2 JUMP JUMPDEST DUP4 SSTORE POP JUMPDEST PUSH1 0x1 PUSH1 0x2 DUP9 MUL ADD DUP9 SSTORE POP POP POP JUMPDEST POP POP POP POP POP POP JUMP JUMPDEST PUSH32 0x417373657420646F6573206E6F74206578697374000000000000000000000000 PUSH1 0x0 DUP3 ADD MSTORE POP JUMP JUMPDEST PUSH1 0x0 PUSH2 0x3004 PUSH1 0x14 DUP4 PUSH2 0x2117 JUMP JUMPDEST SWAP2 POP PUSH2 0x300F DUP3 PUSH2 0x2FCE JUMP JUMPDEST PUSH1 0x20 DUP3 ADD SWAP1 POP SWAP2 SWAP1 POP JUMP JUMPDEST PUSH1 0x0 PUSH1 0x20 DUP3 ADD SWAP1 POP DUP2 DUP2 SUB PUSH1 0x0 DUP4 ADD MSTORE PUSH2 0x3033 DUP2 PUSH2 0x2FF7 JUMP JUMPDEST SWAP1 POP SWAP2 SWAP1 POP JUMP JUMPDEST PUSH1 0x0 PUSH2 0x3045 DUP3 PUSH2 0x221C JUMP JUMPDEST SWAP2 POP PUSH2 0x3050 DUP4 PUSH2 0x221C JUMP JUMPDEST SWAP3 POP DUP3 DUP3 SUB SWAP1 POP DUP2 DUP2 GT ISZERO PUSH2 0x3068 JUMPI PUSH2 0x3067 PUSH2 0x2B7A JUMP JUMPDEST JUMPDEST SWAP3 SWAP2 POP POP JUMP JUMPDEST PUSH1 0x0 PUSH1 0x20 DUP3 ADD SWAP1 POP PUSH2 0x3083 PUSH1 0x0 DUP4 ADD DUP5 PUSH2 0x28BA JUMP JUMPDEST SWAP3 SWAP2 POP POP JUMP JUMPDEST PUSH1 0x0 PUSH1 0x60 DUP3 ADD SWAP1 POP PUSH2 0x309E PUSH1 0x0 DUP4 ADD DUP7 PUSH2 0x28BA JUMP JUMPDEST PUSH2 0x30AB PUSH1 0x20 DUP4 ADD DUP6 PUSH2 0x2292 JUMP JUMPDEST PUSH2 0x30B8 PUSH1 0x40 DUP4 ADD DUP5 PUSH2 0x2292 JUMP JUMPDEST SWAP5 SWAP4 POP POP POP POP JUMP JUMPDEST PUSH1 0x0 PUSH1 0x40 DUP3 ADD SWAP1 POP PUSH2 0x30D5 PUSH1 0x0 DUP4 ADD DUP6 PUSH2 0x28BA JUMP JUMPDEST PUSH2 0x30E2 PUSH1 0x20 DUP4 ADD DUP5 PUSH2 0x25CA JUMP JUMPDEST SWAP4 SWAP3 POP POP POP JUMP JUMPDEST PUSH32 0x45524332305061757361626C653A20746F6B656E207472616E73666572207768 PUSH1 0x0 DUP3 ADD MSTORE PUSH32 0x696C652070617573656400000000000000000000000000000000000000000000 PUSH1 0x20 DUP3 ADD MSTORE POP JUMP JUMPDEST PUSH1 0x0 PUSH2 0x3145 PUSH1 0x2A DUP4 PUSH2 0x2117 JUMP JUMPDEST SWAP2 POP PUSH2 0x3150 DUP3 PUSH2 0x30E9 JUMP JUMPDEST PUSH1 0x40 DUP3 ADD SWAP1 POP SWAP2 SWAP1 POP JUMP JUMPDEST PUSH1 0x0 PUSH1 0x20 DUP3 ADD SWAP1 POP DUP2 DUP2 SUB PUSH1 0x0 DUP4 ADD MSTORE PUSH2 0x3174 DUP2 PUSH2 0x3138 JUMP JUMPDEST SWAP1 POP SWAP2 SWAP1 POP JUMP INVALID LOG2 PUSH5 0x6970667358 0x22 SLT KECCAK256 STOP 0xE8 CODECOPY ORIGIN SWAP13 0xF8 0xBD 0xC5 0x2F 0xD7 0x5C PUSH27 0x5A5805BBEA796F61C9F4D18F8AEA888F465E7AFB64736F6C634300 ADDMOD EQ STOP CALLER "},"methodIdentifiers":{"COLLATERAL_MANAGER_ROLE()":"2e718ab7","DEFAULT_ADMIN_ROLE()":"a217fddf","MINTER_ROLE()":"d5391393","OFFLINE_VALIDATOR_ROLE()":"671a34b0","PAUSER_ROLE()":"e63ab1e9","addCollateralAsset(string,address,uint256)":"d1dd20da","allowance(address,address)":"dd62ed3e","approve(address,uint256)":"095ea7b3","assetKeys(uint256)":"3fb1fae1","balanceOf(address)":"70a08231","burn(uint256)":"42966c68","burnFrom(address,uint256)":"79cc6790","collateralBasket(string)":"e479d559","decimals()":"313ce567","executedOfflineTransactions(bytes32)":"99bb6085","getCollateralAssetsCount()":"1e5a7bd2","getNextNonce(address)":"90193b7c","getRoleAdmin(bytes32)":"248a9ca3","grantRole(bytes32,address)":"2f2ff15d","hasRole(bytes32,address)":"91d14854","mint(address,uint256)":"40c10f19","name()":"06fdde03","pause()":"8456cb59","paused()":"5c975abb","processOfflineTransaction((bytes32,address,address,uint256,uint256,uint256,bytes))":"18a11e71","renounceRole(bytes32,address)":"36568abe","revokeRole(bytes32,address)":"d547741f","supportsInterface(bytes4)":"01ffc9a7","symbol()":"95d89b41","totalSupply()":"18160ddd","totalWeight()":"96c82e57","transfer(address,uint256)":"a9059cbb","transferFrom(address,address,uint256)":"23b872dd","unpause()":"3f4ba83a","updateCollateralWeight(string,uint256)":"d67ddd17","userNonces(address)":"2f7801f4"}}}}}