{
  "_format": "hh-sol-artifact-1",
  "contractName": "OfflineTransactionProcessor",
  "sourceName": "contracts/OfflineTransactionProcessor.sol",
  "abi": [
    {
      "inputs": [
        {
          "internalType": "address",
          "name": "_globeToken",
          "type": "address"
        }
      ],
      "stateMutability": "nonpayable",
      "type": "constructor"
    },
    {
      "inputs": [],
      "name": "AccessControlBadConfirmation",
      "type": "error"
    },
    {
      "inputs": [
        {
          "internalType": "address",
          "name": "account",
          "type": "address"
        },
        {
          "internalType": "bytes32",
          "name": "neededRole",
          "type": "bytes32"
        }
      ],
      "name": "AccessControlUnauthorizedAccount",
      "type": "error"
    },
    {
      "inputs": [],
      "name": "ReentrancyGuardReentrantCall",
      "type": "error"
    },
    {
      "anonymous": false,
      "inputs": [
        {
          "indexed": true,
          "internalType": "uint256",
          "name": "batchId",
          "type": "uint256"
        },
        {
          "indexed": false,
          "internalType": "uint256",
          "name": "transactionCount",
          "type": "uint256"
        }
      ],
      "name": "BatchProcessed",
      "type": "event"
    },
    {
      "anonymous": false,
      "inputs": [
        {
          "indexed": true,
          "internalType": "uint256",
          "name": "batchId",
          "type": "uint256"
        },
        {
          "indexed": false,
          "internalType": "uint256",
          "name": "transactionCount",
          "type": "uint256"
        },
        {
          "indexed": false,
          "internalType": "address",
          "name": "submitter",
          "type": "address"
        }
      ],
      "name": "BatchSubmitted",
      "type": "event"
    },
    {
      "anonymous": false,
      "inputs": [
        {
          "indexed": true,
          "internalType": "bytes32",
          "name": "role",
          "type": "bytes32"
        },
        {
          "indexed": true,
          "internalType": "bytes32",
          "name": "previousAdminRole",
          "type": "bytes32"
        },
        {
          "indexed": true,
          "internalType": "bytes32",
          "name": "newAdminRole",
          "type": "bytes32"
        }
      ],
      "name": "RoleAdminChanged",
      "type": "event"
    },
    {
      "anonymous": false,
      "inputs": [
        {
          "indexed": true,
          "internalType": "bytes32",
          "name": "role",
          "type": "bytes32"
        },
        {
          "indexed": true,
          "internalType": "address",
          "name": "account",
          "type": "address"
        },
        {
          "indexed": true,
          "internalType": "address",
          "name": "sender",
          "type": "address"
        }
      ],
      "name": "RoleGranted",
      "type": "event"
    },
    {
      "anonymous": false,
      "inputs": [
        {
          "indexed": true,
          "internalType": "bytes32",
          "name": "role",
          "type": "bytes32"
        },
        {
          "indexed": true,
          "internalType": "address",
          "name": "account",
          "type": "address"
        },
        {
          "indexed": true,
          "internalType": "address",
          "name": "sender",
          "type": "address"
        }
      ],
      "name": "RoleRevoked",
      "type": "event"
    },
    {
      "anonymous": false,
      "inputs": [
        {
          "indexed": true,
          "internalType": "bytes32",
          "name": "txHash",
          "type": "bytes32"
        },
        {
          "indexed": true,
          "internalType": "address",
          "name": "from",
          "type": "address"
        },
        {
          "indexed": true,
          "internalType": "address",
          "name": "to",
          "type": "address"
        },
        {
          "indexed": false,
          "internalType": "uint256",
          "name": "amount",
          "type": "uint256"
        }
      ],
      "name": "TransactionProcessed",
      "type": "event"
    },
    {
      "anonymous": false,
      "inputs": [
        {
          "indexed": true,
          "internalType": "bytes32",
          "name": "txHash",
          "type": "bytes32"
        },
        {
          "indexed": false,
          "internalType": "string",
          "name": "reason",
          "type": "string"
        }
      ],
      "name": "TransactionRejected",
      "type": "event"
    },
    {
      "inputs": [],
      "name": "DEFAULT_ADMIN_ROLE",
      "outputs": [
        {
          "internalType": "bytes32",
          "name": "",
          "type": "bytes32"
        }
      ],
      "stateMutability": "view",
      "type": "function"
    },
    {
      "inputs": [],
      "name": "PROCESSOR_ROLE",
      "outputs": [
        {
          "internalType": "bytes32",
          "name": "",
          "type": "bytes32"
        }
      ],
      "stateMutability": "view",
      "type": "function"
    },
    {
      "inputs": [],
      "name": "VALIDATOR_ROLE",
      "outputs": [
        {
          "internalType": "bytes32",
          "name": "",
          "type": "bytes32"
        }
      ],
      "stateMutability": "view",
      "type": "function"
    },
    {
      "inputs": [
        {
          "internalType": "uint256",
          "name": "",
          "type": "uint256"
        }
      ],
      "name": "batches",
      "outputs": [
        {
          "internalType": "uint256",
          "name": "batchId",
          "type": "uint256"
        },
        {
          "internalType": "uint256",
          "name": "timestamp",
          "type": "uint256"
        },
        {
          "internalType": "uint256",
          "name": "transactionCount",
          "type": "uint256"
        },
        {
          "internalType": "bool",
          "name": "processed",
          "type": "bool"
        },
        {
          "internalType": "address",
          "name": "submitter",
          "type": "address"
        }
      ],
      "stateMutability": "view",
      "type": "function"
    },
    {
      "inputs": [
        {
          "internalType": "uint256",
          "name": "batchId",
          "type": "uint256"
        }
      ],
      "name": "getBatchDetails",
      "outputs": [
        {
          "internalType": "uint256",
          "name": "",
          "type": "uint256"
        },
        {
          "internalType": "uint256",
          "name": "",
          "type": "uint256"
        },
        {
          "internalType": "uint256",
          "name": "",
          "type": "uint256"
        },
        {
          "internalType": "bool",
          "name": "",
          "type": "bool"
        },
        {
          "internalType": "address",
          "name": "",
          "type": "address"
        }
      ],
      "stateMutability": "view",
      "type": "function"
    },
    {
      "inputs": [
        {
          "internalType": "bytes32",
          "name": "role",
          "type": "bytes32"
        }
      ],
      "name": "getRoleAdmin",
      "outputs": [
        {
          "internalType": "bytes32",
          "name": "",
          "type": "bytes32"
        }
      ],
      "stateMutability": "view",
      "type": "function"
    },
    {
      "inputs": [],
      "name": "globeToken",
      "outputs": [
        {
          "internalType": "contract GlobePayToken",
          "name": "",
          "type": "address"
        }
      ],
      "stateMutability": "view",
      "type": "function"
    },
    {
      "inputs": [
        {
          "internalType": "bytes32",
          "name": "role",
          "type": "bytes32"
        },
        {
          "internalType": "address",
          "name": "account",
          "type": "address"
        }
      ],
      "name": "grantRole",
      "outputs": [],
      "stateMutability": "nonpayable",
      "type": "function"
    },
    {
      "inputs": [
        {
          "internalType": "bytes32",
          "name": "role",
          "type": "bytes32"
        },
        {
          "internalType": "address",
          "name": "account",
          "type": "address"
        }
      ],
      "name": "hasRole",
      "outputs": [
        {
          "internalType": "bool",
          "name": "",
          "type": "bool"
        }
      ],
      "stateMutability": "view",
      "type": "function"
    },
    {
      "inputs": [
        {
          "internalType": "bytes32",
          "name": "txHash",
          "type": "bytes32"
        }
      ],
      "name": "isTransactionProcessed",
      "outputs": [
        {
          "internalType": "bool",
          "name": "",
          "type": "bool"
        }
      ],
      "stateMutability": "view",
      "type": "function"
    },
    {
      "inputs": [],
      "name": "nextBatchId",
      "outputs": [
        {
          "internalType": "uint256",
          "name": "",
          "type": "uint256"
        }
      ],
      "stateMutability": "view",
      "type": "function"
    },
    {
      "inputs": [
        {
          "internalType": "uint256",
          "name": "batchId",
          "type": "uint256"
        },
        {
          "components": [
            {
              "internalType": "bytes32",
              "name": "txHash",
              "type": "bytes32"
            },
            {
              "internalType": "address",
              "name": "from",
              "type": "address"
            },
            {
              "internalType": "address",
              "name": "to",
              "type": "address"
            },
            {
              "internalType": "uint256",
              "name": "amount",
              "type": "uint256"
            },
            {
              "internalType": "uint256",
              "name": "nonce",
              "type": "uint256"
            },
            {
              "internalType": "uint256",
              "name": "timestamp",
              "type": "uint256"
            },
            {
              "internalType": "bytes",
              "name": "signature",
              "type": "bytes"
            }
          ],
          "internalType": "struct GlobePayToken.OfflineTx[]",
          "name": "txs",
          "type": "tuple[]"
        }
      ],
      "name": "processBatch",
      "outputs": [],
      "stateMutability": "nonpayable",
      "type": "function"
    },
    {
      "inputs": [
        {
          "internalType": "bytes32",
          "name": "",
          "type": "bytes32"
        }
      ],
      "name": "processedTransactions",
      "outputs": [
        {
          "internalType": "bool",
          "name": "",
          "type": "bool"
        }
      ],
      "stateMutability": "view",
      "type": "function"
    },
    {
      "inputs": [
        {
          "internalType": "bytes32",
          "name": "role",
          "type": "bytes32"
        },
        {
          "internalType": "address",
          "name": "callerConfirmation",
          "type": "address"
        }
      ],
      "name": "renounceRole",
      "outputs": [],
      "stateMutability": "nonpayable",
      "type": "function"
    },
    {
      "inputs": [
        {
          "internalType": "bytes32",
          "name": "role",
          "type": "bytes32"
        },
        {
          "internalType": "address",
          "name": "account",
          "type": "address"
        }
      ],
      "name": "revokeRole",
      "outputs": [],
      "stateMutability": "nonpayable",
      "type": "function"
    },
    {
      "inputs": [
        {
          "components": [
            {
              "internalType": "bytes32",
              "name": "txHash",
              "type": "bytes32"
            },
            {
              "internalType": "address",
              "name": "from",
              "type": "address"
            },
            {
              "internalType": "address",
              "name": "to",
              "type": "address"
            },
            {
              "internalType": "uint256",
              "name": "amount",
              "type": "uint256"
            },
            {
              "internalType": "uint256",
              "name": "nonce",
              "type": "uint256"
            },
            {
              "internalType": "uint256",
              "name": "timestamp",
              "type": "uint256"
            },
            {
              "internalType": "bytes",
              "name": "signature",
              "type": "bytes"
            }
          ],
          "internalType": "struct GlobePayToken.OfflineTx[]",
          "name": "txs",
          "type": "tuple[]"
        }
      ],
      "name": "submitTransactionBatch",
      "outputs": [
        {
          "internalType": "uint256",
          "name": "",
          "type": "uint256"
        }
      ],
      "stateMutability": "nonpayable",
      "type": "function"
    },
    {
      "inputs": [
        {
          "internalType": "bytes4",
          "name": "interfaceId",
          "type": "bytes4"
        }
      ],
      "name": "supportsInterface",
      "outputs": [
        {
          "internalType": "bool",
          "name": "",
          "type": "bool"
        }
      ],
      "stateMutability": "view",
      "type": "function"
    }
  ],
  "bytecode": "0x60806040523480156200001157600080fd5b506040516200229e3803806200229e8339818101604052810190620000379190620002e9565b6001808190555080600260006101000a81548173ffffffffffffffffffffffffffffffffffffffff021916908373ffffffffffffffffffffffffffffffffffffffff160217905550620000946000801b336200010a60201b60201c565b50620000c77fe61decff6e4a5c6b5a3d3cbd28f882e595173563b49353ce5f31dba2de7f05ee336200010a60201b60201c565b50620000fa7f21702c8af46127c7fa207f89d0b0a8441bb32959a0ac7df790e9ab1a25c98926336200010a60201b60201c565b506001600481905550506200031b565b60006200011e83836200020d60201b60201c565b6200020257600160008085815260200190815260200160002060000160008473ffffffffffffffffffffffffffffffffffffffff1673ffffffffffffffffffffffffffffffffffffffff16815260200190815260200160002060006101000a81548160ff0219169083151502179055506200019e6200027760201b60201c565b73ffffffffffffffffffffffffffffffffffffffff168273ffffffffffffffffffffffffffffffffffffffff16847f2f8788117e7eff1d82e926ec794901d17c78024a50270940304540a733656f0d60405160405180910390a46001905062000207565b600090505b92915050565b600080600084815260200190815260200160002060000160008373ffffffffffffffffffffffffffffffffffffffff1673ffffffffffffffffffffffffffffffffffffffff16815260200190815260200160002060009054906101000a900460ff16905092915050565b600033905090565b600080fd5b600073ffffffffffffffffffffffffffffffffffffffff82169050919050565b6000620002b18262000284565b9050919050565b620002c381620002a4565b8114620002cf57600080fd5b50565b600081519050620002e381620002b8565b92915050565b6000602082840312156200030257620003016200027f565b5b60006200031284828501620002d2565b91505092915050565b611f73806200032b6000396000f3fe608060405234801561001057600080fd5b506004361061010b5760003560e01c806391d14854116100a2578063b32c4d8d11610071578063b32c4d8d146102e4578063c49baebe14610318578063d547741f14610336578063efc646ca14610352578063f20b6287146103825761010b565b806391d14854146102325780639d47dcc014610262578063a217fddf14610296578063ac2e4936146102b45761010b565b80633579f1dc116100de5780633579f1dc146101aa57806336568abe146101da5780638222bdb2146101f65780638462a7f8146102145761010b565b806301ffc9a71461011057806309ba158714610140578063248a9ca31461015e5780632f2ff15d1461018e575b600080fd5b61012a60048036038101906101259190611147565b61039e565b604051610137919061118f565b60405180910390f35b610148610418565b6040516101559190611229565b60405180910390f35b6101786004803603810190610173919061127a565b61043e565b60405161018591906112b6565b60405180910390f35b6101a860048036038101906101a3919061130f565b61045d565b005b6101c460048036038101906101bf919061168b565b61047f565b6040516101d191906116e3565b60405180910390f35b6101f460048036038101906101ef919061130f565b610679565b005b6101fe6106f4565b60405161020b91906112b6565b60405180910390f35b61021c610718565b60405161022991906116e3565b60405180910390f35b61024c6004803603810190610247919061130f565b61071e565b604051610259919061118f565b60405180910390f35b61027c600480360381019061027791906116fe565b610788565b60405161028d95949392919061173a565b60405180910390f35b61029e610800565b6040516102ab91906112b6565b60405180910390f35b6102ce60048036038101906102c9919061127a565b610807565b6040516102db919061118f565b60405180910390f35b6102fe60048036038101906102f991906116fe565b610827565b60405161030f95949392919061173a565b60405180910390f35b61032061088a565b60405161032d91906112b6565b60405180910390f35b610350600480360381019061034b919061130f565b6108ae565b005b61036c6004803603810190610367919061127a565b6108d0565b604051610379919061118f565b60405180910390f35b61039c6004803603810190610397919061178d565b6108fa565b005b60007f7965db0b000000000000000000000000000000000000000000000000000000007bffffffffffffffffffffffffffffffffffffffffffffffffffffffff1916827bffffffffffffffffffffffffffffffffffffffffffffffffffffffff19161480610411575061041082610ade565b5b9050919050565b600260009054906101000a900473ffffffffffffffffffffffffffffffffffffffff1681565b6000806000838152602001908152602001600020600101549050919050565b6104668261043e565b61046f81610b48565b6104798383610b5c565b50505050565b60007fe61decff6e4a5c6b5a3d3cbd28f882e595173563b49353ce5f31dba2de7f05ee6104ab81610b48565b6104b3610c4d565b600083519050600081116104fc576040517f08c379a00000000000000000000000000000000000000000000000000000000081526004016104f390611846565b60405180910390fd5b60006004600081548092919061051190611895565b9190505590506040518060a001604052808281526020014281526020018381526020016000151581526020013373ffffffffffffffffffffffffffffffffffffffff168152506003600083815260200190815260200160002060008201518160000155602082015181600101556040820151816002015560608201518160030160006101000a81548160ff02191690831515021790555060808201518160030160016101000a81548173ffffffffffffffffffffffffffffffffffffffff021916908373ffffffffffffffffffffffffffffffffffffffff160217905550905050807fd13468dd81a56afc5d491da5d68b05bc7925a6266fdd7d6ba63ba85e7f15feba83336040516106249291906118dd565b60405180910390a26106567f21702c8af46127c7fa207f89d0b0a8441bb32959a0ac7df790e9ab1a25c989263361071e565b156106665761066581866108fa565b5b8093505050610673610c93565b50919050565b610681610c9c565b73ffffffffffffffffffffffffffffffffffffffff168173ffffffffffffffffffffffffffffffffffffffff16146106e5576040517f6697b23200000000000000000000000000000000000000000000000000000000815260040160405180910390fd5b6106ef8282610ca4565b505050565b7fe61decff6e4a5c6b5a3d3cbd28f882e595173563b49353ce5f31dba2de7f05ee81565b60045481565b600080600084815260200190815260200160002060000160008373ffffffffffffffffffffffffffffffffffffffff1673ffffffffffffffffffffffffffffffffffffffff16815260200190815260200160002060009054906101000a900460ff16905092915050565b6000806000806000806003600088815260200190815260200160002090508060000154816001015482600201548360030160009054906101000a900460ff168460030160019054906101000a900473ffffffffffffffffffffffffffffffffffffffff16955095509550955095505091939590929450565b6000801b81565b60056020528060005260406000206000915054906101000a900460ff1681565b60036020528060005260406000206000915090508060000154908060010154908060020154908060030160009054906101000a900460ff16908060030160019054906101000a900473ffffffffffffffffffffffffffffffffffffffff16905085565b7f21702c8af46127c7fa207f89d0b0a8441bb32959a0ac7df790e9ab1a25c9892681565b6108b78261043e565b6108c081610b48565b6108ca8383610ca4565b50505050565b60006005600083815260200190815260200160002060009054906101000a900460ff169050919050565b7f21702c8af46127c7fa207f89d0b0a8441bb32959a0ac7df790e9ab1a25c9892661092481610b48565b61092c610c4d565b600060036000858152602001908152602001600020905083816000015414610989576040517f08c379a000000000000000000000000000000000000000000000000000000000815260040161098090611952565b60405180910390fd5b8060030160009054906101000a900460ff16156109db576040517f08c379a00000000000000000000000000000000000000000000000000000000081526004016109d2906119be565b60405180910390fd5b8251816002015414610a22576040517f08c379a0000000000000000000000000000000000000000000000000000000008152600401610a1990611a2a565b60405180910390fd5b6000805b8451811015610a7957610a52858281518110610a4557610a44611a4a565b5b6020026020010151610d96565b15610a66578180610a6290611895565b9250505b8080610a7190611895565b915050610a26565b5060018260030160006101000a81548160ff021916908315150217905550847f3838459cd794256a3c29bb3186da72029a8036c0f596fee1bd526f8eb9493d4182604051610ac791906116e3565b60405180910390a25050610ad9610c93565b505050565b60007f01ffc9a7000000000000000000000000000000000000000000000000000000007bffffffffffffffffffffffffffffffffffffffffffffffffffffffff1916827bffffffffffffffffffffffffffffffffffffffffffffffffffffffff1916149050919050565b610b5981610b54610c9c565b61108a565b50565b6000610b68838361071e565b610c4257600160008085815260200190815260200160002060000160008473ffffffffffffffffffffffffffffffffffffffff1673ffffffffffffffffffffffffffffffffffffffff16815260200190815260200160002060006101000a81548160ff021916908315150217905550610bdf610c9c565b73ffffffffffffffffffffffffffffffffffffffff168273ffffffffffffffffffffffffffffffffffffffff16847f2f8788117e7eff1d82e926ec794901d17c78024a50270940304540a733656f0d60405160405180910390a460019050610c47565b600090505b92915050565b600260015403610c89576040517f3ee5aeb500000000000000000000000000000000000000000000000000000000815260040160405180910390fd5b6002600181905550565b60018081905550565b600033905090565b6000610cb0838361071e565b15610d8b57600080600085815260200190815260200160002060000160008473ffffffffffffffffffffffffffffffffffffffff1673ffffffffffffffffffffffffffffffffffffffff16815260200190815260200160002060006101000a81548160ff021916908315150217905550610d28610c9c565b73ffffffffffffffffffffffffffffffffffffffff168273ffffffffffffffffffffffffffffffffffffffff16847ff6391f5c32d9c69d2a47ea670b442974b53935d1edc7fd64eb21e047a839171b60405160405180910390a460019050610d90565b600090505b92915050565b6000600560008360000151815260200190815260200160002060009054906101000a900460ff1615610e055781600001517fe0e0d1ae5cbc16c32551c9a6a273c14380e1bba161d0f2b23d19fd851f516ad0604051610df490611ac5565b60405180910390a260009050611085565b600082602001518360400151846060015185608001518660a00151604051602001610e34959493929190611b4e565b60405160208183030381529060405280519060200120905082600001518114610e9b5782600001517fe0e0d1ae5cbc16c32551c9a6a273c14380e1bba161d0f2b23d19fd851f516ad0604051610e8990611bf9565b60405180910390a26000915050611085565b600260009054906101000a900473ffffffffffffffffffffffffffffffffffffffff1673ffffffffffffffffffffffffffffffffffffffff166318a11e71846040518263ffffffff1660e01b8152600401610ef69190611d61565b600060405180830381600087803b158015610f1057600080fd5b505af1925050508015610f21575060015b610fd957610f2d611d90565b806308c379a003610f935750610f41611db2565b80610f4c5750610f95565b83600001517fe0e0d1ae5cbc16c32551c9a6a273c14380e1bba161d0f2b23d19fd851f516ad082604051610f809190611e86565b60405180910390a2600092505050611085565b505b82600001517fe0e0d1ae5cbc16c32551c9a6a273c14380e1bba161d0f2b23d19fd851f516ad0604051610fc790611ef4565b60405180910390a26000915050611085565b6001600560008560000151815260200190815260200160002060006101000a81548160ff021916908315150217905550826040015173ffffffffffffffffffffffffffffffffffffffff16836020015173ffffffffffffffffffffffffffffffffffffffff1684600001517ff564783d5c94be2b8b48261a57d94f9d228faba377816e1056a1ac9039cf9d93866060015160405161107791906116e3565b60405180910390a460019150505b919050565b611094828261071e565b6110d75780826040517fe2517d3f0000000000000000000000000000000000000000000000000000000081526004016110ce929190611f14565b60405180910390fd5b5050565b6000604051905090565b600080fd5b600080fd5b60007fffffffff0000000000000000000000000000000000000000000000000000000082169050919050565b611124816110ef565b811461112f57600080fd5b50565b6000813590506111418161111b565b92915050565b60006020828403121561115d5761115c6110e5565b5b600061116b84828501611132565b91505092915050565b60008115159050919050565b61118981611174565b82525050565b60006020820190506111a46000830184611180565b92915050565b600073ffffffffffffffffffffffffffffffffffffffff82169050919050565b6000819050919050565b60006111ef6111ea6111e5846111aa565b6111ca565b6111aa565b9050919050565b6000611201826111d4565b9050919050565b6000611213826111f6565b9050919050565b61122381611208565b82525050565b600060208201905061123e600083018461121a565b92915050565b6000819050919050565b61125781611244565b811461126257600080fd5b50565b6000813590506112748161124e565b92915050565b6000602082840312156112905761128f6110e5565b5b600061129e84828501611265565b91505092915050565b6112b081611244565b82525050565b60006020820190506112cb60008301846112a7565b92915050565b60006112dc826111aa565b9050919050565b6112ec816112d1565b81146112f757600080fd5b50565b600081359050611309816112e3565b92915050565b60008060408385031215611326576113256110e5565b5b600061133485828601611265565b9250506020611345858286016112fa565b9150509250929050565b600080fd5b6000601f19601f8301169050919050565b7f4e487b7100000000000000000000000000000000000000000000000000000000600052604160045260246000fd5b61139d82611354565b810181811067ffffffffffffffff821117156113bc576113bb611365565b5b80604052505050565b60006113cf6110db565b90506113db8282611394565b919050565b600067ffffffffffffffff8211156113fb576113fa611365565b5b602082029050602081019050919050565b600080fd5b600080fd5b600080fd5b6000819050919050565b61142e8161141b565b811461143957600080fd5b50565b60008135905061144b81611425565b92915050565b600080fd5b600067ffffffffffffffff82111561147157611470611365565b5b61147a82611354565b9050602081019050919050565b82818337600083830152505050565b60006114a96114a484611456565b6113c5565b9050828152602081018484840111156114c5576114c4611451565b5b6114d0848285611487565b509392505050565b600082601f8301126114ed576114ec61134f565b5b81356114fd848260208601611496565b91505092915050565b600060e0828403121561151c5761151b611411565b5b61152660e06113c5565b9050600061153684828501611265565b600083015250602061154a848285016112fa565b602083015250604061155e848285016112fa565b60408301525060606115728482850161143c565b60608301525060806115868482850161143c565b60808301525060a061159a8482850161143c565b60a08301525060c082013567ffffffffffffffff8111156115be576115bd611416565b5b6115ca848285016114d8565b60c08301525092915050565b60006115e96115e4846113e0565b6113c5565b9050808382526020820190506020840283018581111561160c5761160b61140c565b5b835b8181101561165357803567ffffffffffffffff8111156116315761163061134f565b5b80860161163e8982611506565b8552602085019450505060208101905061160e565b5050509392505050565b600082601f8301126116725761167161134f565b5b81356116828482602086016115d6565b91505092915050565b6000602082840312156116a1576116a06110e5565b5b600082013567ffffffffffffffff8111156116bf576116be6110ea565b5b6116cb8482850161165d565b91505092915050565b6116dd8161141b565b82525050565b60006020820190506116f860008301846116d4565b92915050565b600060208284031215611714576117136110e5565b5b60006117228482850161143c565b91505092915050565b611734816112d1565b82525050565b600060a08201905061174f60008301886116d4565b61175c60208301876116d4565b61176960408301866116d4565b6117766060830185611180565b611783608083018461172b565b9695505050505050565b600080604083850312156117a4576117a36110e5565b5b60006117b28582860161143c565b925050602083013567ffffffffffffffff8111156117d3576117d26110ea565b5b6117df8582860161165d565b9150509250929050565b600082825260208201905092915050565b7f456d707479206261746368000000000000000000000000000000000000000000600082015250565b6000611830600b836117e9565b915061183b826117fa565b602082019050919050565b6000602082019050818103600083015261185f81611823565b9050919050565b7f4e487b7100000000000000000000000000000000000000000000000000000000600052601160045260246000fd5b60006118a08261141b565b91507fffffffffffffffffffffffffffffffffffffffffffffffffffffffffffffffff82036118d2576118d1611866565b5b600182019050919050565b60006040820190506118f260008301856116d4565b6118ff602083018461172b565b9392505050565b7f426174636820646f6573206e6f74206578697374000000000000000000000000600082015250565b600061193c6014836117e9565b915061194782611906565b602082019050919050565b6000602082019050818103600083015261196b8161192f565b9050919050565b7f426174636820616c72656164792070726f636573736564000000000000000000600082015250565b60006119a86017836117e9565b91506119b382611972565b602082019050919050565b600060208201905081810360008301526119d78161199b565b9050919050565b7f5472616e73616374696f6e20636f756e74206d69736d61746368000000000000600082015250565b6000611a14601a836117e9565b9150611a1f826119de565b602082019050919050565b60006020820190508181036000830152611a4381611a07565b9050919050565b7f4e487b7100000000000000000000000000000000000000000000000000000000600052603260045260246000fd5b7f5472616e73616374696f6e20616c72656164792070726f636573736564000000600082015250565b6000611aaf601d836117e9565b9150611aba82611a79565b602082019050919050565b60006020820190508181036000830152611ade81611aa2565b9050919050565b60008160601b9050919050565b6000611afd82611ae5565b9050919050565b6000611b0f82611af2565b9050919050565b611b27611b22826112d1565b611b04565b82525050565b6000819050919050565b611b48611b438261141b565b611b2d565b82525050565b6000611b5a8288611b16565b601482019150611b6a8287611b16565b601482019150611b7a8286611b37565b602082019150611b8a8285611b37565b602082019150611b9a8284611b37565b6020820191508190509695505050505050565b7f496e76616c6964207472616e73616374696f6e20686173680000000000000000600082015250565b6000611be36018836117e9565b9150611bee82611bad565b602082019050919050565b60006020820190508181036000830152611c1281611bd6565b9050919050565b611c2281611244565b82525050565b611c31816112d1565b82525050565b611c408161141b565b82525050565b600081519050919050565b600082825260208201905092915050565b60005b83811015611c80578082015181840152602081019050611c65565b60008484015250505050565b6000611c9782611c46565b611ca18185611c51565b9350611cb1818560208601611c62565b611cba81611354565b840191505092915050565b600060e083016000830151611cdd6000860182611c19565b506020830151611cf06020860182611c28565b506040830151611d036040860182611c28565b506060830151611d166060860182611c37565b506080830151611d296080860182611c37565b5060a0830151611d3c60a0860182611c37565b5060c083015184820360c0860152611d548282611c8c565b9150508091505092915050565b60006020820190508181036000830152611d7b8184611cc5565b905092915050565b60008160e01c9050919050565b600060033d1115611daf5760046000803e611dac600051611d83565b90505b90565b600060443d10611e3f57611dc46110db565b60043d036004823e80513d602482011167ffffffffffffffff82111715611dec575050611e3f565b808201805167ffffffffffffffff811115611e0a5750505050611e3f565b80602083010160043d038501811115611e27575050505050611e3f565b611e3682602001850186611394565b82955050505050505b90565b600081519050919050565b6000611e5882611e42565b611e6281856117e9565b9350611e72818560208601611c62565b611e7b81611354565b840191505092915050565b60006020820190508181036000830152611ea08184611e4d565b905092915050565b7f556e6b6e6f776e206572726f7200000000000000000000000000000000000000600082015250565b6000611ede600d836117e9565b9150611ee982611ea8565b602082019050919050565b60006020820190508181036000830152611f0d81611ed1565b9050919050565b6000604082019050611f29600083018561172b565b611f3660208301846112a7565b939250505056fea264697066735822122064abcd9b55e52acfb86beed35f398734008e6e356ebbd12336dc0460d85b809b64736f6c63430008140033",
  "linkReferences": {},
  "deployedLinkReferences": {}
}