{
  "_format": "hh-sol-artifact-1",
  "contractName": "GlobePayToken",
  "sourceName": "contracts/GlobePayToken.sol",
  "abi": [
    {
      "inputs": [],
      "stateMutability": "nonpayable",
      "type": "constructor"
    },
    {
      "inputs": [],
      "name": "AccessControlBadConfirmation",
      "type": "error"
    },
    {
      "inputs": [
        {
          "internalType": "address",
          "name": "account",
          "type": "address"
        },
        {
          "internalType": "bytes32",
          "name": "neededRole",
          "type": "bytes32"
        }
      ],
      "name": "AccessControlUnauthorizedAccount",
      "type": "error"
    },
    {
      "inputs": [
        {
          "internalType": "address",
          "name": "spender",
          "type": "address"
        },
        {
          "internalType": "uint256",
          "name": "allowance",
          "type": "uint256"
        },
        {
          "internalType": "uint256",
          "name": "needed",
          "type": "uint256"
        }
      ],
      "name": "ERC20InsufficientAllowance",
      "type": "error"
    },
    {
      "inputs": [
        {
          "internalType": "address",
          "name": "sender",
          "type": "address"
        },
        {
          "internalType": "uint256",
          "name": "balance",
          "type": "uint256"
        },
        {
          "internalType": "uint256",
          "name": "needed",
          "type": "uint256"
        }
      ],
      "name": "ERC20InsufficientBalance",
      "type": "error"
    },
    {
      "inputs": [
        {
          "internalType": "address",
          "name": "approver",
          "type": "address"
        }
      ],
      "name": "ERC20InvalidApprover",
      "type": "error"
    },
    {
      "inputs": [
        {
          "internalType": "address",
          "name": "receiver",
          "type": "address"
        }
      ],
      "name": "ERC20InvalidReceiver",
      "type": "error"
    },
    {
      "inputs": [
        {
          "internalType": "address",
          "name": "sender",
          "type": "address"
        }
      ],
      "name": "ERC20InvalidSender",
      "type": "error"
    },
    {
      "inputs": [
        {
          "internalType": "address",
          "name": "spender",
          "type": "address"
        }
      ],
      "name": "ERC20InvalidSpender",
      "type": "error"
    },
    {
      "inputs": [],
      "name": "EnforcedPause",
      "type": "error"
    },
    {
      "inputs": [],
      "name": "ExpectedPause",
      "type": "error"
    },
    {
      "anonymous": false,
      "inputs": [
        {
          "indexed": true,
          "internalType": "address",
          "name": "owner",
          "type": "address"
        },
        {
          "indexed": true,
          "internalType": "address",
          "name": "spender",
          "type": "address"
        },
        {
          "indexed": false,
          "internalType": "uint256",
          "name": "value",
          "type": "uint256"
        }
      ],
      "name": "Approval",
      "type": "event"
    },
    {
      "anonymous": false,
      "inputs": [
        {
          "indexed": true,
          "internalType": "string",
          "name": "assetKey",
          "type": "string"
        },
        {
          "indexed": false,
          "internalType": "uint256",
          "name": "amount",
          "type": "uint256"
        }
      ],
      "name": "CollateralAdded",
      "type": "event"
    },
    {
      "anonymous": false,
      "inputs": [
        {
          "indexed": true,
          "internalType": "string",
          "name": "assetKey",
          "type": "string"
        },
        {
          "indexed": false,
          "internalType": "uint256",
          "name": "amount",
          "type": "uint256"
        }
      ],
      "name": "CollateralRemoved",
      "type": "event"
    },
    {
      "anonymous": false,
      "inputs": [
        {
          "indexed": true,
          "internalType": "string",
          "name": "assetKey",
          "type": "string"
        },
        {
          "indexed": false,
          "internalType": "uint256",
          "name": "newWeight",
          "type": "uint256"
        }
      ],
      "name": "CollateralWeightUpdated",
      "type": "event"
    },
    {
      "anonymous": false,
      "inputs": [
        {
          "indexed": true,
          "internalType": "bytes32",
          "name": "transactionHash",
          "type": "bytes32"
        },
        {
          "indexed": true,
          "internalType": "address",
          "name": "from",
          "type": "address"
        },
        {
          "indexed": true,
          "internalType": "address",
          "name": "to",
          "type": "address"
        },
        {
          "indexed": false,
          "internalType": "uint256",
          "name": "amount",
          "type": "uint256"
        }
      ],
      "name": "OfflineTransactionProcessed",
      "type": "event"
    },
    {
      "anonymous": false,
      "inputs": [
        {
          "indexed": true,
          "internalType": "bytes32",
          "name": "transactionHash",
          "type": "bytes32"
        },
        {
          "indexed": false,
          "internalType": "string",
          "name": "reason",
          "type": "string"
        }
      ],
      "name": "OfflineTransactionRejected",
      "type": "event"
    },
    {
      "anonymous": false,
      "inputs": [
        {
          "indexed": false,
          "internalType": "address",
          "name": "account",
          "type": "address"
        }
      ],
      "name": "Paused",
      "type": "event"
    },
    {
      "anonymous": false,
      "inputs": [
        {
          "indexed": true,
          "internalType": "bytes32",
          "name": "role",
          "type": "bytes32"
        },
        {
          "indexed": true,
          "internalType": "bytes32",
          "name": "previousAdminRole",
          "type": "bytes32"
        },
        {
          "indexed": true,
          "internalType": "bytes32",
          "name": "newAdminRole",
          "type": "bytes32"
        }
      ],
      "name": "RoleAdminChanged",
      "type": "event"
    },
    {
      "anonymous": false,
      "inputs": [
        {
          "indexed": true,
          "internalType": "bytes32",
          "name": "role",
          "type": "bytes32"
        },
        {
          "indexed": true,
          "internalType": "address",
          "name": "account",
          "type": "address"
        },
        {
          "indexed": true,
          "internalType": "address",
          "name": "sender",
          "type": "address"
        }
      ],
      "name": "RoleGranted",
      "type": "event"
    },
    {
      "anonymous": false,
      "inputs": [
        {
          "indexed": true,
          "internalType": "bytes32",
          "name": "role",
          "type": "bytes32"
        },
        {
          "indexed": true,
          "internalType": "address",
          "name": "account",
          "type": "address"
        },
        {
          "indexed": true,
          "internalType": "address",
          "name": "sender",
          "type": "address"
        }
      ],
      "name": "RoleRevoked",
      "type": "event"
    },
    {
      "anonymous": false,
      "inputs": [
        {
          "indexed": true,
          "internalType": "address",
          "name": "from",
          "type": "address"
        },
        {
          "indexed": true,
          "internalType": "address",
          "name": "to",
          "type": "address"
        },
        {
          "indexed": false,
          "internalType": "uint256",
          "name": "value",
          "type": "uint256"
        }
      ],
      "name": "Transfer",
      "type": "event"
    },
    {
      "anonymous": false,
      "inputs": [
        {
          "indexed": false,
          "internalType": "address",
          "name": "account",
          "type": "address"
        }
      ],
      "name": "Unpaused",
      "type": "event"
    },
    {
      "inputs": [],
      "name": "COLLATERAL_MANAGER_ROLE",
      "outputs": [
        {
          "internalType": "bytes32",
          "name": "",
          "type": "bytes32"
        }
      ],
      "stateMutability": "view",
      "type": "function"
    },
    {
      "inputs": [],
      "name": "DEFAULT_ADMIN_ROLE",
      "outputs": [
        {
          "internalType": "bytes32",
          "name": "",
          "type": "bytes32"
        }
      ],
      "stateMutability": "view",
      "type": "function"
    },
    {
      "inputs": [],
      "name": "MINTER_ROLE",
      "outputs": [
        {
          "internalType": "bytes32",
          "name": "",
          "type": "bytes32"
        }
      ],
      "stateMutability": "view",
      "type": "function"
    },
    {
      "inputs": [],
      "name": "OFFLINE_VALIDATOR_ROLE",
      "outputs": [
        {
          "internalType": "bytes32",
          "name": "",
          "type": "bytes32"
        }
      ],
      "stateMutability": "view",
      "type": "function"
    },
    {
      "inputs": [],
      "name": "PAUSER_ROLE",
      "outputs": [
        {
          "internalType": "bytes32",
          "name": "",
          "type": "bytes32"
        }
      ],
      "stateMutability": "view",
      "type": "function"
    },
    {
      "inputs": [
        {
          "internalType": "string",
          "name": "assetKey",
          "type": "string"
        },
        {
          "internalType": "address",
          "name": "tokenAddress",
          "type": "address"
        },
        {
          "internalType": "uint256",
          "name": "weight",
          "type": "uint256"
        }
      ],
      "name": "addCollateralAsset",
      "outputs": [],
      "stateMutability": "nonpayable",
      "type": "function"
    },
    {
      "inputs": [
        {
          "internalType": "address",
          "name": "owner",
          "type": "address"
        },
        {
          "internalType": "address",
          "name": "spender",
          "type": "address"
        }
      ],
      "name": "allowance",
      "outputs": [
        {
          "internalType": "uint256",
          "name": "",
          "type": "uint256"
        }
      ],
      "stateMutability": "view",
      "type": "function"
    },
    {
      "inputs": [
        {
          "internalType": "address",
          "name": "spender",
          "type": "address"
        },
        {
          "internalType": "uint256",
          "name": "value",
          "type": "uint256"
        }
      ],
      "name": "approve",
      "outputs": [
        {
          "internalType": "bool",
          "name": "",
          "type": "bool"
        }
      ],
      "stateMutability": "nonpayable",
      "type": "function"
    },
    {
      "inputs": [
        {
          "internalType": "uint256",
          "name": "",
          "type": "uint256"
        }
      ],
      "name": "assetKeys",
      "outputs": [
        {
          "internalType": "string",
          "name": "",
          "type": "string"
        }
      ],
      "stateMutability": "view",
      "type": "function"
    },
    {
      "inputs": [
        {
          "internalType": "address",
          "name": "account",
          "type": "address"
        }
      ],
      "name": "balanceOf",
      "outputs": [
        {
          "internalType": "uint256",
          "name": "",
          "type": "uint256"
        }
      ],
      "stateMutability": "view",
      "type": "function"
    },
    {
      "inputs": [
        {
          "internalType": "uint256",
          "name": "value",
          "type": "uint256"
        }
      ],
      "name": "burn",
      "outputs": [],
      "stateMutability": "nonpayable",
      "type": "function"
    },
    {
      "inputs": [
        {
          "internalType": "address",
          "name": "account",
          "type": "address"
        },
        {
          "internalType": "uint256",
          "name": "value",
          "type": "uint256"
        }
      ],
      "name": "burnFrom",
      "outputs": [],
      "stateMutability": "nonpayable",
      "type": "function"
    },
    {
      "inputs": [
        {
          "internalType": "string",
          "name": "",
          "type": "string"
        }
      ],
      "name": "collateralBasket",
      "outputs": [
        {
          "internalType": "address",
          "name": "tokenAddress",
          "type": "address"
        },
        {
          "internalType": "uint256",
          "name": "weight",
          "type": "uint256"
        },
        {
          "internalType": "uint256",
          "name": "totalAmount",
          "type": "uint256"
        },
        {
          "internalType": "bool",
          "name": "isActive",
          "type": "bool"
        }
      ],
      "stateMutability": "view",
      "type": "function"
    },
    {
      "inputs": [],
      "name": "decimals",
      "outputs": [
        {
          "internalType": "uint8",
          "name": "",
          "type": "uint8"
        }
      ],
      "stateMutability": "view",
      "type": "function"
    },
    {
      "inputs": [
        {
          "internalType": "bytes32",
          "name": "",
          "type": "bytes32"
        }
      ],
      "name": "executedOfflineTransactions",
      "outputs": [
        {
          "internalType": "bool",
          "name": "",
          "type": "bool"
        }
      ],
      "stateMutability": "view",
      "type": "function"
    },
    {
      "inputs": [],
      "name": "getCollateralAssetsCount",
      "outputs": [
        {
          "internalType": "uint256",
          "name": "",
          "type": "uint256"
        }
      ],
      "stateMutability": "view",
      "type": "function"
    },
    {
      "inputs": [
        {
          "internalType": "address",
          "name": "user",
          "type": "address"
        }
      ],
      "name": "getNextNonce",
      "outputs": [
        {
          "internalType": "uint256",
          "name": "",
          "type": "uint256"
        }
      ],
      "stateMutability": "view",
      "type": "function"
    },
    {
      "inputs": [
        {
          "internalType": "bytes32",
          "name": "role",
          "type": "bytes32"
        }
      ],
      "name": "getRoleAdmin",
      "outputs": [
        {
          "internalType": "bytes32",
          "name": "",
          "type": "bytes32"
        }
      ],
      "stateMutability": "view",
      "type": "function"
    },
    {
      "inputs": [
        {
          "internalType": "bytes32",
          "name": "role",
          "type": "bytes32"
        },
        {
          "internalType": "address",
          "name": "account",
          "type": "address"
        }
      ],
      "name": "grantRole",
      "outputs": [],
      "stateMutability": "nonpayable",
      "type": "function"
    },
    {
      "inputs": [
        {
          "internalType": "bytes32",
          "name": "role",
          "type": "bytes32"
        },
        {
          "internalType": "address",
          "name": "account",
          "type": "address"
        }
      ],
      "name": "hasRole",
      "outputs": [
        {
          "internalType": "bool",
          "name": "",
          "type": "bool"
        }
      ],
      "stateMutability": "view",
      "type": "function"
    },
    {
      "inputs": [
        {
          "internalType": "address",
          "name": "to",
          "type": "address"
        },
        {
          "internalType": "uint256",
          "name": "amount",
          "type": "uint256"
        }
      ],
      "name": "mint",
      "outputs": [],
      "stateMutability": "nonpayable",
      "type": "function"
    },
    {
      "inputs": [],
      "name": "name",
      "outputs": [
        {
          "internalType": "string",
          "name": "",
          "type": "string"
        }
      ],
      "stateMutability": "view",
      "type": "function"
    },
    {
      "inputs": [],
      "name": "pause",
      "outputs": [],
      "stateMutability": "nonpayable",
      "type": "function"
    },
    {
      "inputs": [],
      "name": "paused",
      "outputs": [
        {
          "internalType": "bool",
          "name": "",
          "type": "bool"
        }
      ],
      "stateMutability": "view",
      "type": "function"
    },
    {
      "inputs": [
        {
          "components": [
            {
              "internalType": "bytes32",
              "name": "txHash",
              "type": "bytes32"
            },
            {
              "internalType": "address",
              "name": "from",
              "type": "address"
            },
            {
              "internalType": "address",
              "name": "to",
              "type": "address"
            },
            {
              "internalType": "uint256",
              "name": "amount",
              "type": "uint256"
            },
            {
              "internalType": "uint256",
              "name": "nonce",
              "type": "uint256"
            },
            {
              "internalType": "uint256",
              "name": "timestamp",
              "type": "uint256"
            },
            {
              "internalType": "bytes",
              "name": "signature",
              "type": "bytes"
            }
          ],
          "internalType": "struct GlobePayToken.OfflineTx",
          "name": "txData",
          "type": "tuple"
        }
      ],
      "name": "processOfflineTransaction",
      "outputs": [],
      "stateMutability": "nonpayable",
      "type": "function"
    },
    {
      "inputs": [
        {
          "internalType": "bytes32",
          "name": "role",
          "type": "bytes32"
        },
        {
          "internalType": "address",
          "name": "callerConfirmation",
          "type": "address"
        }
      ],
      "name": "renounceRole",
      "outputs": [],
      "stateMutability": "nonpayable",
      "type": "function"
    },
    {
      "inputs": [
        {
          "internalType": "bytes32",
          "name": "role",
          "type": "bytes32"
        },
        {
          "internalType": "address",
          "name": "account",
          "type": "address"
        }
      ],
      "name": "revokeRole",
      "outputs": [],
      "stateMutability": "nonpayable",
      "type": "function"
    },
    {
      "inputs": [
        {
          "internalType": "bytes4",
          "name": "interfaceId",
          "type": "bytes4"
        }
      ],
      "name": "supportsInterface",
      "outputs": [
        {
          "internalType": "bool",
          "name": "",
          "type": "bool"
        }
      ],
      "stateMutability": "view",
      "type": "function"
    },
    {
      "inputs": [],
      "name": "symbol",
      "outputs": [
        {
          "internalType": "string",
          "name": "",
          "type": "string"
        }
      ],
      "stateMutability": "view",
      "type": "function"
    },
    {
      "inputs": [],
      "name": "totalSupply",
      "outputs": [
        {
          "internalType": "uint256",
          "name": "",
          "type": "uint256"
        }
      ],
      "stateMutability": "view",
      "type": "function"
    },
    {
      "inputs": [],
      "name": "totalWeight",
      "outputs": [
        {
          "internalType": "uint256",
          "name": "",
          "type": "uint256"
        }
      ],
      "stateMutability": "view",
      "type": "function"
    },
    {
      "inputs": [
        {
          "internalType": "address",
          "name": "to",
          "type": "address"
        },
        {
          "internalType": "uint256",
          "name": "value",
          "type": "uint256"
        }
      ],
      "name": "transfer",
      "outputs": [
        {
          "internalType": "bool",
          "name": "",
          "type": "bool"
        }
      ],
      "stateMutability": "nonpayable",
      "type": "function"
    },
    {
      "inputs": [
        {
          "internalType": "address",
          "name": "from",
          "type": "address"
        },
        {
          "internalType": "address",
          "name": "to",
          "type": "address"
        },
        {
          "internalType": "uint256",
          "name": "value",
          "type": "uint256"
        }
      ],
      "name": "transferFrom",
      "outputs": [
        {
          "internalType": "bool",
          "name": "",
          "type": "bool"
        }
      ],
      "stateMutability": "nonpayable",
      "type": "function"
    },
    {
      "inputs": [],
      "name": "unpause",
      "outputs": [],
      "stateMutability": "nonpayable",
      "type": "function"
    },
    {
      "inputs": [
        {
          "internalType": "string",
          "name": "assetKey",
          "type": "string"
        },
        {
          "internalType": "uint256",
          "name": "newWeight",
          "type": "uint256"
        }
      ],
      "name": "updateCollateralWeight",
      "outputs": [],
      "stateMutability": "nonpayable",
      "type": "function"
    },
    {
      "inputs": [
        {
          "internalType": "address",
          "name": "",
          "type": "address"
        }
      ],
      "name": "userNonces",
      "outputs": [
        {
          "internalType": "uint256",
          "name": "",
          "type": "uint256"
        }
      ],
      "stateMutability": "view",
      "type": "function"
    }
  ],
  "bytecode": "0x60806040523480156200001157600080fd5b506040518060400160405280601381526020017f476c6f626550617920537461626c65636f696e000000000000000000000000008152506040518060400160405280600581526020017f474c4f424500000000000000000000000000000000000000000000000000000081525081600390816200008f91906200057d565b508060049081620000a191906200057d565b505050620000b96000801b336200018c60201b60201c565b50620000ec7f9f2df0fed2c77648de5860a4cc508cd0818c85b8b8a1ab4ceeef8d981c8956a6336200018c60201b60201c565b506200011f7f65d7a28e3265b37a6474929f336521b332c1681b933f6cb9f3376673440d862a336200018c60201b60201c565b50620001527f85e8f2d6819d6b24108062d87ea08f54651bcb8960d98062d3faf96e7873b8b9336200018c60201b60201c565b50620001857f744cf4b8e8f90c89e1ac1360e9492bc7e8cb1d144d5768b7136ea592faa60a6b336200018c60201b60201c565b5062000664565b6000620001a083836200029060201b60201c565b620002855760016005600085815260200190815260200160002060000160008473ffffffffffffffffffffffffffffffffffffffff1673ffffffffffffffffffffffffffffffffffffffff16815260200190815260200160002060006101000a81548160ff02191690831515021790555062000221620002fb60201b60201c565b73ffffffffffffffffffffffffffffffffffffffff168273ffffffffffffffffffffffffffffffffffffffff16847f2f8788117e7eff1d82e926ec794901d17c78024a50270940304540a733656f0d60405160405180910390a4600190506200028a565b600090505b92915050565b60006005600084815260200190815260200160002060000160008373ffffffffffffffffffffffffffffffffffffffff1673ffffffffffffffffffffffffffffffffffffffff16815260200190815260200160002060009054906101000a900460ff16905092915050565b600033905090565b600081519050919050565b7f4e487b7100000000000000000000000000000000000000000000000000000000600052604160045260246000fd5b7f4e487b7100000000000000000000000000000000000000000000000000000000600052602260045260246000fd5b600060028204905060018216806200038557607f821691505b6020821081036200039b576200039a6200033d565b5b50919050565b60008190508160005260206000209050919050565b60006020601f8301049050919050565b600082821b905092915050565b600060088302620004057fffffffffffffffffffffffffffffffffffffffffffffffffffffffffffffffff82620003c6565b620004118683620003c6565b95508019841693508086168417925050509392505050565b6000819050919050565b6000819050919050565b60006200045e62000458620004528462000429565b62000433565b62000429565b9050919050565b6000819050919050565b6200047a836200043d565b62000492620004898262000465565b848454620003d3565b825550505050565b600090565b620004a96200049a565b620004b68184846200046f565b505050565b5b81811015620004de57620004d26000826200049f565b600181019050620004bc565b5050565b601f8211156200052d57620004f781620003a1565b6200050284620003b6565b8101602085101562000512578190505b6200052a6200052185620003b6565b830182620004bb565b50505b505050565b600082821c905092915050565b6000620005526000198460080262000532565b1980831691505092915050565b60006200056d83836200053f565b9150826002028217905092915050565b620005888262000303565b67ffffffffffffffff811115620005a457620005a36200030e565b5b620005b082546200036c565b620005bd828285620004e2565b600060209050601f831160018114620005f55760008415620005e0578287015190505b620005ec85826200055f565b8655506200065c565b601f1984166200060586620003a1565b60005b828110156200062f5784890151825560018201915060208501945060208101905062000608565b868310156200064f57848901516200064b601f8916826200053f565b8355505b6001600288020188555050505b505050505050565b6131b180620006746000396000f3fe608060405234801561001057600080fd5b506004361061021c5760003560e01c8063671a34b011610125578063a217fddf116100ad578063d547741f1161007c578063d547741f14610653578063d67ddd171461066f578063dd62ed3e1461068b578063e479d559146106bb578063e63ab1e9146106ee5761021c565b8063a217fddf146105cb578063a9059cbb146105e9578063d1dd20da14610619578063d5391393146106355761021c565b806390193b7c116100f457806390193b7c146104ff57806391d148541461052f57806395d89b411461055f57806396c82e571461057d57806399bb60851461059b5761021c565b8063671a34b01461048b57806370a08231146104a957806379cc6790146104d95780638456cb59146104f55761021c565b80632f2ff15d116101a85780633f4ba83a116101775780633f4ba83a146103fb5780633fb1fae11461040557806340c10f191461043557806342966c68146104515780635c975abb1461046d5761021c565b80632f2ff15d146103755780632f7801f414610391578063313ce567146103c157806336568abe146103df5761021c565b806318a11e71116101ef57806318a11e71146102bd5780631e5a7bd2146102d957806323b872dd146102f7578063248a9ca3146103275780632e718ab7146103575761021c565b806301ffc9a71461022157806306fdde0314610251578063095ea7b31461026f57806318160ddd1461029f575b600080fd5b61023b600480360381019061023691906120a9565b61070c565b60405161024891906120f1565b60405180910390f35b610259610786565b604051610266919061219c565b60405180910390f35b61028960048036038101906102849190612252565b610818565b60405161029691906120f1565b60405180910390f35b6102a761083b565b6040516102b491906122a1565b60405180910390f35b6102d760048036038101906102d29190612501565b610845565b005b6102e1610b05565b6040516102ee91906122a1565b60405180910390f35b610311600480360381019061030c919061254a565b610b12565b60405161031e91906120f1565b60405180910390f35b610341600480360381019061033c919061259d565b610b41565b60405161034e91906125d9565b60405180910390f35b61035f610b61565b60405161036c91906125d9565b60405180910390f35b61038f600480360381019061038a91906125f4565b610b85565b005b6103ab60048036038101906103a69190612634565b610ba7565b6040516103b891906122a1565b60405180910390f35b6103c9610bbf565b6040516103d6919061267d565b60405180910390f35b6103f960048036038101906103f491906125f4565b610bc8565b005b610403610c43565b005b61041f600480360381019061041a9190612698565b610c78565b60405161042c919061219c565b60405180910390f35b61044f600480360381019061044a9190612252565b610d24565b005b61046b60048036038101906104669190612698565b610d5d565b005b610475610d71565b60405161048291906120f1565b60405180910390f35b610493610d88565b6040516104a091906125d9565b60405180910390f35b6104c360048036038101906104be9190612634565b610dac565b6040516104d091906122a1565b60405180910390f35b6104f360048036038101906104ee9190612252565b610df4565b005b6104fd610e14565b005b61051960048036038101906105149190612634565b610e49565b60405161052691906122a1565b60405180910390f35b610549600480360381019061054491906125f4565b610e92565b60405161055691906120f1565b60405180910390f35b610567610efd565b604051610574919061219c565b60405180910390f35b610585610f8f565b60405161059291906122a1565b60405180910390f35b6105b560048036038101906105b0919061259d565b610f95565b6040516105c291906120f1565b60405180910390f35b6105d3610fb5565b6040516105e091906125d9565b60405180910390f35b61060360048036038101906105fe9190612252565b610fbc565b60405161061091906120f1565b60405180910390f35b610633600480360381019061062e9190612766565b610fdf565b005b61063d611242565b60405161064a91906125d9565b60405180910390f35b61066d600480360381019061066891906125f4565b611266565b005b610689600480360381019061068491906127d5565b611288565b005b6106a560048036038101906106a09190612831565b611429565b6040516106b291906122a1565b60405180910390f35b6106d560048036038101906106d09190612871565b6114b0565b6040516106e594939291906128c9565b60405180910390f35b6106f6611523565b60405161070391906125d9565b60405180910390f35b60007f7965db0b000000000000000000000000000000000000000000000000000000007bffffffffffffffffffffffffffffffffffffffffffffffffffffffff1916827bffffffffffffffffffffffffffffffffffffffffffffffffffffffff1916148061077f575061077e82611547565b5b9050919050565b6060600380546107959061293d565b80601f01602080910402602001604051908101604052809291908181526020018280546107c19061293d565b801561080e5780601f106107e35761010080835404028352916020019161080e565b820191906000526020600020905b8154815290600101906020018083116107f157829003601f168201915b5050505050905090565b6000806108236115b1565b90506108308185856115b9565b600191505092915050565b6000600254905090565b7f744cf4b8e8f90c89e1ac1360e9492bc7e8cb1d144d5768b7136ea592faa60a6b61086f816115cb565b600a60008360000151815260200190815260200160002060009054906101000a900460ff16156108d4576040517f08c379a00000000000000000000000000000000000000000000000000000000081526004016108cb906129ba565b60405180910390fd5b600082602001518360400151846060015185608001518660a00151604051602001610903959493929190612a43565b60405160208183030381529060405280519060200120905082600001518114610961576040517f08c379a000000000000000000000000000000000000000000000000000000000815260040161095890612aee565b60405180910390fd5b600b6000846020015173ffffffffffffffffffffffffffffffffffffffff1673ffffffffffffffffffffffffffffffffffffffff168152602001908152602001600020548360800151146109ea576040517f08c379a00000000000000000000000000000000000000000000000000000000081526004016109e190612b5a565b60405180910390fd5b610a018360200151846040015185606001516115df565b6001600a60008560000151815260200190815260200160002060006101000a81548160ff021916908315150217905550600b6000846020015173ffffffffffffffffffffffffffffffffffffffff1673ffffffffffffffffffffffffffffffffffffffff1681526020019081526020016000206000815480929190610a8590612ba9565b9190505550826040015173ffffffffffffffffffffffffffffffffffffffff16836020015173ffffffffffffffffffffffffffffffffffffffff1684600001517f2aa084801729d4b2beccbbdfa2266a93494c878a7fee69ffbcb37efd9f5abd928660600151604051610af891906122a1565b60405180910390a4505050565b6000600880549050905090565b600080610b1d6115b1565b9050610b2a8582856116d3565b610b358585856115df565b60019150509392505050565b600060056000838152602001908152602001600020600101549050919050565b7f85e8f2d6819d6b24108062d87ea08f54651bcb8960d98062d3faf96e7873b8b981565b610b8e82610b41565b610b97816115cb565b610ba18383611768565b50505050565b600b6020528060005260406000206000915090505481565b60006012905090565b610bd06115b1565b73ffffffffffffffffffffffffffffffffffffffff168173ffffffffffffffffffffffffffffffffffffffff1614610c34576040517f6697b23200000000000000000000000000000000000000000000000000000000815260040160405180910390fd5b610c3e828261185a565b505050565b7f65d7a28e3265b37a6474929f336521b332c1681b933f6cb9f3376673440d862a610c6d816115cb565b610c7561194d565b50565b60088181548110610c8857600080fd5b906000526020600020016000915090508054610ca39061293d565b80601f0160208091040260200160405190810160405280929190818152602001828054610ccf9061293d565b8015610d1c5780601f10610cf157610100808354040283529160200191610d1c565b820191906000526020600020905b815481529060010190602001808311610cff57829003601f168201915b505050505081565b7f9f2df0fed2c77648de5860a4cc508cd0818c85b8b8a1ab4ceeef8d981c8956a6610d4e816115cb565b610d5883836119b0565b505050565b610d6e610d686115b1565b82611a32565b50565b6000600660009054906101000a900460ff16905090565b7f744cf4b8e8f90c89e1ac1360e9492bc7e8cb1d144d5768b7136ea592faa60a6b81565b60008060008373ffffffffffffffffffffffffffffffffffffffff1673ffffffffffffffffffffffffffffffffffffffff168152602001908152602001600020549050919050565b610e0682610e006115b1565b836116d3565b610e108282611a32565b5050565b7f65d7a28e3265b37a6474929f336521b332c1681b933f6cb9f3376673440d862a610e3e816115cb565b610e46611ab4565b50565b6000600b60008373ffffffffffffffffffffffffffffffffffffffff1673ffffffffffffffffffffffffffffffffffffffff168152602001908152602001600020549050919050565b60006005600084815260200190815260200160002060000160008373ffffffffffffffffffffffffffffffffffffffff1673ffffffffffffffffffffffffffffffffffffffff16815260200190815260200160002060009054906101000a900460ff16905092915050565b606060048054610f0c9061293d565b80601f0160208091040260200160405190810160405280929190818152602001828054610f389061293d565b8015610f855780601f10610f5a57610100808354040283529160200191610f85565b820191906000526020600020905b815481529060010190602001808311610f6857829003601f168201915b5050505050905090565b60095481565b600a6020528060005260406000206000915054906101000a900460ff1681565b6000801b81565b600080610fc76115b1565b9050610fd48185856115df565b600191505092915050565b7f85e8f2d6819d6b24108062d87ea08f54651bcb8960d98062d3faf96e7873b8b9611009816115cb565b6007846040516110199190612c2d565b908152602001604051809103902060030160009054906101000a900460ff1615611078576040517f08c379a000000000000000000000000000000000000000000000000000000000815260040161106f90612c90565b60405180910390fd5b612710826009546110899190612cb0565b11156110ca576040517f08c379a00000000000000000000000000000000000000000000000000000000081526004016110c190612d30565b60405180910390fd5b60405180608001604052808473ffffffffffffffffffffffffffffffffffffffff16815260200183815260200160008152602001600115158152506007856040516111159190612c2d565b908152602001604051809103902060008201518160000160006101000a81548173ffffffffffffffffffffffffffffffffffffffff021916908373ffffffffffffffffffffffffffffffffffffffff160217905550602082015181600101556040820151816002015560608201518160030160006101000a81548160ff0219169083151502179055509050506008849080600181540180825580915050600190039060005260206000200160009091909190915090816111d59190612efc565b5081600960008282546111e89190612cb0565b92505081905550836040516111fd9190612c2d565b60405180910390207fc1315c83e7c2cde551296ae9f722a14e90b00c3ca21fb7a939d52350c021b3ba8360405161123491906122a1565b60405180910390a250505050565b7f9f2df0fed2c77648de5860a4cc508cd0818c85b8b8a1ab4ceeef8d981c8956a681565b61126f82610b41565b611278816115cb565b611282838361185a565b50505050565b7f85e8f2d6819d6b24108062d87ea08f54651bcb8960d98062d3faf96e7873b8b96112b2816115cb565b6007836040516112c29190612c2d565b908152602001604051809103902060030160009054906101000a900460ff16611320576040517f08c379a00000000000000000000000000000000000000000000000000000000081526004016113179061301a565b60405180910390fd5b60006007846040516113329190612c2d565b908152602001604051809103902060010154905060008382600954611357919061303a565b6113619190612cb0565b90506127108111156113a8576040517f08c379a000000000000000000000000000000000000000000000000000000000815260040161139f90612d30565b60405180910390fd5b836007866040516113b99190612c2d565b90815260200160405180910390206001018190555080600981905550846040516113e39190612c2d565b60405180910390207fc1315c83e7c2cde551296ae9f722a14e90b00c3ca21fb7a939d52350c021b3ba8560405161141a91906122a1565b60405180910390a25050505050565b6000600160008473ffffffffffffffffffffffffffffffffffffffff1673ffffffffffffffffffffffffffffffffffffffff16815260200190815260200160002060008373ffffffffffffffffffffffffffffffffffffffff1673ffffffffffffffffffffffffffffffffffffffff16815260200190815260200160002054905092915050565b6007818051602081018201805184825260208301602085012081835280955050505050506000915090508060000160009054906101000a900473ffffffffffffffffffffffffffffffffffffffff16908060010154908060020154908060030160009054906101000a900460ff16905084565b7f65d7a28e3265b37a6474929f336521b332c1681b933f6cb9f3376673440d862a81565b60007f01ffc9a7000000000000000000000000000000000000000000000000000000007bffffffffffffffffffffffffffffffffffffffffffffffffffffffff1916827bffffffffffffffffffffffffffffffffffffffffffffffffffffffff1916149050919050565b600033905090565b6115c68383836001611b17565b505050565b6115dc816115d76115b1565b611cee565b50565b600073ffffffffffffffffffffffffffffffffffffffff168373ffffffffffffffffffffffffffffffffffffffff16036116515760006040517f96c6fd1e000000000000000000000000000000000000000000000000000000008152600401611648919061306e565b60405180910390fd5b600073ffffffffffffffffffffffffffffffffffffffff168273ffffffffffffffffffffffffffffffffffffffff16036116c35760006040517fec442f050000000000000000000000000000000000000000000000000000000081526004016116ba919061306e565b60405180910390fd5b6116ce838383611d3f565b505050565b60006116df8484611429565b90507fffffffffffffffffffffffffffffffffffffffffffffffffffffffffffffffff8110156117625781811015611752578281836040517ffb8f41b200000000000000000000000000000000000000000000000000000000815260040161174993929190613089565b60405180910390fd5b61176184848484036000611b17565b5b50505050565b60006117748383610e92565b61184f5760016005600085815260200190815260200160002060000160008473ffffffffffffffffffffffffffffffffffffffff1673ffffffffffffffffffffffffffffffffffffffff16815260200190815260200160002060006101000a81548160ff0219169083151502179055506117ec6115b1565b73ffffffffffffffffffffffffffffffffffffffff168273ffffffffffffffffffffffffffffffffffffffff16847f2f8788117e7eff1d82e926ec794901d17c78024a50270940304540a733656f0d60405160405180910390a460019050611854565b600090505b92915050565b60006118668383610e92565b156119425760006005600085815260200190815260200160002060000160008473ffffffffffffffffffffffffffffffffffffffff1673ffffffffffffffffffffffffffffffffffffffff16815260200190815260200160002060006101000a81548160ff0219169083151502179055506118df6115b1565b73ffffffffffffffffffffffffffffffffffffffff168273ffffffffffffffffffffffffffffffffffffffff16847ff6391f5c32d9c69d2a47ea670b442974b53935d1edc7fd64eb21e047a839171b60405160405180910390a460019050611947565b600090505b92915050565b611955611d97565b6000600660006101000a81548160ff0219169083151502179055507f5db9ee0a495bf2e6ff9c91a7834c1ba4fdd244a5e8aa4e537bd38aeae4b073aa6119996115b1565b6040516119a6919061306e565b60405180910390a1565b600073ffffffffffffffffffffffffffffffffffffffff168273ffffffffffffffffffffffffffffffffffffffff1603611a225760006040517fec442f05000000000000000000000000000000000000000000000000000000008152600401611a19919061306e565b60405180910390fd5b611a2e60008383611d3f565b5050565b600073ffffffffffffffffffffffffffffffffffffffff168273ffffffffffffffffffffffffffffffffffffffff1603611aa45760006040517f96c6fd1e000000000000000000000000000000000000000000000000000000008152600401611a9b919061306e565b60405180910390fd5b611ab082600083611d3f565b5050565b611abc611dd7565b6001600660006101000a81548160ff0219169083151502179055507f62e78cea01bee320cd4e420270b5ea74000d11b0c9f74754ebdbfc544b05a258611b006115b1565b604051611b0d919061306e565b60405180910390a1565b600073ffffffffffffffffffffffffffffffffffffffff168473ffffffffffffffffffffffffffffffffffffffff1603611b895760006040517fe602df05000000000000000000000000000000000000000000000000000000008152600401611b80919061306e565b60405180910390fd5b600073ffffffffffffffffffffffffffffffffffffffff168373ffffffffffffffffffffffffffffffffffffffff1603611bfb5760006040517f94280d62000000000000000000000000000000000000000000000000000000008152600401611bf2919061306e565b60405180910390fd5b81600160008673ffffffffffffffffffffffffffffffffffffffff1673ffffffffffffffffffffffffffffffffffffffff16815260200190815260200160002060008573ffffffffffffffffffffffffffffffffffffffff1673ffffffffffffffffffffffffffffffffffffffff168152602001908152602001600020819055508015611ce8578273ffffffffffffffffffffffffffffffffffffffff168473ffffffffffffffffffffffffffffffffffffffff167f8c5be1e5ebec7d5bd14f71427d1e84f3dd0314c0f7b2291e5b200ac8c7c3b92584604051611cdf91906122a1565b60405180910390a35b50505050565b611cf88282610e92565b611d3b5780826040517fe2517d3f000000000000000000000000000000000000000000000000000000008152600401611d329291906130c0565b60405180910390fd5b5050565b611d47610d71565b15611d87576040517f08c379a0000000000000000000000000000000000000000000000000000000008152600401611d7e9061315b565b60405180910390fd5b611d92838383611e18565b505050565b611d9f610d71565b611dd5576040517f8dfc202b00000000000000000000000000000000000000000000000000000000815260040160405180910390fd5b565b611ddf610d71565b15611e16576040517fd93c066500000000000000000000000000000000000000000000000000000000815260040160405180910390fd5b565b600073ffffffffffffffffffffffffffffffffffffffff168373ffffffffffffffffffffffffffffffffffffffff1603611e6a578060026000828254611e5e9190612cb0565b92505081905550611f3d565b60008060008573ffffffffffffffffffffffffffffffffffffffff1673ffffffffffffffffffffffffffffffffffffffff16815260200190815260200160002054905081811015611ef6578381836040517fe450d38c000000000000000000000000000000000000000000000000000000008152600401611eed93929190613089565b60405180910390fd5b8181036000808673ffffffffffffffffffffffffffffffffffffffff1673ffffffffffffffffffffffffffffffffffffffff16815260200190815260200160002081905550505b600073ffffffffffffffffffffffffffffffffffffffff168273ffffffffffffffffffffffffffffffffffffffff1603611f865780600260008282540392505081905550611fd3565b806000808473ffffffffffffffffffffffffffffffffffffffff1673ffffffffffffffffffffffffffffffffffffffff168152602001908152602001600020600082825401925050819055505b8173ffffffffffffffffffffffffffffffffffffffff168373ffffffffffffffffffffffffffffffffffffffff167fddf252ad1be2c89b69c2b068fc378daa952ba7f163c4a11628f55a4df523b3ef8360405161203091906122a1565b60405180910390a3505050565b6000604051905090565b600080fd5b600080fd5b60007fffffffff0000000000000000000000000000000000000000000000000000000082169050919050565b61208681612051565b811461209157600080fd5b50565b6000813590506120a38161207d565b92915050565b6000602082840312156120bf576120be612047565b5b60006120cd84828501612094565b91505092915050565b60008115159050919050565b6120eb816120d6565b82525050565b600060208201905061210660008301846120e2565b92915050565b600081519050919050565b600082825260208201905092915050565b60005b8381101561214657808201518184015260208101905061212b565b60008484015250505050565b6000601f19601f8301169050919050565b600061216e8261210c565b6121788185612117565b9350612188818560208601612128565b61219181612152565b840191505092915050565b600060208201905081810360008301526121b68184612163565b905092915050565b600073ffffffffffffffffffffffffffffffffffffffff82169050919050565b60006121e9826121be565b9050919050565b6121f9816121de565b811461220457600080fd5b50565b600081359050612216816121f0565b92915050565b6000819050919050565b61222f8161221c565b811461223a57600080fd5b50565b60008135905061224c81612226565b92915050565b6000806040838503121561226957612268612047565b5b600061227785828601612207565b92505060206122888582860161223d565b9150509250929050565b61229b8161221c565b82525050565b60006020820190506122b66000830184612292565b92915050565b600080fd5b7f4e487b7100000000000000000000000000000000000000000000000000000000600052604160045260246000fd5b6122f982612152565b810181811067ffffffffffffffff82111715612318576123176122c1565b5b80604052505050565b600061232b61203d565b905061233782826122f0565b919050565b600080fd5b6000819050919050565b61235481612341565b811461235f57600080fd5b50565b6000813590506123718161234b565b92915050565b600080fd5b600080fd5b600067ffffffffffffffff82111561239c5761239b6122c1565b5b6123a582612152565b9050602081019050919050565b82818337600083830152505050565b60006123d46123cf84612381565b612321565b9050828152602081018484840111156123f0576123ef61237c565b5b6123fb8482856123b2565b509392505050565b600082601f83011261241857612417612377565b5b81356124288482602086016123c1565b91505092915050565b600060e08284031215612447576124466122bc565b5b61245160e0612321565b9050600061246184828501612362565b600083015250602061247584828501612207565b602083015250604061248984828501612207565b604083015250606061249d8482850161223d565b60608301525060806124b18482850161223d565b60808301525060a06124c58482850161223d565b60a08301525060c082013567ffffffffffffffff8111156124e9576124e861233c565b5b6124f584828501612403565b60c08301525092915050565b60006020828403121561251757612516612047565b5b600082013567ffffffffffffffff8111156125355761253461204c565b5b61254184828501612431565b91505092915050565b60008060006060848603121561256357612562612047565b5b600061257186828701612207565b935050602061258286828701612207565b92505060406125938682870161223d565b9150509250925092565b6000602082840312156125b3576125b2612047565b5b60006125c184828501612362565b91505092915050565b6125d381612341565b82525050565b60006020820190506125ee60008301846125ca565b92915050565b6000806040838503121561260b5761260a612047565b5b600061261985828601612362565b925050602061262a85828601612207565b9150509250929050565b60006020828403121561264a57612649612047565b5b600061265884828501612207565b91505092915050565b600060ff82169050919050565b61267781612661565b82525050565b6000602082019050612692600083018461266e565b92915050565b6000602082840312156126ae576126ad612047565b5b60006126bc8482850161223d565b91505092915050565b600067ffffffffffffffff8211156126e0576126df6122c1565b5b6126e982612152565b9050602081019050919050565b6000612709612704846126c5565b612321565b9050828152602081018484840111156127255761272461237c565b5b6127308482856123b2565b509392505050565b600082601f83011261274d5761274c612377565b5b813561275d8482602086016126f6565b91505092915050565b60008060006060848603121561277f5761277e612047565b5b600084013567ffffffffffffffff81111561279d5761279c61204c565b5b6127a986828701612738565b93505060206127ba86828701612207565b92505060406127cb8682870161223d565b9150509250925092565b600080604083850312156127ec576127eb612047565b5b600083013567ffffffffffffffff81111561280a5761280961204c565b5b61281685828601612738565b92505060206128278582860161223d565b9150509250929050565b6000806040838503121561284857612847612047565b5b600061285685828601612207565b925050602061286785828601612207565b9150509250929050565b60006020828403121561288757612886612047565b5b600082013567ffffffffffffffff8111156128a5576128a461204c565b5b6128b184828501612738565b91505092915050565b6128c3816121de565b82525050565b60006080820190506128de60008301876128ba565b6128eb6020830186612292565b6128f86040830185612292565b61290560608301846120e2565b95945050505050565b7f4e487b7100000000000000000000000000000000000000000000000000000000600052602260045260246000fd5b6000600282049050600182168061295557607f821691505b6020821081036129685761296761290e565b5b50919050565b7f5472616e73616374696f6e20616c72656164792070726f636573736564000000600082015250565b60006129a4601d83612117565b91506129af8261296e565b602082019050919050565b600060208201905081810360008301526129d381612997565b9050919050565b60008160601b9050919050565b60006129f2826129da565b9050919050565b6000612a04826129e7565b9050919050565b612a1c612a17826121de565b6129f9565b82525050565b6000819050919050565b612a3d612a388261221c565b612a22565b82525050565b6000612a4f8288612a0b565b601482019150612a5f8287612a0b565b601482019150612a6f8286612a2c565b602082019150612a7f8285612a2c565b602082019150612a8f8284612a2c565b6020820191508190509695505050505050565b7f496e76616c6964207472616e73616374696f6e20686173680000000000000000600082015250565b6000612ad8601883612117565b9150612ae382612aa2565b602082019050919050565b60006020820190508181036000830152612b0781612acb565b9050919050565b7f496e76616c6964206e6f6e636500000000000000000000000000000000000000600082015250565b6000612b44600d83612117565b9150612b4f82612b0e565b602082019050919050565b60006020820190508181036000830152612b7381612b37565b9050919050565b7f4e487b7100000000000000000000000000000000000000000000000000000000600052601160045260246000fd5b6000612bb48261221c565b91507fffffffffffffffffffffffffffffffffffffffffffffffffffffffffffffffff8203612be657612be5612b7a565b5b600182019050919050565b600081905092915050565b6000612c078261210c565b612c118185612bf1565b9350612c21818560208601612128565b80840191505092915050565b6000612c398284612bfc565b915081905092915050565b7f417373657420616c726561647920657869737473000000000000000000000000600082015250565b6000612c7a601483612117565b9150612c8582612c44565b602082019050919050565b60006020820190508181036000830152612ca981612c6d565b9050919050565b6000612cbb8261221c565b9150612cc68361221c565b9250828201905080821115612cde57612cdd612b7a565b5b92915050565b7f546f74616c207765696768742065786365656473203130302500000000000000600082015250565b6000612d1a601983612117565b9150612d2582612ce4565b602082019050919050565b60006020820190508181036000830152612d4981612d0d565b9050919050565b60008190508160005260206000209050919050565b60006020601f8301049050919050565b600082821b905092915050565b600060088302612db27fffffffffffffffffffffffffffffffffffffffffffffffffffffffffffffffff82612d75565b612dbc8683612d75565b95508019841693508086168417925050509392505050565b6000819050919050565b6000612df9612df4612def8461221c565b612dd4565b61221c565b9050919050565b6000819050919050565b612e1383612dde565b612e27612e1f82612e00565b848454612d82565b825550505050565b600090565b612e3c612e2f565b612e47818484612e0a565b505050565b5b81811015612e6b57612e60600082612e34565b600181019050612e4d565b5050565b601f821115612eb057612e8181612d50565b612e8a84612d65565b81016020851015612e99578190505b612ead612ea585612d65565b830182612e4c565b50505b505050565b600082821c905092915050565b6000612ed360001984600802612eb5565b1980831691505092915050565b6000612eec8383612ec2565b9150826002028217905092915050565b612f058261210c565b67ffffffffffffffff811115612f1e57612f1d6122c1565b5b612f28825461293d565b612f33828285612e6f565b600060209050601f831160018114612f665760008415612f54578287015190505b612f5e8582612ee0565b865550612fc6565b601f198416612f7486612d50565b60005b82811015612f9c57848901518255600182019150602085019450602081019050612f77565b86831015612fb95784890151612fb5601f891682612ec2565b8355505b6001600288020188555050505b505050505050565b7f417373657420646f6573206e6f74206578697374000000000000000000000000600082015250565b6000613004601483612117565b915061300f82612fce565b602082019050919050565b6000602082019050818103600083015261303381612ff7565b9050919050565b60006130458261221c565b91506130508361221c565b925082820390508181111561306857613067612b7a565b5b92915050565b600060208201905061308360008301846128ba565b92915050565b600060608201905061309e60008301866128ba565b6130ab6020830185612292565b6130b86040830184612292565b949350505050565b60006040820190506130d560008301856128ba565b6130e260208301846125ca565b9392505050565b7f45524332305061757361626c653a20746f6b656e207472616e7366657220776860008201527f696c652070617573656400000000000000000000000000000000000000000000602082015250565b6000613145602a83612117565b9150613150826130e9565b604082019050919050565b6000602082019050818103600083015261317481613138565b905091905056fea264697066735822122000e839329cf8bdc52fd75c7a5a5805bbea796f61c9f4d18f8aea888f465e7afb64736f6c63430008140033",
  "linkReferences": {},
  "deployedLinkReferences": {}
}